{
  "_format": "hh-sol-artifact-1",
  "contractName": "MockHydrationLP",
  "sourceName": "contracts/mocks/MockHydrationLP.sol",
  "abi": [
    {
      "inputs": [
        {
          "internalType": "address",
          "name": "_dotToken",
          "type": "address"
        }
      ],
      "stateMutability": "nonpayable",
      "type": "constructor"
    },
    {
      "inputs": [
        {
          "internalType": "address",
          "name": "spender",
          "type": "address"
        },
        {
          "internalType": "uint256",
          "name": "allowance",
          "type": "uint256"
        },
        {
          "internalType": "uint256",
          "name": "needed",
          "type": "uint256"
        }
      ],
      "name": "ERC20InsufficientAllowance",
      "type": "error"
    },
    {
      "inputs": [
        {
          "internalType": "address",
          "name": "sender",
          "type": "address"
        },
        {
          "internalType": "uint256",
          "name": "balance",
          "type": "uint256"
        },
        {
          "internalType": "uint256",
          "name": "needed",
          "type": "uint256"
        }
      ],
      "name": "ERC20InsufficientBalance",
      "type": "error"
    },
    {
      "inputs": [
        {
          "internalType": "address",
          "name": "approver",
          "type": "address"
        }
      ],
      "name": "ERC20InvalidApprover",
      "type": "error"
    },
    {
      "inputs": [
        {
          "internalType": "address",
          "name": "receiver",
          "type": "address"
        }
      ],
      "name": "ERC20InvalidReceiver",
      "type": "error"
    },
    {
      "inputs": [
        {
          "internalType": "address",
          "name": "sender",
          "type": "address"
        }
      ],
      "name": "ERC20InvalidSender",
      "type": "error"
    },
    {
      "inputs": [
        {
          "internalType": "address",
          "name": "spender",
          "type": "address"
        }
      ],
      "name": "ERC20InvalidSpender",
      "type": "error"
    },
    {
      "inputs": [
        {
          "internalType": "address",
          "name": "owner",
          "type": "address"
        }
      ],
      "name": "OwnableInvalidOwner",
      "type": "error"
    },
    {
      "inputs": [
        {
          "internalType": "address",
          "name": "account",
          "type": "address"
        }
      ],
      "name": "OwnableUnauthorizedAccount",
      "type": "error"
    },
    {
      "anonymous": false,
      "inputs": [
        {
          "indexed": true,
          "internalType": "address",
          "name": "owner",
          "type": "address"
        },
        {
          "indexed": true,
          "internalType": "address",
          "name": "spender",
          "type": "address"
        },
        {
          "indexed": false,
          "internalType": "uint256",
          "name": "value",
          "type": "uint256"
        }
      ],
      "name": "Approval",
      "type": "event"
    },
    {
      "anonymous": false,
      "inputs": [
        {
          "indexed": true,
          "internalType": "address",
          "name": "user",
          "type": "address"
        },
        {
          "indexed": false,
          "internalType": "uint256",
          "name": "dotAmount",
          "type": "uint256"
        },
        {
          "indexed": false,
          "internalType": "uint256",
          "name": "lpMinted",
          "type": "uint256"
        }
      ],
      "name": "Deposited",
      "type": "event"
    },
    {
      "anonymous": false,
      "inputs": [
        {
          "indexed": true,
          "internalType": "address",
          "name": "previousOwner",
          "type": "address"
        },
        {
          "indexed": true,
          "internalType": "address",
          "name": "newOwner",
          "type": "address"
        }
      ],
      "name": "OwnershipTransferred",
      "type": "event"
    },
    {
      "anonymous": false,
      "inputs": [
        {
          "indexed": true,
          "internalType": "address",
          "name": "from",
          "type": "address"
        },
        {
          "indexed": true,
          "internalType": "address",
          "name": "to",
          "type": "address"
        },
        {
          "indexed": false,
          "internalType": "uint256",
          "name": "value",
          "type": "uint256"
        }
      ],
      "name": "Transfer",
      "type": "event"
    },
    {
      "anonymous": false,
      "inputs": [
        {
          "indexed": true,
          "internalType": "address",
          "name": "user",
          "type": "address"
        },
        {
          "indexed": false,
          "internalType": "uint256",
          "name": "lpBurned",
          "type": "uint256"
        },
        {
          "indexed": false,
          "internalType": "uint256",
          "name": "dotReturned",
          "type": "uint256"
        }
      ],
      "name": "Withdrawn",
      "type": "event"
    },
    {
      "inputs": [],
      "name": "EXCHANGE_RATE",
      "outputs": [
        {
          "internalType": "uint256",
          "name": "",
          "type": "uint256"
        }
      ],
      "stateMutability": "view",
      "type": "function"
    },
    {
      "inputs": [
        {
          "internalType": "uint256",
          "name": "dotAmount",
          "type": "uint256"
        }
      ],
      "name": "addLiquidity",
      "outputs": [
        {
          "internalType": "uint256",
          "name": "lpMinted",
          "type": "uint256"
        }
      ],
      "stateMutability": "nonpayable",
      "type": "function"
    },
    {
      "inputs": [
        {
          "internalType": "address",
          "name": "owner",
          "type": "address"
        },
        {
          "internalType": "address",
          "name": "spender",
          "type": "address"
        }
      ],
      "name": "allowance",
      "outputs": [
        {
          "internalType": "uint256",
          "name": "",
          "type": "uint256"
        }
      ],
      "stateMutability": "view",
      "type": "function"
    },
    {
      "inputs": [
        {
          "internalType": "address",
          "name": "spender",
          "type": "address"
        },
        {
          "internalType": "uint256",
          "name": "value",
          "type": "uint256"
        }
      ],
      "name": "approve",
      "outputs": [
        {
          "internalType": "bool",
          "name": "",
          "type": "bool"
        }
      ],
      "stateMutability": "nonpayable",
      "type": "function"
    },
    {
      "inputs": [
        {
          "internalType": "address",
          "name": "account",
          "type": "address"
        }
      ],
      "name": "balanceOf",
      "outputs": [
        {
          "internalType": "uint256",
          "name": "",
          "type": "uint256"
        }
      ],
      "stateMutability": "view",
      "type": "function"
    },
    {
      "inputs": [],
      "name": "decimals",
      "outputs": [
        {
          "internalType": "uint8",
          "name": "",
          "type": "uint8"
        }
      ],
      "stateMutability": "view",
      "type": "function"
    },
    {
      "inputs": [],
      "name": "dotToken",
      "outputs": [
        {
          "internalType": "address",
          "name": "",
          "type": "address"
        }
      ],
      "stateMutability": "view",
      "type": "function"
    },
    {
      "inputs": [
        {
          "internalType": "uint256",
          "name": "lpAmount",
          "type": "uint256"
        }
      ],
      "name": "getAmountOut",
      "outputs": [
        {
          "internalType": "uint256",
          "name": "",
          "type": "uint256"
        }
      ],
      "stateMutability": "pure",
      "type": "function"
    },
    {
      "inputs": [],
      "name": "name",
      "outputs": [
        {
          "internalType": "string",
          "name": "",
          "type": "string"
        }
      ],
      "stateMutability": "view",
      "type": "function"
    },
    {
      "inputs": [],
      "name": "owner",
      "outputs": [
        {
          "internalType": "address",
          "name": "",
          "type": "address"
        }
      ],
      "stateMutability": "view",
      "type": "function"
    },
    {
      "inputs": [
        {
          "internalType": "uint256",
          "name": "lpAmount",
          "type": "uint256"
        }
      ],
      "name": "removeLiquidity",
      "outputs": [
        {
          "internalType": "uint256",
          "name": "dotReturned",
          "type": "uint256"
        }
      ],
      "stateMutability": "nonpayable",
      "type": "function"
    },
    {
      "inputs": [],
      "name": "renounceOwnership",
      "outputs": [],
      "stateMutability": "nonpayable",
      "type": "function"
    },
    {
      "inputs": [],
      "name": "symbol",
      "outputs": [
        {
          "internalType": "string",
          "name": "",
          "type": "string"
        }
      ],
      "stateMutability": "view",
      "type": "function"
    },
    {
      "inputs": [],
      "name": "totalSupply",
      "outputs": [
        {
          "internalType": "uint256",
          "name": "",
          "type": "uint256"
        }
      ],
      "stateMutability": "view",
      "type": "function"
    },
    {
      "inputs": [
        {
          "internalType": "address",
          "name": "to",
          "type": "address"
        },
        {
          "internalType": "uint256",
          "name": "value",
          "type": "uint256"
        }
      ],
      "name": "transfer",
      "outputs": [
        {
          "internalType": "bool",
          "name": "",
          "type": "bool"
        }
      ],
      "stateMutability": "nonpayable",
      "type": "function"
    },
    {
      "inputs": [
        {
          "internalType": "address",
          "name": "from",
          "type": "address"
        },
        {
          "internalType": "address",
          "name": "to",
          "type": "address"
        },
        {
          "internalType": "uint256",
          "name": "value",
          "type": "uint256"
        }
      ],
      "name": "transferFrom",
      "outputs": [
        {
          "internalType": "bool",
          "name": "",
          "type": "bool"
        }
      ],
      "stateMutability": "nonpayable",
      "type": "function"
    },
    {
      "inputs": [
        {
          "internalType": "address",
          "name": "newOwner",
          "type": "address"
        }
      ],
      "name": "transferOwnership",
      "outputs": [],
      "stateMutability": "nonpayable",
      "type": "function"
    }
  ],
  "bytecode": "0x60a06040523480156200001157600080fd5b5060405162002070380380620020708339818101604052810190620000379190620002bc565b336040518060400160405280601081526020017f487964726174696f6e20444f54204c50000000000000000000000000000000008152506040518060400160405280600681526020017f687964444f5400000000000000000000000000000000000000000000000000008152508160039081620000b5919062000568565b508060049081620000c7919062000568565b505050600073ffffffffffffffffffffffffffffffffffffffff168173ffffffffffffffffffffffffffffffffffffffff16036200013f5760006040517f1e4fbdf700000000000000000000000000000000000000000000000000000000815260040162000136919062000660565b60405180910390fd5b62000150816200018c60201b60201c565b508073ffffffffffffffffffffffffffffffffffffffff1660808173ffffffffffffffffffffffffffffffffffffffff1681525050506200067d565b6000600560009054906101000a900473ffffffffffffffffffffffffffffffffffffffff16905081600560006101000a81548173ffffffffffffffffffffffffffffffffffffffff021916908373ffffffffffffffffffffffffffffffffffffffff1602179055508173ffffffffffffffffffffffffffffffffffffffff168173ffffffffffffffffffffffffffffffffffffffff167f8be0079c531659141344cd1fd0a4f28419497f9722a3daafe3b4186f6b6457e060405160405180910390a35050565b600080fd5b600073ffffffffffffffffffffffffffffffffffffffff82169050919050565b6000620002848262000257565b9050919050565b620002968162000277565b8114620002a257600080fd5b50565b600081519050620002b6816200028b565b92915050565b600060208284031215620002d557620002d462000252565b5b6000620002e584828501620002a5565b91505092915050565b600081519050919050565b7f4e487b7100000000000000000000000000000000000000000000000000000000600052604160045260246000fd5b7f4e487b7100000000000000000000000000000000000000000000000000000000600052602260045260246000fd5b600060028204905060018216806200037057607f821691505b60208210810362000386576200038562000328565b5b50919050565b60008190508160005260206000209050919050565b60006020601f8301049050919050565b600082821b905092915050565b600060088302620003f07fffffffffffffffffffffffffffffffffffffffffffffffffffffffffffffffff82620003b1565b620003fc8683620003b1565b95508019841693508086168417925050509392505050565b6000819050919050565b6000819050919050565b600062000449620004436200043d8462000414565b6200041e565b62000414565b9050919050565b6000819050919050565b620004658362000428565b6200047d620004748262000450565b848454620003be565b825550505050565b600090565b6200049462000485565b620004a18184846200045a565b505050565b5b81811015620004c957620004bd6000826200048a565b600181019050620004a7565b5050565b601f8211156200051857620004e2816200038c565b620004ed84620003a1565b81016020851015620004fd578190505b620005156200050c85620003a1565b830182620004a6565b50505b505050565b600082821c905092915050565b60006200053d600019846008026200051d565b1980831691505092915050565b60006200055883836200052a565b9150826002028217905092915050565b6200057382620002ee565b67ffffffffffffffff8111156200058f576200058e620002f9565b5b6200059b825462000357565b620005a8828285620004cd565b600060209050601f831160018114620005e05760008415620005cb578287015190505b620005d785826200054a565b86555062000647565b601f198416620005f0866200038c565b60005b828110156200061a57848901518255600182019150602085019450602081019050620005f3565b868310156200063a578489015162000636601f8916826200052a565b8355505b6001600288020188555050505b505050505050565b6200065a8162000277565b82525050565b60006020820190506200067760008301846200064f565b92915050565b6080516119c9620006a76000396000818161043f015281816104ef015261081a01526119c96000f3fe608060405234801561001057600080fd5b506004361061010b5760003560e01c80635c195217116100a257806395d89b411161007157806395d89b41146102be5780639c8f9f23146102dc578063a9059cbb1461030c578063dd62ed3e1461033c578063f2fde38b1461036c5761010b565b80635c1952171461023657806370a0823114610266578063715018a6146102965780638da5cb5b146102a05761010b565b806318160ddd116100de57806318160ddd1461019a57806323b872dd146101b8578063313ce567146101e857806351c6590a146102065761010b565b806306fdde0314610110578063095ea7b31461012e57806313205d2f1461015e57806314a8bd0d1461017c575b600080fd5b610118610388565b60405161012591906112bc565b60405180910390f35b61014860048036038101906101439190611377565b61041a565b60405161015591906113d2565b60405180910390f35b61016661043d565b60405161017391906113fc565b60405180910390f35b610184610461565b6040516101919190611426565b60405180910390f35b6101a2610467565b6040516101af9190611426565b60405180910390f35b6101d260048036038101906101cd9190611441565b610471565b6040516101df91906113d2565b60405180910390f35b6101f06104a0565b6040516101fd91906114b0565b60405180910390f35b610220600480360381019061021b91906114cb565b6104a9565b60405161022d9190611426565b60405180910390f35b610250600480360381019061024b91906114cb565b6105fd565b60405161025d9190611426565b60405180910390f35b610280600480360381019061027b91906114f8565b610614565b60405161028d9190611426565b60405180910390f35b61029e61065c565b005b6102a8610670565b6040516102b591906113fc565b60405180910390f35b6102c661069a565b6040516102d391906112bc565b60405180910390f35b6102f660048036038101906102f191906114cb565b61072c565b6040516103039190611426565b60405180910390f35b61032660048036038101906103219190611377565b61090c565b60405161033391906113d2565b60405180910390f35b61035660048036038101906103519190611525565b61092f565b6040516103639190611426565b60405180910390f35b610386600480360381019061038191906114f8565b6109b6565b005b60606003805461039790611594565b80601f01602080910402602001604051908101604052809291908181526020018280546103c390611594565b80156104105780601f106103e557610100808354040283529160200191610410565b820191906000526020600020905b8154815290600101906020018083116103f357829003601f168201915b5050505050905090565b600080610425610a3c565b9050610432818585610a44565b600191505092915050565b7f000000000000000000000000000000000000000000000000000000000000000081565b6103e881565b6000600254905090565b60008061047c610a3c565b9050610489858285610a56565b610494858585610aeb565b60019150509392505050565b60006012905090565b60008082116104ed576040517f08c379a00000000000000000000000000000000000000000000000000000000081526004016104e490611611565b60405180910390fd5b7f000000000000000000000000000000000000000000000000000000000000000073ffffffffffffffffffffffffffffffffffffffff166323b872dd3330856040518463ffffffff1660e01b815260040161054a93929190611631565b6020604051808303816000875af1158015610569573d6000803e3d6000fd5b505050506040513d601f19601f8201168201806040525081019061058d9190611694565b506103e88261059c91906116f0565b90506105a83382610bdf565b3373ffffffffffffffffffffffffffffffffffffffff167f73a19dd210f1a7f902193214c0ee91dd35ee5b4d920cba8d519eca65a7b488ca83836040516105f0929190611732565b60405180910390a2919050565b60006103e88261060d919061178a565b9050919050565b60008060008373ffffffffffffffffffffffffffffffffffffffff1673ffffffffffffffffffffffffffffffffffffffff168152602001908152602001600020549050919050565b610664610c61565b61066e6000610ce8565b565b6000600560009054906101000a900473ffffffffffffffffffffffffffffffffffffffff16905090565b6060600480546106a990611594565b80601f01602080910402602001604051908101604052809291908181526020018280546106d590611594565b80156107225780601f106106f757610100808354040283529160200191610722565b820191906000526020600020905b81548152906001019060200180831161070557829003601f168201915b5050505050905090565b6000808211610770576040517f08c379a000000000000000000000000000000000000000000000000000000000815260040161076790611807565b60405180910390fd5b8161077a33610614565b10156107bb576040517f08c379a00000000000000000000000000000000000000000000000000000000081526004016107b290611873565b60405180910390fd5b6103e8826107c9919061178a565b90506000811161080e576040517f08c379a0000000000000000000000000000000000000000000000000000000008152600401610805906118df565b60405180910390fd5b6108183383610dae565b7f000000000000000000000000000000000000000000000000000000000000000073ffffffffffffffffffffffffffffffffffffffff1663a9059cbb33836040518363ffffffff1660e01b81526004016108739291906118ff565b6020604051808303816000875af1158015610892573d6000803e3d6000fd5b505050506040513d601f19601f820116820180604052508101906108b69190611694565b503373ffffffffffffffffffffffffffffffffffffffff167f92ccf450a286a957af52509bc1c9939d1a6a481783e142e41e2499f0bb66ebc683836040516108ff929190611732565b60405180910390a2919050565b600080610917610a3c565b9050610924818585610aeb565b600191505092915050565b6000600160008473ffffffffffffffffffffffffffffffffffffffff1673ffffffffffffffffffffffffffffffffffffffff16815260200190815260200160002060008373ffffffffffffffffffffffffffffffffffffffff1673ffffffffffffffffffffffffffffffffffffffff16815260200190815260200160002054905092915050565b6109be610c61565b600073ffffffffffffffffffffffffffffffffffffffff168173ffffffffffffffffffffffffffffffffffffffff1603610a305760006040517f1e4fbdf7000000000000000000000000000000000000000000000000000000008152600401610a2791906113fc565b60405180910390fd5b610a3981610ce8565b50565b600033905090565b610a518383836001610e30565b505050565b6000610a62848461092f565b90507fffffffffffffffffffffffffffffffffffffffffffffffffffffffffffffffff811015610ae55781811015610ad5578281836040517ffb8f41b2000000000000000000000000000000000000000000000000000000008152600401610acc93929190611928565b60405180910390fd5b610ae484848484036000610e30565b5b50505050565b600073ffffffffffffffffffffffffffffffffffffffff168373ffffffffffffffffffffffffffffffffffffffff1603610b5d5760006040517f96c6fd1e000000000000000000000000000000000000000000000000000000008152600401610b5491906113fc565b60405180910390fd5b600073ffffffffffffffffffffffffffffffffffffffff168273ffffffffffffffffffffffffffffffffffffffff1603610bcf5760006040517fec442f05000000000000000000000000000000000000000000000000000000008152600401610bc691906113fc565b60405180910390fd5b610bda838383611007565b505050565b600073ffffffffffffffffffffffffffffffffffffffff168273ffffffffffffffffffffffffffffffffffffffff1603610c515760006040517fec442f05000000000000000000000000000000000000000000000000000000008152600401610c4891906113fc565b60405180910390fd5b610c5d60008383611007565b5050565b610c69610a3c565b73ffffffffffffffffffffffffffffffffffffffff16610c87610670565b73ffffffffffffffffffffffffffffffffffffffff1614610ce657610caa610a3c565b6040517f118cdaa7000000000000000000000000000000000000000000000000000000008152600401610cdd91906113fc565b60405180910390fd5b565b6000600560009054906101000a900473ffffffffffffffffffffffffffffffffffffffff16905081600560006101000a81548173ffffffffffffffffffffffffffffffffffffffff021916908373ffffffffffffffffffffffffffffffffffffffff1602179055508173ffffffffffffffffffffffffffffffffffffffff168173ffffffffffffffffffffffffffffffffffffffff167f8be0079c531659141344cd1fd0a4f28419497f9722a3daafe3b4186f6b6457e060405160405180910390a35050565b600073ffffffffffffffffffffffffffffffffffffffff168273ffffffffffffffffffffffffffffffffffffffff1603610e205760006040517f96c6fd1e000000000000000000000000000000000000000000000000000000008152600401610e1791906113fc565b60405180910390fd5b610e2c82600083611007565b5050565b600073ffffffffffffffffffffffffffffffffffffffff168473ffffffffffffffffffffffffffffffffffffffff1603610ea25760006040517fe602df05000000000000000000000000000000000000000000000000000000008152600401610e9991906113fc565b60405180910390fd5b600073ffffffffffffffffffffffffffffffffffffffff168373ffffffffffffffffffffffffffffffffffffffff1603610f145760006040517f94280d62000000000000000000000000000000000000000000000000000000008152600401610f0b91906113fc565b60405180910390fd5b81600160008673ffffffffffffffffffffffffffffffffffffffff1673ffffffffffffffffffffffffffffffffffffffff16815260200190815260200160002060008573ffffffffffffffffffffffffffffffffffffffff1673ffffffffffffffffffffffffffffffffffffffff168152602001908152602001600020819055508015611001578273ffffffffffffffffffffffffffffffffffffffff168473ffffffffffffffffffffffffffffffffffffffff167f8c5be1e5ebec7d5bd14f71427d1e84f3dd0314c0f7b2291e5b200ac8c7c3b92584604051610ff89190611426565b60405180910390a35b50505050565b600073ffffffffffffffffffffffffffffffffffffffff168373ffffffffffffffffffffffffffffffffffffffff160361105957806002600082825461104d919061195f565b9250508190555061112c565b60008060008573ffffffffffffffffffffffffffffffffffffffff1673ffffffffffffffffffffffffffffffffffffffff168152602001908152602001600020549050818110156110e5578381836040517fe450d38c0000000000000000000000000000000000000000000000000000000081526004016110dc93929190611928565b60405180910390fd5b8181036000808673ffffffffffffffffffffffffffffffffffffffff1673ffffffffffffffffffffffffffffffffffffffff16815260200190815260200160002081905550505b600073ffffffffffffffffffffffffffffffffffffffff168273ffffffffffffffffffffffffffffffffffffffff160361117557806002600082825403925050819055506111c2565b806000808473ffffffffffffffffffffffffffffffffffffffff1673ffffffffffffffffffffffffffffffffffffffff168152602001908152602001600020600082825401925050819055505b8173ffffffffffffffffffffffffffffffffffffffff168373ffffffffffffffffffffffffffffffffffffffff167fddf252ad1be2c89b69c2b068fc378daa952ba7f163c4a11628f55a4df523b3ef8360405161121f9190611426565b60405180910390a3505050565b600081519050919050565b600082825260208201905092915050565b60005b8381101561126657808201518184015260208101905061124b565b60008484015250505050565b6000601f19601f8301169050919050565b600061128e8261122c565b6112988185611237565b93506112a8818560208601611248565b6112b181611272565b840191505092915050565b600060208201905081810360008301526112d68184611283565b905092915050565b600080fd5b600073ffffffffffffffffffffffffffffffffffffffff82169050919050565b600061130e826112e3565b9050919050565b61131e81611303565b811461132957600080fd5b50565b60008135905061133b81611315565b92915050565b6000819050919050565b61135481611341565b811461135f57600080fd5b50565b6000813590506113718161134b565b92915050565b6000806040838503121561138e5761138d6112de565b5b600061139c8582860161132c565b92505060206113ad85828601611362565b9150509250929050565b60008115159050919050565b6113cc816113b7565b82525050565b60006020820190506113e760008301846113c3565b92915050565b6113f681611303565b82525050565b600060208201905061141160008301846113ed565b92915050565b61142081611341565b82525050565b600060208201905061143b6000830184611417565b92915050565b60008060006060848603121561145a576114596112de565b5b60006114688682870161132c565b93505060206114798682870161132c565b925050604061148a86828701611362565b9150509250925092565b600060ff82169050919050565b6114aa81611494565b82525050565b60006020820190506114c560008301846114a1565b92915050565b6000602082840312156114e1576114e06112de565b5b60006114ef84828501611362565b91505092915050565b60006020828403121561150e5761150d6112de565b5b600061151c8482850161132c565b91505092915050565b6000806040838503121561153c5761153b6112de565b5b600061154a8582860161132c565b925050602061155b8582860161132c565b9150509250929050565b7f4e487b7100000000000000000000000000000000000000000000000000000000600052602260045260246000fd5b600060028204905060018216806115ac57607f821691505b6020821081036115bf576115be611565565b5b50919050565b7f4d757374206465706f73697420444f5400000000000000000000000000000000600082015250565b60006115fb601083611237565b9150611606826115c5565b602082019050919050565b6000602082019050818103600083015261162a816115ee565b9050919050565b600060608201905061164660008301866113ed565b61165360208301856113ed565b6116606040830184611417565b949350505050565b611671816113b7565b811461167c57600080fd5b50565b60008151905061168e81611668565b92915050565b6000602082840312156116aa576116a96112de565b5b60006116b88482850161167f565b91505092915050565b7f4e487b7100000000000000000000000000000000000000000000000000000000600052601160045260246000fd5b60006116fb82611341565b915061170683611341565b925082820261171481611341565b9150828204841483151761172b5761172a6116c1565b5b5092915050565b60006040820190506117476000830185611417565b6117546020830184611417565b9392505050565b7f4e487b7100000000000000000000000000000000000000000000000000000000600052601260045260246000fd5b600061179582611341565b91506117a083611341565b9250826117b0576117af61175b565b5b828204905092915050565b7f4d757374206275726e204c500000000000000000000000000000000000000000600082015250565b60006117f1600c83611237565b91506117fc826117bb565b602082019050919050565b60006020820190508181036000830152611820816117e4565b9050919050565b7f496e73756666696369656e74204c500000000000000000000000000000000000600082015250565b600061185d600f83611237565b915061186882611827565b602082019050919050565b6000602082019050818103600083015261188c81611850565b9050919050565b7f416d6f756e7420746f6f20736d616c6c00000000000000000000000000000000600082015250565b60006118c9601083611237565b91506118d482611893565b602082019050919050565b600060208201905081810360008301526118f8816118bc565b9050919050565b600060408201905061191460008301856113ed565b6119216020830184611417565b9392505050565b600060608201905061193d60008301866113ed565b61194a6020830185611417565b6119576040830184611417565b949350505050565b600061196a82611341565b915061197583611341565b925082820190508082111561198d5761198c6116c1565b5b9291505056fea2646970667358221220ea36ea2468abe290f97417a7acc3e5310030605cd209a4a6e527052a5317675f64736f6c63430008140033",
  "linkReferences": {},
  "deployedLinkReferences": {}
}