{
  "_format": "hh-sol-artifact-1",
  "contractName": "MockPVMEngine",
  "sourceName": "contracts/mocks/MockPVMEngine.sol",
  "abi": [
    {
      "inputs": [],
      "name": "MAX_WEIGHT_BPS",
      "outputs": [
        {
          "internalType": "uint256",
          "name": "",
          "type": "uint256"
        }
      ],
      "stateMutability": "view",
      "type": "function"
    },
    {
      "inputs": [],
      "name": "MIN_WEIGHT_BPS",
      "outputs": [
        {
          "internalType": "uint256",
          "name": "",
          "type": "uint256"
        }
      ],
      "stateMutability": "view",
      "type": "function"
    },
    {
      "inputs": [
        {
          "internalType": "bytes",
          "name": "input",
          "type": "bytes"
        }
      ],
      "name": "optimizeAllocation",
      "outputs": [
        {
          "internalType": "bytes",
          "name": "",
          "type": "bytes"
        }
      ],
      "stateMutability": "pure",
      "type": "function"
    },
    {
      "inputs": [
        {
          "internalType": "bytes",
          "name": "input",
          "type": "bytes"
        }
      ],
      "name": "rebalanceBasket",
      "outputs": [
        {
          "internalType": "bytes",
          "name": "",
          "type": "bytes"
        }
      ],
      "stateMutability": "pure",
      "type": "function"
    },
    {
      "inputs": [
        {
          "internalType": "bytes",
          "name": "input",
          "type": "bytes"
        }
      ],
      "name": "riskAdjustedYield",
      "outputs": [
        {
          "internalType": "bytes",
          "name": "",
          "type": "bytes"
        }
      ],
      "stateMutability": "pure",
      "type": "function"
    }
  ],
  "bytecode": "0x608060405234801561001057600080fd5b50611901806100206000396000f3fe608060405234801561001057600080fd5b50600436106100575760003560e01c806303acaa991461005c57806314eff2ec1461007a5780633cbe5ec1146100aa5780637f26cdb4146100c8578063f84a2730146100f8575b600080fd5b610064610128565b6040516100719190611563565b60405180910390f35b610094600480360381019061008f91906115ed565b61012e565b6040516100a191906116ca565b60405180910390f35b6100b26107ab565b6040516100bf9190611563565b60405180910390f35b6100e260048036038101906100dd91906115ed565b6107b1565b6040516100ef91906116ca565b60405180910390f35b610112600480360381019061010d91906115ed565b6110cc565b60405161011f91906116ca565b60405180910390f35b61138881565b60606006838390501015610153576040518060200160405280600081525090506107a5565b600061017b8484600081811061016c5761016b6116ec565b5b9050013560f81c60f81b61153a565b90506000600260048361018e919061174a565b600461019a919061178c565b6101a4919061178c565b9050808585905010156101ca5760405180602001604052806000815250925050506107a5565b60008267ffffffffffffffff8111156101e6576101e56117c0565b5b6040519080825280602002602001820160405280156102145781602001602082028036833780820191505090505b50905060008367ffffffffffffffff811115610233576102326117c0565b5b6040519080825280602002602001820160405280156102615781602001602082028036833780820191505090505b50905060005b8481101561032c5760086102ba89896001600286610285919061174a565b6004610291919061178c565b61029b919061178c565b8181106102ab576102aa6116ec565b5b9050013560f81c60f81b61153a565b901b6102f989896002856102ce919061174a565b60046102da919061178c565b8181106102ea576102e96116ec565b5b9050013560f81c60f81b61153a565b1783828151811061030d5761030c6116ec565b5b6020026020010181815250508080610324906117ef565b915050610267565b5060005b8481101561042357600861039a8989600160028661034e919061174a565b60028b61035b919061174a565b6004610367919061178c565b610371919061178c565b61037b919061178c565b81811061038b5761038a6116ec565b5b9050013560f81c60f81b61153a565b901b6103f089896002856103ae919061174a565b60028a6103bb919061174a565b60046103c7919061178c565b6103d1919061178c565b8181106103e1576103e06116ec565b5b9050013560f81c60f81b61153a565b17828281518110610404576104036116ec565b5b602002602001018181525050808061041b906117ef565b915050610330565b50600060086104718989600160048a61043c919061174a565b6004610448919061178c565b610452919061178c565b818110610462576104616116ec565b5b9050013560f81c60f81b61153a565b901b6104b08989600489610485919061174a565b6004610491919061178c565b8181106104a1576104a06116ec565b5b9050013560f81c60f81b61153a565b1790506000805b868110156105aa5760008482815181106104d4576104d36116ec565b5b60200260200101518683815181106104ef576104ee6116ec565b5b6020026020010151116105415785828151811061050f5761050e6116ec565b5b602002602001015185838151811061052a576105296116ec565b5b602002602001015161053c9190611837565b610582565b848281518110610554576105536116ec565b5b602002602001015186838151811061056f5761056e6116ec565b5b60200260200101516105819190611837565b5b9050838111156105965760019250506105aa565b5080806105a2906117ef565b9150506104b7565b5060006002876105ba919061174a565b60016105c6919061178c565b67ffffffffffffffff8111156105df576105de6117c0565b5b6040519080825280601f01601f1916602001820160405280156106115781602001600182028036833780820191505090505b50905081610620576000610623565b60015b60f81b8160008151811061063a576106396116ec565b5b60200101907effffffffffffffffffffffffffffffffffffffffffffffffffffffffffffff1916908160001a9053506000826106765785610678565b845b905060005b8881101561079857818181518110610698576106976116ec565b5b602002602001015160f81b836002836106b1919061174a565b60016106bd919061178c565b815181106106ce576106cd6116ec565b5b60200101907effffffffffffffffffffffffffffffffffffffffffffffffffffffffffffff1916908160001a9053506008828281518110610712576107116116ec565b5b6020026020010151901c60f81b83600160028461072f919061174a565b600161073b919061178c565b610745919061178c565b81518110610756576107556116ec565b5b60200101907effffffffffffffffffffffffffffffffffffffffffffffffffffffffffffff1916908160001a9053508080610790906117ef565b91505061067d565b5081985050505050505050505b92915050565b6103e881565b606060048383905010156107d6576040518060200160405280600081525090506110c6565b60006107fe848460008181106107ef576107ee6116ec565b5b9050013560f81c60f81b61153a565b905060088161080d919061174a565b6004610819919061178c565b84849050101561083b57604051806020016040528060008152509150506110c6565b60008167ffffffffffffffff811115610857576108566117c0565b5b6040519080825280602002602001820160405280156108855781602001602082028036833780820191505090505b50905060008267ffffffffffffffff8111156108a4576108a36117c0565b5b6040519080825280602002602001820160405280156108d25781602001602082028036833780820191505090505b50905060005b83811015610a3957601861092b888860036004866108f6919061174a565b6004610902919061178c565b61090c919061178c565b81811061091c5761091b6116ec565b5b9050013560f81c60f81b61153a565b901b601061097889896002600487610943919061174a565b600461094f919061178c565b610959919061178c565b818110610969576109686116ec565b5b9050013560f81c60f81b61153a565b901b60086109c58a8a6001600488610990919061174a565b600461099c919061178c565b6109a6919061178c565b8181106109b6576109b56116ec565b5b9050013560f81c60f81b61153a565b901b610a048a8a6004876109d9919061174a565b60046109e5919061178c565b8181106109f5576109f46116ec565b5b9050013560f81c60f81b61153a565b171717838281518110610a1a57610a196116ec565b5b6020026020010181815250508080610a31906117ef565b9150506108d8565b5060005b83811015610bfa576018610aa788886003600486610a5b919061174a565b60048a610a68919061174a565b6004610a74919061178c565b610a7e919061178c565b610a88919061178c565b818110610a9857610a976116ec565b5b9050013560f81c60f81b61153a565b901b6010610b0b89896002600487610abf919061174a565b60048b610acc919061174a565b6004610ad8919061178c565b610ae2919061178c565b610aec919061178c565b818110610afc57610afb6116ec565b5b9050013560f81c60f81b61153a565b901b6008610b6f8a8a6001600488610b23919061174a565b60048c610b30919061174a565b6004610b3c919061178c565b610b46919061178c565b610b50919061178c565b818110610b6057610b5f6116ec565b5b9050013560f81c60f81b61153a565b901b610bc58a8a600487610b83919061174a565b60048b610b90919061174a565b6004610b9c919061178c565b610ba6919061178c565b818110610bb657610bb56116ec565b5b9050013560f81c60f81b61153a565b171717828281518110610bdb57610bda6116ec565b5b6020026020010181815250508080610bf2906117ef565b915050610a3d565b5060008367ffffffffffffffff811115610c1757610c166117c0565b5b604051908082528060200260200182016040528015610c455781602001602082028036833780820191505090505b50905060005b84811015610ce5576000838281518110610c6857610c676116ec565b5b6020026020010151612710610c7d919061178c565b905080612710868481518110610c9657610c956116ec565b5b6020026020010151610ca8919061174a565b610cb2919061189a565b838381518110610cc557610cc46116ec565b5b602002602001018181525050508080610cdd906117ef565b915050610c4b565b506000600885610cf5919061174a565b67ffffffffffffffff811115610d0e57610d0d6117c0565b5b6040519080825280601f01601f191660200182016040528015610d405781602001600182028036833780820191505090505b50905060005b858110156110bc57600060f81b82600883610d61919061174a565b81518110610d7257610d716116ec565b5b60200101907effffffffffffffffffffffffffffffffffffffffffffffffffffffffffffff1916908160001a905350600060f81b826001600884610db6919061174a565b610dc0919061178c565b81518110610dd157610dd06116ec565b5b60200101907effffffffffffffffffffffffffffffffffffffffffffffffffffffffffffff1916908160001a905350600060f81b826002600884610e15919061174a565b610e1f919061178c565b81518110610e3057610e2f6116ec565b5b60200101907effffffffffffffffffffffffffffffffffffffffffffffffffffffffffffff1916908160001a9053508060f81b826003600884610e73919061174a565b610e7d919061178c565b81518110610e8e57610e8d6116ec565b5b60200101907effffffffffffffffffffffffffffffffffffffffffffffffffffffffffffff1916908160001a905350828181518110610ed057610ecf6116ec565b5b602002602001015160f81b826004600884610eeb919061174a565b610ef5919061178c565b81518110610f0657610f056116ec565b5b60200101907effffffffffffffffffffffffffffffffffffffffffffffffffffffffffffff1916908160001a9053506008838281518110610f4a57610f496116ec565b5b6020026020010151901c60f81b826005600884610f67919061174a565b610f71919061178c565b81518110610f8257610f816116ec565b5b60200101907effffffffffffffffffffffffffffffffffffffffffffffffffffffffffffff1916908160001a9053506010838281518110610fc657610fc56116ec565b5b6020026020010151901c60f81b826006600884610fe3919061174a565b610fed919061178c565b81518110610ffe57610ffd6116ec565b5b60200101907effffffffffffffffffffffffffffffffffffffffffffffffffffffffffffff1916908160001a9053506018838281518110611042576110416116ec565b5b6020026020010151901c60f81b82600760088461105f919061174a565b611069919061178c565b8151811061107a576110796116ec565b5b60200101907effffffffffffffffffffffffffffffffffffffffffffffffffffffffffffff1916908160001a90535080806110b4906117ef565b915050610d46565b5080955050505050505b92915050565b606060048383905010156110f157604051806020016040528060008152509050611534565b60006111198484600081811061110a576111096116ec565b5b9050013560f81c60f81b61153a565b905060008167ffffffffffffffff811115611137576111366117c0565b5b6040519080825280602002602001820160405280156111655781602001602082028036833780820191505090505b50905060005b828110156111bf5760c881611180919061174a565b61032061118d919061178c565b8282815181106111a05761119f6116ec565b5b60200260200101818152505080806111b7906117ef565b91505061116b565b506000805b83811015611207578281815181106111df576111de6116ec565b5b6020026020010151826111f2919061178c565b915080806111ff906117ef565b9150506111c4565b506000810361122a57604051806020016040528060008152509350505050611534565b60008367ffffffffffffffff811115611246576112456117c0565b5b6040519080825280602002602001820160405280156112745781602001602082028036833780820191505090505b50905060005b848110156113115760008361271086848151811061129b5761129a6116ec565b5b60200260200101516112ad919061174a565b6112b7919061189a565b905061138881116112da576103e881106112d157806112d5565b6103e85b6112de565b6113885b8383815181106112f1576112f06116ec565b5b602002602001018181525050508080611309906117ef565b91505061127a565b506000805b8581101561135957828181518110611331576113306116ec565b5b602002602001015182611344919061178c565b91508080611351906117ef565b915050611316565b50612710811415801561136c5750600085115b156113c6578061271061137f9190611837565b82600081518110611393576113926116ec565b5b60200260200101516113a5919061178c565b826000815181106113b9576113b86116ec565b5b6020026020010181815250505b60006002866113d5919061174a565b67ffffffffffffffff8111156113ee576113ed6117c0565b5b6040519080825280601f01601f1916602001820160405280156114205781602001600182028036833780820191505090505b50905060005b8681101561152957838181518110611441576114406116ec565b5b602002602001015160f81b8260028361145a919061174a565b8151811061146b5761146a6116ec565b5b60200101907effffffffffffffffffffffffffffffffffffffffffffffffffffffffffffff1916908160001a90535060088482815181106114af576114ae6116ec565b5b6020026020010151901c60f81b8260016002846114cc919061174a565b6114d6919061178c565b815181106114e7576114e66116ec565b5b60200101907effffffffffffffffffffffffffffffffffffffffffffffffffffffffffffff1916908160001a9053508080611521906117ef565b915050611426565b508096505050505050505b92915050565b60008160f81c60ff169050919050565b6000819050919050565b61155d8161154a565b82525050565b60006020820190506115786000830184611554565b92915050565b600080fd5b600080fd5b600080fd5b600080fd5b600080fd5b60008083601f8401126115ad576115ac611588565b5b8235905067ffffffffffffffff8111156115ca576115c961158d565b5b6020830191508360018202830111156115e6576115e5611592565b5b9250929050565b600080602083850312156116045761160361157e565b5b600083013567ffffffffffffffff81111561162257611621611583565b5b61162e85828601611597565b92509250509250929050565b600081519050919050565b600082825260208201905092915050565b60005b83811015611674578082015181840152602081019050611659565b60008484015250505050565b6000601f19601f8301169050919050565b600061169c8261163a565b6116a68185611645565b93506116b6818560208601611656565b6116bf81611680565b840191505092915050565b600060208201905081810360008301526116e48184611691565b905092915050565b7f4e487b7100000000000000000000000000000000000000000000000000000000600052603260045260246000fd5b7f4e487b7100000000000000000000000000000000000000000000000000000000600052601160045260246000fd5b60006117558261154a565b91506117608361154a565b925082820261176e8161154a565b915082820484148315176117855761178461171b565b5b5092915050565b60006117978261154a565b91506117a28361154a565b92508282019050808211156117ba576117b961171b565b5b92915050565b7f4e487b7100000000000000000000000000000000000000000000000000000000600052604160045260246000fd5b60006117fa8261154a565b91507fffffffffffffffffffffffffffffffffffffffffffffffffffffffffffffffff820361182c5761182b61171b565b5b600182019050919050565b60006118428261154a565b915061184d8361154a565b92508282039050818111156118655761186461171b565b5b92915050565b7f4e487b7100000000000000000000000000000000000000000000000000000000600052601260045260246000fd5b60006118a58261154a565b91506118b08361154a565b9250826118c0576118bf61186b565b5b82820490509291505056fea2646970667358221220bc60eb32fab5014c5878bdcff83806ba23a9353bf60ed10e8d47d5cb20324a5d64736f6c63430008140033",
  "linkReferences": {},
  "deployedLinkReferences": {}
}