{"abi":[{"type":"function","name":"run","inputs":[],"outputs":[],"stateMutability":"nonpayable"}],"bytecode":{"object":"0x608060405234801561000f575f80fd5b506103fe8061001d5f395ff3fe608060405234801561000f575f80fd5b5060043610610029575f3560e01c8063c04062261461002d575b5f80fd5b610035610037565b005b604080516003808252608082019092525f91816020015b6040805160a0810182525f8082526020808301829052928201526060808201819052608082015282525f1990920191018161004e5750506040805160a0810182526107f281525f602080830182905261138883850152835180820185528281526060840152835190810190935280835260808201929092528251929350918391906100db576100db610254565b60200260200101819052506040518060a001604052806107d463ffffffff1681526020015f6001600160a01b03168152602001610bb861ffff16815260200160405180602001604052805f815250815260200160405180602001604052805f8152508152508160018151811061015357610153610254565b60200260200101819052506040518060a001604052806107d063ffffffff1681526020015f6001600160a01b031681526020016107d061ffff16815260200160405180602001604052805f815250815260200160405180602001604052805f815250815250816002815181106101cb576101cb610254565b602090810291909101015260405163af4d612f60e01b81527360c1676d4f8cadb4ac7818d6c8d537b5c3f9bbc590819063af4d612f9061020f9085906004016102ab565b6020604051808303815f875af115801561022b573d5f803e3d5ffd5b505050506040513d601f19601f8201168201806040525081019061024f91906103b1565b505050565b634e487b7160e01b5f52603260045260245ffd5b5f81518084525f5b8181101561028c57602081850181015186830182015201610270565b505f602082860101526020601f19601f83011685010191505092915050565b5f60608083526102d2818401600881526778444f542d4c495160c01b602082015260400190565b6020848203818601526102fa82600881526778444f542d4c495160c01b602082015260400190565b91506040858303818701528287518085528385019150838160051b860101848a015f5b838110156103a157878303601f190185528151805163ffffffff168452878101516001600160a01b0316888501528681015161ffff16878501528981015160a08b86018190529061037082870182610268565b9150506080808301519250858203818701525061038d8183610268565b96890196945050509086019060010161031d565b50909a9950505050505050505050565b5f602082840312156103c1575f80fd5b505191905056fea26469706673582212207fc75025016972dde4c4cb2134479eb23ac2f68cc8290d962f14c7add90263cc64736f6c63430008140033","linkReferences":{}},"methodIdentifiers":{"run()":"c0406226"},"id":0}