{"abi":[{"type":"constructor","inputs":[],"stateMutability":"nonpayable"},{"type":"function","name":"baskets","inputs":[{"name":"","type":"uint256","internalType":"uint256"}],"outputs":[{"name":"id","type":"uint256","internalType":"uint256"},{"name":"name","type":"string","internalType":"string"},{"name":"token","type":"address","internalType":"address"},{"name":"totalDeposited","type":"uint256","internalType":"uint256"},{"name":"active","type":"bool","internalType":"bool"}],"stateMutability":"view"},{"type":"function","name":"createBasket","inputs":[{"name":"name","type":"string","internalType":"string"},{"name":"symbol","type":"string","internalType":"string"},{"name":"allocations","type":"tuple[]","internalType":"struct BasketManager.AllocationConfig[]","components":[{"name":"paraId","type":"uint32","internalType":"uint32"},{"name":"protocol","type":"address","internalType":"address"},{"name":"weightBps","type":"uint16","internalType":"uint16"},{"name":"depositCall","type":"bytes","internalType":"bytes"},{"name":"withdrawCall","type":"bytes","internalType":"bytes"}]}],"outputs":[{"name":"basketId","type":"uint256","internalType":"uint256"}],"stateMutability":"nonpayable"},{"type":"function","name":"deposit","inputs":[{"name":"basketId","type":"uint256","internalType":"uint256"}],"outputs":[{"name":"tokensMinted","type":"uint256","internalType":"uint256"}],"stateMutability":"payable"},{"type":"function","name":"getBasket","inputs":[{"name":"basketId","type":"uint256","internalType":"uint256"}],"outputs":[{"name":"","type":"tuple","internalType":"struct BasketManager.Basket","components":[{"name":"id","type":"uint256","internalType":"uint256"},{"name":"name","type":"string","internalType":"string"},{"name":"token","type":"address","internalType":"address"},{"name":"allocations","type":"tuple[]","internalType":"struct BasketManager.AllocationConfig[]","components":[{"name":"paraId","type":"uint32","internalType":"uint32"},{"name":"protocol","type":"address","internalType":"address"},{"name":"weightBps","type":"uint16","internalType":"uint16"},{"name":"depositCall","type":"bytes","internalType":"bytes"},{"name":"withdrawCall","type":"bytes","internalType":"bytes"}]},{"name":"totalDeposited","type":"uint256","internalType":"uint256"},{"name":"active","type":"bool","internalType":"bool"}]}],"stateMutability":"view"},{"type":"function","name":"getBasketNAV","inputs":[{"name":"basketId","type":"uint256","internalType":"uint256"}],"outputs":[{"name":"","type":"uint256","internalType":"uint256"}],"stateMutability":"view"},{"type":"function","name":"nextBasketId","inputs":[],"outputs":[{"name":"","type":"uint256","internalType":"uint256"}],"stateMutability":"view"},{"type":"function","name":"owner","inputs":[],"outputs":[{"name":"","type":"address","internalType":"address"}],"stateMutability":"view"},{"type":"function","name":"pvmEngine","inputs":[],"outputs":[{"name":"","type":"address","internalType":"address"}],"stateMutability":"view"},{"type":"function","name":"rebalance","inputs":[{"name":"basketId","type":"uint256","internalType":"uint256"}],"outputs":[],"stateMutability":"nonpayable"},{"type":"function","name":"rebalanceThresholdBps","inputs":[],"outputs":[{"name":"","type":"uint16","internalType":"uint16"}],"stateMutability":"view"},{"type":"function","name":"setPVMEngine","inputs":[{"name":"engine","type":"address","internalType":"address"}],"outputs":[],"stateMutability":"nonpayable"},{"type":"function","name":"setXCMEnabled","inputs":[{"name":"enabled","type":"bool","internalType":"bool"}],"outputs":[],"stateMutability":"nonpayable"},{"type":"function","name":"setXCMPrecompile","inputs":[{"name":"precompile","type":"address","internalType":"address"}],"outputs":[],"stateMutability":"nonpayable"},{"type":"function","name":"userPositions","inputs":[{"name":"","type":"address","internalType":"address"},{"name":"","type":"uint256","internalType":"uint256"}],"outputs":[{"name":"basketId","type":"uint256","internalType":"uint256"},{"name":"tokenBalance","type":"uint256","internalType":"uint256"},{"name":"depositedAt","type":"uint256","internalType":"uint256"}],"stateMutability":"view"},{"type":"function","name":"withdraw","inputs":[{"name":"basketId","type":"uint256","internalType":"uint256"},{"name":"tokenAmount","type":"uint256","internalType":"uint256"}],"outputs":[],"stateMutability":"nonpayable"},{"type":"function","name":"xcmEnabled","inputs":[],"outputs":[{"name":"","type":"bool","internalType":"bool"}],"stateMutability":"view"},{"type":"function","name":"xcmPrecompile","inputs":[],"outputs":[{"name":"","type":"address","internalType":"address"}],"stateMutability":"view"},{"type":"event","name":"BasketCreated","inputs":[{"name":"basketId","type":"uint256","indexed":true,"internalType":"uint256"},{"name":"name","type":"string","indexed":false,"internalType":"string"},{"name":"token","type":"address","indexed":false,"internalType":"address"}],"anonymous":false},{"type":"event","name":"DeploymentDispatched","inputs":[{"name":"basketId","type":"uint256","indexed":true,"internalType":"uint256"},{"name":"paraId","type":"uint32","indexed":false,"internalType":"uint32"},{"name":"amount","type":"uint256","indexed":false,"internalType":"uint256"}],"anonymous":false},{"type":"event","name":"DeploymentFailed","inputs":[{"name":"basketId","type":"uint256","indexed":true,"internalType":"uint256"},{"name":"paraId","type":"uint32","indexed":false,"internalType":"uint32"},{"name":"amount","type":"uint256","indexed":false,"internalType":"uint256"},{"name":"reason","type":"string","indexed":false,"internalType":"string"}],"anonymous":false},{"type":"event","name":"Deposited","inputs":[{"name":"basketId","type":"uint256","indexed":true,"internalType":"uint256"},{"name":"user","type":"address","indexed":true,"internalType":"address"},{"name":"amount","type":"uint256","indexed":false,"internalType":"uint256"},{"name":"tokensMinted","type":"uint256","indexed":false,"internalType":"uint256"}],"anonymous":false},{"type":"event","name":"PVMEngineUpdated","inputs":[{"name":"engine","type":"address","indexed":false,"internalType":"address"}],"anonymous":false},{"type":"event","name":"Rebalanced","inputs":[{"name":"basketId","type":"uint256","indexed":true,"internalType":"uint256"},{"name":"timestamp","type":"uint256","indexed":false,"internalType":"uint256"}],"anonymous":false},{"type":"event","name":"Withdrawn","inputs":[{"name":"basketId","type":"uint256","indexed":true,"internalType":"uint256"},{"name":"user","type":"address","indexed":true,"internalType":"address"},{"name":"tokensBurned","type":"uint256","indexed":false,"internalType":"uint256"},{"name":"amountOut","type":"uint256","indexed":false,"internalType":"uint256"}],"anonymous":false},{"type":"event","name":"XCMPrecompileUpdated","inputs":[{"name":"precompile","type":"address","indexed":false,"internalType":"address"}],"anonymous":false},{"type":"event","name":"XCMStatusChanged","inputs":[{"name":"enabled","type":"bool","indexed":false,"internalType":"bool"}],"anonymous":false}],"bytecode":{"object":"0x6080604052600380546001600160a01b031990811661080017909155600480549091166109001790556005805461201960a31b62ffffff60a01b1990911617905534801561004b575f80fd5b50600580546001600160a01b031916331790556135098061006b5f395ff3fe6080604052600436106200010f575f3560e01c806390f59079116200009e578063af4d612f116200006a578063af4d612f1462000348578063b6b55f25146200036c578063e1507ec21462000383578063ee0fd79814620003a7578063f499301814620003cb575f80fd5b806390f5907914620002b6578063a268093714620002d7578063a60ed37414620002fb578063a76005281462000332575f80fd5b80635ec3f04e11620000de5780635ec3f04e14620001ee57806377977d5014620002215780638da5cb5b1462000254578063903746b91462000275575f80fd5b80631021764e14620001135780634000001a1462000151578063441a3e7014620001885780635e1b4d9914620001ae575b5f80fd5b3480156200011f575f80fd5b5060035462000134906001600160a01b031681565b6040516001600160a01b0390911681526020015b60405180910390f35b3480156200015d575f80fd5b506005546200017490600160a01b900461ffff1681565b60405161ffff909116815260200162000148565b34801562000194575f80fd5b50620001ac620001a636600462001cdd565b620003ef565b005b348015620001ba575f80fd5b50620001d2620001cc36600462001d16565b6200097a565b6040805193845260208401929092529082015260600162000148565b348015620001fa575f80fd5b506005546200021090600160b01b900460ff1681565b604051901515815260200162000148565b3480156200022d575f80fd5b50620002456200023f36600462001d43565b620009b9565b60405162000148919062001dac565b34801562000260575f80fd5b5060055462000134906001600160a01b031681565b34801562000281575f80fd5b50620002a76200029336600462001d43565b5f9081526001602052604090206004015490565b60405190815260200162000148565b348015620002c2575f80fd5b5060045462000134906001600160a01b031681565b348015620002e3575f80fd5b50620001ac620002f536600462001ec4565b62000cae565b34801562000307575f80fd5b506200031f6200031936600462001d43565b62000d34565b6040516200014895949392919062001ee5565b3480156200033e575f80fd5b50620002a75f5481565b34801562000354575f80fd5b50620002a76200036636600462001f6f565b62000dfe565b620002a76200037d36600462001d43565b62000f9e565b3480156200038f575f80fd5b50620001ac620003a136600462002039565b620010e6565b348015620003b3575f80fd5b50620001ac620003c536600462002039565b620011ab565b348015620003d7575f80fd5b50620001ac620003e936600462001d43565b62001273565b5f828152600160205260409020600581015460ff166200042c5760405162461bcd60e51b8152600401620004239062002057565b60405180910390fd5b5f8211620004715760405162461bcd60e51b815260206004820152601160248201527004d757374207769746864726177203e203607c1b604482015260640162000423565b6002810154604080516318160ddd60e01b815290516001600160a01b03909216915f9183916318160ddd916004808201926020929091908290030181865afa158015620004c0573d5f803e3d5ffd5b505050506040513d601f19601f82011682018060405250810190620004e6919062002082565b90505f81116200052b5760405162461bcd60e51b815260206004820152600f60248201526e4e6f20746f6b656e20737570706c7960881b604482015260640162000423565b5f818585600401546200053f9190620020ae565b6200054b9190620020c8565b604051632770a7eb60e21b8152336004820152602481018790529091506001600160a01b03841690639dc29fac906044015f604051808303815f87803b15801562000594575f80fd5b505af1158015620005a7573d5f803e3d5ffd5b505050505f5b60038501548110156200086e575f612710866003018381548110620005d657620005d6620020e8565b5f918252602090912060039091020154620005fd90600160c01b900461ffff1685620020ae565b620006099190620020c8565b90505f620007b8876003018481548110620006285762000628620020e8565b5f9182526020918290206040805160a081018252600393909302909101805463ffffffff8116845264010000000081046001600160a01b031694840194909452600160c01b90930461ffff16908201526001820180549192916060840191906200069290620020fc565b80601f0160208091040260200160405190810160405280929190818152602001828054620006c090620020fc565b80156200070f5780601f10620006e5576101008083540402835291602001916200070f565b820191905f5260205f20905b815481529060010190602001808311620006f157829003601f168201915b505050505081526020016002820180546200072a90620020fc565b80601f01602080910402602001604051908101604052809291908181526020018280546200075890620020fc565b8015620007a75780601f106200077d57610100808354040283529160200191620007a7565b820191905f5260205f20905b8154815290600101906020018083116200078957829003601f168201915b5050505050815250508333620014eb565b9050806200085657887fed21e79921f361289f658defd542daf27748d63bfc4e5db793f0a4a8bfac64e0886003018581548110620007fa57620007fa620020e8565b5f91825260209182902060039190910201546040805163ffffffff90921682529181018690526060818301819052601390820152721610d3481dda5d1a191c985dc819985a5b1959606a1b608082015290519081900360a00190a25b50508080620008659062002136565b915050620005ad565b508360040154811062000887575f6004850155620008a2565b80846004015f8282546200089c919062002151565b90915550505b6040515f90339083908381818185875af1925050503d805f8114620008e3576040519150601f19603f3d011682016040523d82523d5f602084013e620008e8565b606091505b5050905080620009345760405162461bcd60e51b815260206004820152601660248201527513985d1a5d99481d1c985b9cd9995c8819985a5b195960521b604482015260640162000423565b6040805187815260208101849052339189917f1c84cc0f96161bdafea718a9094dd21c21d1fb2f9ca2ebb9bd4e39918efbaace910160405180910390a350505050505050565b6002602052815f5260405f20818154811062000994575f80fd5b5f91825260209091206003909102018054600182015460029092015490935090915083565b620009fa6040518060c001604052805f8152602001606081526020015f6001600160a01b03168152602001606081526020015f81526020015f151581525090565b5f82815260016020818152604092839020835160c081019094528054845291820180549184019162000a2c90620020fc565b80601f016020809104026020016040519081016040528092919081815260200182805462000a5a90620020fc565b801562000aa95780601f1062000a7f5761010080835404028352916020019162000aa9565b820191905f5260205f20905b81548152906001019060200180831162000a8b57829003601f168201915b505050918352505060028201546001600160a01b031660208083019190915260038301805460408051828502810185018252828152940193925f9084015b8282101562000c86575f8481526020908190206040805160a08101825260038602909201805463ffffffff8116845264010000000081046001600160a01b031694840194909452600160c01b90930461ffff169082015260018201805491929160608401919062000b5890620020fc565b80601f016020809104026020016040519081016040528092919081815260200182805462000b8690620020fc565b801562000bd55780601f1062000bab5761010080835404028352916020019162000bd5565b820191905f5260205f20905b81548152906001019060200180831162000bb757829003601f168201915b5050505050815260200160028201805462000bf090620020fc565b80601f016020809104026020016040519081016040528092919081815260200182805462000c1e90620020fc565b801562000c6d5780601f1062000c435761010080835404028352916020019162000c6d565b820191905f5260205f20905b81548152906001019060200180831162000c4f57829003601f168201915b5050505050815250508152602001906001019062000ae7565b505050908252506004820154602082015260059091015460ff16151560409091015292915050565b6005546001600160a01b0316331462000cdb5760405162461bcd60e51b8152600401620004239062002167565b60058054821515600160b01b0260ff60b01b199091161790556040517fcc9c18530568d73ea36630b00060b4bd92f7bfe4d5b850b40ffbcb64f91266869062000d2990831515815260200190565b60405180910390a150565b600160208190525f91825260409091208054918101805462000d5690620020fc565b80601f016020809104026020016040519081016040528092919081815260200182805462000d8490620020fc565b801562000dd35780601f1062000da95761010080835404028352916020019162000dd3565b820191905f5260205f20905b81548152906001019060200180831162000db557829003601f168201915b505050506002830154600484015460059094015492936001600160a01b039091169290915060ff1685565b6005545f906001600160a01b0316331462000e2d5760405162461bcd60e51b8152600401620004239062002167565b62000e39838362001614565b5f8054908062000e498362002136565b9190505590505f878787873060405162000e639062001ccf565b62000e73959493929190620021b2565b604051809103905ff08015801562000e8d573d5f803e3d5ffd5b505f838152600160208190526040909120848155919250810162000eb3898b836200225c565b506002810180546001600160a01b0319166001600160a01b03841617905560058101805460ff191660011790555f5b8481101562000f53578160030186868381811062000f045762000f04620020e8565b905060200281019062000f18919062002325565b81546001810183555f928352602090922090916003020162000f3b82826200239a565b5050808062000f4a9062002136565b91505062000ee2565b50827f829f34ae8184bf5738e5e995441f1e5d7ccbb07fe323b0d01d850c3dfa08182b8a8a8560405162000f8a9392919062002464565b60405180910390a250509695505050505050565b5f818152600160205260408120600581015460ff1662000fd25760405162461bcd60e51b8152600401620004239062002057565b5f3411620010165760405162461bcd60e51b815260206004820152601060248201526f04d757374206465706f736974203e20360841b604482015260640162000423565b60028101546040516340c10f1960e01b8152336004820152346024820181905293506001600160a01b03909116906340c10f19906044015f604051808303815f87803b15801562001065575f80fd5b505af115801562001078573d5f803e3d5ffd5b5050505034816004015f82825462001091919062002491565b90915550620010a390508334620016dc565b6040805134815260208101849052339185917fad5b4075b97dbf75ad5c78f7afac948e4ae611c4fdf2825e2ce3c6c96925bf3b910160405180910390a350919050565b6005546001600160a01b03163314620011135760405162461bcd60e51b8152600401620004239062002167565b6001600160a01b0381166200115c5760405162461bcd60e51b815260206004820152600e60248201526d496e76616c696420656e67696e6560901b604482015260640162000423565b600480546001600160a01b0319166001600160a01b0383169081179091556040519081527f16627a8e73aa1ce3b1159d8bec92dd193220522edeefa1c1b91a8f7620f5b92c9060200162000d29565b6005546001600160a01b03163314620011d85760405162461bcd60e51b8152600401620004239062002167565b6001600160a01b038116620012255760405162461bcd60e51b8152602060048201526012602482015271496e76616c696420707265636f6d70696c6560701b604482015260640162000423565b600380546001600160a01b0319166001600160a01b0383169081179091556040519081527e71673f51b931458d449ab7624c45aa051a5337d7483fc981a15832c6a23b419060200162000d29565b5f818152600160205260409020600581015460ff16620012a75760405162461bcd60e51b8152600401620004239062002057565b6004546001600160a01b03163b15620014ac575f620012c682620019bd565b6004546040519192505f9182916001600160a01b03169063053bfcbb60e21b90620012f6908690602401620024a7565b60408051601f198184030181529181526020820180516001600160e01b03166001600160e01b0319909416939093179092529051620013369190620024bb565b5f60405180830381855afa9150503d805f811462001370576040519150601f19603f3d011682016040523d82523d5f602084013e62001375565b606091505b50915091508115620014a8575f81806020019051810190620013989190620024e0565b90505f5b600386015481108015620013b05750815181105b15620014a557600560149054906101000a900461ffff1661ffff1662001427876003018381548110620013e757620013e7620020e8565b905f5260205f2090600302015f0160189054906101000a900461ffff16848481518110620014195762001419620020e8565b602002602001015162001b73565b61ffff1611156200149057818181518110620014475762001447620020e8565b6020026020010151866003018281548110620014675762001467620020e8565b905f5260205f2090600302015f0160186101000a81548161ffff021916908361ffff1602179055505b806200149c8162002136565b9150506200139c565b50505b5050505b817fc257294ad49c215e1a248c91a86bc2612b4781d9677285cc9c14498f485ef12242604051620014df91815260200190565b60405180910390a25050565b6005545f90600160b01b900460ff166200150757505f6200160d565b6003546001600160a01b03163b5f036200152357505f6200160d565b5f845f015184866080015185604051602001620015449493929190620025ae565b60408051601f198184030181529082905260035487519193505f926001600160a01b0390911691636b206fc760e01b916200158591908690602401620025ed565b60408051601f198184030181529181526020820180516001600160e01b03166001600160e01b0319909416939093179092529051620015c59190620024bb565b5f604051808303815f865af19150503d805f811462001600576040519150601f19603f3d011682016040523d82523d5f602084013e62001605565b606091505b509093505050505b9392505050565b5f805b828110156200168357838382818110620016355762001635620020e8565b905060200281019062001649919062002325565b6200165c90606081019060400162002615565b6200166c9061ffff168362002491565b9150806200167a8162002136565b91505062001617565b508061271014620016d75760405162461bcd60e51b815260206004820152601d60248201527f57656967687473206d7573742073756d20746f20313030303020627073000000604482015260640162000423565b505050565b5f828152600160205260408120905b6003820154811015620019b7575f826003018281548110620017115762001711620020e8565b5f9182526020918290206040805160a081018252600393909302909101805463ffffffff8116845264010000000081046001600160a01b031694840194909452600160c01b90930461ffff16908201526001820180549192916060840191906200177b90620020fc565b80601f0160208091040260200160405190810160405280929190818152602001828054620017a990620020fc565b8015620017f85780601f10620017ce57610100808354040283529160200191620017f8565b820191905f5260205f20905b815481529060010190602001808311620017da57829003601f168201915b505050505081526020016002820180546200181390620020fc565b80601f01602080910402602001604051908101604052809291908181526020018280546200184190620020fc565b8015620018905780601f10620018665761010080835404028352916020019162001890565b820191905f5260205f20905b8154815290600101906020018083116200187257829003601f168201915b50505050508152505090505f612710826040015161ffff1686620018b59190620020ae565b620018c19190620020c8565b90505f620018d0838362001bab565b90508015620019235782516040805163ffffffff90921682526020820184905288917f2a714abd697b83e14df66ce02bcadcab42e9d2305e12d5abf7b61656dfa689eb910160405180910390a26200199e565b82516040805163ffffffff9092168252602082018490526060908201819052601e908201527f58434d20756e617661696c61626c65206f722063616c6c206661696c65640000608082015287907fed21e79921f361289f658defd542daf27748d63bfc4e5db793f0a4a8bfac64e09060a00160405180910390a25b5050508080620019ae9062002136565b915050620016eb565b50505050565b60038101546060905f9067ffffffffffffffff811115620019e257620019e2620021f7565b60405190808252806020026020018201604052801562001a0c578160200160208202803683370190505b5060038401549091505f9067ffffffffffffffff81111562001a325762001a32620021f7565b60405190808252806020026020018201604052801562001a5c578160200160208202803683370190505b5090505f5b600385015481101562001b405784600301818154811062001a865762001a86620020e8565b905f5260205f2090600302015f0160189054906101000a900461ffff1683828151811062001ab85762001ab8620020e8565b602002602001019061ffff16908161ffff168152505084600301818154811062001ae65762001ae6620020e8565b5f918252602090912060039091020154825163ffffffff9091169083908390811062001b165762001b16620020e8565b63ffffffff909216602092830291909101909101528062001b378162002136565b91505062001a61565b50600484015460405162001b5b918491849060200162002633565b60405160208183030381529060405292505050919050565b5f8161ffff168361ffff161162001b965762001b908383620026c2565b62001ba2565b62001ba28284620026c2565b90505b92915050565b6005545f90600160b01b900460ff1662001bc757505f62001ba5565b6003546001600160a01b03163b5f0362001be357505f62001ba5565b5f835f015183856060015160405160200162001c0293929190620026e7565b60408051601f198184030181529082905260035486519193505f926001600160a01b0390911691636b206fc760e01b9162001c4391908690602401620025ed565b60408051601f198184030181529181526020820180516001600160e01b03166001600160e01b031990941693909317909252905162001c839190620024bb565b5f604051808303815f865af19150503d805f811462001cbe576040519150601f19603f3d011682016040523d82523d5f602084013e62001cc3565b606091505b50909695505050505050565b610dbd806200271783390190565b5f806040838503121562001cef575f80fd5b50508035926020909101359150565b6001600160a01b038116811462001d13575f80fd5b50565b5f806040838503121562001d28575f80fd5b823562001d358162001cfe565b946020939093013593505050565b5f6020828403121562001d54575f80fd5b5035919050565b5f5b8381101562001d7757818101518382015260200162001d5d565b50505f910152565b5f815180845262001d9881602086016020860162001d5b565b601f01601f19169290920160200192915050565b5f602080835283518184015280840151604060c08186015262001dd360e086018362001d7f565b915080860151606060018060a01b0380831682890152818901519250601f196080818a880301818b01528685518089528989019150898160051b8a01018a880197505f5b8281101562001e9357858b8303018452885160a063ffffffff8251168452888e830151168e85015261ffff8c830151168c85015289820151818b86015262001e628286018262001d7f565b9150508682015191508381038785015262001e7e818362001d7f565b9a8e019a958e01959350505060010162001e17565b50838e015160a08e015260a08e01519a5062001eb360c08e018c15159052565b9d9c50505050505050505050505050565b5f6020828403121562001ed5575f80fd5b813580151581146200160d575f80fd5b85815260a060208201525f62001eff60a083018762001d7f565b6001600160a01b03959095166040830152506060810192909252151560809091015292915050565b5f8083601f84011262001f38575f80fd5b50813567ffffffffffffffff81111562001f50575f80fd5b60208301915083602082850101111562001f68575f80fd5b9250929050565b5f805f805f806060878903121562001f85575f80fd5b863567ffffffffffffffff8082111562001f9d575f80fd5b62001fab8a838b0162001f27565b9098509650602089013591508082111562001fc4575f80fd5b62001fd28a838b0162001f27565b9096509450604089013591508082111562001feb575f80fd5b818901915089601f83011262001fff575f80fd5b8135818111156200200e575f80fd5b8a60208260051b850101111562002023575f80fd5b6020830194508093505050509295509295509295565b5f602082840312156200204a575f80fd5b81356200160d8162001cfe565b6020808252601190820152704261736b6574206e6f742061637469766560781b604082015260600190565b5f6020828403121562002093575f80fd5b5051919050565b634e487b7160e01b5f52601160045260245ffd5b808202811582820484141762001ba55762001ba56200209a565b5f82620020e357634e487b7160e01b5f52601260045260245ffd5b500490565b634e487b7160e01b5f52603260045260245ffd5b600181811c908216806200211157607f821691505b6020821081036200213057634e487b7160e01b5f52602260045260245ffd5b50919050565b5f600182016200214a576200214a6200209a565b5060010190565b8181038181111562001ba55762001ba56200209a565b6020808252600990820152682737ba1037bbb732b960b91b604082015260600190565b81835281816020850137505f828201602090810191909152601f909101601f19169091010190565b606081525f620021c76060830187896200218a565b8281036020840152620021dc8186886200218a565b91505060018060a01b03831660408301529695505050505050565b634e487b7160e01b5f52604160045260245ffd5b601f821115620016d7575f81815260208120601f850160051c81016020861015620022335750805b601f850160051c820191505b8181101562002254578281556001016200223f565b505050505050565b67ffffffffffffffff831115620022775762002277620021f7565b6200228f83620022888354620020fc565b836200220b565b5f601f841160018114620022c3575f8515620022ab5750838201355b5f19600387901b1c1916600186901b1783556200231e565b5f83815260209020601f19861690835b82811015620022f55786850135825560209485019460019092019101620022d3565b508682101562002312575f1960f88860031b161c19848701351681555b505060018560011b0183555b5050505050565b5f8235609e198336030181126200233a575f80fd5b9190910192915050565b61ffff8116811462001d13575f80fd5b5f808335601e198436030181126200236a575f80fd5b83018035915067ffffffffffffffff82111562002385575f80fd5b60200191503681900382131562001f68575f80fd5b813563ffffffff8116808214620023af575f80fd5b825463ffffffff1981168217845591506020840135620023cf8162001cfe565b640100000000600160c01b0360209190911b166001600160c01b031983168217811784556040850135620024038162002344565b6001600160d01b0319939093169091171760c09190911b61ffff60c01b1617815562002433606083018362002354565b620024438183600186016200225c565b505062002454608083018362002354565b620019b78183600286016200225c565b604081525f620024796040830185876200218a565b905060018060a01b0383166020830152949350505050565b8082018082111562001ba55762001ba56200209a565b602081525f62001ba2602083018462001d7f565b5f82516200233a81846020870162001d5b565b8051620024db8162002344565b919050565b5f6020808385031215620024f2575f80fd5b825167ffffffffffffffff808211156200250a575f80fd5b818501915085601f8301126200251e575f80fd5b815181811115620025335762002533620021f7565b8060051b604051601f19603f830116810181811085821117156200255b576200255b620021f7565b60405291825284820192508381018501918883111562002579575f80fd5b938501935b82851015620025a2576200259285620024ce565b845293850193928501926200257e565b98975050505050505050565b63ffffffff85168152836020820152608060408201525f620025d4608083018562001d7f565b905060018060a01b038316606083015295945050505050565b63ffffffff83168152604060208201525f6200260d604083018462001d7f565b949350505050565b5f6020828403121562002626575f80fd5b81356200160d8162002344565b606080825284519082018190525f906020906080840190828801845b828110156200267157815161ffff16845292840192908401906001016200264f565b50505083820186905283810360408501528451808252858301918301905f5b81811015620026b457835163ffffffff168352928401929184019160010162002690565b509098975050505050505050565b61ffff828116828216039080821115620026e057620026e06200209a565b5092915050565b63ffffffff84168152826020820152606060408201525f6200270d606083018462001d7f565b9594505050505056fe608060405234801562000010575f80fd5b5060405162000dbd38038062000dbd8339810160408190526200003391620001c8565b3383836003620000448382620002db565b506004620000538282620002db565b5050506001600160a01b0381166200008457604051631e4fbdf760e01b81525f600482015260240160405180910390fd5b6200008f81620000b9565b50600680546001600160a01b0319166001600160a01b039290921691909117905550620003a39050565b600580546001600160a01b038381166001600160a01b0319831681179093556040519116919082907f8be0079c531659141344cd1fd0a4f28419497f9722a3daafe3b4186f6b6457e0905f90a35050565b634e487b7160e01b5f52604160045260245ffd5b5f82601f8301126200012e575f80fd5b81516001600160401b03808211156200014b576200014b6200010a565b604051601f8301601f19908116603f011681019082821181831017156200017657620001766200010a565b8160405283815260209250868385880101111562000192575f80fd5b5f91505b83821015620001b5578582018301518183018401529082019062000196565b5f93810190920192909252949350505050565b5f805f60608486031215620001db575f80fd5b83516001600160401b0380821115620001f2575f80fd5b62000200878388016200011e565b9450602086015191508082111562000216575f80fd5b5062000225868287016200011e565b604086015190935090506001600160a01b038116811462000244575f80fd5b809150509250925092565b600181811c908216806200026457607f821691505b6020821081036200028357634e487b7160e01b5f52602260045260245ffd5b50919050565b601f821115620002d6575f81815260208120601f850160051c81016020861015620002b15750805b601f850160051c820191505b81811015620002d257828155600101620002bd565b5050505b505050565b81516001600160401b03811115620002f757620002f76200010a565b6200030f816200030884546200024f565b8462000289565b602080601f83116001811462000345575f84156200032d5750858301515b5f19600386901b1c1916600185901b178555620002d2565b5f85815260208120601f198616915b82811015620003755788860151825594840194600190910190840162000354565b50858210156200039357878501515f19600388901b60f8161c191681555b5050505050600190811b01905550565b610a0c80620003b15f395ff3fe608060405234801561000f575f80fd5b50600436106100fb575f3560e01c8063715018a611610093578063a9059cbb11610063578063a9059cbb14610210578063d0ebdbe714610223578063dd62ed3e14610236578063f2fde38b1461026e575f80fd5b8063715018a6146101dc5780638da5cb5b146101e457806395d89b41146101f55780639dc29fac146101fd575f80fd5b806323b872dd116100ce57806323b872dd1461017d578063313ce5671461019057806340c10f191461019f57806370a08231146101b4575f80fd5b806306fdde03146100ff578063095ea7b31461011d57806318160ddd1461014057806322d23f6814610152575b5f80fd5b610107610281565b6040516101149190610867565b60405180910390f35b61013061012b3660046108cd565b610311565b6040519015158152602001610114565b6002545b604051908152602001610114565b600654610165906001600160a01b031681565b6040516001600160a01b039091168152602001610114565b61013061018b3660046108f5565b61032a565b60405160128152602001610114565b6101b26101ad3660046108cd565b61034d565b005b6101446101c236600461092e565b6001600160a01b03165f9081526020819052604090205490565b6101b26103af565b6005546001600160a01b0316610165565b6101076103c2565b6101b261020b3660046108cd565b6103d1565b61013061021e3660046108cd565b61042a565b6101b261023136600461092e565b610437565b61014461024436600461094e565b6001600160a01b039182165f90815260016020908152604080832093909416825291909152205490565b6101b261027c36600461092e565b610461565b6060600380546102909061097f565b80601f01602080910402602001604051908101604052809291908181526020018280546102bc9061097f565b80156103075780601f106102de57610100808354040283529160200191610307565b820191905f5260205f20905b8154815290600101906020018083116102ea57829003601f168201915b5050505050905090565b5f3361031e81858561049e565b60019150505b92915050565b5f336103378582856104b0565b61034285858561052c565b506001949350505050565b6006546001600160a01b031633146103a15760405162461bcd60e51b81526020600482015260126024820152712737ba103130b9b5b2ba1036b0b730b3b2b960711b60448201526064015b60405180910390fd5b6103ab8282610589565b5050565b6103b76105bd565b6103c05f6105ea565b565b6060600480546102909061097f565b6006546001600160a01b031633146104205760405162461bcd60e51b81526020600482015260126024820152712737ba103130b9b5b2ba1036b0b730b3b2b960711b6044820152606401610398565b6103ab828261063b565b5f3361031e81858561052c565b61043f6105bd565b600680546001600160a01b0319166001600160a01b0392909216919091179055565b6104696105bd565b6001600160a01b03811661049257604051631e4fbdf760e01b81525f6004820152602401610398565b61049b816105ea565b50565b6104ab838383600161066f565b505050565b6001600160a01b038381165f908152600160209081526040808320938616835292905220545f19811015610526578181101561051857604051637dc7a0d960e11b81526001600160a01b03841660048201526024810182905260448101839052606401610398565b61052684848484035f61066f565b50505050565b6001600160a01b03831661055557604051634b637e8f60e11b81525f6004820152602401610398565b6001600160a01b03821661057e5760405163ec442f0560e01b81525f6004820152602401610398565b6104ab838383610741565b6001600160a01b0382166105b25760405163ec442f0560e01b81525f6004820152602401610398565b6103ab5f8383610741565b6005546001600160a01b031633146103c05760405163118cdaa760e01b8152336004820152602401610398565b600580546001600160a01b038381166001600160a01b0319831681179093556040519116919082907f8be0079c531659141344cd1fd0a4f28419497f9722a3daafe3b4186f6b6457e0905f90a35050565b6001600160a01b03821661066457604051634b637e8f60e11b81525f6004820152602401610398565b6103ab825f83610741565b6001600160a01b0384166106985760405163e602df0560e01b81525f6004820152602401610398565b6001600160a01b0383166106c157604051634a1406b160e11b81525f6004820152602401610398565b6001600160a01b038085165f908152600160209081526040808320938716835292905220829055801561052657826001600160a01b0316846001600160a01b03167f8c5be1e5ebec7d5bd14f71427d1e84f3dd0314c0f7b2291e5b200ac8c7c3b9258460405161073391815260200190565b60405180910390a350505050565b6001600160a01b03831661076b578060025f82825461076091906109b7565b909155506107db9050565b6001600160a01b0383165f90815260208190526040902054818110156107bd5760405163391434e360e21b81526001600160a01b03851660048201526024810182905260448101839052606401610398565b6001600160a01b0384165f9081526020819052604090209082900390555b6001600160a01b0382166107f757600280548290039055610815565b6001600160a01b0382165f9081526020819052604090208054820190555b816001600160a01b0316836001600160a01b03167fddf252ad1be2c89b69c2b068fc378daa952ba7f163c4a11628f55a4df523b3ef8360405161085a91815260200190565b60405180910390a3505050565b5f6020808352835180828501525f5b8181101561089257858101830151858201604001528201610876565b505f604082860101526040601f19601f8301168501019250505092915050565b80356001600160a01b03811681146108c8575f80fd5b919050565b5f80604083850312156108de575f80fd5b6108e7836108b2565b946020939093013593505050565b5f805f60608486031215610907575f80fd5b610910846108b2565b925061091e602085016108b2565b9150604084013590509250925092565b5f6020828403121561093e575f80fd5b610947826108b2565b9392505050565b5f806040838503121561095f575f80fd5b610968836108b2565b9150610976602084016108b2565b90509250929050565b600181811c9082168061099357607f821691505b6020821081036109b157634e487b7160e01b5f52602260045260245ffd5b50919050565b8082018082111561032457634e487b7160e01b5f52601160045260245ffdfea2646970667358221220a0dd234884cc3676fa61b1e5f0381252156e47948c0a26113ed9a5f658eac95064736f6c63430008140033a2646970667358221220a0d803c0fc79347cd55c358507e02665d24fdbfe54c6a8f14f4e7fde2fcd972064736f6c63430008140033","linkReferences":{}},"methodIdentifiers":{"baskets(uint256)":"a60ed374","createBasket(string,string,(uint32,address,uint16,bytes,bytes)[])":"af4d612f","deposit(uint256)":"b6b55f25","getBasket(uint256)":"77977d50","getBasketNAV(uint256)":"903746b9","nextBasketId()":"a7600528","owner()":"8da5cb5b","pvmEngine()":"90f59079","rebalance(uint256)":"f4993018","rebalanceThresholdBps()":"4000001a","setPVMEngine(address)":"e1507ec2","setXCMEnabled(bool)":"a2680937","setXCMPrecompile(address)":"ee0fd798","userPositions(address,uint256)":"5e1b4d99","withdraw(uint256,uint256)":"441a3e70","xcmEnabled()":"5ec3f04e","xcmPrecompile()":"1021764e"},"id":0}