{
  "_format": "hh-sol-artifact-1",
  "contractName": "BasketManager",
  "sourceName": "contracts/BasketManager.sol",
  "abi": [
    {
      "inputs": [],
      "stateMutability": "nonpayable",
      "type": "constructor"
    },
    {
      "anonymous": false,
      "inputs": [
        {
          "indexed": true,
          "internalType": "uint256",
          "name": "basketId",
          "type": "uint256"
        },
        {
          "indexed": false,
          "internalType": "string",
          "name": "name",
          "type": "string"
        },
        {
          "indexed": false,
          "internalType": "address",
          "name": "token",
          "type": "address"
        }
      ],
      "name": "BasketCreated",
      "type": "event"
    },
    {
      "anonymous": false,
      "inputs": [
        {
          "indexed": true,
          "internalType": "uint256",
          "name": "basketId",
          "type": "uint256"
        },
        {
          "indexed": false,
          "internalType": "uint32",
          "name": "paraId",
          "type": "uint32"
        },
        {
          "indexed": false,
          "internalType": "uint256",
          "name": "amount",
          "type": "uint256"
        }
      ],
      "name": "DeploymentDispatched",
      "type": "event"
    },
    {
      "anonymous": false,
      "inputs": [
        {
          "indexed": true,
          "internalType": "uint256",
          "name": "basketId",
          "type": "uint256"
        },
        {
          "indexed": true,
          "internalType": "address",
          "name": "user",
          "type": "address"
        },
        {
          "indexed": false,
          "internalType": "uint256",
          "name": "amount",
          "type": "uint256"
        },
        {
          "indexed": false,
          "internalType": "uint256",
          "name": "tokensMinted",
          "type": "uint256"
        }
      ],
      "name": "Deposited",
      "type": "event"
    },
    {
      "anonymous": false,
      "inputs": [
        {
          "indexed": true,
          "internalType": "uint256",
          "name": "basketId",
          "type": "uint256"
        },
        {
          "indexed": false,
          "internalType": "uint256",
          "name": "timestamp",
          "type": "uint256"
        }
      ],
      "name": "Rebalanced",
      "type": "event"
    },
    {
      "anonymous": false,
      "inputs": [
        {
          "indexed": true,
          "internalType": "uint256",
          "name": "basketId",
          "type": "uint256"
        },
        {
          "indexed": true,
          "internalType": "address",
          "name": "user",
          "type": "address"
        },
        {
          "indexed": false,
          "internalType": "uint256",
          "name": "tokensBurned",
          "type": "uint256"
        },
        {
          "indexed": false,
          "internalType": "uint256",
          "name": "amountOut",
          "type": "uint256"
        }
      ],
      "name": "Withdrawn",
      "type": "event"
    },
    {
      "inputs": [],
      "name": "PVM_ENGINE",
      "outputs": [
        {
          "internalType": "address",
          "name": "",
          "type": "address"
        }
      ],
      "stateMutability": "view",
      "type": "function"
    },
    {
      "inputs": [],
      "name": "XCM_PRECOMPILE",
      "outputs": [
        {
          "internalType": "address",
          "name": "",
          "type": "address"
        }
      ],
      "stateMutability": "view",
      "type": "function"
    },
    {
      "inputs": [
        {
          "internalType": "uint256",
          "name": "",
          "type": "uint256"
        }
      ],
      "name": "baskets",
      "outputs": [
        {
          "internalType": "uint256",
          "name": "id",
          "type": "uint256"
        },
        {
          "internalType": "string",
          "name": "name",
          "type": "string"
        },
        {
          "internalType": "address",
          "name": "token",
          "type": "address"
        },
        {
          "internalType": "uint256",
          "name": "totalDeposited",
          "type": "uint256"
        },
        {
          "internalType": "bool",
          "name": "active",
          "type": "bool"
        }
      ],
      "stateMutability": "view",
      "type": "function"
    },
    {
      "inputs": [
        {
          "internalType": "string",
          "name": "name",
          "type": "string"
        },
        {
          "internalType": "string",
          "name": "symbol",
          "type": "string"
        },
        {
          "components": [
            {
              "internalType": "uint32",
              "name": "paraId",
              "type": "uint32"
            },
            {
              "internalType": "address",
              "name": "protocol",
              "type": "address"
            },
            {
              "internalType": "uint16",
              "name": "weightBps",
              "type": "uint16"
            },
            {
              "internalType": "bytes",
              "name": "depositCall",
              "type": "bytes"
            },
            {
              "internalType": "bytes",
              "name": "withdrawCall",
              "type": "bytes"
            }
          ],
          "internalType": "struct BasketManager.AllocationConfig[]",
          "name": "allocations",
          "type": "tuple[]"
        }
      ],
      "name": "createBasket",
      "outputs": [
        {
          "internalType": "uint256",
          "name": "basketId",
          "type": "uint256"
        }
      ],
      "stateMutability": "nonpayable",
      "type": "function"
    },
    {
      "inputs": [
        {
          "internalType": "uint256",
          "name": "basketId",
          "type": "uint256"
        }
      ],
      "name": "deposit",
      "outputs": [
        {
          "internalType": "uint256",
          "name": "tokensMinted",
          "type": "uint256"
        }
      ],
      "stateMutability": "payable",
      "type": "function"
    },
    {
      "inputs": [
        {
          "internalType": "uint256",
          "name": "basketId",
          "type": "uint256"
        }
      ],
      "name": "getBasket",
      "outputs": [
        {
          "components": [
            {
              "internalType": "uint256",
              "name": "id",
              "type": "uint256"
            },
            {
              "internalType": "string",
              "name": "name",
              "type": "string"
            },
            {
              "internalType": "address",
              "name": "token",
              "type": "address"
            },
            {
              "components": [
                {
                  "internalType": "uint32",
                  "name": "paraId",
                  "type": "uint32"
                },
                {
                  "internalType": "address",
                  "name": "protocol",
                  "type": "address"
                },
                {
                  "internalType": "uint16",
                  "name": "weightBps",
                  "type": "uint16"
                },
                {
                  "internalType": "bytes",
                  "name": "depositCall",
                  "type": "bytes"
                },
                {
                  "internalType": "bytes",
                  "name": "withdrawCall",
                  "type": "bytes"
                }
              ],
              "internalType": "struct BasketManager.AllocationConfig[]",
              "name": "allocations",
              "type": "tuple[]"
            },
            {
              "internalType": "uint256",
              "name": "totalDeposited",
              "type": "uint256"
            },
            {
              "internalType": "bool",
              "name": "active",
              "type": "bool"
            }
          ],
          "internalType": "struct BasketManager.Basket",
          "name": "",
          "type": "tuple"
        }
      ],
      "stateMutability": "view",
      "type": "function"
    },
    {
      "inputs": [
        {
          "internalType": "uint256",
          "name": "basketId",
          "type": "uint256"
        }
      ],
      "name": "getBasketNAV",
      "outputs": [
        {
          "internalType": "uint256",
          "name": "",
          "type": "uint256"
        }
      ],
      "stateMutability": "view",
      "type": "function"
    },
    {
      "inputs": [],
      "name": "nextBasketId",
      "outputs": [
        {
          "internalType": "uint256",
          "name": "",
          "type": "uint256"
        }
      ],
      "stateMutability": "view",
      "type": "function"
    },
    {
      "inputs": [],
      "name": "owner",
      "outputs": [
        {
          "internalType": "address",
          "name": "",
          "type": "address"
        }
      ],
      "stateMutability": "view",
      "type": "function"
    },
    {
      "inputs": [
        {
          "internalType": "uint256",
          "name": "basketId",
          "type": "uint256"
        }
      ],
      "name": "rebalance",
      "outputs": [],
      "stateMutability": "nonpayable",
      "type": "function"
    },
    {
      "inputs": [],
      "name": "rebalanceThresholdBps",
      "outputs": [
        {
          "internalType": "uint16",
          "name": "",
          "type": "uint16"
        }
      ],
      "stateMutability": "view",
      "type": "function"
    },
    {
      "inputs": [
        {
          "internalType": "address",
          "name": "",
          "type": "address"
        },
        {
          "internalType": "uint256",
          "name": "",
          "type": "uint256"
        }
      ],
      "name": "userPositions",
      "outputs": [
        {
          "internalType": "uint256",
          "name": "basketId",
          "type": "uint256"
        },
        {
          "internalType": "uint256",
          "name": "tokenBalance",
          "type": "uint256"
        },
        {
          "internalType": "uint256",
          "name": "depositedAt",
          "type": "uint256"
        }
      ],
      "stateMutability": "view",
      "type": "function"
    },
    {
      "inputs": [
        {
          "internalType": "uint256",
          "name": "basketId",
          "type": "uint256"
        },
        {
          "internalType": "uint256",
          "name": "tokenAmount",
          "type": "uint256"
        }
      ],
      "name": "withdraw",
      "outputs": [],
      "stateMutability": "nonpayable",
      "type": "function"
    }
  ],
  "bytecode": "0x608060405260c8600360146101000a81548161ffff021916908361ffff16021790555034801561002e57600080fd5b5033600360006101000a81548173ffffffffffffffffffffffffffffffffffffffff021916908373ffffffffffffffffffffffffffffffffffffffff1602179055506153238061007f6000396000f3fe608060405260043610620000d45760003560e01c80638da5cb5b116200008b578063a76005281162000061578063a760052814620002dd578063af4d612f146200030d578063b6b55f251462000351578063f4993018146200038757620000d4565b80638da5cb5b1462000221578063903746b91462000251578063a60ed374146200029557620000d4565b8063041c42d914620000d9578063077120cc14620001095780634000001a1462000139578063441a3e7014620001695780635e1b4d99146200019757806377977d5014620001dd575b600080fd5b348015620000e657600080fd5b50620000f1620003b5565b60405162000100919062001b8a565b60405180910390f35b3480156200011657600080fd5b5062000121620003bb565b60405162000130919062001b8a565b60405180910390f35b3480156200014657600080fd5b5062000151620003c1565b60405162000160919062001bc6565b60405180910390f35b3480156200017657600080fd5b506200019560048036038101906200018f919062001c32565b620003d5565b005b348015620001a457600080fd5b50620001c36004803603810190620001bd919062001caa565b620008b6565b604051620001d49392919062001d02565b60405180910390f35b348015620001ea57600080fd5b5062000209600480360381019062000203919062001d3f565b620008fe565b604051620002189190620020cc565b60405180910390f35b3480156200022e57600080fd5b506200023962000c7d565b60405162000248919062001b8a565b60405180910390f35b3480156200025e57600080fd5b506200027d600480360381019062000277919062001d3f565b62000ca3565b6040516200028c9190620020f0565b60405180910390f35b348015620002a257600080fd5b50620002c16004803603810190620002bb919062001d3f565b62000cc3565b604051620002d495949392919062002170565b60405180910390f35b348015620002ea57600080fd5b50620002f562000db6565b604051620003049190620020f0565b60405180910390f35b3480156200031a57600080fd5b50620003396004803603810190620003339190620022a1565b62000dbc565b604051620003489190620020f0565b60405180910390f35b6200036f600480360381019062000369919062001d3f565b62001029565b6040516200037e9190620020f0565b60405180910390f35b3480156200039457600080fd5b50620003b36004803603810190620003ad919062001d3f565b620011f5565b005b61090081565b61080081565b600360149054906101000a900461ffff1681565b60006001600084815260200190815260200160002090508060050160009054906101000a900460ff1662000440576040517f08c379a00000000000000000000000000000000000000000000000000000000081526004016200043790620023b7565b60405180910390fd5b8060020160009054906101000a900473ffffffffffffffffffffffffffffffffffffffff1673ffffffffffffffffffffffffffffffffffffffff16639dc29fac33846040518363ffffffff1660e01b8152600401620004a1929190620023d9565b600060405180830381600087803b158015620004bc57600080fd5b505af1158015620004d1573d6000803e3d6000fd5b5050505060008160020160009054906101000a900473ffffffffffffffffffffffffffffffffffffffff1673ffffffffffffffffffffffffffffffffffffffff166318160ddd6040518163ffffffff1660e01b8152600401602060405180830381865afa15801562000547573d6000803e3d6000fd5b505050506040513d601f19601f820116820180604052508101906200056d91906200241d565b670de0b6b3a7640000846200058391906200247e565b6200058f9190620024f8565b905060005b82600301805490508110156200083f57600069021e19e0c9bab240000083856003018481548110620005cb57620005ca62002530565b5b906000526020600020906003020160000160189054906101000a900461ffff1661ffff1686600401546200060091906200247e565b6200060c91906200247e565b620006189190620024f8565b90506200082884600301838154811062000637576200063662002530565b5b90600052602060002090600302016040518060a00160405290816000820160009054906101000a900463ffffffff1663ffffffff1663ffffffff1681526020016000820160049054906101000a900473ffffffffffffffffffffffffffffffffffffffff1673ffffffffffffffffffffffffffffffffffffffff1673ffffffffffffffffffffffffffffffffffffffff1681526020016000820160189054906101000a900461ffff1661ffff1661ffff168152602001600182018054620006fe906200258e565b80601f01602080910402602001604051908101604052809291908181526020018280546200072c906200258e565b80156200077d5780601f1062000751576101008083540402835291602001916200077d565b820191906000526020600020905b8154815290600101906020018083116200075f57829003601f168201915b5050505050815260200160028201805462000798906200258e565b80601f0160208091040260200160405190810160405280929190818152602001828054620007c6906200258e565b8015620008175780601f10620007eb5761010080835404028352916020019162000817565b820191906000526020600020905b815481529060010190602001808311620007f957829003601f168201915b5050505050815250508233620013e7565b5080806200083690620025c3565b91505062000594565b508282600401600082825462000856919062002610565b925050819055503373ffffffffffffffffffffffffffffffffffffffff16847f1c84cc0f96161bdafea718a9094dd21c21d1fb2f9ca2ebb9bd4e39918efbaace8586604051620008a89291906200264b565b60405180910390a350505050565b60026020528160005260406000208181548110620008d357600080fd5b9060005260206000209060030201600091509150508060000154908060010154908060020154905083565b6200090862001ae9565b600160008381526020019081526020016000206040518060c00160405290816000820154815260200160018201805462000942906200258e565b80601f016020809104026020016040519081016040528092919081815260200182805462000970906200258e565b8015620009c15780601f106200099557610100808354040283529160200191620009c1565b820191906000526020600020905b815481529060010190602001808311620009a357829003601f168201915b505050505081526020016002820160009054906101000a900473ffffffffffffffffffffffffffffffffffffffff1673ffffffffffffffffffffffffffffffffffffffff1673ffffffffffffffffffffffffffffffffffffffff16815260200160038201805480602002602001604051908101604052809291908181526020016000905b8282101562000c4957838290600052602060002090600302016040518060a00160405290816000820160009054906101000a900463ffffffff1663ffffffff1663ffffffff1681526020016000820160049054906101000a900473ffffffffffffffffffffffffffffffffffffffff1673ffffffffffffffffffffffffffffffffffffffff1673ffffffffffffffffffffffffffffffffffffffff1681526020016000820160189054906101000a900461ffff1661ffff1661ffff16815260200160018201805462000b17906200258e565b80601f016020809104026020016040519081016040528092919081815260200182805462000b45906200258e565b801562000b965780601f1062000b6a5761010080835404028352916020019162000b96565b820191906000526020600020905b81548152906001019060200180831162000b7857829003601f168201915b5050505050815260200160028201805462000bb1906200258e565b80601f016020809104026020016040519081016040528092919081815260200182805462000bdf906200258e565b801562000c305780601f1062000c045761010080835404028352916020019162000c30565b820191906000526020600020905b81548152906001019060200180831162000c1257829003601f168201915b5050505050815250508152602001906001019062000a45565b505050508152602001600482015481526020016005820160009054906101000a900460ff1615151515815250509050919050565b600360009054906101000a900473ffffffffffffffffffffffffffffffffffffffff1681565b600060016000838152602001908152602001600020600401549050919050565b600160205280600052604060002060009150905080600001549080600101805462000cee906200258e565b80601f016020809104026020016040519081016040528092919081815260200182805462000d1c906200258e565b801562000d6d5780601f1062000d415761010080835404028352916020019162000d6d565b820191906000526020600020905b81548152906001019060200180831162000d4f57829003601f168201915b5050505050908060020160009054906101000a900473ffffffffffffffffffffffffffffffffffffffff16908060040154908060050160009054906101000a900460ff16905085565b60005481565b6000600360009054906101000a900473ffffffffffffffffffffffffffffffffffffffff1673ffffffffffffffffffffffffffffffffffffffff163373ffffffffffffffffffffffffffffffffffffffff161462000e51576040517f08c379a000000000000000000000000000000000000000000000000000000000815260040162000e4890620026c8565b60405180910390fd5b62000e5d838362001498565b60008081548092919062000e7190620025c3565b9190505590506000878787873060405162000e8c9062001b37565b62000e9c9594939291906200272c565b604051809103906000f08015801562000eb9573d6000803e3d6000fd5b5090506000600160008481526020019081526020016000209050828160000181905550888882600101918262000ef192919062002987565b50818160020160006101000a81548173ffffffffffffffffffffffffffffffffffffffff021916908373ffffffffffffffffffffffffffffffffffffffff16021790555060018160050160006101000a81548160ff02191690831515021790555060005b8585905081101562000fde578160030186868381811062000f7b5762000f7a62002530565b5b905060200281019062000f8f919062002a7b565b9080600181540180825580915050600190039060005260206000209060030201600090919091909150818162000fc6919062002fb4565b5050808062000fd590620025c3565b91505062000f55565b50827f829f34ae8184bf5738e5e995441f1e5d7ccbb07fe323b0d01d850c3dfa08182b8a8a85604051620010159392919062002fc4565b60405180910390a250509695505050505050565b6000806001600084815260200190815260200160002090508060050160009054906101000a900460ff1662001095576040517f08c379a00000000000000000000000000000000000000000000000000000000081526004016200108c90620023b7565b60405180910390fd5b60003411620010db576040517f08c379a0000000000000000000000000000000000000000000000000000000008152600401620010d2906200304a565b60405180910390fd5b3491508060020160009054906101000a900473ffffffffffffffffffffffffffffffffffffffff1673ffffffffffffffffffffffffffffffffffffffff166340c10f1933846040518363ffffffff1660e01b81526004016200113f929190620023d9565b600060405180830381600087803b1580156200115a57600080fd5b505af11580156200116f573d6000803e3d6000fd5b50505050348160040160008282546200118991906200306c565b925050819055506200119c833462001560565b3373ffffffffffffffffffffffffffffffffffffffff16837fad5b4075b97dbf75ad5c78f7afac948e4ae611c4fdf2825e2ce3c6c96925bf3b3485604051620011e79291906200264b565b60405180910390a350919050565b60006001600083815260200190815260200160002090508060050160009054906101000a900460ff1662001260576040517f08c379a00000000000000000000000000000000000000000000000000000000081526004016200125790620023b7565b60405180910390fd5b60006200126d8262001823565b905060006200127c826200193c565b9050600081806020019051810190620012969190620031e9565b905060005b8460030180549050811015620013a557600360149054906101000a900461ffff1661ffff1662001321866003018381548110620012dd57620012dc62002530565b5b906000526020600020906003020160000160189054906101000a900461ffff1684848151811062001313576200131262002530565b5b6020026020010151620019fe565b61ffff1611156200138f5781818151811062001342576200134162002530565b5b602002602001015185600301828154811062001363576200136262002530565b5b906000526020600020906003020160000160186101000a81548161ffff021916908361ffff1602179055505b80806200139c90620025c3565b9150506200129b565b50847fc257294ad49c215e1a248c91a86bc2612b4781d9677285cc9c14498f485ef12242604051620013d89190620020f0565b60405180910390a25050505050565b60008360000151838560800151846040516020016200140a94939291906200329d565b604051602081830303815290604052905061080073ffffffffffffffffffffffffffffffffffffffff16636b206fc78560000151836040518363ffffffff1660e01b81526004016200145e929190620032f1565b600060405180830381600087803b1580156200147957600080fd5b505af11580156200148e573d6000803e3d6000fd5b5050505050505050565b600080600090505b838390508110156200151357838382818110620014c257620014c162002530565b5b9050602002810190620014d6919062002a7b565b6040016020810190620014ea91906200333c565b61ffff1682620014fb91906200306c565b915080806200150a90620025c3565b915050620014a0565b5061271081146200155b576040517f08c379a00000000000000000000000000000000000000000000000000000000081526004016200155290620033be565b60405180910390fd5b505050565b600060016000848152602001908152602001600020905060005b81600301805490508110156200181d576000826003018281548110620015a557620015a462002530565b5b90600052602060002090600302016040518060a00160405290816000820160009054906101000a900463ffffffff1663ffffffff1663ffffffff1681526020016000820160049054906101000a900473ffffffffffffffffffffffffffffffffffffffff1673ffffffffffffffffffffffffffffffffffffffff1673ffffffffffffffffffffffffffffffffffffffff1681526020016000820160189054906101000a900461ffff1661ffff1661ffff1681526020016001820180546200166c906200258e565b80601f01602080910402602001604051908101604052809291908181526020018280546200169a906200258e565b8015620016eb5780601f10620016bf57610100808354040283529160200191620016eb565b820191906000526020600020905b815481529060010190602001808311620016cd57829003601f168201915b5050505050815260200160028201805462001706906200258e565b80601f016020809104026020016040519081016040528092919081815260200182805462001734906200258e565b8015620017855780601f10620017595761010080835404028352916020019162001785565b820191906000526020600020905b8154815290600101906020018083116200176757829003601f168201915b50505050508152505090506000612710826040015161ffff1686620017ab91906200247e565b620017b79190620024f8565b9050620017c5828262001a3b565b857f2a714abd697b83e14df66ce02bcadcab42e9d2305e12d5abf7b61656dfa689eb836000015183604051620017fd929190620033e0565b60405180910390a2505080806200181490620025c3565b9150506200157a565b50505050565b60606000826003018054905067ffffffffffffffff8111156200184b576200184a62002786565b5b6040519080825280602002602001820160405280156200187a5781602001602082028036833780820191505090505b50905060005b83600301805490508110156200190b57836003018181548110620018a957620018a862002530565b5b906000526020600020906003020160000160189054906101000a900461ffff16828281518110620018df57620018de62002530565b5b602002602001019061ffff16908161ffff168152505080806200190290620025c3565b91505062001880565b5080836004015460405160200162001925929190620034ca565b604051602081830303815290604052915050919050565b606060008061090073ffffffffffffffffffffffffffffffffffffffff16846040516200196a919062003540565b600060405180830381855afa9150503d8060008114620019a7576040519150601f19603f3d011682016040523d82523d6000602084013e620019ac565b606091505b509150915081620019f4576040517f08c379a0000000000000000000000000000000000000000000000000000000008152600401620019eb90620035a9565b60405180910390fd5b8092505050919050565b60008161ffff168361ffff161162001a2457828262001a1e9190620035cb565b62001a33565b818362001a329190620035cb565b5b905092915050565b6000826000015182846060015160405160200162001a5c9392919062003608565b604051602081830303815290604052905061080073ffffffffffffffffffffffffffffffffffffffff16636b206fc78460000151836040518363ffffffff1660e01b815260040162001ab0929190620032f1565b600060405180830381600087803b15801562001acb57600080fd5b505af115801562001ae0573d6000803e3d6000fd5b50505050505050565b6040518060c001604052806000815260200160608152602001600073ffffffffffffffffffffffffffffffffffffffff16815260200160608152602001600081526020016000151581525090565b611ca1806200364d83390190565b600073ffffffffffffffffffffffffffffffffffffffff82169050919050565b600062001b728262001b45565b9050919050565b62001b848162001b65565b82525050565b600060208201905062001ba1600083018462001b79565b92915050565b600061ffff82169050919050565b62001bc08162001ba7565b82525050565b600060208201905062001bdd600083018462001bb5565b92915050565b6000604051905090565b600080fd5b600080fd5b6000819050919050565b62001c0c8162001bf7565b811462001c1857600080fd5b50565b60008135905062001c2c8162001c01565b92915050565b6000806040838503121562001c4c5762001c4b62001bed565b5b600062001c5c8582860162001c1b565b925050602062001c6f8582860162001c1b565b9150509250929050565b62001c848162001b65565b811462001c9057600080fd5b50565b60008135905062001ca48162001c79565b92915050565b6000806040838503121562001cc45762001cc362001bed565b5b600062001cd48582860162001c93565b925050602062001ce78582860162001c1b565b9150509250929050565b62001cfc8162001bf7565b82525050565b600060608201905062001d19600083018662001cf1565b62001d28602083018562001cf1565b62001d37604083018462001cf1565b949350505050565b60006020828403121562001d585762001d5762001bed565b5b600062001d688482850162001c1b565b91505092915050565b62001d7c8162001bf7565b82525050565b600081519050919050565b600082825260208201905092915050565b60005b8381101562001dbe57808201518184015260208101905062001da1565b60008484015250505050565b6000601f19601f8301169050919050565b600062001de88262001d82565b62001df4818562001d8d565b935062001e0681856020860162001d9e565b62001e118162001dca565b840191505092915050565b62001e278162001b65565b82525050565b600081519050919050565b600082825260208201905092915050565b6000819050602082019050919050565b600063ffffffff82169050919050565b62001e748162001e59565b82525050565b62001e858162001ba7565b82525050565b600081519050919050565b600082825260208201905092915050565b600062001eb48262001e8b565b62001ec0818562001e96565b935062001ed281856020860162001d9e565b62001edd8162001dca565b840191505092915050565b600060a08301600083015162001f02600086018262001e69565b50602083015162001f17602086018262001e1c565b50604083015162001f2c604086018262001e7a565b506060830151848203606086015262001f46828262001ea7565b9150506080830151848203608086015262001f62828262001ea7565b9150508091505092915050565b600062001f7d838362001ee8565b905092915050565b6000602082019050919050565b600062001f9f8262001e2d565b62001fab818562001e38565b93508360208202850162001fbf8562001e49565b8060005b8581101562002001578484038952815162001fdf858262001f6f565b945062001fec8362001f85565b925060208a0199505060018101905062001fc3565b50829750879550505050505092915050565b60008115159050919050565b6200202a8162002013565b82525050565b600060c0830160008301516200204a600086018262001d71565b506020830151848203602086015262002064828262001ddb565b91505060408301516200207b604086018262001e1c565b506060830151848203606086015262002095828262001f92565b9150506080830151620020ac608086018262001d71565b5060a0830151620020c160a08601826200201f565b508091505092915050565b60006020820190508181036000830152620020e8818462002030565b905092915050565b600060208201905062002107600083018462001cf1565b92915050565b600082825260208201905092915050565b60006200212b8262001d82565b6200213781856200210d565b93506200214981856020860162001d9e565b620021548162001dca565b840191505092915050565b6200216a8162002013565b82525050565b600060a08201905062002187600083018862001cf1565b81810360208301526200219b81876200211e565b9050620021ac604083018662001b79565b620021bb606083018562001cf1565b620021ca60808301846200215f565b9695505050505050565b600080fd5b600080fd5b600080fd5b60008083601f840112620021fc57620021fb620021d4565b5b8235905067ffffffffffffffff8111156200221c576200221b620021d9565b5b6020830191508360018202830111156200223b576200223a620021de565b5b9250929050565b60008083601f8401126200225b576200225a620021d4565b5b8235905067ffffffffffffffff8111156200227b576200227a620021d9565b5b6020830191508360208202830111156200229a5762002299620021de565b5b9250929050565b60008060008060008060608789031215620022c157620022c062001bed565b5b600087013567ffffffffffffffff811115620022e257620022e162001bf2565b5b620022f089828a01620021e3565b9650965050602087013567ffffffffffffffff81111562002316576200231562001bf2565b5b6200232489828a01620021e3565b9450945050604087013567ffffffffffffffff8111156200234a576200234962001bf2565b5b6200235889828a0162002242565b92509250509295509295509295565b7f4261736b6574206e6f7420616374697665000000000000000000000000000000600082015250565b60006200239f6011836200210d565b9150620023ac8262002367565b602082019050919050565b60006020820190508181036000830152620023d28162002390565b9050919050565b6000604082019050620023f0600083018562001b79565b620023ff602083018462001cf1565b9392505050565b600081519050620024178162001c01565b92915050565b60006020828403121562002436576200243562001bed565b5b6000620024468482850162002406565b91505092915050565b7f4e487b7100000000000000000000000000000000000000000000000000000000600052601160045260246000fd5b60006200248b8262001bf7565b9150620024988362001bf7565b9250828202620024a88162001bf7565b91508282048414831517620024c257620024c16200244f565b5b5092915050565b7f4e487b7100000000000000000000000000000000000000000000000000000000600052601260045260246000fd5b6000620025058262001bf7565b9150620025128362001bf7565b925082620025255762002524620024c9565b5b828204905092915050565b7f4e487b7100000000000000000000000000000000000000000000000000000000600052603260045260246000fd5b7f4e487b7100000000000000000000000000000000000000000000000000000000600052602260045260246000fd5b60006002820490506001821680620025a757607f821691505b602082108103620025bd57620025bc6200255f565b5b50919050565b6000620025d08262001bf7565b91507fffffffffffffffffffffffffffffffffffffffffffffffffffffffffffffffff82036200260557620026046200244f565b5b600182019050919050565b60006200261d8262001bf7565b91506200262a8362001bf7565b92508282039050818111156200264557620026446200244f565b5b92915050565b600060408201905062002662600083018562001cf1565b62002671602083018462001cf1565b9392505050565b7f4e6f74206f776e65720000000000000000000000000000000000000000000000600082015250565b6000620026b06009836200210d565b9150620026bd8262002678565b602082019050919050565b60006020820190508181036000830152620026e381620026a1565b9050919050565b82818337600083830152505050565b60006200270783856200210d565b935062002716838584620026ea565b620027218362001dca565b840190509392505050565b6000606082019050818103600083015262002749818789620026f9565b9050818103602083015262002760818587620026f9565b905062002771604083018462001b79565b9695505050505050565b600082905092915050565b7f4e487b7100000000000000000000000000000000000000000000000000000000600052604160045260246000fd5b60008190508160005260206000209050919050565b60006020601f8301049050919050565b600082821b905092915050565b600060088302620028197fffffffffffffffffffffffffffffffffffffffffffffffffffffffffffffffff82620027da565b620028258683620027da565b95508019841693508086168417925050509392505050565b6000819050919050565b600062002868620028626200285c8462001bf7565b6200283d565b62001bf7565b9050919050565b6000819050919050565b620028848362002847565b6200289c62002893826200286f565b848454620027e7565b825550505050565b600090565b620028b3620028a4565b620028c081848462002879565b505050565b5b81811015620028e857620028dc600082620028a9565b600181019050620028c6565b5050565b601f82111562002937576200290181620027b5565b6200290c84620027ca565b810160208510156200291c578190505b620029346200292b85620027ca565b830182620028c5565b50505b505050565b600082821c905092915050565b60006200295c600019846008026200293c565b1980831691505092915050565b600062002977838362002949565b9150826002028217905092915050565b6200299383836200277b565b67ffffffffffffffff811115620029af57620029ae62002786565b5b620029bb82546200258e565b620029c8828285620028ec565b6000601f831160018114620029fc5760008415620029e7578287013590505b620029f3858262002969565b86555062002a63565b601f19841662002a0c86620027b5565b60005b8281101562002a365784890135825560018201915060208501945060208101905062002a0f565b8683101562002a56578489013562002a52601f89168262002949565b8355505b6001600288020188555050505b50505050505050565b600080fd5b600080fd5b600080fd5b60008235600160a00383360303811262002a9a5762002a9962002a6c565b5b80830191505092915050565b62002ab18162001e59565b811462002abd57600080fd5b50565b6000813562002acf8162002aa6565b80915050919050565b60008160001b9050919050565b600063ffffffff62002af78462002ad8565b9350801983169250808416831791505092915050565b600062002b2e62002b2862002b228462001e59565b6200283d565b62001e59565b9050919050565b6000819050919050565b62002b4a8262002b0d565b62002b6162002b598262002b35565b835462002ae5565b8255505050565b6000813562002b778162001c79565b80915050919050565b60008160201b9050919050565b600077ffffffffffffffffffffffffffffffffffffffff0000000062002bb38462002b80565b9350801983169250808416831791505092915050565b600062002bea62002be462002bde8462001b45565b6200283d565b62001b45565b9050919050565b600062002bfe8262002bc9565b9050919050565b600062002c128262002bf1565b9050919050565b6000819050919050565b62002c2e8262002c05565b62002c4562002c3d8262002c19565b835462002b8d565b8255505050565b62002c578162001ba7565b811462002c6357600080fd5b50565b6000813562002c758162002c4c565b80915050919050565b60008160c01b9050919050565b600079ffff00000000000000000000000000000000000000000000000062002cb38462002c7e565b9350801983169250808416831791505092915050565b600062002cea62002ce462002cde8462001ba7565b6200283d565b62001ba7565b9050919050565b6000819050919050565b62002d068262002cc9565b62002d1d62002d158262002cf1565b835462002c8b565b8255505050565b6000808335600160200384360303811262002d445762002d4362002a6c565b5b80840192508235915067ffffffffffffffff82111562002d695762002d6862002a71565b5b60208301925060018202360383131562002d885762002d8762002a76565b5b509250929050565b600082905092915050565b60008190508160005260206000209050919050565b601f82111562002dfb5762002dc58162002d9b565b62002dd084620027ca565b8101602085101562002de0578190505b62002df862002def85620027ca565b830182620028c5565b50505b505050565b62002e0c838362002d90565b67ffffffffffffffff81111562002e285762002e2762002786565b5b62002e3482546200258e565b62002e4182828562002db0565b6000601f83116001811462002e75576000841562002e60578287013590505b62002e6c858262002969565b86555062002edc565b601f19841662002e858662002d9b565b60005b8281101562002eaf5784890135825560018201915060208501945060208101905062002e88565b8683101562002ecf578489013562002ecb601f89168262002949565b8355505b6001600288020188555050505b50505050505050565b62002ef283838362002e00565b505050565b60008101600083018062002f0b8162002ac0565b905062002f19818462002b3f565b50505060008101602083018062002f308162002b68565b905062002f3e818462002c23565b50505060008101604083018062002f558162002c66565b905062002f63818462002cfb565b505050600181016060830162002f7a818562002d24565b62002f8781838662002ee5565b50505050600281016080830162002f9f818562002d24565b62002fac81838662002ee5565b505050505050565b62002fc0828262002ef7565b5050565b6000604082019050818103600083015262002fe1818587620026f9565b905062002ff2602083018462001b79565b949350505050565b7f4d757374206465706f736974203e203000000000000000000000000000000000600082015250565b6000620030326010836200210d565b91506200303f8262002ffa565b602082019050919050565b60006020820190508181036000830152620030658162003023565b9050919050565b6000620030798262001bf7565b9150620030868362001bf7565b9250828201905080821115620030a157620030a06200244f565b5b92915050565b620030b28262001dca565b810181811067ffffffffffffffff82111715620030d457620030d362002786565b5b80604052505050565b6000620030e962001be3565b9050620030f78282620030a7565b919050565b600067ffffffffffffffff8211156200311a576200311962002786565b5b602082029050602081019050919050565b6000815190506200313c8162002c4c565b92915050565b6000620031596200315384620030fc565b620030dd565b905080838252602082019050602084028301858111156200317f576200317e620021de565b5b835b81811015620031ac57806200319788826200312b565b84526020840193505060208101905062003181565b5050509392505050565b600082601f830112620031ce57620031cd620021d4565b5b8151620031e084826020860162003142565b91505092915050565b60006020828403121562003202576200320162001bed565b5b600082015167ffffffffffffffff81111562003223576200322262001bf2565b5b6200323184828501620031b6565b91505092915050565b620032458162001e59565b82525050565b600082825260208201905092915050565b6000620032698262001e8b565b6200327581856200324b565b93506200328781856020860162001d9e565b620032928162001dca565b840191505092915050565b6000608082019050620032b460008301876200323a565b620032c3602083018662001cf1565b8181036040830152620032d781856200325c565b9050620032e8606083018462001b79565b95945050505050565b60006040820190506200330860008301856200323a565b81810360208301526200331c81846200325c565b90509392505050565b600081359050620033368162002c4c565b92915050565b60006020828403121562003355576200335462001bed565b5b6000620033658482850162003325565b91505092915050565b7f57656967687473206d7573742073756d20746f20313030303020627073000000600082015250565b6000620033a6601d836200210d565b9150620033b3826200336e565b602082019050919050565b60006020820190508181036000830152620033d98162003397565b9050919050565b6000604082019050620033f760008301856200323a565b62003406602083018462001cf1565b9392505050565b600081519050919050565b600082825260208201905092915050565b6000819050602082019050919050565b600062003447838362001e7a565b60208301905092915050565b6000602082019050919050565b60006200346d826200340d565b62003479818562003418565b9350620034868362003429565b8060005b83811015620034bd578151620034a1888262003439565b9750620034ae8362003453565b9250506001810190506200348a565b5085935050505092915050565b60006040820190508181036000830152620034e6818562003460565b9050620034f7602083018462001cf1565b9392505050565b600081905092915050565b6000620035168262001e8b565b620035228185620034fe565b93506200353481856020860162001d9e565b80840191505092915050565b60006200354e828462003509565b915081905092915050565b7f50564d20656e67696e652063616c6c206661696c656400000000000000000000600082015250565b6000620035916016836200210d565b91506200359e8262003559565b602082019050919050565b60006020820190508181036000830152620035c48162003582565b9050919050565b6000620035d88262001ba7565b9150620035e58362001ba7565b9250828203905061ffff8111156200360257620036016200244f565b5b92915050565b60006060820190506200361f60008301866200323a565b6200362e602083018562001cf1565b81810360408301526200364281846200325c565b905094935050505056fe60806040523480156200001157600080fd5b5060405162001ca138038062001ca18339818101604052810190620000379190620003ef565b33838381600390816200004b9190620006d4565b5080600490816200005d9190620006d4565b505050600073ffffffffffffffffffffffffffffffffffffffff168173ffffffffffffffffffffffffffffffffffffffff1603620000d55760006040517f1e4fbdf7000000000000000000000000000000000000000000000000000000008152600401620000cc9190620007cc565b60405180910390fd5b620000e6816200013160201b60201c565b5080600660006101000a81548173ffffffffffffffffffffffffffffffffffffffff021916908373ffffffffffffffffffffffffffffffffffffffff160217905550505050620007e9565b6000600560009054906101000a900473ffffffffffffffffffffffffffffffffffffffff16905081600560006101000a81548173ffffffffffffffffffffffffffffffffffffffff021916908373ffffffffffffffffffffffffffffffffffffffff1602179055508173ffffffffffffffffffffffffffffffffffffffff168173ffffffffffffffffffffffffffffffffffffffff167f8be0079c531659141344cd1fd0a4f28419497f9722a3daafe3b4186f6b6457e060405160405180910390a35050565b6000604051905090565b600080fd5b600080fd5b600080fd5b600080fd5b6000601f19601f8301169050919050565b7f4e487b7100000000000000000000000000000000000000000000000000000000600052604160045260246000fd5b620002608262000215565b810181811067ffffffffffffffff8211171562000282576200028162000226565b5b80604052505050565b600062000297620001f7565b9050620002a5828262000255565b919050565b600067ffffffffffffffff821115620002c857620002c762000226565b5b620002d38262000215565b9050602081019050919050565b60005b8381101562000300578082015181840152602081019050620002e3565b60008484015250505050565b6000620003236200031d84620002aa565b6200028b565b90508281526020810184848401111562000342576200034162000210565b5b6200034f848285620002e0565b509392505050565b600082601f8301126200036f576200036e6200020b565b5b8151620003818482602086016200030c565b91505092915050565b600073ffffffffffffffffffffffffffffffffffffffff82169050919050565b6000620003b7826200038a565b9050919050565b620003c981620003aa565b8114620003d557600080fd5b50565b600081519050620003e981620003be565b92915050565b6000806000606084860312156200040b576200040a62000201565b5b600084015167ffffffffffffffff8111156200042c576200042b62000206565b5b6200043a8682870162000357565b935050602084015167ffffffffffffffff8111156200045e576200045d62000206565b5b6200046c8682870162000357565b92505060406200047f86828701620003d8565b9150509250925092565b600081519050919050565b7f4e487b7100000000000000000000000000000000000000000000000000000000600052602260045260246000fd5b60006002820490506001821680620004dc57607f821691505b602082108103620004f257620004f162000494565b5b50919050565b60008190508160005260206000209050919050565b60006020601f8301049050919050565b600082821b905092915050565b6000600883026200055c7fffffffffffffffffffffffffffffffffffffffffffffffffffffffffffffffff826200051d565b6200056886836200051d565b95508019841693508086168417925050509392505050565b6000819050919050565b6000819050919050565b6000620005b5620005af620005a98462000580565b6200058a565b62000580565b9050919050565b6000819050919050565b620005d18362000594565b620005e9620005e082620005bc565b8484546200052a565b825550505050565b600090565b62000600620005f1565b6200060d818484620005c6565b505050565b5b81811015620006355762000629600082620005f6565b60018101905062000613565b5050565b601f82111562000684576200064e81620004f8565b62000659846200050d565b8101602085101562000669578190505b6200068162000678856200050d565b83018262000612565b50505b505050565b600082821c905092915050565b6000620006a96000198460080262000689565b1980831691505092915050565b6000620006c4838362000696565b9150826002028217905092915050565b620006df8262000489565b67ffffffffffffffff811115620006fb57620006fa62000226565b5b620007078254620004c3565b6200071482828562000639565b600060209050601f8311600181146200074c576000841562000737578287015190505b620007438582620006b6565b865550620007b3565b601f1984166200075c86620004f8565b60005b8281101562000786578489015182556001820191506020850194506020810190506200075f565b86831015620007a65784890151620007a2601f89168262000696565b8355505b6001600288020188555050505b505050505050565b620007c681620003aa565b82525050565b6000602082019050620007e36000830184620007bb565b92915050565b6114a880620007f96000396000f3fe608060405234801561001057600080fd5b50600436106101005760003560e01c8063715018a611610097578063a9059cbb11610066578063a9059cbb1461028b578063d0ebdbe7146102bb578063dd62ed3e146102d7578063f2fde38b1461030757610100565b8063715018a6146102295780638da5cb5b1461023357806395d89b41146102515780639dc29fac1461026f57610100565b806323b872dd116100d357806323b872dd1461018f578063313ce567146101bf57806340c10f19146101dd57806370a08231146101f957610100565b806306fdde0314610105578063095ea7b31461012357806318160ddd1461015357806322d23f6814610171575b600080fd5b61010d610323565b60405161011a9190611090565b60405180910390f35b61013d6004803603810190610138919061114b565b6103b5565b60405161014a91906111a6565b60405180910390f35b61015b6103d8565b60405161016891906111d0565b60405180910390f35b6101796103e2565b60405161018691906111fa565b60405180910390f35b6101a960048036038101906101a49190611215565b610408565b6040516101b691906111a6565b60405180910390f35b6101c7610437565b6040516101d49190611284565b60405180910390f35b6101f760048036038101906101f2919061114b565b610440565b005b610213600480360381019061020e919061129f565b6104de565b60405161022091906111d0565b60405180910390f35b610231610526565b005b61023b61053a565b60405161024891906111fa565b60405180910390f35b610259610564565b6040516102669190611090565b60405180910390f35b6102896004803603810190610284919061114b565b6105f6565b005b6102a560048036038101906102a0919061114b565b610694565b6040516102b291906111a6565b60405180910390f35b6102d560048036038101906102d0919061129f565b6106b7565b005b6102f160048036038101906102ec91906112cc565b610703565b6040516102fe91906111d0565b60405180910390f35b610321600480360381019061031c919061129f565b61078a565b005b6060600380546103329061133b565b80601f016020809104026020016040519081016040528092919081815260200182805461035e9061133b565b80156103ab5780601f10610380576101008083540402835291602001916103ab565b820191906000526020600020905b81548152906001019060200180831161038e57829003601f168201915b5050505050905090565b6000806103c0610810565b90506103cd818585610818565b600191505092915050565b6000600254905090565b600660009054906101000a900473ffffffffffffffffffffffffffffffffffffffff1681565b600080610413610810565b905061042085828561082a565b61042b8585856108bf565b60019150509392505050565b60006012905090565b600660009054906101000a900473ffffffffffffffffffffffffffffffffffffffff1673ffffffffffffffffffffffffffffffffffffffff163373ffffffffffffffffffffffffffffffffffffffff16146104d0576040517f08c379a00000000000000000000000000000000000000000000000000000000081526004016104c7906113b8565b60405180910390fd5b6104da82826109b3565b5050565b60008060008373ffffffffffffffffffffffffffffffffffffffff1673ffffffffffffffffffffffffffffffffffffffff168152602001908152602001600020549050919050565b61052e610a35565b6105386000610abc565b565b6000600560009054906101000a900473ffffffffffffffffffffffffffffffffffffffff16905090565b6060600480546105739061133b565b80601f016020809104026020016040519081016040528092919081815260200182805461059f9061133b565b80156105ec5780601f106105c1576101008083540402835291602001916105ec565b820191906000526020600020905b8154815290600101906020018083116105cf57829003601f168201915b5050505050905090565b600660009054906101000a900473ffffffffffffffffffffffffffffffffffffffff1673ffffffffffffffffffffffffffffffffffffffff163373ffffffffffffffffffffffffffffffffffffffff1614610686576040517f08c379a000000000000000000000000000000000000000000000000000000000815260040161067d906113b8565b60405180910390fd5b6106908282610b82565b5050565b60008061069f610810565b90506106ac8185856108bf565b600191505092915050565b6106bf610a35565b80600660006101000a81548173ffffffffffffffffffffffffffffffffffffffff021916908373ffffffffffffffffffffffffffffffffffffffff16021790555050565b6000600160008473ffffffffffffffffffffffffffffffffffffffff1673ffffffffffffffffffffffffffffffffffffffff16815260200190815260200160002060008373ffffffffffffffffffffffffffffffffffffffff1673ffffffffffffffffffffffffffffffffffffffff16815260200190815260200160002054905092915050565b610792610a35565b600073ffffffffffffffffffffffffffffffffffffffff168173ffffffffffffffffffffffffffffffffffffffff16036108045760006040517f1e4fbdf70000000000000000000000000000000000000000000000000000000081526004016107fb91906111fa565b60405180910390fd5b61080d81610abc565b50565b600033905090565b6108258383836001610c04565b505050565b60006108368484610703565b90507fffffffffffffffffffffffffffffffffffffffffffffffffffffffffffffffff8110156108b957818110156108a9578281836040517ffb8f41b20000000000000000000000000000000000000000000000000000000081526004016108a0939291906113d8565b60405180910390fd5b6108b884848484036000610c04565b5b50505050565b600073ffffffffffffffffffffffffffffffffffffffff168373ffffffffffffffffffffffffffffffffffffffff16036109315760006040517f96c6fd1e00000000000000000000000000000000000000000000000000000000815260040161092891906111fa565b60405180910390fd5b600073ffffffffffffffffffffffffffffffffffffffff168273ffffffffffffffffffffffffffffffffffffffff16036109a35760006040517fec442f0500000000000000000000000000000000000000000000000000000000815260040161099a91906111fa565b60405180910390fd5b6109ae838383610ddb565b505050565b600073ffffffffffffffffffffffffffffffffffffffff168273ffffffffffffffffffffffffffffffffffffffff1603610a255760006040517fec442f05000000000000000000000000000000000000000000000000000000008152600401610a1c91906111fa565b60405180910390fd5b610a3160008383610ddb565b5050565b610a3d610810565b73ffffffffffffffffffffffffffffffffffffffff16610a5b61053a565b73ffffffffffffffffffffffffffffffffffffffff1614610aba57610a7e610810565b6040517f118cdaa7000000000000000000000000000000000000000000000000000000008152600401610ab191906111fa565b60405180910390fd5b565b6000600560009054906101000a900473ffffffffffffffffffffffffffffffffffffffff16905081600560006101000a81548173ffffffffffffffffffffffffffffffffffffffff021916908373ffffffffffffffffffffffffffffffffffffffff1602179055508173ffffffffffffffffffffffffffffffffffffffff168173ffffffffffffffffffffffffffffffffffffffff167f8be0079c531659141344cd1fd0a4f28419497f9722a3daafe3b4186f6b6457e060405160405180910390a35050565b600073ffffffffffffffffffffffffffffffffffffffff168273ffffffffffffffffffffffffffffffffffffffff1603610bf45760006040517f96c6fd1e000000000000000000000000000000000000000000000000000000008152600401610beb91906111fa565b60405180910390fd5b610c0082600083610ddb565b5050565b600073ffffffffffffffffffffffffffffffffffffffff168473ffffffffffffffffffffffffffffffffffffffff1603610c765760006040517fe602df05000000000000000000000000000000000000000000000000000000008152600401610c6d91906111fa565b60405180910390fd5b600073ffffffffffffffffffffffffffffffffffffffff168373ffffffffffffffffffffffffffffffffffffffff1603610ce85760006040517f94280d62000000000000000000000000000000000000000000000000000000008152600401610cdf91906111fa565b60405180910390fd5b81600160008673ffffffffffffffffffffffffffffffffffffffff1673ffffffffffffffffffffffffffffffffffffffff16815260200190815260200160002060008573ffffffffffffffffffffffffffffffffffffffff1673ffffffffffffffffffffffffffffffffffffffff168152602001908152602001600020819055508015610dd5578273ffffffffffffffffffffffffffffffffffffffff168473ffffffffffffffffffffffffffffffffffffffff167f8c5be1e5ebec7d5bd14f71427d1e84f3dd0314c0f7b2291e5b200ac8c7c3b92584604051610dcc91906111d0565b60405180910390a35b50505050565b600073ffffffffffffffffffffffffffffffffffffffff168373ffffffffffffffffffffffffffffffffffffffff1603610e2d578060026000828254610e21919061143e565b92505081905550610f00565b60008060008573ffffffffffffffffffffffffffffffffffffffff1673ffffffffffffffffffffffffffffffffffffffff16815260200190815260200160002054905081811015610eb9578381836040517fe450d38c000000000000000000000000000000000000000000000000000000008152600401610eb0939291906113d8565b60405180910390fd5b8181036000808673ffffffffffffffffffffffffffffffffffffffff1673ffffffffffffffffffffffffffffffffffffffff16815260200190815260200160002081905550505b600073ffffffffffffffffffffffffffffffffffffffff168273ffffffffffffffffffffffffffffffffffffffff1603610f495780600260008282540392505081905550610f96565b806000808473ffffffffffffffffffffffffffffffffffffffff1673ffffffffffffffffffffffffffffffffffffffff168152602001908152602001600020600082825401925050819055505b8173ffffffffffffffffffffffffffffffffffffffff168373ffffffffffffffffffffffffffffffffffffffff167fddf252ad1be2c89b69c2b068fc378daa952ba7f163c4a11628f55a4df523b3ef83604051610ff391906111d0565b60405180910390a3505050565b600081519050919050565b600082825260208201905092915050565b60005b8381101561103a57808201518184015260208101905061101f565b60008484015250505050565b6000601f19601f8301169050919050565b600061106282611000565b61106c818561100b565b935061107c81856020860161101c565b61108581611046565b840191505092915050565b600060208201905081810360008301526110aa8184611057565b905092915050565b600080fd5b600073ffffffffffffffffffffffffffffffffffffffff82169050919050565b60006110e2826110b7565b9050919050565b6110f2816110d7565b81146110fd57600080fd5b50565b60008135905061110f816110e9565b92915050565b6000819050919050565b61112881611115565b811461113357600080fd5b50565b6000813590506111458161111f565b92915050565b60008060408385031215611162576111616110b2565b5b600061117085828601611100565b925050602061118185828601611136565b9150509250929050565b60008115159050919050565b6111a08161118b565b82525050565b60006020820190506111bb6000830184611197565b92915050565b6111ca81611115565b82525050565b60006020820190506111e560008301846111c1565b92915050565b6111f4816110d7565b82525050565b600060208201905061120f60008301846111eb565b92915050565b60008060006060848603121561122e5761122d6110b2565b5b600061123c86828701611100565b935050602061124d86828701611100565b925050604061125e86828701611136565b9150509250925092565b600060ff82169050919050565b61127e81611268565b82525050565b60006020820190506112996000830184611275565b92915050565b6000602082840312156112b5576112b46110b2565b5b60006112c384828501611100565b91505092915050565b600080604083850312156112e3576112e26110b2565b5b60006112f185828601611100565b925050602061130285828601611100565b9150509250929050565b7f4e487b7100000000000000000000000000000000000000000000000000000000600052602260045260246000fd5b6000600282049050600182168061135357607f821691505b6020821081036113665761136561130c565b5b50919050565b7f4e6f74206261736b6574206d616e616765720000000000000000000000000000600082015250565b60006113a260128361100b565b91506113ad8261136c565b602082019050919050565b600060208201905081810360008301526113d181611395565b9050919050565b60006060820190506113ed60008301866111eb565b6113fa60208301856111c1565b61140760408301846111c1565b949350505050565b7f4e487b7100000000000000000000000000000000000000000000000000000000600052601160045260246000fd5b600061144982611115565b915061145483611115565b925082820190508082111561146c5761146b61140f565b5b9291505056fea2646970667358221220d1660bf067522860d7036b26f4d5e51d77edbcc2017a94d8193081b941dffc8b64736f6c63430008140033a2646970667358221220ac1781eb26135300f6fe062f24bf47bc51e5b24e6423e0f4c6d1cac829e5548264736f6c63430008140033",
  "linkReferences": {},
  "deployedLinkReferences": {}
}