{
  "_format": "hh-sol-artifact-1",
  "contractName": "BasketManager",
  "sourceName": "contracts/BasketManager.sol",
  "abi": [
    {
      "inputs": [],
      "stateMutability": "nonpayable",
      "type": "constructor"
    },
    {
      "anonymous": false,
      "inputs": [
        {
          "indexed": true,
          "internalType": "uint256",
          "name": "basketId",
          "type": "uint256"
        },
        {
          "indexed": false,
          "internalType": "string",
          "name": "name",
          "type": "string"
        },
        {
          "indexed": false,
          "internalType": "address",
          "name": "token",
          "type": "address"
        }
      ],
      "name": "BasketCreated",
      "type": "event"
    },
    {
      "anonymous": false,
      "inputs": [
        {
          "indexed": true,
          "internalType": "uint256",
          "name": "basketId",
          "type": "uint256"
        },
        {
          "indexed": false,
          "internalType": "uint32",
          "name": "paraId",
          "type": "uint32"
        },
        {
          "indexed": false,
          "internalType": "uint256",
          "name": "amount",
          "type": "uint256"
        }
      ],
      "name": "DeploymentDispatched",
      "type": "event"
    },
    {
      "anonymous": false,
      "inputs": [
        {
          "indexed": true,
          "internalType": "uint256",
          "name": "basketId",
          "type": "uint256"
        },
        {
          "indexed": true,
          "internalType": "address",
          "name": "user",
          "type": "address"
        },
        {
          "indexed": false,
          "internalType": "uint256",
          "name": "amount",
          "type": "uint256"
        },
        {
          "indexed": false,
          "internalType": "uint256",
          "name": "tokensMinted",
          "type": "uint256"
        }
      ],
      "name": "Deposited",
      "type": "event"
    },
    {
      "anonymous": false,
      "inputs": [
        {
          "indexed": true,
          "internalType": "uint256",
          "name": "basketId",
          "type": "uint256"
        },
        {
          "indexed": false,
          "internalType": "uint256",
          "name": "timestamp",
          "type": "uint256"
        }
      ],
      "name": "Rebalanced",
      "type": "event"
    },
    {
      "anonymous": false,
      "inputs": [
        {
          "indexed": true,
          "internalType": "uint256",
          "name": "basketId",
          "type": "uint256"
        },
        {
          "indexed": true,
          "internalType": "address",
          "name": "user",
          "type": "address"
        },
        {
          "indexed": false,
          "internalType": "uint256",
          "name": "tokensBurned",
          "type": "uint256"
        },
        {
          "indexed": false,
          "internalType": "uint256",
          "name": "amountOut",
          "type": "uint256"
        }
      ],
      "name": "Withdrawn",
      "type": "event"
    },
    {
      "inputs": [],
      "name": "PVM_ENGINE",
      "outputs": [
        {
          "internalType": "address",
          "name": "",
          "type": "address"
        }
      ],
      "stateMutability": "view",
      "type": "function"
    },
    {
      "inputs": [],
      "name": "XCM_PRECOMPILE",
      "outputs": [
        {
          "internalType": "address",
          "name": "",
          "type": "address"
        }
      ],
      "stateMutability": "view",
      "type": "function"
    },
    {
      "inputs": [
        {
          "internalType": "uint256",
          "name": "",
          "type": "uint256"
        }
      ],
      "name": "baskets",
      "outputs": [
        {
          "internalType": "uint256",
          "name": "id",
          "type": "uint256"
        },
        {
          "internalType": "string",
          "name": "name",
          "type": "string"
        },
        {
          "internalType": "address",
          "name": "token",
          "type": "address"
        },
        {
          "internalType": "uint256",
          "name": "totalDeposited",
          "type": "uint256"
        },
        {
          "internalType": "bool",
          "name": "active",
          "type": "bool"
        }
      ],
      "stateMutability": "view",
      "type": "function"
    },
    {
      "inputs": [
        {
          "internalType": "string",
          "name": "name",
          "type": "string"
        },
        {
          "internalType": "string",
          "name": "symbol",
          "type": "string"
        },
        {
          "components": [
            {
              "internalType": "uint32",
              "name": "paraId",
              "type": "uint32"
            },
            {
              "internalType": "address",
              "name": "protocol",
              "type": "address"
            },
            {
              "internalType": "uint16",
              "name": "weightBps",
              "type": "uint16"
            },
            {
              "internalType": "bytes",
              "name": "depositCall",
              "type": "bytes"
            },
            {
              "internalType": "bytes",
              "name": "withdrawCall",
              "type": "bytes"
            }
          ],
          "internalType": "struct BasketManager.AllocationConfig[]",
          "name": "allocations",
          "type": "tuple[]"
        }
      ],
      "name": "createBasket",
      "outputs": [
        {
          "internalType": "uint256",
          "name": "basketId",
          "type": "uint256"
        }
      ],
      "stateMutability": "nonpayable",
      "type": "function"
    },
    {
      "inputs": [
        {
          "internalType": "uint256",
          "name": "basketId",
          "type": "uint256"
        }
      ],
      "name": "deposit",
      "outputs": [
        {
          "internalType": "uint256",
          "name": "tokensMinted",
          "type": "uint256"
        }
      ],
      "stateMutability": "payable",
      "type": "function"
    },
    {
      "inputs": [
        {
          "internalType": "uint256",
          "name": "basketId",
          "type": "uint256"
        }
      ],
      "name": "getBasket",
      "outputs": [
        {
          "components": [
            {
              "internalType": "uint256",
              "name": "id",
              "type": "uint256"
            },
            {
              "internalType": "string",
              "name": "name",
              "type": "string"
            },
            {
              "internalType": "address",
              "name": "token",
              "type": "address"
            },
            {
              "components": [
                {
                  "internalType": "uint32",
                  "name": "paraId",
                  "type": "uint32"
                },
                {
                  "internalType": "address",
                  "name": "protocol",
                  "type": "address"
                },
                {
                  "internalType": "uint16",
                  "name": "weightBps",
                  "type": "uint16"
                },
                {
                  "internalType": "bytes",
                  "name": "depositCall",
                  "type": "bytes"
                },
                {
                  "internalType": "bytes",
                  "name": "withdrawCall",
                  "type": "bytes"
                }
              ],
              "internalType": "struct BasketManager.AllocationConfig[]",
              "name": "allocations",
              "type": "tuple[]"
            },
            {
              "internalType": "uint256",
              "name": "totalDeposited",
              "type": "uint256"
            },
            {
              "internalType": "bool",
              "name": "active",
              "type": "bool"
            }
          ],
          "internalType": "struct BasketManager.Basket",
          "name": "",
          "type": "tuple"
        }
      ],
      "stateMutability": "view",
      "type": "function"
    },
    {
      "inputs": [
        {
          "internalType": "uint256",
          "name": "basketId",
          "type": "uint256"
        }
      ],
      "name": "getBasketNAV",
      "outputs": [
        {
          "internalType": "uint256",
          "name": "",
          "type": "uint256"
        }
      ],
      "stateMutability": "view",
      "type": "function"
    },
    {
      "inputs": [],
      "name": "nextBasketId",
      "outputs": [
        {
          "internalType": "uint256",
          "name": "",
          "type": "uint256"
        }
      ],
      "stateMutability": "view",
      "type": "function"
    },
    {
      "inputs": [],
      "name": "owner",
      "outputs": [
        {
          "internalType": "address",
          "name": "",
          "type": "address"
        }
      ],
      "stateMutability": "view",
      "type": "function"
    },
    {
      "inputs": [
        {
          "internalType": "uint256",
          "name": "basketId",
          "type": "uint256"
        }
      ],
      "name": "rebalance",
      "outputs": [],
      "stateMutability": "nonpayable",
      "type": "function"
    },
    {
      "inputs": [],
      "name": "rebalanceThresholdBps",
      "outputs": [
        {
          "internalType": "uint16",
          "name": "",
          "type": "uint16"
        }
      ],
      "stateMutability": "view",
      "type": "function"
    },
    {
      "inputs": [
        {
          "internalType": "address",
          "name": "",
          "type": "address"
        },
        {
          "internalType": "uint256",
          "name": "",
          "type": "uint256"
        }
      ],
      "name": "userPositions",
      "outputs": [
        {
          "internalType": "uint256",
          "name": "basketId",
          "type": "uint256"
        },
        {
          "internalType": "uint256",
          "name": "tokenBalance",
          "type": "uint256"
        },
        {
          "internalType": "uint256",
          "name": "depositedAt",
          "type": "uint256"
        }
      ],
      "stateMutability": "view",
      "type": "function"
    },
    {
      "inputs": [
        {
          "internalType": "uint256",
          "name": "basketId",
          "type": "uint256"
        },
        {
          "internalType": "uint256",
          "name": "tokenAmount",
          "type": "uint256"
        }
      ],
      "name": "withdraw",
      "outputs": [],
      "stateMutability": "nonpayable",
      "type": "function"
    }
  ],
  "bytecode": "0x60806040526003805461ffff60a01b1916601960a31b17905534801561002457600080fd5b50600380546001600160a01b03191633179055612e2d806100466000396000f3fe608060405260043610620000d25760003560e01c80638da5cb5b1162000089578063a76005281162000060578063a76005281462000295578063af4d612f14620002ad578063b6b55f2514620002d2578063f499301814620002e957600080fd5b80638da5cb5b14620001f8578063903746b9146200021a578063a60ed374146200025d57600080fd5b8063041c42d914620000d7578063077120cc146200010c5780634000001a1462000124578063441a3e70146200015c5780635e1b4d99146200018357806377977d5014620001c4575b600080fd5b348015620000e457600080fd5b50620000ef61090081565b6040516001600160a01b0390911681526020015b60405180910390f35b3480156200011957600080fd5b50620000ef61080081565b3480156200013157600080fd5b506003546200014890600160a01b900461ffff1681565b60405161ffff909116815260200162000103565b3480156200016957600080fd5b50620001816200017b36600462001629565b6200030e565b005b3480156200019057600080fd5b50620001a8620001a236600462001665565b620006f7565b6040805193845260208401929092529082015260600162000103565b348015620001d157600080fd5b50620001e9620001e336600462001694565b6200073a565b60405162000103919062001702565b3480156200020557600080fd5b50600354620000ef906001600160a01b031681565b3480156200022757600080fd5b506200024e6200023936600462001694565b60009081526001602052604090206004015490565b60405190815260200162000103565b3480156200026a57600080fd5b50620002826200027c36600462001694565b62000a3c565b604051620001039594939291906200181c565b348015620002a257600080fd5b506200024e60005481565b348015620002ba57600080fd5b506200024e620002cc366004620018ab565b62000b09565b6200024e620002e336600462001694565b62000ccd565b348015620002f657600080fd5b50620001816200030836600462001694565b62000e1d565b6000828152600160205260409020600581015460ff166200034c5760405162461bcd60e51b815260040162000343906200197f565b60405180910390fd5b6002810154604051632770a7eb60e21b8152336004820152602481018490526001600160a01b0390911690639dc29fac90604401600060405180830381600087803b1580156200039b57600080fd5b505af1158015620003b0573d6000803e3d6000fd5b5050505060008160020160009054906101000a90046001600160a01b03166001600160a01b03166318160ddd6040518163ffffffff1660e01b8152600401602060405180830381865afa1580156200040c573d6000803e3d6000fd5b505050506040513d601f19601f82011682018060405250810190620004329190620019aa565b6200044684670de0b6b3a7640000620019da565b620004529190620019f4565b905060005b60038301548110156200069857600069021e19e0c9bab2400000838560030184815481106200048a576200048a62001a17565b60009182526020909120600390910201546004870154620004b791600160c01b900461ffff1690620019da565b620004c39190620019da565b620004cf9190620019f4565b905062000682846003018381548110620004ed57620004ed62001a17565b60009182526020918290206040805160a081018252600393909302909101805463ffffffff8116845264010000000081046001600160a01b031694840194909452600160c01b90930461ffff1690820152600182018054919291606084019190620005589062001a2d565b80601f0160208091040260200160405190810160405280929190818152602001828054620005869062001a2d565b8015620005d75780601f10620005ab57610100808354040283529160200191620005d7565b820191906000526020600020905b815481529060010190602001808311620005b957829003601f168201915b50505050508152602001600282018054620005f29062001a2d565b80601f0160208091040260200160405190810160405280929190818152602001828054620006209062001a2d565b8015620006715780601f10620006455761010080835404028352916020019162000671565b820191906000526020600020905b8154815290600101906020018083116200065357829003601f168201915b505050505081525050823362000fd2565b50806200068f8162001a69565b91505062000457565b5082826004016000828254620006af919062001a85565b90915550506040805184815260208101859052339186917f1c84cc0f96161bdafea718a9094dd21c21d1fb2f9ca2ebb9bd4e39918efbaace910160405180910390a350505050565b600260205281600052604060002081815481106200071457600080fd5b600091825260209091206003909102018054600182015460029092015490935090915083565b6200077f6040518060c00160405280600081526020016060815260200160006001600160a01b0316815260200160608152602001600081526020016000151581525090565b600082815260016020818152604092839020835160c0810190945280548452918201805491840191620007b29062001a2d565b80601f0160208091040260200160405190810160405280929190818152602001828054620007e09062001a2d565b8015620008315780601f10620008055761010080835404028352916020019162000831565b820191906000526020600020905b8154815290600101906020018083116200081357829003601f168201915b505050918352505060028201546001600160a01b0316602080830191909152600383018054604080518285028101850182528281529401939260009084015b8282101562000a145760008481526020908190206040805160a08101825260038602909201805463ffffffff8116845264010000000081046001600160a01b031694840194909452600160c01b90930461ffff1690820152600182018054919291606084019190620008e29062001a2d565b80601f0160208091040260200160405190810160405280929190818152602001828054620009109062001a2d565b8015620009615780601f10620009355761010080835404028352916020019162000961565b820191906000526020600020905b8154815290600101906020018083116200094357829003601f168201915b505050505081526020016002820180546200097c9062001a2d565b80601f0160208091040260200160405190810160405280929190818152602001828054620009aa9062001a2d565b8015620009fb5780601f10620009cf57610100808354040283529160200191620009fb565b820191906000526020600020905b815481529060010190602001808311620009dd57829003601f168201915b5050505050815250508152602001906001019062000870565b505050908252506004820154602082015260059091015460ff16151560409091015292915050565b60016020819052600091825260409091208054918101805462000a5f9062001a2d565b80601f016020809104026020016040519081016040528092919081815260200182805462000a8d9062001a2d565b801562000ade5780601f1062000ab25761010080835404028352916020019162000ade565b820191906000526020600020905b81548152906001019060200180831162000ac057829003601f168201915b505050506002830154600484015460059094015492936001600160a01b039091169290915060ff1685565b6003546000906001600160a01b0316331462000b545760405162461bcd60e51b81526020600482015260096024820152682737ba1037bbb732b960b91b604482015260640162000343565b62000b60838362001069565b60008054908062000b718362001a69565b9190505590506000878787873060405162000b8c906200161b565b62000b9c95949392919062001ac4565b604051809103906000f08015801562000bb9573d6000803e3d6000fd5b506000838152600160208190526040909120848155919250810162000be0898b8362001b72565b506002810180546001600160a01b0319166001600160a01b03841617905560058101805460ff1916600117905560005b8481101562000c82578160030186868381811062000c325762000c3262001a17565b905060200281019062000c46919062001c40565b81546001810183556000928352602090922090916003020162000c6a828262001cbc565b5050808062000c799062001a69565b91505062000c10565b50827f829f34ae8184bf5738e5e995441f1e5d7ccbb07fe323b0d01d850c3dfa08182b8a8a8560405162000cb99392919062001d87565b60405180910390a250509695505050505050565b6000818152600160205260408120600581015460ff1662000d025760405162461bcd60e51b815260040162000343906200197f565b6000341162000d475760405162461bcd60e51b815260206004820152601060248201526f04d757374206465706f736974203e20360841b604482015260640162000343565b60028101546040516340c10f1960e01b8152336004820152346024820181905293506001600160a01b03909116906340c10f1990604401600060405180830381600087803b15801562000d9957600080fd5b505af115801562000dae573d6000803e3d6000fd5b505050503481600401600082825462000dc8919062001db5565b9091555062000dda9050833462001132565b6040805134815260208101849052339185917fad5b4075b97dbf75ad5c78f7afac948e4ae611c4fdf2825e2ce3c6c96925bf3b910160405180910390a350919050565b6000818152600160205260409020600581015460ff1662000e525760405162461bcd60e51b815260040162000343906200197f565b600062000e5f826200138f565b9050600062000e6e8262001497565b905060008180602001905181019062000e88919062001ddd565b905060005b600385015481101562000f8f57600360149054906101000a900461ffff1661ffff1662000f0e86600301838154811062000ecb5762000ecb62001a17565b906000526020600020906003020160000160189054906101000a900461ffff1684848151811062000f005762000f0062001a17565b60200260200101516200154e565b61ffff16111562000f7a5781818151811062000f2e5762000f2e62001a17565b602002602001015185600301828154811062000f4e5762000f4e62001a17565b906000526020600020906003020160000160186101000a81548161ffff021916908361ffff1602179055505b8062000f868162001a69565b91505062000e8d565b50847fc257294ad49c215e1a248c91a86bc2612b4781d9677285cc9c14498f485ef1224260405162000fc391815260200190565b60405180910390a25050505050565b600083600001518385608001518460405160200162000ff5949392919062001eb0565b60408051601f19818403018152908290528551636b206fc760e01b835290925061080091636b206fc7916200102f91859060040162001ef0565b600060405180830381600087803b1580156200104a57600080fd5b505af11580156200105f573d6000803e3d6000fd5b5050505050505050565b6000805b82811015620010d9578383828181106200108b576200108b62001a17565b90506020028101906200109f919062001c40565b620010b290606081019060400162001f19565b620010c29061ffff168362001db5565b915080620010d08162001a69565b9150506200106d565b5080612710146200112d5760405162461bcd60e51b815260206004820152601d60248201527f57656967687473206d7573742073756d20746f20313030303020627073000000604482015260640162000343565b505050565b6000828152600160205260408120905b60038201548110156200138957600082600301828154811062001169576200116962001a17565b60009182526020918290206040805160a081018252600393909302909101805463ffffffff8116845264010000000081046001600160a01b031694840194909452600160c01b90930461ffff1690820152600182018054919291606084019190620011d49062001a2d565b80601f0160208091040260200160405190810160405280929190818152602001828054620012029062001a2d565b8015620012535780601f10620012275761010080835404028352916020019162001253565b820191906000526020600020905b8154815290600101906020018083116200123557829003601f168201915b505050505081526020016002820180546200126e9062001a2d565b80601f01602080910402602001604051908101604052809291908181526020018280546200129c9062001a2d565b8015620012ed5780601f10620012c157610100808354040283529160200191620012ed565b820191906000526020600020905b815481529060010190602001808311620012cf57829003601f168201915b50505050508152505090506000612710826040015161ffff1686620013139190620019da565b6200131f9190620019f4565b90506200132d828262001587565b81516040805163ffffffff90921682526020820183905287917f2a714abd697b83e14df66ce02bcadcab42e9d2305e12d5abf7b61656dfa689eb910160405180910390a250508080620013809062001a69565b91505062001142565b50505050565b600381015460609060009067ffffffffffffffff811115620013b557620013b562001b0a565b604051908082528060200260200182016040528015620013df578160200160208202803683370190505b50905060005b600384015481101562001467578360030181815481106200140a576200140a62001a17565b906000526020600020906003020160000160189054906101000a900461ffff168282815181106200143f576200143f62001a17565b61ffff90921660209283029190910190910152806200145e8162001a69565b915050620013e5565b5060048301546040516200148091839160200162001f39565b604051602081830303815290604052915050919050565b60606000806109006001600160a01b031684604051620014b8919062001f87565b600060405180830381855afa9150503d8060008114620014f5576040519150601f19603f3d011682016040523d82523d6000602084013e620014fa565b606091505b509150915081620015475760405162461bcd60e51b815260206004820152601660248201527514159348195b99da5b994818d85b1b0819985a5b195960521b604482015260640162000343565b9392505050565b60008161ffff168361ffff161162001572576200156c838362001f9b565b6200157e565b6200157e828462001f9b565b90505b92915050565b60008260000151828460600151604051602001620015a89392919062001fc0565b60408051601f19818403018152908290528451636b206fc760e01b835290925061080091636b206fc791620015e291859060040162001ef0565b600060405180830381600087803b158015620015fd57600080fd5b505af115801562001612573d6000803e3d6000fd5b50505050505050565b610e078062001ff183390190565b600080604083850312156200163d57600080fd5b50508035926020909101359150565b6001600160a01b03811681146200166257600080fd5b50565b600080604083850312156200167957600080fd5b823562001686816200164c565b946020939093013593505050565b600060208284031215620016a757600080fd5b5035919050565b60005b83811015620016cb578181015183820152602001620016b1565b50506000910152565b60008151808452620016ee816020860160208601620016ae565b601f01601f19169290920160200192915050565b6000602080835283518184015280840151604060c0818601526200172a60e0860183620016d4565b915080860151606060018060a01b0380831682890152818901519250601f196080818a880301818b01528685518089528989019150898160051b8a01018a8801975060005b82811015620017eb57858b8303018452885160a063ffffffff8251168452888e830151168e85015261ffff8c830151168c85015289820151818b860152620017ba82860182620016d4565b91505086820151915083810387850152620017d68183620016d4565b9a8e019a958e0195935050506001016200176f565b50838e015160a08e015260a08e01519a506200180b60c08e018c15159052565b9d9c50505050505050505050505050565b85815260a0602082015260006200183760a0830187620016d4565b6001600160a01b03959095166040830152506060810192909252151560809091015292915050565b60008083601f8401126200187257600080fd5b50813567ffffffffffffffff8111156200188b57600080fd5b602083019150836020828501011115620018a457600080fd5b9250929050565b60008060008060008060608789031215620018c557600080fd5b863567ffffffffffffffff80821115620018de57600080fd5b620018ec8a838b016200185f565b909850965060208901359150808211156200190657600080fd5b620019148a838b016200185f565b909650945060408901359150808211156200192e57600080fd5b818901915089601f8301126200194357600080fd5b8135818111156200195357600080fd5b8a60208260051b85010111156200196957600080fd5b6020830194508093505050509295509295509295565b6020808252601190820152704261736b6574206e6f742061637469766560781b604082015260600190565b600060208284031215620019bd57600080fd5b5051919050565b634e487b7160e01b600052601160045260246000fd5b8082028115828204841417620015815762001581620019c4565b60008262001a1257634e487b7160e01b600052601260045260246000fd5b500490565b634e487b7160e01b600052603260045260246000fd5b600181811c9082168062001a4257607f821691505b60208210810362001a6357634e487b7160e01b600052602260045260246000fd5b50919050565b60006001820162001a7e5762001a7e620019c4565b5060010190565b81810381811115620015815762001581620019c4565b81835281816020850137506000828201602090810191909152601f909101601f19169091010190565b60608152600062001ada60608301878962001a9b565b828103602084015262001aef81868862001a9b565b91505060018060a01b03831660408301529695505050505050565b634e487b7160e01b600052604160045260246000fd5b601f8211156200112d57600081815260208120601f850160051c8101602086101562001b495750805b601f850160051c820191505b8181101562001b6a5782815560010162001b55565b505050505050565b67ffffffffffffffff83111562001b8d5762001b8d62001b0a565b62001ba58362001b9e835462001a2d565b8362001b20565b6000601f84116001811462001bdc576000851562001bc35750838201355b600019600387901b1c1916600186901b17835562001c39565b600083815260209020601f19861690835b8281101562001c0f578685013582556020948501946001909201910162001bed565b508682101562001c2d5760001960f88860031b161c19848701351681555b505060018560011b0183555b5050505050565b60008235609e1983360301811262001c5757600080fd5b9190910192915050565b61ffff811681146200166257600080fd5b6000808335601e1984360301811262001c8a57600080fd5b83018035915067ffffffffffffffff82111562001ca657600080fd5b602001915036819003821315620018a457600080fd5b813563ffffffff811680821462001cd257600080fd5b825463ffffffff198116821784559150602084013562001cf2816200164c565b640100000000600160c01b0360209190911b166001600160c01b03198316821781178455604085013562001d268162001c61565b6001600160d01b0319939093169091171760c09190911b61ffff60c01b1617815562001d56606083018362001c72565b62001d6681836001860162001b72565b505062001d77608083018362001c72565b6200138981836002860162001b72565b60408152600062001d9d60408301858762001a9b565b905060018060a01b0383166020830152949350505050565b80820180821115620015815762001581620019c4565b805162001dd88162001c61565b919050565b6000602080838503121562001df157600080fd5b825167ffffffffffffffff8082111562001e0a57600080fd5b818501915085601f83011262001e1f57600080fd5b81518181111562001e345762001e3462001b0a565b8060051b604051601f19603f8301168101818110858211171562001e5c5762001e5c62001b0a565b60405291825284820192508381018501918883111562001e7b57600080fd5b938501935b8285101562001ea45762001e948562001dcb565b8452938501939285019262001e80565b98975050505050505050565b63ffffffff8516815283602082015260806040820152600062001ed76080830185620016d4565b905060018060a01b038316606083015295945050505050565b63ffffffff8316815260406020820152600062001f116040830184620016d4565b949350505050565b60006020828403121562001f2c57600080fd5b8135620015478162001c61565b604080825283519082018190526000906020906060840190828701845b8281101562001f7857815161ffff168452928401929084019060010162001f56565b50505092019290925292915050565b6000825162001c57818460208701620016ae565b61ffff82811682821603908082111562001fb95762001fb9620019c4565b5092915050565b63ffffffff8416815282602082015260606040820152600062001fe76060830184620016d4565b9594505050505056fe60806040523480156200001157600080fd5b5060405162000e0738038062000e078339810160408190526200003491620001d2565b3383836003620000458382620002ee565b506004620000548282620002ee565b5050506001600160a01b0381166200008657604051631e4fbdf760e01b81526000600482015260240160405180910390fd5b6200009181620000bb565b50600680546001600160a01b0319166001600160a01b039290921691909117905550620003ba9050565b600580546001600160a01b038381166001600160a01b0319831681179093556040519116919082907f8be0079c531659141344cd1fd0a4f28419497f9722a3daafe3b4186f6b6457e090600090a35050565b634e487b7160e01b600052604160045260246000fd5b600082601f8301126200013557600080fd5b81516001600160401b03808211156200015257620001526200010d565b604051601f8301601f19908116603f011681019082821181831017156200017d576200017d6200010d565b816040528381526020925086838588010111156200019a57600080fd5b600091505b83821015620001be57858201830151818301840152908201906200019f565b600093810190920192909252949350505050565b600080600060608486031215620001e857600080fd5b83516001600160401b03808211156200020057600080fd5b6200020e8783880162000123565b945060208601519150808211156200022557600080fd5b50620002348682870162000123565b604086015190935090506001600160a01b03811681146200025457600080fd5b809150509250925092565b600181811c908216806200027457607f821691505b6020821081036200029557634e487b7160e01b600052602260045260246000fd5b50919050565b601f821115620002e957600081815260208120601f850160051c81016020861015620002c45750805b601f850160051c820191505b81811015620002e557828155600101620002d0565b5050505b505050565b81516001600160401b038111156200030a576200030a6200010d565b62000322816200031b84546200025f565b846200029b565b602080601f8311600181146200035a5760008415620003415750858301515b600019600386901b1c1916600185901b178555620002e5565b600085815260208120601f198616915b828110156200038b578886015182559484019460019091019084016200036a565b5085821015620003aa5787850151600019600388901b60f8161c191681555b5050505050600190811b01905550565b610a3d80620003ca6000396000f3fe608060405234801561001057600080fd5b50600436106101005760003560e01c8063715018a611610097578063a9059cbb11610066578063a9059cbb14610217578063d0ebdbe71461022a578063dd62ed3e1461023d578063f2fde38b1461027657600080fd5b8063715018a6146101e35780638da5cb5b146101eb57806395d89b41146101fc5780639dc29fac1461020457600080fd5b806323b872dd116100d357806323b872dd14610183578063313ce5671461019657806340c10f19146101a557806370a08231146101ba57600080fd5b806306fdde0314610105578063095ea7b31461012357806318160ddd1461014657806322d23f6814610158575b600080fd5b61010d610289565b60405161011a9190610887565b60405180910390f35b6101366101313660046108f1565b61031b565b604051901515815260200161011a565b6002545b60405190815260200161011a565b60065461016b906001600160a01b031681565b6040516001600160a01b03909116815260200161011a565b61013661019136600461091b565b610335565b6040516012815260200161011a565b6101b86101b33660046108f1565b610359565b005b61014a6101c8366004610957565b6001600160a01b031660009081526020819052604090205490565b6101b86103bb565b6005546001600160a01b031661016b565b61010d6103cf565b6101b86102123660046108f1565b6103de565b6101366102253660046108f1565b610437565b6101b8610238366004610957565b610445565b61014a61024b366004610979565b6001600160a01b03918216600090815260016020908152604080832093909416825291909152205490565b6101b8610284366004610957565b61046f565b606060038054610298906109ac565b80601f01602080910402602001604051908101604052809291908181526020018280546102c4906109ac565b80156103115780601f106102e657610100808354040283529160200191610311565b820191906000526020600020905b8154815290600101906020018083116102f457829003601f168201915b5050505050905090565b6000336103298185856104ad565b60019150505b92915050565b6000336103438582856104bf565b61034e85858561053e565b506001949350505050565b6006546001600160a01b031633146103ad5760405162461bcd60e51b81526020600482015260126024820152712737ba103130b9b5b2ba1036b0b730b3b2b960711b60448201526064015b60405180910390fd5b6103b7828261059d565b5050565b6103c36105d3565b6103cd6000610600565b565b606060048054610298906109ac565b6006546001600160a01b0316331461042d5760405162461bcd60e51b81526020600482015260126024820152712737ba103130b9b5b2ba1036b0b730b3b2b960711b60448201526064016103a4565b6103b78282610652565b60003361032981858561053e565b61044d6105d3565b600680546001600160a01b0319166001600160a01b0392909216919091179055565b6104776105d3565b6001600160a01b0381166104a157604051631e4fbdf760e01b8152600060048201526024016103a4565b6104aa81610600565b50565b6104ba8383836001610688565b505050565b6001600160a01b03838116600090815260016020908152604080832093861683529290522054600019811015610538578181101561052957604051637dc7a0d960e11b81526001600160a01b038416600482015260248101829052604481018390526064016103a4565b61053884848484036000610688565b50505050565b6001600160a01b03831661056857604051634b637e8f60e11b8152600060048201526024016103a4565b6001600160a01b0382166105925760405163ec442f0560e01b8152600060048201526024016103a4565b6104ba83838361075d565b6001600160a01b0382166105c75760405163ec442f0560e01b8152600060048201526024016103a4565b6103b76000838361075d565b6005546001600160a01b031633146103cd5760405163118cdaa760e01b81523360048201526024016103a4565b600580546001600160a01b038381166001600160a01b0319831681179093556040519116919082907f8be0079c531659141344cd1fd0a4f28419497f9722a3daafe3b4186f6b6457e090600090a35050565b6001600160a01b03821661067c57604051634b637e8f60e11b8152600060048201526024016103a4565b6103b78260008361075d565b6001600160a01b0384166106b25760405163e602df0560e01b8152600060048201526024016103a4565b6001600160a01b0383166106dc57604051634a1406b160e11b8152600060048201526024016103a4565b6001600160a01b038085166000908152600160209081526040808320938716835292905220829055801561053857826001600160a01b0316846001600160a01b03167f8c5be1e5ebec7d5bd14f71427d1e84f3dd0314c0f7b2291e5b200ac8c7c3b9258460405161074f91815260200190565b60405180910390a350505050565b6001600160a01b03831661078857806002600082825461077d91906109e6565b909155506107fa9050565b6001600160a01b038316600090815260208190526040902054818110156107db5760405163391434e360e21b81526001600160a01b038516600482015260248101829052604481018390526064016103a4565b6001600160a01b03841660009081526020819052604090209082900390555b6001600160a01b03821661081657600280548290039055610835565b6001600160a01b03821660009081526020819052604090208054820190555b816001600160a01b0316836001600160a01b03167fddf252ad1be2c89b69c2b068fc378daa952ba7f163c4a11628f55a4df523b3ef8360405161087a91815260200190565b60405180910390a3505050565b600060208083528351808285015260005b818110156108b457858101830151858201604001528201610898565b506000604082860101526040601f19601f8301168501019250505092915050565b80356001600160a01b03811681146108ec57600080fd5b919050565b6000806040838503121561090457600080fd5b61090d836108d5565b946020939093013593505050565b60008060006060848603121561093057600080fd5b610939846108d5565b9250610947602085016108d5565b9150604084013590509250925092565b60006020828403121561096957600080fd5b610972826108d5565b9392505050565b6000806040838503121561098c57600080fd5b610995836108d5565b91506109a3602084016108d5565b90509250929050565b600181811c908216806109c057607f821691505b6020821081036109e057634e487b7160e01b600052602260045260246000fd5b50919050565b8082018082111561032f57634e487b7160e01b600052601160045260246000fdfea2646970667358221220e85eba4a5cb8165fd6f3cb0b2d3f36541ddc6287dd636bb994d12028a4eb18e264736f6c63430008140033a26469706673582212208d9029e97bfdf35d0a72447aa613f020d693afe5437e0053459e679291d5694264736f6c63430008140033",
  "linkReferences": {},
  "deployedLinkReferences": {}
}