{"contracts/mocks/MockXCMPrecompile.sol":{"MockXCMPrecompile":{"abi":[{"inputs":[{"internalType":"uint32","name":"","type":"uint32"},{"internalType":"bytes","name":"","type":"bytes"}],"name":"sendXCM","outputs":[],"stateMutability":"pure","type":"function"},{"inputs":[{"internalType":"uint32","name":"","type":"uint32"},{"internalType":"uint256","name":"","type":"uint256"},{"internalType":"address","name":"","type":"address"}],"name":"teleportAsset","outputs":[],"stateMutability":"pure","type":"function"}],"evm":{"bytecode":{"linkReferences":{},"object":"608060405234801561001057600080fd5b506102a5806100206000396000f3fe608060405234801561001057600080fd5b50600436106100365760003560e01c8063599b20fd1461003b5780636b206fc714610057575b600080fd5b61005560048036038101906100509190610157565b610073565b005b610071600480360381019061006c919061020f565b610078565b005b505050565b505050565b600080fd5b600080fd5b600063ffffffff82169050919050565b6100a081610087565b81146100ab57600080fd5b50565b6000813590506100bd81610097565b92915050565b6000819050919050565b6100d6816100c3565b81146100e157600080fd5b50565b6000813590506100f3816100cd565b92915050565b600073ffffffffffffffffffffffffffffffffffffffff82169050919050565b6000610124826100f9565b9050919050565b61013481610119565b811461013f57600080fd5b50565b6000813590506101518161012b565b92915050565b6000806000606084860312156101705761016f61007d565b5b600061017e868287016100ae565b935050602061018f868287016100e4565b92505060406101a086828701610142565b9150509250925092565b600080fd5b600080fd5b600080fd5b60008083601f8401126101cf576101ce6101aa565b5b8235905067ffffffffffffffff8111156101ec576101eb6101af565b5b602083019150836001820283011115610208576102076101b4565b5b9250929050565b6000806000604084860312156102285761022761007d565b5b6000610236868287016100ae565b935050602084013567ffffffffffffffff81111561025757610256610082565b5b610263868287016101b9565b9250925050925092509256fea264697066735822122097c62567eeb323a20066075eb6a3fa20b220d96551496a9a0e99d4653741d26464736f6c63430008140033","opcodes":"PUSH1 0x80 PUSH1 0x40 MSTORE CALLVALUE DUP1 ISZERO PUSH2 0x10 JUMPI PUSH1 0x0 DUP1 REVERT JUMPDEST POP PUSH2 0x2A5 DUP1 PUSH2 0x20 PUSH1 0x0 CODECOPY PUSH1 0x0 RETURN INVALID PUSH1 0x80 PUSH1 0x40 MSTORE CALLVALUE DUP1 ISZERO PUSH2 0x10 JUMPI PUSH1 0x0 DUP1 REVERT JUMPDEST POP PUSH1 0x4 CALLDATASIZE LT PUSH2 0x36 JUMPI PUSH1 0x0 CALLDATALOAD PUSH1 0xE0 SHR DUP1 PUSH4 0x599B20FD EQ PUSH2 0x3B JUMPI DUP1 PUSH4 0x6B206FC7 EQ PUSH2 0x57 JUMPI JUMPDEST PUSH1 0x0 DUP1 REVERT JUMPDEST PUSH2 0x55 PUSH1 0x4 DUP1 CALLDATASIZE SUB DUP2 ADD SWAP1 PUSH2 0x50 SWAP2 SWAP1 PUSH2 0x157 JUMP JUMPDEST PUSH2 0x73 JUMP JUMPDEST STOP JUMPDEST PUSH2 0x71 PUSH1 0x4 DUP1 CALLDATASIZE SUB DUP2 ADD SWAP1 PUSH2 0x6C SWAP2 SWAP1 PUSH2 0x20F JUMP JUMPDEST PUSH2 0x78 JUMP JUMPDEST STOP JUMPDEST POP POP POP JUMP JUMPDEST POP POP POP JUMP JUMPDEST PUSH1 0x0 DUP1 REVERT JUMPDEST PUSH1 0x0 DUP1 REVERT JUMPDEST PUSH1 0x0 PUSH4 0xFFFFFFFF DUP3 AND SWAP1 POP SWAP2 SWAP1 POP JUMP JUMPDEST PUSH2 0xA0 DUP2 PUSH2 0x87 JUMP JUMPDEST DUP2 EQ PUSH2 0xAB JUMPI PUSH1 0x0 DUP1 REVERT JUMPDEST POP JUMP JUMPDEST PUSH1 0x0 DUP2 CALLDATALOAD SWAP1 POP PUSH2 0xBD DUP2 PUSH2 0x97 JUMP JUMPDEST SWAP3 SWAP2 POP POP JUMP JUMPDEST PUSH1 0x0 DUP2 SWAP1 POP SWAP2 SWAP1 POP JUMP JUMPDEST PUSH2 0xD6 DUP2 PUSH2 0xC3 JUMP JUMPDEST DUP2 EQ PUSH2 0xE1 JUMPI PUSH1 0x0 DUP1 REVERT JUMPDEST POP JUMP JUMPDEST PUSH1 0x0 DUP2 CALLDATALOAD SWAP1 POP PUSH2 0xF3 DUP2 PUSH2 0xCD JUMP JUMPDEST SWAP3 SWAP2 POP POP JUMP JUMPDEST PUSH1 0x0 PUSH20 0xFFFFFFFFFFFFFFFFFFFFFFFFFFFFFFFFFFFFFFFF DUP3 AND SWAP1 POP SWAP2 SWAP1 POP JUMP JUMPDEST PUSH1 0x0 PUSH2 0x124 DUP3 PUSH2 0xF9 JUMP JUMPDEST SWAP1 POP SWAP2 SWAP1 POP JUMP JUMPDEST PUSH2 0x134 DUP2 PUSH2 0x119 JUMP JUMPDEST DUP2 EQ PUSH2 0x13F JUMPI PUSH1 0x0 DUP1 REVERT JUMPDEST POP JUMP JUMPDEST PUSH1 0x0 DUP2 CALLDATALOAD SWAP1 POP PUSH2 0x151 DUP2 PUSH2 0x12B JUMP JUMPDEST SWAP3 SWAP2 POP POP JUMP JUMPDEST PUSH1 0x0 DUP1 PUSH1 0x0 PUSH1 0x60 DUP5 DUP7 SUB SLT ISZERO PUSH2 0x170 JUMPI PUSH2 0x16F PUSH2 0x7D JUMP JUMPDEST JUMPDEST PUSH1 0x0 PUSH2 0x17E DUP7 DUP3 DUP8 ADD PUSH2 0xAE JUMP JUMPDEST SWAP4 POP POP PUSH1 0x20 PUSH2 0x18F DUP7 DUP3 DUP8 ADD PUSH2 0xE4 JUMP JUMPDEST SWAP3 POP POP PUSH1 0x40 PUSH2 0x1A0 DUP7 DUP3 DUP8 ADD PUSH2 0x142 JUMP JUMPDEST SWAP2 POP POP SWAP3 POP SWAP3 POP SWAP3 JUMP JUMPDEST PUSH1 0x0 DUP1 REVERT JUMPDEST PUSH1 0x0 DUP1 REVERT JUMPDEST PUSH1 0x0 DUP1 REVERT JUMPDEST PUSH1 0x0 DUP1 DUP4 PUSH1 0x1F DUP5 ADD SLT PUSH2 0x1CF JUMPI PUSH2 0x1CE PUSH2 0x1AA JUMP JUMPDEST JUMPDEST DUP3 CALLDATALOAD SWAP1 POP PUSH8 0xFFFFFFFFFFFFFFFF DUP2 GT ISZERO PUSH2 0x1EC JUMPI PUSH2 0x1EB PUSH2 0x1AF JUMP JUMPDEST JUMPDEST PUSH1 0x20 DUP4 ADD SWAP2 POP DUP4 PUSH1 0x1 DUP3 MUL DUP4 ADD GT ISZERO PUSH2 0x208 JUMPI PUSH2 0x207 PUSH2 0x1B4 JUMP JUMPDEST JUMPDEST SWAP3 POP SWAP3 SWAP1 POP JUMP JUMPDEST PUSH1 0x0 DUP1 PUSH1 0x0 PUSH1 0x40 DUP5 DUP7 SUB SLT ISZERO PUSH2 0x228 JUMPI PUSH2 0x227 PUSH2 0x7D JUMP JUMPDEST JUMPDEST PUSH1 0x0 PUSH2 0x236 DUP7 DUP3 DUP8 ADD PUSH2 0xAE JUMP JUMPDEST SWAP4 POP POP PUSH1 0x20 DUP5 ADD CALLDATALOAD PUSH8 0xFFFFFFFFFFFFFFFF DUP2 GT ISZERO PUSH2 0x257 JUMPI PUSH2 0x256 PUSH2 0x82 JUMP JUMPDEST JUMPDEST PUSH2 0x263 DUP7 DUP3 DUP8 ADD PUSH2 0x1B9 JUMP JUMPDEST SWAP3 POP SWAP3 POP POP SWAP3 POP SWAP3 POP SWAP3 JUMP INVALID LOG2 PUSH5 0x6970667358 0x22 SLT KECCAK256 SWAP8 0xC6 0x25 PUSH8 0xEEB323A20066075E 0xB6 LOG3 STATICCALL KECCAK256 0xB2 KECCAK256 0xD9 PUSH6 0x51496A9A0E99 0xD4 PUSH6 0x3741D2646473 PUSH16 0x6C634300081400330000000000000000 "},"methodIdentifiers":{"sendXCM(uint32,bytes)":"6b206fc7","teleportAsset(uint32,uint256,address)":"599b20fd"}}}}}