{"contracts/BasketManager.sol":{"BasketManager":{"abi":[{"inputs":[],"stateMutability":"nonpayable","type":"constructor"},{"anonymous":false,"inputs":[{"indexed":true,"internalType":"uint256","name":"basketId","type":"uint256"},{"indexed":false,"internalType":"string","name":"name","type":"string"},{"indexed":false,"internalType":"address","name":"token","type":"address"}],"name":"BasketCreated","type":"event"},{"anonymous":false,"inputs":[{"indexed":true,"internalType":"uint256","name":"basketId","type":"uint256"},{"indexed":false,"internalType":"uint32","name":"paraId","type":"uint32"},{"indexed":false,"internalType":"uint256","name":"amount","type":"uint256"}],"name":"DeploymentDispatched","type":"event"},{"anonymous":false,"inputs":[{"indexed":true,"internalType":"uint256","name":"basketId","type":"uint256"},{"indexed":true,"internalType":"address","name":"user","type":"address"},{"indexed":false,"internalType":"uint256","name":"amount","type":"uint256"},{"indexed":false,"internalType":"uint256","name":"tokensMinted","type":"uint256"}],"name":"Deposited","type":"event"},{"anonymous":false,"inputs":[{"indexed":true,"internalType":"uint256","name":"basketId","type":"uint256"},{"indexed":false,"internalType":"uint256","name":"timestamp","type":"uint256"}],"name":"Rebalanced","type":"event"},{"anonymous":false,"inputs":[{"indexed":true,"internalType":"uint256","name":"basketId","type":"uint256"},{"indexed":true,"internalType":"address","name":"user","type":"address"},{"indexed":false,"internalType":"uint256","name":"tokensBurned","type":"uint256"},{"indexed":false,"internalType":"uint256","name":"amountOut","type":"uint256"}],"name":"Withdrawn","type":"event"},{"inputs":[],"name":"PVM_ENGINE","outputs":[{"internalType":"address","name":"","type":"address"}],"stateMutability":"view","type":"function"},{"inputs":[],"name":"XCM_PRECOMPILE","outputs":[{"internalType":"address","name":"","type":"address"}],"stateMutability":"view","type":"function"},{"inputs":[{"internalType":"uint256","name":"","type":"uint256"}],"name":"baskets","outputs":[{"internalType":"uint256","name":"id","type":"uint256"},{"internalType":"string","name":"name","type":"string"},{"internalType":"address","name":"token","type":"address"},{"internalType":"uint256","name":"totalDeposited","type":"uint256"},{"internalType":"bool","name":"active","type":"bool"}],"stateMutability":"view","type":"function"},{"inputs":[{"internalType":"string","name":"name","type":"string"},{"internalType":"string","name":"symbol","type":"string"},{"components":[{"internalType":"uint32","name":"paraId","type":"uint32"},{"internalType":"address","name":"protocol","type":"address"},{"internalType":"uint16","name":"weightBps","type":"uint16"},{"internalType":"bytes","name":"depositCall","type":"bytes"},{"internalType":"bytes","name":"withdrawCall","type":"bytes"}],"internalType":"struct BasketManager.AllocationConfig[]","name":"allocations","type":"tuple[]"}],"name":"createBasket","outputs":[{"internalType":"uint256","name":"basketId","type":"uint256"}],"stateMutability":"nonpayable","type":"function"},{"inputs":[{"internalType":"uint256","name":"basketId","type":"uint256"}],"name":"deposit","outputs":[{"internalType":"uint256","name":"tokensMinted","type":"uint256"}],"stateMutability":"payable","type":"function"},{"inputs":[{"internalType":"uint256","name":"basketId","type":"uint256"}],"name":"getBasket","outputs":[{"components":[{"internalType":"uint256","name":"id","type":"uint256"},{"internalType":"string","name":"name","type":"string"},{"internalType":"address","name":"token","type":"address"},{"components":[{"internalType":"uint32","name":"paraId","type":"uint32"},{"internalType":"address","name":"protocol","type":"address"},{"internalType":"uint16","name":"weightBps","type":"uint16"},{"internalType":"bytes","name":"depositCall","type":"bytes"},{"internalType":"bytes","name":"withdrawCall","type":"bytes"}],"internalType":"struct BasketManager.AllocationConfig[]","name":"allocations","type":"tuple[]"},{"internalType":"uint256","name":"totalDeposited","type":"uint256"},{"internalType":"bool","name":"active","type":"bool"}],"internalType":"struct BasketManager.Basket","name":"","type":"tuple"}],"stateMutability":"view","type":"function"},{"inputs":[{"internalType":"uint256","name":"basketId","type":"uint256"}],"name":"getBasketNAV","outputs":[{"internalType":"uint256","name":"","type":"uint256"}],"stateMutability":"view","type":"function"},{"inputs":[],"name":"nextBasketId","outputs":[{"internalType":"uint256","name":"","type":"uint256"}],"stateMutability":"view","type":"function"},{"inputs":[],"name":"owner","outputs":[{"internalType":"address","name":"","type":"address"}],"stateMutability":"view","type":"function"},{"inputs":[{"internalType":"uint256","name":"basketId","type":"uint256"}],"name":"rebalance","outputs":[],"stateMutability":"nonpayable","type":"function"},{"inputs":[],"name":"rebalanceThresholdBps","outputs":[{"internalType":"uint16","name":"","type":"uint16"}],"stateMutability":"view","type":"function"},{"inputs":[{"internalType":"address","name":"","type":"address"},{"internalType":"uint256","name":"","type":"uint256"}],"name":"userPositions","outputs":[{"internalType":"uint256","name":"basketId","type":"uint256"},{"internalType":"uint256","name":"tokenBalance","type":"uint256"},{"internalType":"uint256","name":"depositedAt","type":"uint256"}],"stateMutability":"view","type":"function"},{"inputs":[{"internalType":"uint256","name":"basketId","type":"uint256"},{"internalType":"uint256","name":"tokenAmount","type":"uint256"}],"name":"withdraw","outputs":[],"stateMutability":"nonpayable","type":"function"}],"evm":{"bytecode":{"linkReferences":{},"object":"608060405260c8600360146101000a81548161ffff021916908361ffff16021790555034801561002e57600080fd5b5033600360006101000a81548173ffffffffffffffffffffffffffffffffffffffff021916908373ffffffffffffffffffffffffffffffffffffffff1602179055506153238061007f6000396000f3fe608060405260043610620000d45760003560e01c80638da5cb5b116200008b578063a76005281162000061578063a760052814620002dd578063af4d612f146200030d578063b6b55f251462000351578063f4993018146200038757620000d4565b80638da5cb5b1462000221578063903746b91462000251578063a60ed374146200029557620000d4565b8063041c42d914620000d9578063077120cc14620001095780634000001a1462000139578063441a3e7014620001695780635e1b4d99146200019757806377977d5014620001dd575b600080fd5b348015620000e657600080fd5b50620000f1620003b5565b60405162000100919062001b8a565b60405180910390f35b3480156200011657600080fd5b5062000121620003bb565b60405162000130919062001b8a565b60405180910390f35b3480156200014657600080fd5b5062000151620003c1565b60405162000160919062001bc6565b60405180910390f35b3480156200017657600080fd5b506200019560048036038101906200018f919062001c32565b620003d5565b005b348015620001a457600080fd5b50620001c36004803603810190620001bd919062001caa565b620008b6565b604051620001d49392919062001d02565b60405180910390f35b348015620001ea57600080fd5b5062000209600480360381019062000203919062001d3f565b620008fe565b604051620002189190620020cc565b60405180910390f35b3480156200022e57600080fd5b506200023962000c7d565b60405162000248919062001b8a565b60405180910390f35b3480156200025e57600080fd5b506200027d600480360381019062000277919062001d3f565b62000ca3565b6040516200028c9190620020f0565b60405180910390f35b348015620002a257600080fd5b50620002c16004803603810190620002bb919062001d3f565b62000cc3565b604051620002d495949392919062002170565b60405180910390f35b348015620002ea57600080fd5b50620002f562000db6565b604051620003049190620020f0565b60405180910390f35b3480156200031a57600080fd5b50620003396004803603810190620003339190620022a1565b62000dbc565b604051620003489190620020f0565b60405180910390f35b6200036f600480360381019062000369919062001d3f565b62001029565b6040516200037e9190620020f0565b60405180910390f35b3480156200039457600080fd5b50620003b36004803603810190620003ad919062001d3f565b620011f5565b005b61090081565b61080081565b600360149054906101000a900461ffff1681565b60006001600084815260200190815260200160002090508060050160009054906101000a900460ff1662000440576040517f08c379a00000000000000000000000000000000000000000000000000000000081526004016200043790620023b7565b60405180910390fd5b8060020160009054906101000a900473ffffffffffffffffffffffffffffffffffffffff1673ffffffffffffffffffffffffffffffffffffffff16639dc29fac33846040518363ffffffff1660e01b8152600401620004a1929190620023d9565b600060405180830381600087803b158015620004bc57600080fd5b505af1158015620004d1573d6000803e3d6000fd5b5050505060008160020160009054906101000a900473ffffffffffffffffffffffffffffffffffffffff1673ffffffffffffffffffffffffffffffffffffffff166318160ddd6040518163ffffffff1660e01b8152600401602060405180830381865afa15801562000547573d6000803e3d6000fd5b505050506040513d601f19601f820116820180604052508101906200056d91906200241d565b670de0b6b3a7640000846200058391906200247e565b6200058f9190620024f8565b905060005b82600301805490508110156200083f57600069021e19e0c9bab240000083856003018481548110620005cb57620005ca62002530565b5b906000526020600020906003020160000160189054906101000a900461ffff1661ffff1686600401546200060091906200247e565b6200060c91906200247e565b620006189190620024f8565b90506200082884600301838154811062000637576200063662002530565b5b90600052602060002090600302016040518060a00160405290816000820160009054906101000a900463ffffffff1663ffffffff1663ffffffff1681526020016000820160049054906101000a900473ffffffffffffffffffffffffffffffffffffffff1673ffffffffffffffffffffffffffffffffffffffff1673ffffffffffffffffffffffffffffffffffffffff1681526020016000820160189054906101000a900461ffff1661ffff1661ffff168152602001600182018054620006fe906200258e565b80601f01602080910402602001604051908101604052809291908181526020018280546200072c906200258e565b80156200077d5780601f1062000751576101008083540402835291602001916200077d565b820191906000526020600020905b8154815290600101906020018083116200075f57829003601f168201915b5050505050815260200160028201805462000798906200258e565b80601f0160208091040260200160405190810160405280929190818152602001828054620007c6906200258e565b8015620008175780601f10620007eb5761010080835404028352916020019162000817565b820191906000526020600020905b815481529060010190602001808311620007f957829003601f168201915b5050505050815250508233620013e7565b5080806200083690620025c3565b91505062000594565b508282600401600082825462000856919062002610565b925050819055503373ffffffffffffffffffffffffffffffffffffffff16847f1c84cc0f96161bdafea718a9094dd21c21d1fb2f9ca2ebb9bd4e39918efbaace8586604051620008a89291906200264b565b60405180910390a350505050565b60026020528160005260406000208181548110620008d357600080fd5b9060005260206000209060030201600091509150508060000154908060010154908060020154905083565b6200090862001ae9565b600160008381526020019081526020016000206040518060c00160405290816000820154815260200160018201805462000942906200258e565b80601f016020809104026020016040519081016040528092919081815260200182805462000970906200258e565b8015620009c15780601f106200099557610100808354040283529160200191620009c1565b820191906000526020600020905b815481529060010190602001808311620009a357829003601f168201915b505050505081526020016002820160009054906101000a900473ffffffffffffffffffffffffffffffffffffffff1673ffffffffffffffffffffffffffffffffffffffff1673ffffffffffffffffffffffffffffffffffffffff16815260200160038201805480602002602001604051908101604052809291908181526020016000905b8282101562000c4957838290600052602060002090600302016040518060a00160405290816000820160009054906101000a900463ffffffff1663ffffffff1663ffffffff1681526020016000820160049054906101000a900473ffffffffffffffffffffffffffffffffffffffff1673ffffffffffffffffffffffffffffffffffffffff1673ffffffffffffffffffffffffffffffffffffffff1681526020016000820160189054906101000a900461ffff1661ffff1661ffff16815260200160018201805462000b17906200258e565b80601f016020809104026020016040519081016040528092919081815260200182805462000b45906200258e565b801562000b965780601f1062000b6a5761010080835404028352916020019162000b96565b820191906000526020600020905b81548152906001019060200180831162000b7857829003601f168201915b5050505050815260200160028201805462000bb1906200258e565b80601f016020809104026020016040519081016040528092919081815260200182805462000bdf906200258e565b801562000c305780601f1062000c045761010080835404028352916020019162000c30565b820191906000526020600020905b81548152906001019060200180831162000c1257829003601f168201915b5050505050815250508152602001906001019062000a45565b505050508152602001600482015481526020016005820160009054906101000a900460ff1615151515815250509050919050565b600360009054906101000a900473ffffffffffffffffffffffffffffffffffffffff1681565b600060016000838152602001908152602001600020600401549050919050565b600160205280600052604060002060009150905080600001549080600101805462000cee906200258e565b80601f016020809104026020016040519081016040528092919081815260200182805462000d1c906200258e565b801562000d6d5780601f1062000d415761010080835404028352916020019162000d6d565b820191906000526020600020905b81548152906001019060200180831162000d4f57829003601f168201915b5050505050908060020160009054906101000a900473ffffffffffffffffffffffffffffffffffffffff16908060040154908060050160009054906101000a900460ff16905085565b60005481565b6000600360009054906101000a900473ffffffffffffffffffffffffffffffffffffffff1673ffffffffffffffffffffffffffffffffffffffff163373ffffffffffffffffffffffffffffffffffffffff161462000e51576040517f08c379a000000000000000000000000000000000000000000000000000000000815260040162000e4890620026c8565b60405180910390fd5b62000e5d838362001498565b60008081548092919062000e7190620025c3565b9190505590506000878787873060405162000e8c9062001b37565b62000e9c9594939291906200272c565b604051809103906000f08015801562000eb9573d6000803e3d6000fd5b5090506000600160008481526020019081526020016000209050828160000181905550888882600101918262000ef192919062002987565b50818160020160006101000a81548173ffffffffffffffffffffffffffffffffffffffff021916908373ffffffffffffffffffffffffffffffffffffffff16021790555060018160050160006101000a81548160ff02191690831515021790555060005b8585905081101562000fde578160030186868381811062000f7b5762000f7a62002530565b5b905060200281019062000f8f919062002a7b565b9080600181540180825580915050600190039060005260206000209060030201600090919091909150818162000fc6919062002fb4565b5050808062000fd590620025c3565b91505062000f55565b50827f829f34ae8184bf5738e5e995441f1e5d7ccbb07fe323b0d01d850c3dfa08182b8a8a85604051620010159392919062002fc4565b60405180910390a250509695505050505050565b6000806001600084815260200190815260200160002090508060050160009054906101000a900460ff1662001095576040517f08c379a00000000000000000000000000000000000000000000000000000000081526004016200108c90620023b7565b60405180910390fd5b60003411620010db576040517f08c379a0000000000000000000000000000000000000000000000000000000008152600401620010d2906200304a565b60405180910390fd5b3491508060020160009054906101000a900473ffffffffffffffffffffffffffffffffffffffff1673ffffffffffffffffffffffffffffffffffffffff166340c10f1933846040518363ffffffff1660e01b81526004016200113f929190620023d9565b600060405180830381600087803b1580156200115a57600080fd5b505af11580156200116f573d6000803e3d6000fd5b50505050348160040160008282546200118991906200306c565b925050819055506200119c833462001560565b3373ffffffffffffffffffffffffffffffffffffffff16837fad5b4075b97dbf75ad5c78f7afac948e4ae611c4fdf2825e2ce3c6c96925bf3b3485604051620011e79291906200264b565b60405180910390a350919050565b60006001600083815260200190815260200160002090508060050160009054906101000a900460ff1662001260576040517f08c379a00000000000000000000000000000000000000000000000000000000081526004016200125790620023b7565b60405180910390fd5b60006200126d8262001823565b905060006200127c826200193c565b9050600081806020019051810190620012969190620031e9565b905060005b8460030180549050811015620013a557600360149054906101000a900461ffff1661ffff1662001321866003018381548110620012dd57620012dc62002530565b5b906000526020600020906003020160000160189054906101000a900461ffff1684848151811062001313576200131262002530565b5b6020026020010151620019fe565b61ffff1611156200138f5781818151811062001342576200134162002530565b5b602002602001015185600301828154811062001363576200136262002530565b5b906000526020600020906003020160000160186101000a81548161ffff021916908361ffff1602179055505b80806200139c90620025c3565b9150506200129b565b50847fc257294ad49c215e1a248c91a86bc2612b4781d9677285cc9c14498f485ef12242604051620013d89190620020f0565b60405180910390a25050505050565b60008360000151838560800151846040516020016200140a94939291906200329d565b604051602081830303815290604052905061080073ffffffffffffffffffffffffffffffffffffffff16636b206fc78560000151836040518363ffffffff1660e01b81526004016200145e929190620032f1565b600060405180830381600087803b1580156200147957600080fd5b505af11580156200148e573d6000803e3d6000fd5b5050505050505050565b600080600090505b838390508110156200151357838382818110620014c257620014c162002530565b5b9050602002810190620014d6919062002a7b565b6040016020810190620014ea91906200333c565b61ffff1682620014fb91906200306c565b915080806200150a90620025c3565b915050620014a0565b5061271081146200155b576040517f08c379a00000000000000000000000000000000000000000000000000000000081526004016200155290620033be565b60405180910390fd5b505050565b600060016000848152602001908152602001600020905060005b81600301805490508110156200181d576000826003018281548110620015a557620015a462002530565b5b90600052602060002090600302016040518060a00160405290816000820160009054906101000a900463ffffffff1663ffffffff1663ffffffff1681526020016000820160049054906101000a900473ffffffffffffffffffffffffffffffffffffffff1673ffffffffffffffffffffffffffffffffffffffff1673ffffffffffffffffffffffffffffffffffffffff1681526020016000820160189054906101000a900461ffff1661ffff1661ffff1681526020016001820180546200166c906200258e565b80601f01602080910402602001604051908101604052809291908181526020018280546200169a906200258e565b8015620016eb5780601f10620016bf57610100808354040283529160200191620016eb565b820191906000526020600020905b815481529060010190602001808311620016cd57829003601f168201915b5050505050815260200160028201805462001706906200258e565b80601f016020809104026020016040519081016040528092919081815260200182805462001734906200258e565b8015620017855780601f10620017595761010080835404028352916020019162001785565b820191906000526020600020905b8154815290600101906020018083116200176757829003601f168201915b50505050508152505090506000612710826040015161ffff1686620017ab91906200247e565b620017b79190620024f8565b9050620017c5828262001a3b565b857f2a714abd697b83e14df66ce02bcadcab42e9d2305e12d5abf7b61656dfa689eb836000015183604051620017fd929190620033e0565b60405180910390a2505080806200181490620025c3565b9150506200157a565b50505050565b60606000826003018054905067ffffffffffffffff8111156200184b576200184a62002786565b5b6040519080825280602002602001820160405280156200187a5781602001602082028036833780820191505090505b50905060005b83600301805490508110156200190b57836003018181548110620018a957620018a862002530565b5b906000526020600020906003020160000160189054906101000a900461ffff16828281518110620018df57620018de62002530565b5b602002602001019061ffff16908161ffff168152505080806200190290620025c3565b91505062001880565b5080836004015460405160200162001925929190620034ca565b604051602081830303815290604052915050919050565b606060008061090073ffffffffffffffffffffffffffffffffffffffff16846040516200196a919062003540565b600060405180830381855afa9150503d8060008114620019a7576040519150601f19603f3d011682016040523d82523d6000602084013e620019ac565b606091505b509150915081620019f4576040517f08c379a0000000000000000000000000000000000000000000000000000000008152600401620019eb90620035a9565b60405180910390fd5b8092505050919050565b60008161ffff168361ffff161162001a2457828262001a1e9190620035cb565b62001a33565b818362001a329190620035cb565b5b905092915050565b6000826000015182846060015160405160200162001a5c9392919062003608565b604051602081830303815290604052905061080073ffffffffffffffffffffffffffffffffffffffff16636b206fc78460000151836040518363ffffffff1660e01b815260040162001ab0929190620032f1565b600060405180830381600087803b15801562001acb57600080fd5b505af115801562001ae0573d6000803e3d6000fd5b50505050505050565b6040518060c001604052806000815260200160608152602001600073ffffffffffffffffffffffffffffffffffffffff16815260200160608152602001600081526020016000151581525090565b611ca1806200364d83390190565b600073ffffffffffffffffffffffffffffffffffffffff82169050919050565b600062001b728262001b45565b9050919050565b62001b848162001b65565b82525050565b600060208201905062001ba1600083018462001b79565b92915050565b600061ffff82169050919050565b62001bc08162001ba7565b82525050565b600060208201905062001bdd600083018462001bb5565b92915050565b6000604051905090565b600080fd5b600080fd5b6000819050919050565b62001c0c8162001bf7565b811462001c1857600080fd5b50565b60008135905062001c2c8162001c01565b92915050565b6000806040838503121562001c4c5762001c4b62001bed565b5b600062001c5c8582860162001c1b565b925050602062001c6f8582860162001c1b565b9150509250929050565b62001c848162001b65565b811462001c9057600080fd5b50565b60008135905062001ca48162001c79565b92915050565b6000806040838503121562001cc45762001cc362001bed565b5b600062001cd48582860162001c93565b925050602062001ce78582860162001c1b565b9150509250929050565b62001cfc8162001bf7565b82525050565b600060608201905062001d19600083018662001cf1565b62001d28602083018562001cf1565b62001d37604083018462001cf1565b949350505050565b60006020828403121562001d585762001d5762001bed565b5b600062001d688482850162001c1b565b91505092915050565b62001d7c8162001bf7565b82525050565b600081519050919050565b600082825260208201905092915050565b60005b8381101562001dbe57808201518184015260208101905062001da1565b60008484015250505050565b6000601f19601f8301169050919050565b600062001de88262001d82565b62001df4818562001d8d565b935062001e0681856020860162001d9e565b62001e118162001dca565b840191505092915050565b62001e278162001b65565b82525050565b600081519050919050565b600082825260208201905092915050565b6000819050602082019050919050565b600063ffffffff82169050919050565b62001e748162001e59565b82525050565b62001e858162001ba7565b82525050565b600081519050919050565b600082825260208201905092915050565b600062001eb48262001e8b565b62001ec0818562001e96565b935062001ed281856020860162001d9e565b62001edd8162001dca565b840191505092915050565b600060a08301600083015162001f02600086018262001e69565b50602083015162001f17602086018262001e1c565b50604083015162001f2c604086018262001e7a565b506060830151848203606086015262001f46828262001ea7565b9150506080830151848203608086015262001f62828262001ea7565b9150508091505092915050565b600062001f7d838362001ee8565b905092915050565b6000602082019050919050565b600062001f9f8262001e2d565b62001fab818562001e38565b93508360208202850162001fbf8562001e49565b8060005b8581101562002001578484038952815162001fdf858262001f6f565b945062001fec8362001f85565b925060208a0199505060018101905062001fc3565b50829750879550505050505092915050565b60008115159050919050565b6200202a8162002013565b82525050565b600060c0830160008301516200204a600086018262001d71565b506020830151848203602086015262002064828262001ddb565b91505060408301516200207b604086018262001e1c565b506060830151848203606086015262002095828262001f92565b9150506080830151620020ac608086018262001d71565b5060a0830151620020c160a08601826200201f565b508091505092915050565b60006020820190508181036000830152620020e8818462002030565b905092915050565b600060208201905062002107600083018462001cf1565b92915050565b600082825260208201905092915050565b60006200212b8262001d82565b6200213781856200210d565b93506200214981856020860162001d9e565b620021548162001dca565b840191505092915050565b6200216a8162002013565b82525050565b600060a08201905062002187600083018862001cf1565b81810360208301526200219b81876200211e565b9050620021ac604083018662001b79565b620021bb606083018562001cf1565b620021ca60808301846200215f565b9695505050505050565b600080fd5b600080fd5b600080fd5b60008083601f840112620021fc57620021fb620021d4565b5b8235905067ffffffffffffffff8111156200221c576200221b620021d9565b5b6020830191508360018202830111156200223b576200223a620021de565b5b9250929050565b60008083601f8401126200225b576200225a620021d4565b5b8235905067ffffffffffffffff8111156200227b576200227a620021d9565b5b6020830191508360208202830111156200229a5762002299620021de565b5b9250929050565b60008060008060008060608789031215620022c157620022c062001bed565b5b600087013567ffffffffffffffff811115620022e257620022e162001bf2565b5b620022f089828a01620021e3565b9650965050602087013567ffffffffffffffff81111562002316576200231562001bf2565b5b6200232489828a01620021e3565b9450945050604087013567ffffffffffffffff8111156200234a576200234962001bf2565b5b6200235889828a0162002242565b92509250509295509295509295565b7f4261736b6574206e6f7420616374697665000000000000000000000000000000600082015250565b60006200239f6011836200210d565b9150620023ac8262002367565b602082019050919050565b60006020820190508181036000830152620023d28162002390565b9050919050565b6000604082019050620023f0600083018562001b79565b620023ff602083018462001cf1565b9392505050565b600081519050620024178162001c01565b92915050565b60006020828403121562002436576200243562001bed565b5b6000620024468482850162002406565b91505092915050565b7f4e487b7100000000000000000000000000000000000000000000000000000000600052601160045260246000fd5b60006200248b8262001bf7565b9150620024988362001bf7565b9250828202620024a88162001bf7565b91508282048414831517620024c257620024c16200244f565b5b5092915050565b7f4e487b7100000000000000000000000000000000000000000000000000000000600052601260045260246000fd5b6000620025058262001bf7565b9150620025128362001bf7565b925082620025255762002524620024c9565b5b828204905092915050565b7f4e487b7100000000000000000000000000000000000000000000000000000000600052603260045260246000fd5b7f4e487b7100000000000000000000000000000000000000000000000000000000600052602260045260246000fd5b60006002820490506001821680620025a757607f821691505b602082108103620025bd57620025bc6200255f565b5b50919050565b6000620025d08262001bf7565b91507fffffffffffffffffffffffffffffffffffffffffffffffffffffffffffffffff82036200260557620026046200244f565b5b600182019050919050565b60006200261d8262001bf7565b91506200262a8362001bf7565b92508282039050818111156200264557620026446200244f565b5b92915050565b600060408201905062002662600083018562001cf1565b62002671602083018462001cf1565b9392505050565b7f4e6f74206f776e65720000000000000000000000000000000000000000000000600082015250565b6000620026b06009836200210d565b9150620026bd8262002678565b602082019050919050565b60006020820190508181036000830152620026e381620026a1565b9050919050565b82818337600083830152505050565b60006200270783856200210d565b935062002716838584620026ea565b620027218362001dca565b840190509392505050565b6000606082019050818103600083015262002749818789620026f9565b9050818103602083015262002760818587620026f9565b905062002771604083018462001b79565b9695505050505050565b600082905092915050565b7f4e487b7100000000000000000000000000000000000000000000000000000000600052604160045260246000fd5b60008190508160005260206000209050919050565b60006020601f8301049050919050565b600082821b905092915050565b600060088302620028197fffffffffffffffffffffffffffffffffffffffffffffffffffffffffffffffff82620027da565b620028258683620027da565b95508019841693508086168417925050509392505050565b6000819050919050565b600062002868620028626200285c8462001bf7565b6200283d565b62001bf7565b9050919050565b6000819050919050565b620028848362002847565b6200289c62002893826200286f565b848454620027e7565b825550505050565b600090565b620028b3620028a4565b620028c081848462002879565b505050565b5b81811015620028e857620028dc600082620028a9565b600181019050620028c6565b5050565b601f82111562002937576200290181620027b5565b6200290c84620027ca565b810160208510156200291c578190505b620029346200292b85620027ca565b830182620028c5565b50505b505050565b600082821c905092915050565b60006200295c600019846008026200293c565b1980831691505092915050565b600062002977838362002949565b9150826002028217905092915050565b6200299383836200277b565b67ffffffffffffffff811115620029af57620029ae62002786565b5b620029bb82546200258e565b620029c8828285620028ec565b6000601f831160018114620029fc5760008415620029e7578287013590505b620029f3858262002969565b86555062002a63565b601f19841662002a0c86620027b5565b60005b8281101562002a365784890135825560018201915060208501945060208101905062002a0f565b8683101562002a56578489013562002a52601f89168262002949565b8355505b6001600288020188555050505b50505050505050565b600080fd5b600080fd5b600080fd5b60008235600160a00383360303811262002a9a5762002a9962002a6c565b5b80830191505092915050565b62002ab18162001e59565b811462002abd57600080fd5b50565b6000813562002acf8162002aa6565b80915050919050565b60008160001b9050919050565b600063ffffffff62002af78462002ad8565b9350801983169250808416831791505092915050565b600062002b2e62002b2862002b228462001e59565b6200283d565b62001e59565b9050919050565b6000819050919050565b62002b4a8262002b0d565b62002b6162002b598262002b35565b835462002ae5565b8255505050565b6000813562002b778162001c79565b80915050919050565b60008160201b9050919050565b600077ffffffffffffffffffffffffffffffffffffffff0000000062002bb38462002b80565b9350801983169250808416831791505092915050565b600062002bea62002be462002bde8462001b45565b6200283d565b62001b45565b9050919050565b600062002bfe8262002bc9565b9050919050565b600062002c128262002bf1565b9050919050565b6000819050919050565b62002c2e8262002c05565b62002c4562002c3d8262002c19565b835462002b8d565b8255505050565b62002c578162001ba7565b811462002c6357600080fd5b50565b6000813562002c758162002c4c565b80915050919050565b60008160c01b9050919050565b600079ffff00000000000000000000000000000000000000000000000062002cb38462002c7e565b9350801983169250808416831791505092915050565b600062002cea62002ce462002cde8462001ba7565b6200283d565b62001ba7565b9050919050565b6000819050919050565b62002d068262002cc9565b62002d1d62002d158262002cf1565b835462002c8b565b8255505050565b6000808335600160200384360303811262002d445762002d4362002a6c565b5b80840192508235915067ffffffffffffffff82111562002d695762002d6862002a71565b5b60208301925060018202360383131562002d885762002d8762002a76565b5b509250929050565b600082905092915050565b60008190508160005260206000209050919050565b601f82111562002dfb5762002dc58162002d9b565b62002dd084620027ca565b8101602085101562002de0578190505b62002df862002def85620027ca565b830182620028c5565b50505b505050565b62002e0c838362002d90565b67ffffffffffffffff81111562002e285762002e2762002786565b5b62002e3482546200258e565b62002e4182828562002db0565b6000601f83116001811462002e75576000841562002e60578287013590505b62002e6c858262002969565b86555062002edc565b601f19841662002e858662002d9b565b60005b8281101562002eaf5784890135825560018201915060208501945060208101905062002e88565b8683101562002ecf578489013562002ecb601f89168262002949565b8355505b6001600288020188555050505b50505050505050565b62002ef283838362002e00565b505050565b60008101600083018062002f0b8162002ac0565b905062002f19818462002b3f565b50505060008101602083018062002f308162002b68565b905062002f3e818462002c23565b50505060008101604083018062002f558162002c66565b905062002f63818462002cfb565b505050600181016060830162002f7a818562002d24565b62002f8781838662002ee5565b50505050600281016080830162002f9f818562002d24565b62002fac81838662002ee5565b505050505050565b62002fc0828262002ef7565b5050565b6000604082019050818103600083015262002fe1818587620026f9565b905062002ff2602083018462001b79565b949350505050565b7f4d757374206465706f736974203e203000000000000000000000000000000000600082015250565b6000620030326010836200210d565b91506200303f8262002ffa565b602082019050919050565b60006020820190508181036000830152620030658162003023565b9050919050565b6000620030798262001bf7565b9150620030868362001bf7565b9250828201905080821115620030a157620030a06200244f565b5b92915050565b620030b28262001dca565b810181811067ffffffffffffffff82111715620030d457620030d362002786565b5b80604052505050565b6000620030e962001be3565b9050620030f78282620030a7565b919050565b600067ffffffffffffffff8211156200311a576200311962002786565b5b602082029050602081019050919050565b6000815190506200313c8162002c4c565b92915050565b6000620031596200315384620030fc565b620030dd565b905080838252602082019050602084028301858111156200317f576200317e620021de565b5b835b81811015620031ac57806200319788826200312b565b84526020840193505060208101905062003181565b5050509392505050565b600082601f830112620031ce57620031cd620021d4565b5b8151620031e084826020860162003142565b91505092915050565b60006020828403121562003202576200320162001bed565b5b600082015167ffffffffffffffff81111562003223576200322262001bf2565b5b6200323184828501620031b6565b91505092915050565b620032458162001e59565b82525050565b600082825260208201905092915050565b6000620032698262001e8b565b6200327581856200324b565b93506200328781856020860162001d9e565b620032928162001dca565b840191505092915050565b6000608082019050620032b460008301876200323a565b620032c3602083018662001cf1565b8181036040830152620032d781856200325c565b9050620032e8606083018462001b79565b95945050505050565b60006040820190506200330860008301856200323a565b81810360208301526200331c81846200325c565b90509392505050565b600081359050620033368162002c4c565b92915050565b60006020828403121562003355576200335462001bed565b5b6000620033658482850162003325565b91505092915050565b7f57656967687473206d7573742073756d20746f20313030303020627073000000600082015250565b6000620033a6601d836200210d565b9150620033b3826200336e565b602082019050919050565b60006020820190508181036000830152620033d98162003397565b9050919050565b6000604082019050620033f760008301856200323a565b62003406602083018462001cf1565b9392505050565b600081519050919050565b600082825260208201905092915050565b6000819050602082019050919050565b600062003447838362001e7a565b60208301905092915050565b6000602082019050919050565b60006200346d826200340d565b62003479818562003418565b9350620034868362003429565b8060005b83811015620034bd578151620034a1888262003439565b9750620034ae8362003453565b9250506001810190506200348a565b5085935050505092915050565b60006040820190508181036000830152620034e6818562003460565b9050620034f7602083018462001cf1565b9392505050565b600081905092915050565b6000620035168262001e8b565b620035228185620034fe565b93506200353481856020860162001d9e565b80840191505092915050565b60006200354e828462003509565b915081905092915050565b7f50564d20656e67696e652063616c6c206661696c656400000000000000000000600082015250565b6000620035916016836200210d565b91506200359e8262003559565b602082019050919050565b60006020820190508181036000830152620035c48162003582565b9050919050565b6000620035d88262001ba7565b9150620035e58362001ba7565b9250828203905061ffff8111156200360257620036016200244f565b5b92915050565b60006060820190506200361f60008301866200323a565b6200362e602083018562001cf1565b81810360408301526200364281846200325c565b905094935050505056fe60806040523480156200001157600080fd5b5060405162001ca138038062001ca18339818101604052810190620000379190620003ef565b33838381600390816200004b9190620006d4565b5080600490816200005d9190620006d4565b505050600073ffffffffffffffffffffffffffffffffffffffff168173ffffffffffffffffffffffffffffffffffffffff1603620000d55760006040517f1e4fbdf7000000000000000000000000000000000000000000000000000000008152600401620000cc9190620007cc565b60405180910390fd5b620000e6816200013160201b60201c565b5080600660006101000a81548173ffffffffffffffffffffffffffffffffffffffff021916908373ffffffffffffffffffffffffffffffffffffffff160217905550505050620007e9565b6000600560009054906101000a900473ffffffffffffffffffffffffffffffffffffffff16905081600560006101000a81548173ffffffffffffffffffffffffffffffffffffffff021916908373ffffffffffffffffffffffffffffffffffffffff1602179055508173ffffffffffffffffffffffffffffffffffffffff168173ffffffffffffffffffffffffffffffffffffffff167f8be0079c531659141344cd1fd0a4f28419497f9722a3daafe3b4186f6b6457e060405160405180910390a35050565b6000604051905090565b600080fd5b600080fd5b600080fd5b600080fd5b6000601f19601f8301169050919050565b7f4e487b7100000000000000000000000000000000000000000000000000000000600052604160045260246000fd5b620002608262000215565b810181811067ffffffffffffffff8211171562000282576200028162000226565b5b80604052505050565b600062000297620001f7565b9050620002a5828262000255565b919050565b600067ffffffffffffffff821115620002c857620002c762000226565b5b620002d38262000215565b9050602081019050919050565b60005b8381101562000300578082015181840152602081019050620002e3565b60008484015250505050565b6000620003236200031d84620002aa565b6200028b565b90508281526020810184848401111562000342576200034162000210565b5b6200034f848285620002e0565b509392505050565b600082601f8301126200036f576200036e6200020b565b5b8151620003818482602086016200030c565b91505092915050565b600073ffffffffffffffffffffffffffffffffffffffff82169050919050565b6000620003b7826200038a565b9050919050565b620003c981620003aa565b8114620003d557600080fd5b50565b600081519050620003e981620003be565b92915050565b6000806000606084860312156200040b576200040a62000201565b5b600084015167ffffffffffffffff8111156200042c576200042b62000206565b5b6200043a8682870162000357565b935050602084015167ffffffffffffffff8111156200045e576200045d62000206565b5b6200046c8682870162000357565b92505060406200047f86828701620003d8565b9150509250925092565b600081519050919050565b7f4e487b7100000000000000000000000000000000000000000000000000000000600052602260045260246000fd5b60006002820490506001821680620004dc57607f821691505b602082108103620004f257620004f162000494565b5b50919050565b60008190508160005260206000209050919050565b60006020601f8301049050919050565b600082821b905092915050565b6000600883026200055c7fffffffffffffffffffffffffffffffffffffffffffffffffffffffffffffffff826200051d565b6200056886836200051d565b95508019841693508086168417925050509392505050565b6000819050919050565b6000819050919050565b6000620005b5620005af620005a98462000580565b6200058a565b62000580565b9050919050565b6000819050919050565b620005d18362000594565b620005e9620005e082620005bc565b8484546200052a565b825550505050565b600090565b62000600620005f1565b6200060d818484620005c6565b505050565b5b81811015620006355762000629600082620005f6565b60018101905062000613565b5050565b601f82111562000684576200064e81620004f8565b62000659846200050d565b8101602085101562000669578190505b6200068162000678856200050d565b83018262000612565b50505b505050565b600082821c905092915050565b6000620006a96000198460080262000689565b1980831691505092915050565b6000620006c4838362000696565b9150826002028217905092915050565b620006df8262000489565b67ffffffffffffffff811115620006fb57620006fa62000226565b5b620007078254620004c3565b6200071482828562000639565b600060209050601f8311600181146200074c576000841562000737578287015190505b620007438582620006b6565b865550620007b3565b601f1984166200075c86620004f8565b60005b8281101562000786578489015182556001820191506020850194506020810190506200075f565b86831015620007a65784890151620007a2601f89168262000696565b8355505b6001600288020188555050505b505050505050565b620007c681620003aa565b82525050565b6000602082019050620007e36000830184620007bb565b92915050565b6114a880620007f96000396000f3fe608060405234801561001057600080fd5b50600436106101005760003560e01c8063715018a611610097578063a9059cbb11610066578063a9059cbb1461028b578063d0ebdbe7146102bb578063dd62ed3e146102d7578063f2fde38b1461030757610100565b8063715018a6146102295780638da5cb5b1461023357806395d89b41146102515780639dc29fac1461026f57610100565b806323b872dd116100d357806323b872dd1461018f578063313ce567146101bf57806340c10f19146101dd57806370a08231146101f957610100565b806306fdde0314610105578063095ea7b31461012357806318160ddd1461015357806322d23f6814610171575b600080fd5b61010d610323565b60405161011a9190611090565b60405180910390f35b61013d6004803603810190610138919061114b565b6103b5565b60405161014a91906111a6565b60405180910390f35b61015b6103d8565b60405161016891906111d0565b60405180910390f35b6101796103e2565b60405161018691906111fa565b60405180910390f35b6101a960048036038101906101a49190611215565b610408565b6040516101b691906111a6565b60405180910390f35b6101c7610437565b6040516101d49190611284565b60405180910390f35b6101f760048036038101906101f2919061114b565b610440565b005b610213600480360381019061020e919061129f565b6104de565b60405161022091906111d0565b60405180910390f35b610231610526565b005b61023b61053a565b60405161024891906111fa565b60405180910390f35b610259610564565b6040516102669190611090565b60405180910390f35b6102896004803603810190610284919061114b565b6105f6565b005b6102a560048036038101906102a0919061114b565b610694565b6040516102b291906111a6565b60405180910390f35b6102d560048036038101906102d0919061129f565b6106b7565b005b6102f160048036038101906102ec91906112cc565b610703565b6040516102fe91906111d0565b60405180910390f35b610321600480360381019061031c919061129f565b61078a565b005b6060600380546103329061133b565b80601f016020809104026020016040519081016040528092919081815260200182805461035e9061133b565b80156103ab5780601f10610380576101008083540402835291602001916103ab565b820191906000526020600020905b81548152906001019060200180831161038e57829003601f168201915b5050505050905090565b6000806103c0610810565b90506103cd818585610818565b600191505092915050565b6000600254905090565b600660009054906101000a900473ffffffffffffffffffffffffffffffffffffffff1681565b600080610413610810565b905061042085828561082a565b61042b8585856108bf565b60019150509392505050565b60006012905090565b600660009054906101000a900473ffffffffffffffffffffffffffffffffffffffff1673ffffffffffffffffffffffffffffffffffffffff163373ffffffffffffffffffffffffffffffffffffffff16146104d0576040517f08c379a00000000000000000000000000000000000000000000000000000000081526004016104c7906113b8565b60405180910390fd5b6104da82826109b3565b5050565b60008060008373ffffffffffffffffffffffffffffffffffffffff1673ffffffffffffffffffffffffffffffffffffffff168152602001908152602001600020549050919050565b61052e610a35565b6105386000610abc565b565b6000600560009054906101000a900473ffffffffffffffffffffffffffffffffffffffff16905090565b6060600480546105739061133b565b80601f016020809104026020016040519081016040528092919081815260200182805461059f9061133b565b80156105ec5780601f106105c1576101008083540402835291602001916105ec565b820191906000526020600020905b8154815290600101906020018083116105cf57829003601f168201915b5050505050905090565b600660009054906101000a900473ffffffffffffffffffffffffffffffffffffffff1673ffffffffffffffffffffffffffffffffffffffff163373ffffffffffffffffffffffffffffffffffffffff1614610686576040517f08c379a000000000000000000000000000000000000000000000000000000000815260040161067d906113b8565b60405180910390fd5b6106908282610b82565b5050565b60008061069f610810565b90506106ac8185856108bf565b600191505092915050565b6106bf610a35565b80600660006101000a81548173ffffffffffffffffffffffffffffffffffffffff021916908373ffffffffffffffffffffffffffffffffffffffff16021790555050565b6000600160008473ffffffffffffffffffffffffffffffffffffffff1673ffffffffffffffffffffffffffffffffffffffff16815260200190815260200160002060008373ffffffffffffffffffffffffffffffffffffffff1673ffffffffffffffffffffffffffffffffffffffff16815260200190815260200160002054905092915050565b610792610a35565b600073ffffffffffffffffffffffffffffffffffffffff168173ffffffffffffffffffffffffffffffffffffffff16036108045760006040517f1e4fbdf70000000000000000000000000000000000000000000000000000000081526004016107fb91906111fa565b60405180910390fd5b61080d81610abc565b50565b600033905090565b6108258383836001610c04565b505050565b60006108368484610703565b90507fffffffffffffffffffffffffffffffffffffffffffffffffffffffffffffffff8110156108b957818110156108a9578281836040517ffb8f41b20000000000000000000000000000000000000000000000000000000081526004016108a0939291906113d8565b60405180910390fd5b6108b884848484036000610c04565b5b50505050565b600073ffffffffffffffffffffffffffffffffffffffff168373ffffffffffffffffffffffffffffffffffffffff16036109315760006040517f96c6fd1e00000000000000000000000000000000000000000000000000000000815260040161092891906111fa565b60405180910390fd5b600073ffffffffffffffffffffffffffffffffffffffff168273ffffffffffffffffffffffffffffffffffffffff16036109a35760006040517fec442f0500000000000000000000000000000000000000000000000000000000815260040161099a91906111fa565b60405180910390fd5b6109ae838383610ddb565b505050565b600073ffffffffffffffffffffffffffffffffffffffff168273ffffffffffffffffffffffffffffffffffffffff1603610a255760006040517fec442f05000000000000000000000000000000000000000000000000000000008152600401610a1c91906111fa565b60405180910390fd5b610a3160008383610ddb565b5050565b610a3d610810565b73ffffffffffffffffffffffffffffffffffffffff16610a5b61053a565b73ffffffffffffffffffffffffffffffffffffffff1614610aba57610a7e610810565b6040517f118cdaa7000000000000000000000000000000000000000000000000000000008152600401610ab191906111fa565b60405180910390fd5b565b6000600560009054906101000a900473ffffffffffffffffffffffffffffffffffffffff16905081600560006101000a81548173ffffffffffffffffffffffffffffffffffffffff021916908373ffffffffffffffffffffffffffffffffffffffff1602179055508173ffffffffffffffffffffffffffffffffffffffff168173ffffffffffffffffffffffffffffffffffffffff167f8be0079c531659141344cd1fd0a4f28419497f9722a3daafe3b4186f6b6457e060405160405180910390a35050565b600073ffffffffffffffffffffffffffffffffffffffff168273ffffffffffffffffffffffffffffffffffffffff1603610bf45760006040517f96c6fd1e000000000000000000000000000000000000000000000000000000008152600401610beb91906111fa565b60405180910390fd5b610c0082600083610ddb565b5050565b600073ffffffffffffffffffffffffffffffffffffffff168473ffffffffffffffffffffffffffffffffffffffff1603610c765760006040517fe602df05000000000000000000000000000000000000000000000000000000008152600401610c6d91906111fa565b60405180910390fd5b600073ffffffffffffffffffffffffffffffffffffffff168373ffffffffffffffffffffffffffffffffffffffff1603610ce85760006040517f94280d62000000000000000000000000000000000000000000000000000000008152600401610cdf91906111fa565b60405180910390fd5b81600160008673ffffffffffffffffffffffffffffffffffffffff1673ffffffffffffffffffffffffffffffffffffffff16815260200190815260200160002060008573ffffffffffffffffffffffffffffffffffffffff1673ffffffffffffffffffffffffffffffffffffffff168152602001908152602001600020819055508015610dd5578273ffffffffffffffffffffffffffffffffffffffff168473ffffffffffffffffffffffffffffffffffffffff167f8c5be1e5ebec7d5bd14f71427d1e84f3dd0314c0f7b2291e5b200ac8c7c3b92584604051610dcc91906111d0565b60405180910390a35b50505050565b600073ffffffffffffffffffffffffffffffffffffffff168373ffffffffffffffffffffffffffffffffffffffff1603610e2d578060026000828254610e21919061143e565b92505081905550610f00565b60008060008573ffffffffffffffffffffffffffffffffffffffff1673ffffffffffffffffffffffffffffffffffffffff16815260200190815260200160002054905081811015610eb9578381836040517fe450d38c000000000000000000000000000000000000000000000000000000008152600401610eb0939291906113d8565b60405180910390fd5b8181036000808673ffffffffffffffffffffffffffffffffffffffff1673ffffffffffffffffffffffffffffffffffffffff16815260200190815260200160002081905550505b600073ffffffffffffffffffffffffffffffffffffffff168273ffffffffffffffffffffffffffffffffffffffff1603610f495780600260008282540392505081905550610f96565b806000808473ffffffffffffffffffffffffffffffffffffffff1673ffffffffffffffffffffffffffffffffffffffff168152602001908152602001600020600082825401925050819055505b8173ffffffffffffffffffffffffffffffffffffffff168373ffffffffffffffffffffffffffffffffffffffff167fddf252ad1be2c89b69c2b068fc378daa952ba7f163c4a11628f55a4df523b3ef83604051610ff391906111d0565b60405180910390a3505050565b600081519050919050565b600082825260208201905092915050565b60005b8381101561103a57808201518184015260208101905061101f565b60008484015250505050565b6000601f19601f8301169050919050565b600061106282611000565b61106c818561100b565b935061107c81856020860161101c565b61108581611046565b840191505092915050565b600060208201905081810360008301526110aa8184611057565b905092915050565b600080fd5b600073ffffffffffffffffffffffffffffffffffffffff82169050919050565b60006110e2826110b7565b9050919050565b6110f2816110d7565b81146110fd57600080fd5b50565b60008135905061110f816110e9565b92915050565b6000819050919050565b61112881611115565b811461113357600080fd5b50565b6000813590506111458161111f565b92915050565b60008060408385031215611162576111616110b2565b5b600061117085828601611100565b925050602061118185828601611136565b9150509250929050565b60008115159050919050565b6111a08161118b565b82525050565b60006020820190506111bb6000830184611197565b92915050565b6111ca81611115565b82525050565b60006020820190506111e560008301846111c1565b92915050565b6111f4816110d7565b82525050565b600060208201905061120f60008301846111eb565b92915050565b60008060006060848603121561122e5761122d6110b2565b5b600061123c86828701611100565b935050602061124d86828701611100565b925050604061125e86828701611136565b9150509250925092565b600060ff82169050919050565b61127e81611268565b82525050565b60006020820190506112996000830184611275565b92915050565b6000602082840312156112b5576112b46110b2565b5b60006112c384828501611100565b91505092915050565b600080604083850312156112e3576112e26110b2565b5b60006112f185828601611100565b925050602061130285828601611100565b9150509250929050565b7f4e487b7100000000000000000000000000000000000000000000000000000000600052602260045260246000fd5b6000600282049050600182168061135357607f821691505b6020821081036113665761136561130c565b5b50919050565b7f4e6f74206261736b6574206d616e616765720000000000000000000000000000600082015250565b60006113a260128361100b565b91506113ad8261136c565b602082019050919050565b600060208201905081810360008301526113d181611395565b9050919050565b60006060820190506113ed60008301866111eb565b6113fa60208301856111c1565b61140760408301846111c1565b949350505050565b7f4e487b7100000000000000000000000000000000000000000000000000000000600052601160045260246000fd5b600061144982611115565b915061145483611115565b925082820190508082111561146c5761146b61140f565b5b9291505056fea2646970667358221220d1660bf067522860d7036b26f4d5e51d77edbcc2017a94d8193081b941dffc8b64736f6c63430008140033a2646970667358221220ac1781eb26135300f6fe062f24bf47bc51e5b24e6423e0f4c6d1cac829e5548264736f6c63430008140033","opcodes":"PUSH1 0x80 PUSH1 0x40 MSTORE PUSH1 0xC8 PUSH1 0x3 PUSH1 0x14 PUSH2 0x100 EXP DUP2 SLOAD DUP2 PUSH2 0xFFFF MUL NOT AND SWAP1 DUP4 PUSH2 0xFFFF AND MUL OR SWAP1 SSTORE POP CALLVALUE DUP1 ISZERO PUSH2 0x2E JUMPI PUSH1 0x0 DUP1 REVERT JUMPDEST POP CALLER PUSH1 0x3 PUSH1 0x0 PUSH2 0x100 EXP DUP2 SLOAD DUP2 PUSH20 0xFFFFFFFFFFFFFFFFFFFFFFFFFFFFFFFFFFFFFFFF MUL NOT AND SWAP1 DUP4 PUSH20 0xFFFFFFFFFFFFFFFFFFFFFFFFFFFFFFFFFFFFFFFF AND MUL OR SWAP1 SSTORE POP PUSH2 0x5323 DUP1 PUSH2 0x7F PUSH1 0x0 CODECOPY PUSH1 0x0 RETURN INVALID PUSH1 0x80 PUSH1 0x40 MSTORE PUSH1 0x4 CALLDATASIZE LT PUSH3 0xD4 JUMPI PUSH1 0x0 CALLDATALOAD PUSH1 0xE0 SHR DUP1 PUSH4 0x8DA5CB5B GT PUSH3 0x8B JUMPI DUP1 PUSH4 0xA7600528 GT PUSH3 0x61 JUMPI DUP1 PUSH4 0xA7600528 EQ PUSH3 0x2DD JUMPI DUP1 PUSH4 0xAF4D612F EQ PUSH3 0x30D JUMPI DUP1 PUSH4 0xB6B55F25 EQ PUSH3 0x351 JUMPI DUP1 PUSH4 0xF4993018 EQ PUSH3 0x387 JUMPI PUSH3 0xD4 JUMP JUMPDEST DUP1 PUSH4 0x8DA5CB5B EQ PUSH3 0x221 JUMPI DUP1 PUSH4 0x903746B9 EQ PUSH3 0x251 JUMPI DUP1 PUSH4 0xA60ED374 EQ PUSH3 0x295 JUMPI PUSH3 0xD4 JUMP JUMPDEST DUP1 PUSH4 0x41C42D9 EQ PUSH3 0xD9 JUMPI DUP1 PUSH4 0x77120CC EQ PUSH3 0x109 JUMPI DUP1 PUSH4 0x4000001A EQ PUSH3 0x139 JUMPI DUP1 PUSH4 0x441A3E70 EQ PUSH3 0x169 JUMPI DUP1 PUSH4 0x5E1B4D99 EQ PUSH3 0x197 JUMPI DUP1 PUSH4 0x77977D50 EQ PUSH3 0x1DD JUMPI JUMPDEST PUSH1 0x0 DUP1 REVERT JUMPDEST CALLVALUE DUP1 ISZERO PUSH3 0xE6 JUMPI PUSH1 0x0 DUP1 REVERT JUMPDEST POP PUSH3 0xF1 PUSH3 0x3B5 JUMP JUMPDEST PUSH1 0x40 MLOAD PUSH3 0x100 SWAP2 SWAP1 PUSH3 0x1B8A JUMP JUMPDEST PUSH1 0x40 MLOAD DUP1 SWAP2 SUB SWAP1 RETURN JUMPDEST CALLVALUE DUP1 ISZERO PUSH3 0x116 JUMPI PUSH1 0x0 DUP1 REVERT JUMPDEST POP PUSH3 0x121 PUSH3 0x3BB JUMP JUMPDEST PUSH1 0x40 MLOAD PUSH3 0x130 SWAP2 SWAP1 PUSH3 0x1B8A JUMP JUMPDEST PUSH1 0x40 MLOAD DUP1 SWAP2 SUB SWAP1 RETURN JUMPDEST CALLVALUE DUP1 ISZERO PUSH3 0x146 JUMPI PUSH1 0x0 DUP1 REVERT JUMPDEST POP PUSH3 0x151 PUSH3 0x3C1 JUMP JUMPDEST PUSH1 0x40 MLOAD PUSH3 0x160 SWAP2 SWAP1 PUSH3 0x1BC6 JUMP JUMPDEST PUSH1 0x40 MLOAD DUP1 SWAP2 SUB SWAP1 RETURN JUMPDEST CALLVALUE DUP1 ISZERO PUSH3 0x176 JUMPI PUSH1 0x0 DUP1 REVERT JUMPDEST POP PUSH3 0x195 PUSH1 0x4 DUP1 CALLDATASIZE SUB DUP2 ADD SWAP1 PUSH3 0x18F SWAP2 SWAP1 PUSH3 0x1C32 JUMP JUMPDEST PUSH3 0x3D5 JUMP JUMPDEST STOP JUMPDEST CALLVALUE DUP1 ISZERO PUSH3 0x1A4 JUMPI PUSH1 0x0 DUP1 REVERT JUMPDEST POP PUSH3 0x1C3 PUSH1 0x4 DUP1 CALLDATASIZE SUB DUP2 ADD SWAP1 PUSH3 0x1BD SWAP2 SWAP1 PUSH3 0x1CAA JUMP JUMPDEST PUSH3 0x8B6 JUMP JUMPDEST PUSH1 0x40 MLOAD PUSH3 0x1D4 SWAP4 SWAP3 SWAP2 SWAP1 PUSH3 0x1D02 JUMP JUMPDEST PUSH1 0x40 MLOAD DUP1 SWAP2 SUB SWAP1 RETURN JUMPDEST CALLVALUE DUP1 ISZERO PUSH3 0x1EA JUMPI PUSH1 0x0 DUP1 REVERT JUMPDEST POP PUSH3 0x209 PUSH1 0x4 DUP1 CALLDATASIZE SUB DUP2 ADD SWAP1 PUSH3 0x203 SWAP2 SWAP1 PUSH3 0x1D3F JUMP JUMPDEST PUSH3 0x8FE JUMP JUMPDEST PUSH1 0x40 MLOAD PUSH3 0x218 SWAP2 SWAP1 PUSH3 0x20CC JUMP JUMPDEST PUSH1 0x40 MLOAD DUP1 SWAP2 SUB SWAP1 RETURN JUMPDEST CALLVALUE DUP1 ISZERO PUSH3 0x22E JUMPI PUSH1 0x0 DUP1 REVERT JUMPDEST POP PUSH3 0x239 PUSH3 0xC7D JUMP JUMPDEST PUSH1 0x40 MLOAD PUSH3 0x248 SWAP2 SWAP1 PUSH3 0x1B8A JUMP JUMPDEST PUSH1 0x40 MLOAD DUP1 SWAP2 SUB SWAP1 RETURN JUMPDEST CALLVALUE DUP1 ISZERO PUSH3 0x25E JUMPI PUSH1 0x0 DUP1 REVERT JUMPDEST POP PUSH3 0x27D PUSH1 0x4 DUP1 CALLDATASIZE SUB DUP2 ADD SWAP1 PUSH3 0x277 SWAP2 SWAP1 PUSH3 0x1D3F JUMP JUMPDEST PUSH3 0xCA3 JUMP JUMPDEST PUSH1 0x40 MLOAD PUSH3 0x28C SWAP2 SWAP1 PUSH3 0x20F0 JUMP JUMPDEST PUSH1 0x40 MLOAD DUP1 SWAP2 SUB SWAP1 RETURN JUMPDEST CALLVALUE DUP1 ISZERO PUSH3 0x2A2 JUMPI PUSH1 0x0 DUP1 REVERT JUMPDEST POP PUSH3 0x2C1 PUSH1 0x4 DUP1 CALLDATASIZE SUB DUP2 ADD SWAP1 PUSH3 0x2BB SWAP2 SWAP1 PUSH3 0x1D3F JUMP JUMPDEST PUSH3 0xCC3 JUMP JUMPDEST PUSH1 0x40 MLOAD PUSH3 0x2D4 SWAP6 SWAP5 SWAP4 SWAP3 SWAP2 SWAP1 PUSH3 0x2170 JUMP JUMPDEST PUSH1 0x40 MLOAD DUP1 SWAP2 SUB SWAP1 RETURN JUMPDEST CALLVALUE DUP1 ISZERO PUSH3 0x2EA JUMPI PUSH1 0x0 DUP1 REVERT JUMPDEST POP PUSH3 0x2F5 PUSH3 0xDB6 JUMP JUMPDEST PUSH1 0x40 MLOAD PUSH3 0x304 SWAP2 SWAP1 PUSH3 0x20F0 JUMP JUMPDEST PUSH1 0x40 MLOAD DUP1 SWAP2 SUB SWAP1 RETURN JUMPDEST CALLVALUE DUP1 ISZERO PUSH3 0x31A JUMPI PUSH1 0x0 DUP1 REVERT JUMPDEST POP PUSH3 0x339 PUSH1 0x4 DUP1 CALLDATASIZE SUB DUP2 ADD SWAP1 PUSH3 0x333 SWAP2 SWAP1 PUSH3 0x22A1 JUMP JUMPDEST PUSH3 0xDBC JUMP JUMPDEST PUSH1 0x40 MLOAD PUSH3 0x348 SWAP2 SWAP1 PUSH3 0x20F0 JUMP JUMPDEST PUSH1 0x40 MLOAD DUP1 SWAP2 SUB SWAP1 RETURN JUMPDEST PUSH3 0x36F PUSH1 0x4 DUP1 CALLDATASIZE SUB DUP2 ADD SWAP1 PUSH3 0x369 SWAP2 SWAP1 PUSH3 0x1D3F JUMP JUMPDEST PUSH3 0x1029 JUMP JUMPDEST PUSH1 0x40 MLOAD PUSH3 0x37E SWAP2 SWAP1 PUSH3 0x20F0 JUMP JUMPDEST PUSH1 0x40 MLOAD DUP1 SWAP2 SUB SWAP1 RETURN JUMPDEST CALLVALUE DUP1 ISZERO PUSH3 0x394 JUMPI PUSH1 0x0 DUP1 REVERT JUMPDEST POP PUSH3 0x3B3 PUSH1 0x4 DUP1 CALLDATASIZE SUB DUP2 ADD SWAP1 PUSH3 0x3AD SWAP2 SWAP1 PUSH3 0x1D3F JUMP JUMPDEST PUSH3 0x11F5 JUMP JUMPDEST STOP JUMPDEST PUSH2 0x900 DUP2 JUMP JUMPDEST PUSH2 0x800 DUP2 JUMP JUMPDEST PUSH1 0x3 PUSH1 0x14 SWAP1 SLOAD SWAP1 PUSH2 0x100 EXP SWAP1 DIV PUSH2 0xFFFF AND DUP2 JUMP JUMPDEST PUSH1 0x0 PUSH1 0x1 PUSH1 0x0 DUP5 DUP2 MSTORE PUSH1 0x20 ADD SWAP1 DUP2 MSTORE PUSH1 0x20 ADD PUSH1 0x0 KECCAK256 SWAP1 POP DUP1 PUSH1 0x5 ADD PUSH1 0x0 SWAP1 SLOAD SWAP1 PUSH2 0x100 EXP SWAP1 DIV PUSH1 0xFF AND PUSH3 0x440 JUMPI PUSH1 0x40 MLOAD PUSH32 0x8C379A000000000000000000000000000000000000000000000000000000000 DUP2 MSTORE PUSH1 0x4 ADD PUSH3 0x437 SWAP1 PUSH3 0x23B7 JUMP JUMPDEST PUSH1 0x40 MLOAD DUP1 SWAP2 SUB SWAP1 REVERT JUMPDEST DUP1 PUSH1 0x2 ADD PUSH1 0x0 SWAP1 SLOAD SWAP1 PUSH2 0x100 EXP SWAP1 DIV PUSH20 0xFFFFFFFFFFFFFFFFFFFFFFFFFFFFFFFFFFFFFFFF AND PUSH20 0xFFFFFFFFFFFFFFFFFFFFFFFFFFFFFFFFFFFFFFFF AND PUSH4 0x9DC29FAC CALLER DUP5 PUSH1 0x40 MLOAD DUP4 PUSH4 0xFFFFFFFF AND PUSH1 0xE0 SHL DUP2 MSTORE PUSH1 0x4 ADD PUSH3 0x4A1 SWAP3 SWAP2 SWAP1 PUSH3 0x23D9 JUMP JUMPDEST PUSH1 0x0 PUSH1 0x40 MLOAD DUP1 DUP4 SUB DUP2 PUSH1 0x0 DUP8 DUP1 EXTCODESIZE ISZERO DUP1 ISZERO PUSH3 0x4BC JUMPI PUSH1 0x0 DUP1 REVERT JUMPDEST POP GAS CALL ISZERO DUP1 ISZERO PUSH3 0x4D1 JUMPI RETURNDATASIZE PUSH1 0x0 DUP1 RETURNDATACOPY RETURNDATASIZE PUSH1 0x0 REVERT JUMPDEST POP POP POP POP PUSH1 0x0 DUP2 PUSH1 0x2 ADD PUSH1 0x0 SWAP1 SLOAD SWAP1 PUSH2 0x100 EXP SWAP1 DIV PUSH20 0xFFFFFFFFFFFFFFFFFFFFFFFFFFFFFFFFFFFFFFFF AND PUSH20 0xFFFFFFFFFFFFFFFFFFFFFFFFFFFFFFFFFFFFFFFF AND PUSH4 0x18160DDD PUSH1 0x40 MLOAD DUP2 PUSH4 0xFFFFFFFF AND PUSH1 0xE0 SHL DUP2 MSTORE PUSH1 0x4 ADD PUSH1 0x20 PUSH1 0x40 MLOAD DUP1 DUP4 SUB DUP2 DUP7 GAS STATICCALL ISZERO DUP1 ISZERO PUSH3 0x547 JUMPI RETURNDATASIZE PUSH1 0x0 DUP1 RETURNDATACOPY RETURNDATASIZE PUSH1 0x0 REVERT JUMPDEST POP POP POP POP PUSH1 0x40 MLOAD RETURNDATASIZE PUSH1 0x1F NOT PUSH1 0x1F DUP3 ADD AND DUP3 ADD DUP1 PUSH1 0x40 MSTORE POP DUP2 ADD SWAP1 PUSH3 0x56D SWAP2 SWAP1 PUSH3 0x241D JUMP JUMPDEST PUSH8 0xDE0B6B3A7640000 DUP5 PUSH3 0x583 SWAP2 SWAP1 PUSH3 0x247E JUMP JUMPDEST PUSH3 0x58F SWAP2 SWAP1 PUSH3 0x24F8 JUMP JUMPDEST SWAP1 POP PUSH1 0x0 JUMPDEST DUP3 PUSH1 0x3 ADD DUP1 SLOAD SWAP1 POP DUP2 LT ISZERO PUSH3 0x83F JUMPI PUSH1 0x0 PUSH10 0x21E19E0C9BAB2400000 DUP4 DUP6 PUSH1 0x3 ADD DUP5 DUP2 SLOAD DUP2 LT PUSH3 0x5CB JUMPI PUSH3 0x5CA PUSH3 0x2530 JUMP JUMPDEST JUMPDEST SWAP1 PUSH1 0x0 MSTORE PUSH1 0x20 PUSH1 0x0 KECCAK256 SWAP1 PUSH1 0x3 MUL ADD PUSH1 0x0 ADD PUSH1 0x18 SWAP1 SLOAD SWAP1 PUSH2 0x100 EXP SWAP1 DIV PUSH2 0xFFFF AND PUSH2 0xFFFF AND DUP7 PUSH1 0x4 ADD SLOAD PUSH3 0x600 SWAP2 SWAP1 PUSH3 0x247E JUMP JUMPDEST PUSH3 0x60C SWAP2 SWAP1 PUSH3 0x247E JUMP JUMPDEST PUSH3 0x618 SWAP2 SWAP1 PUSH3 0x24F8 JUMP JUMPDEST SWAP1 POP PUSH3 0x828 DUP5 PUSH1 0x3 ADD DUP4 DUP2 SLOAD DUP2 LT PUSH3 0x637 JUMPI PUSH3 0x636 PUSH3 0x2530 JUMP JUMPDEST JUMPDEST SWAP1 PUSH1 0x0 MSTORE PUSH1 0x20 PUSH1 0x0 KECCAK256 SWAP1 PUSH1 0x3 MUL ADD PUSH1 0x40 MLOAD DUP1 PUSH1 0xA0 ADD PUSH1 0x40 MSTORE SWAP1 DUP2 PUSH1 0x0 DUP3 ADD PUSH1 0x0 SWAP1 SLOAD SWAP1 PUSH2 0x100 EXP SWAP1 DIV PUSH4 0xFFFFFFFF AND PUSH4 0xFFFFFFFF AND PUSH4 0xFFFFFFFF AND DUP2 MSTORE PUSH1 0x20 ADD PUSH1 0x0 DUP3 ADD PUSH1 0x4 SWAP1 SLOAD SWAP1 PUSH2 0x100 EXP SWAP1 DIV PUSH20 0xFFFFFFFFFFFFFFFFFFFFFFFFFFFFFFFFFFFFFFFF AND PUSH20 0xFFFFFFFFFFFFFFFFFFFFFFFFFFFFFFFFFFFFFFFF AND PUSH20 0xFFFFFFFFFFFFFFFFFFFFFFFFFFFFFFFFFFFFFFFF AND DUP2 MSTORE PUSH1 0x20 ADD PUSH1 0x0 DUP3 ADD PUSH1 0x18 SWAP1 SLOAD SWAP1 PUSH2 0x100 EXP SWAP1 DIV PUSH2 0xFFFF AND PUSH2 0xFFFF AND PUSH2 0xFFFF AND DUP2 MSTORE PUSH1 0x20 ADD PUSH1 0x1 DUP3 ADD DUP1 SLOAD PUSH3 0x6FE SWAP1 PUSH3 0x258E JUMP JUMPDEST DUP1 PUSH1 0x1F ADD PUSH1 0x20 DUP1 SWAP2 DIV MUL PUSH1 0x20 ADD PUSH1 0x40 MLOAD SWAP1 DUP2 ADD PUSH1 0x40 MSTORE DUP1 SWAP3 SWAP2 SWAP1 DUP2 DUP2 MSTORE PUSH1 0x20 ADD DUP3 DUP1 SLOAD PUSH3 0x72C SWAP1 PUSH3 0x258E JUMP JUMPDEST DUP1 ISZERO PUSH3 0x77D JUMPI DUP1 PUSH1 0x1F LT PUSH3 0x751 JUMPI PUSH2 0x100 DUP1 DUP4 SLOAD DIV MUL DUP4 MSTORE SWAP2 PUSH1 0x20 ADD SWAP2 PUSH3 0x77D JUMP JUMPDEST DUP3 ADD SWAP2 SWAP1 PUSH1 0x0 MSTORE PUSH1 0x20 PUSH1 0x0 KECCAK256 SWAP1 JUMPDEST DUP2 SLOAD DUP2 MSTORE SWAP1 PUSH1 0x1 ADD SWAP1 PUSH1 0x20 ADD DUP1 DUP4 GT PUSH3 0x75F JUMPI DUP3 SWAP1 SUB PUSH1 0x1F AND DUP3 ADD SWAP2 JUMPDEST POP POP POP POP POP DUP2 MSTORE PUSH1 0x20 ADD PUSH1 0x2 DUP3 ADD DUP1 SLOAD PUSH3 0x798 SWAP1 PUSH3 0x258E JUMP JUMPDEST DUP1 PUSH1 0x1F ADD PUSH1 0x20 DUP1 SWAP2 DIV MUL PUSH1 0x20 ADD PUSH1 0x40 MLOAD SWAP1 DUP2 ADD PUSH1 0x40 MSTORE DUP1 SWAP3 SWAP2 SWAP1 DUP2 DUP2 MSTORE PUSH1 0x20 ADD DUP3 DUP1 SLOAD PUSH3 0x7C6 SWAP1 PUSH3 0x258E JUMP JUMPDEST DUP1 ISZERO PUSH3 0x817 JUMPI DUP1 PUSH1 0x1F LT PUSH3 0x7EB JUMPI PUSH2 0x100 DUP1 DUP4 SLOAD DIV MUL DUP4 MSTORE SWAP2 PUSH1 0x20 ADD SWAP2 PUSH3 0x817 JUMP JUMPDEST DUP3 ADD SWAP2 SWAP1 PUSH1 0x0 MSTORE PUSH1 0x20 PUSH1 0x0 KECCAK256 SWAP1 JUMPDEST DUP2 SLOAD DUP2 MSTORE SWAP1 PUSH1 0x1 ADD SWAP1 PUSH1 0x20 ADD DUP1 DUP4 GT PUSH3 0x7F9 JUMPI DUP3 SWAP1 SUB PUSH1 0x1F AND DUP3 ADD SWAP2 JUMPDEST POP POP POP POP POP DUP2 MSTORE POP POP DUP3 CALLER PUSH3 0x13E7 JUMP JUMPDEST POP DUP1 DUP1 PUSH3 0x836 SWAP1 PUSH3 0x25C3 JUMP JUMPDEST SWAP2 POP POP PUSH3 0x594 JUMP JUMPDEST POP DUP3 DUP3 PUSH1 0x4 ADD PUSH1 0x0 DUP3 DUP3 SLOAD PUSH3 0x856 SWAP2 SWAP1 PUSH3 0x2610 JUMP JUMPDEST SWAP3 POP POP DUP2 SWAP1 SSTORE POP CALLER PUSH20 0xFFFFFFFFFFFFFFFFFFFFFFFFFFFFFFFFFFFFFFFF AND DUP5 PUSH32 0x1C84CC0F96161BDAFEA718A9094DD21C21D1FB2F9CA2EBB9BD4E39918EFBAACE DUP6 DUP7 PUSH1 0x40 MLOAD PUSH3 0x8A8 SWAP3 SWAP2 SWAP1 PUSH3 0x264B JUMP JUMPDEST PUSH1 0x40 MLOAD DUP1 SWAP2 SUB SWAP1 LOG3 POP POP POP POP JUMP JUMPDEST PUSH1 0x2 PUSH1 0x20 MSTORE DUP2 PUSH1 0x0 MSTORE PUSH1 0x40 PUSH1 0x0 KECCAK256 DUP2 DUP2 SLOAD DUP2 LT PUSH3 0x8D3 JUMPI PUSH1 0x0 DUP1 REVERT JUMPDEST SWAP1 PUSH1 0x0 MSTORE PUSH1 0x20 PUSH1 0x0 KECCAK256 SWAP1 PUSH1 0x3 MUL ADD PUSH1 0x0 SWAP2 POP SWAP2 POP POP DUP1 PUSH1 0x0 ADD SLOAD SWAP1 DUP1 PUSH1 0x1 ADD SLOAD SWAP1 DUP1 PUSH1 0x2 ADD SLOAD SWAP1 POP DUP4 JUMP JUMPDEST PUSH3 0x908 PUSH3 0x1AE9 JUMP JUMPDEST PUSH1 0x1 PUSH1 0x0 DUP4 DUP2 MSTORE PUSH1 0x20 ADD SWAP1 DUP2 MSTORE PUSH1 0x20 ADD PUSH1 0x0 KECCAK256 PUSH1 0x40 MLOAD DUP1 PUSH1 0xC0 ADD PUSH1 0x40 MSTORE SWAP1 DUP2 PUSH1 0x0 DUP3 ADD SLOAD DUP2 MSTORE PUSH1 0x20 ADD PUSH1 0x1 DUP3 ADD DUP1 SLOAD PUSH3 0x942 SWAP1 PUSH3 0x258E JUMP JUMPDEST DUP1 PUSH1 0x1F ADD PUSH1 0x20 DUP1 SWAP2 DIV MUL PUSH1 0x20 ADD PUSH1 0x40 MLOAD SWAP1 DUP2 ADD PUSH1 0x40 MSTORE DUP1 SWAP3 SWAP2 SWAP1 DUP2 DUP2 MSTORE PUSH1 0x20 ADD DUP3 DUP1 SLOAD PUSH3 0x970 SWAP1 PUSH3 0x258E JUMP JUMPDEST DUP1 ISZERO PUSH3 0x9C1 JUMPI DUP1 PUSH1 0x1F LT PUSH3 0x995 JUMPI PUSH2 0x100 DUP1 DUP4 SLOAD DIV MUL DUP4 MSTORE SWAP2 PUSH1 0x20 ADD SWAP2 PUSH3 0x9C1 JUMP JUMPDEST DUP3 ADD SWAP2 SWAP1 PUSH1 0x0 MSTORE PUSH1 0x20 PUSH1 0x0 KECCAK256 SWAP1 JUMPDEST DUP2 SLOAD DUP2 MSTORE SWAP1 PUSH1 0x1 ADD SWAP1 PUSH1 0x20 ADD DUP1 DUP4 GT PUSH3 0x9A3 JUMPI DUP3 SWAP1 SUB PUSH1 0x1F AND DUP3 ADD SWAP2 JUMPDEST POP POP POP POP POP DUP2 MSTORE PUSH1 0x20 ADD PUSH1 0x2 DUP3 ADD PUSH1 0x0 SWAP1 SLOAD SWAP1 PUSH2 0x100 EXP SWAP1 DIV PUSH20 0xFFFFFFFFFFFFFFFFFFFFFFFFFFFFFFFFFFFFFFFF AND PUSH20 0xFFFFFFFFFFFFFFFFFFFFFFFFFFFFFFFFFFFFFFFF AND PUSH20 0xFFFFFFFFFFFFFFFFFFFFFFFFFFFFFFFFFFFFFFFF AND DUP2 MSTORE PUSH1 0x20 ADD PUSH1 0x3 DUP3 ADD DUP1 SLOAD DUP1 PUSH1 0x20 MUL PUSH1 0x20 ADD PUSH1 0x40 MLOAD SWAP1 DUP2 ADD PUSH1 0x40 MSTORE DUP1 SWAP3 SWAP2 SWAP1 DUP2 DUP2 MSTORE PUSH1 0x20 ADD PUSH1 0x0 SWAP1 JUMPDEST DUP3 DUP3 LT ISZERO PUSH3 0xC49 JUMPI DUP4 DUP3 SWAP1 PUSH1 0x0 MSTORE PUSH1 0x20 PUSH1 0x0 KECCAK256 SWAP1 PUSH1 0x3 MUL ADD PUSH1 0x40 MLOAD DUP1 PUSH1 0xA0 ADD PUSH1 0x40 MSTORE SWAP1 DUP2 PUSH1 0x0 DUP3 ADD PUSH1 0x0 SWAP1 SLOAD SWAP1 PUSH2 0x100 EXP SWAP1 DIV PUSH4 0xFFFFFFFF AND PUSH4 0xFFFFFFFF AND PUSH4 0xFFFFFFFF AND DUP2 MSTORE PUSH1 0x20 ADD PUSH1 0x0 DUP3 ADD PUSH1 0x4 SWAP1 SLOAD SWAP1 PUSH2 0x100 EXP SWAP1 DIV PUSH20 0xFFFFFFFFFFFFFFFFFFFFFFFFFFFFFFFFFFFFFFFF AND PUSH20 0xFFFFFFFFFFFFFFFFFFFFFFFFFFFFFFFFFFFFFFFF AND PUSH20 0xFFFFFFFFFFFFFFFFFFFFFFFFFFFFFFFFFFFFFFFF AND DUP2 MSTORE PUSH1 0x20 ADD PUSH1 0x0 DUP3 ADD PUSH1 0x18 SWAP1 SLOAD SWAP1 PUSH2 0x100 EXP SWAP1 DIV PUSH2 0xFFFF AND PUSH2 0xFFFF AND PUSH2 0xFFFF AND DUP2 MSTORE PUSH1 0x20 ADD PUSH1 0x1 DUP3 ADD DUP1 SLOAD PUSH3 0xB17 SWAP1 PUSH3 0x258E JUMP JUMPDEST DUP1 PUSH1 0x1F ADD PUSH1 0x20 DUP1 SWAP2 DIV MUL PUSH1 0x20 ADD PUSH1 0x40 MLOAD SWAP1 DUP2 ADD PUSH1 0x40 MSTORE DUP1 SWAP3 SWAP2 SWAP1 DUP2 DUP2 MSTORE PUSH1 0x20 ADD DUP3 DUP1 SLOAD PUSH3 0xB45 SWAP1 PUSH3 0x258E JUMP JUMPDEST DUP1 ISZERO PUSH3 0xB96 JUMPI DUP1 PUSH1 0x1F LT PUSH3 0xB6A JUMPI PUSH2 0x100 DUP1 DUP4 SLOAD DIV MUL DUP4 MSTORE SWAP2 PUSH1 0x20 ADD SWAP2 PUSH3 0xB96 JUMP JUMPDEST DUP3 ADD SWAP2 SWAP1 PUSH1 0x0 MSTORE PUSH1 0x20 PUSH1 0x0 KECCAK256 SWAP1 JUMPDEST DUP2 SLOAD DUP2 MSTORE SWAP1 PUSH1 0x1 ADD SWAP1 PUSH1 0x20 ADD DUP1 DUP4 GT PUSH3 0xB78 JUMPI DUP3 SWAP1 SUB PUSH1 0x1F AND DUP3 ADD SWAP2 JUMPDEST POP POP POP POP POP DUP2 MSTORE PUSH1 0x20 ADD PUSH1 0x2 DUP3 ADD DUP1 SLOAD PUSH3 0xBB1 SWAP1 PUSH3 0x258E JUMP JUMPDEST DUP1 PUSH1 0x1F ADD PUSH1 0x20 DUP1 SWAP2 DIV MUL PUSH1 0x20 ADD PUSH1 0x40 MLOAD SWAP1 DUP2 ADD PUSH1 0x40 MSTORE DUP1 SWAP3 SWAP2 SWAP1 DUP2 DUP2 MSTORE PUSH1 0x20 ADD DUP3 DUP1 SLOAD PUSH3 0xBDF SWAP1 PUSH3 0x258E JUMP JUMPDEST DUP1 ISZERO PUSH3 0xC30 JUMPI DUP1 PUSH1 0x1F LT PUSH3 0xC04 JUMPI PUSH2 0x100 DUP1 DUP4 SLOAD DIV MUL DUP4 MSTORE SWAP2 PUSH1 0x20 ADD SWAP2 PUSH3 0xC30 JUMP JUMPDEST DUP3 ADD SWAP2 SWAP1 PUSH1 0x0 MSTORE PUSH1 0x20 PUSH1 0x0 KECCAK256 SWAP1 JUMPDEST DUP2 SLOAD DUP2 MSTORE SWAP1 PUSH1 0x1 ADD SWAP1 PUSH1 0x20 ADD DUP1 DUP4 GT PUSH3 0xC12 JUMPI DUP3 SWAP1 SUB PUSH1 0x1F AND DUP3 ADD SWAP2 JUMPDEST POP POP POP POP POP DUP2 MSTORE POP POP DUP2 MSTORE PUSH1 0x20 ADD SWAP1 PUSH1 0x1 ADD SWAP1 PUSH3 0xA45 JUMP JUMPDEST POP POP POP POP DUP2 MSTORE PUSH1 0x20 ADD PUSH1 0x4 DUP3 ADD SLOAD DUP2 MSTORE PUSH1 0x20 ADD PUSH1 0x5 DUP3 ADD PUSH1 0x0 SWAP1 SLOAD SWAP1 PUSH2 0x100 EXP SWAP1 DIV PUSH1 0xFF AND ISZERO ISZERO ISZERO ISZERO DUP2 MSTORE POP POP SWAP1 POP SWAP2 SWAP1 POP JUMP JUMPDEST PUSH1 0x3 PUSH1 0x0 SWAP1 SLOAD SWAP1 PUSH2 0x100 EXP SWAP1 DIV PUSH20 0xFFFFFFFFFFFFFFFFFFFFFFFFFFFFFFFFFFFFFFFF AND DUP2 JUMP JUMPDEST PUSH1 0x0 PUSH1 0x1 PUSH1 0x0 DUP4 DUP2 MSTORE PUSH1 0x20 ADD SWAP1 DUP2 MSTORE PUSH1 0x20 ADD PUSH1 0x0 KECCAK256 PUSH1 0x4 ADD SLOAD SWAP1 POP SWAP2 SWAP1 POP JUMP JUMPDEST PUSH1 0x1 PUSH1 0x20 MSTORE DUP1 PUSH1 0x0 MSTORE PUSH1 0x40 PUSH1 0x0 KECCAK256 PUSH1 0x0 SWAP2 POP SWAP1 POP DUP1 PUSH1 0x0 ADD SLOAD SWAP1 DUP1 PUSH1 0x1 ADD DUP1 SLOAD PUSH3 0xCEE SWAP1 PUSH3 0x258E JUMP JUMPDEST DUP1 PUSH1 0x1F ADD PUSH1 0x20 DUP1 SWAP2 DIV MUL PUSH1 0x20 ADD PUSH1 0x40 MLOAD SWAP1 DUP2 ADD PUSH1 0x40 MSTORE DUP1 SWAP3 SWAP2 SWAP1 DUP2 DUP2 MSTORE PUSH1 0x20 ADD DUP3 DUP1 SLOAD PUSH3 0xD1C SWAP1 PUSH3 0x258E JUMP JUMPDEST DUP1 ISZERO PUSH3 0xD6D JUMPI DUP1 PUSH1 0x1F LT PUSH3 0xD41 JUMPI PUSH2 0x100 DUP1 DUP4 SLOAD DIV MUL DUP4 MSTORE SWAP2 PUSH1 0x20 ADD SWAP2 PUSH3 0xD6D JUMP JUMPDEST DUP3 ADD SWAP2 SWAP1 PUSH1 0x0 MSTORE PUSH1 0x20 PUSH1 0x0 KECCAK256 SWAP1 JUMPDEST DUP2 SLOAD DUP2 MSTORE SWAP1 PUSH1 0x1 ADD SWAP1 PUSH1 0x20 ADD DUP1 DUP4 GT PUSH3 0xD4F JUMPI DUP3 SWAP1 SUB PUSH1 0x1F AND DUP3 ADD SWAP2 JUMPDEST POP POP POP POP POP SWAP1 DUP1 PUSH1 0x2 ADD PUSH1 0x0 SWAP1 SLOAD SWAP1 PUSH2 0x100 EXP SWAP1 DIV PUSH20 0xFFFFFFFFFFFFFFFFFFFFFFFFFFFFFFFFFFFFFFFF AND SWAP1 DUP1 PUSH1 0x4 ADD SLOAD SWAP1 DUP1 PUSH1 0x5 ADD PUSH1 0x0 SWAP1 SLOAD SWAP1 PUSH2 0x100 EXP SWAP1 DIV PUSH1 0xFF AND SWAP1 POP DUP6 JUMP JUMPDEST PUSH1 0x0 SLOAD DUP2 JUMP JUMPDEST PUSH1 0x0 PUSH1 0x3 PUSH1 0x0 SWAP1 SLOAD SWAP1 PUSH2 0x100 EXP SWAP1 DIV PUSH20 0xFFFFFFFFFFFFFFFFFFFFFFFFFFFFFFFFFFFFFFFF AND PUSH20 0xFFFFFFFFFFFFFFFFFFFFFFFFFFFFFFFFFFFFFFFF AND CALLER PUSH20 0xFFFFFFFFFFFFFFFFFFFFFFFFFFFFFFFFFFFFFFFF AND EQ PUSH3 0xE51 JUMPI PUSH1 0x40 MLOAD PUSH32 0x8C379A000000000000000000000000000000000000000000000000000000000 DUP2 MSTORE PUSH1 0x4 ADD PUSH3 0xE48 SWAP1 PUSH3 0x26C8 JUMP JUMPDEST PUSH1 0x40 MLOAD DUP1 SWAP2 SUB SWAP1 REVERT JUMPDEST PUSH3 0xE5D DUP4 DUP4 PUSH3 0x1498 JUMP JUMPDEST PUSH1 0x0 DUP1 DUP2 SLOAD DUP1 SWAP3 SWAP2 SWAP1 PUSH3 0xE71 SWAP1 PUSH3 0x25C3 JUMP JUMPDEST SWAP2 SWAP1 POP SSTORE SWAP1 POP PUSH1 0x0 DUP8 DUP8 DUP8 DUP8 ADDRESS PUSH1 0x40 MLOAD PUSH3 0xE8C SWAP1 PUSH3 0x1B37 JUMP JUMPDEST PUSH3 0xE9C SWAP6 SWAP5 SWAP4 SWAP3 SWAP2 SWAP1 PUSH3 0x272C JUMP JUMPDEST PUSH1 0x40 MLOAD DUP1 SWAP2 SUB SWAP1 PUSH1 0x0 CREATE DUP1 ISZERO DUP1 ISZERO PUSH3 0xEB9 JUMPI RETURNDATASIZE PUSH1 0x0 DUP1 RETURNDATACOPY RETURNDATASIZE PUSH1 0x0 REVERT JUMPDEST POP SWAP1 POP PUSH1 0x0 PUSH1 0x1 PUSH1 0x0 DUP5 DUP2 MSTORE PUSH1 0x20 ADD SWAP1 DUP2 MSTORE PUSH1 0x20 ADD PUSH1 0x0 KECCAK256 SWAP1 POP DUP3 DUP2 PUSH1 0x0 ADD DUP2 SWAP1 SSTORE POP DUP9 DUP9 DUP3 PUSH1 0x1 ADD SWAP2 DUP3 PUSH3 0xEF1 SWAP3 SWAP2 SWAP1 PUSH3 0x2987 JUMP JUMPDEST POP DUP2 DUP2 PUSH1 0x2 ADD PUSH1 0x0 PUSH2 0x100 EXP DUP2 SLOAD DUP2 PUSH20 0xFFFFFFFFFFFFFFFFFFFFFFFFFFFFFFFFFFFFFFFF MUL NOT AND SWAP1 DUP4 PUSH20 0xFFFFFFFFFFFFFFFFFFFFFFFFFFFFFFFFFFFFFFFF AND MUL OR SWAP1 SSTORE POP PUSH1 0x1 DUP2 PUSH1 0x5 ADD PUSH1 0x0 PUSH2 0x100 EXP DUP2 SLOAD DUP2 PUSH1 0xFF MUL NOT AND SWAP1 DUP4 ISZERO ISZERO MUL OR SWAP1 SSTORE POP PUSH1 0x0 JUMPDEST DUP6 DUP6 SWAP1 POP DUP2 LT ISZERO PUSH3 0xFDE JUMPI DUP2 PUSH1 0x3 ADD DUP7 DUP7 DUP4 DUP2 DUP2 LT PUSH3 0xF7B JUMPI PUSH3 0xF7A PUSH3 0x2530 JUMP JUMPDEST JUMPDEST SWAP1 POP PUSH1 0x20 MUL DUP2 ADD SWAP1 PUSH3 0xF8F SWAP2 SWAP1 PUSH3 0x2A7B JUMP JUMPDEST SWAP1 DUP1 PUSH1 0x1 DUP2 SLOAD ADD DUP1 DUP3 SSTORE DUP1 SWAP2 POP POP PUSH1 0x1 SWAP1 SUB SWAP1 PUSH1 0x0 MSTORE PUSH1 0x20 PUSH1 0x0 KECCAK256 SWAP1 PUSH1 0x3 MUL ADD PUSH1 0x0 SWAP1 SWAP2 SWAP1 SWAP2 SWAP1 SWAP2 POP DUP2 DUP2 PUSH3 0xFC6 SWAP2 SWAP1 PUSH3 0x2FB4 JUMP JUMPDEST POP POP DUP1 DUP1 PUSH3 0xFD5 SWAP1 PUSH3 0x25C3 JUMP JUMPDEST SWAP2 POP POP PUSH3 0xF55 JUMP JUMPDEST POP DUP3 PUSH32 0x829F34AE8184BF5738E5E995441F1E5D7CCBB07FE323B0D01D850C3DFA08182B DUP11 DUP11 DUP6 PUSH1 0x40 MLOAD PUSH3 0x1015 SWAP4 SWAP3 SWAP2 SWAP1 PUSH3 0x2FC4 JUMP JUMPDEST PUSH1 0x40 MLOAD DUP1 SWAP2 SUB SWAP1 LOG2 POP POP SWAP7 SWAP6 POP POP POP POP POP POP JUMP JUMPDEST PUSH1 0x0 DUP1 PUSH1 0x1 PUSH1 0x0 DUP5 DUP2 MSTORE PUSH1 0x20 ADD SWAP1 DUP2 MSTORE PUSH1 0x20 ADD PUSH1 0x0 KECCAK256 SWAP1 POP DUP1 PUSH1 0x5 ADD PUSH1 0x0 SWAP1 SLOAD SWAP1 PUSH2 0x100 EXP SWAP1 DIV PUSH1 0xFF AND PUSH3 0x1095 JUMPI PUSH1 0x40 MLOAD PUSH32 0x8C379A000000000000000000000000000000000000000000000000000000000 DUP2 MSTORE PUSH1 0x4 ADD PUSH3 0x108C SWAP1 PUSH3 0x23B7 JUMP JUMPDEST PUSH1 0x40 MLOAD DUP1 SWAP2 SUB SWAP1 REVERT JUMPDEST PUSH1 0x0 CALLVALUE GT PUSH3 0x10DB JUMPI PUSH1 0x40 MLOAD PUSH32 0x8C379A000000000000000000000000000000000000000000000000000000000 DUP2 MSTORE PUSH1 0x4 ADD PUSH3 0x10D2 SWAP1 PUSH3 0x304A JUMP JUMPDEST PUSH1 0x40 MLOAD DUP1 SWAP2 SUB SWAP1 REVERT JUMPDEST CALLVALUE SWAP2 POP DUP1 PUSH1 0x2 ADD PUSH1 0x0 SWAP1 SLOAD SWAP1 PUSH2 0x100 EXP SWAP1 DIV PUSH20 0xFFFFFFFFFFFFFFFFFFFFFFFFFFFFFFFFFFFFFFFF AND PUSH20 0xFFFFFFFFFFFFFFFFFFFFFFFFFFFFFFFFFFFFFFFF AND PUSH4 0x40C10F19 CALLER DUP5 PUSH1 0x40 MLOAD DUP4 PUSH4 0xFFFFFFFF AND PUSH1 0xE0 SHL DUP2 MSTORE PUSH1 0x4 ADD PUSH3 0x113F SWAP3 SWAP2 SWAP1 PUSH3 0x23D9 JUMP JUMPDEST PUSH1 0x0 PUSH1 0x40 MLOAD DUP1 DUP4 SUB DUP2 PUSH1 0x0 DUP8 DUP1 EXTCODESIZE ISZERO DUP1 ISZERO PUSH3 0x115A JUMPI PUSH1 0x0 DUP1 REVERT JUMPDEST POP GAS CALL ISZERO DUP1 ISZERO PUSH3 0x116F JUMPI RETURNDATASIZE PUSH1 0x0 DUP1 RETURNDATACOPY RETURNDATASIZE PUSH1 0x0 REVERT JUMPDEST POP POP POP POP CALLVALUE DUP2 PUSH1 0x4 ADD PUSH1 0x0 DUP3 DUP3 SLOAD PUSH3 0x1189 SWAP2 SWAP1 PUSH3 0x306C JUMP JUMPDEST SWAP3 POP POP DUP2 SWAP1 SSTORE POP PUSH3 0x119C DUP4 CALLVALUE PUSH3 0x1560 JUMP JUMPDEST CALLER PUSH20 0xFFFFFFFFFFFFFFFFFFFFFFFFFFFFFFFFFFFFFFFF AND DUP4 PUSH32 0xAD5B4075B97DBF75AD5C78F7AFAC948E4AE611C4FDF2825E2CE3C6C96925BF3B CALLVALUE DUP6 PUSH1 0x40 MLOAD PUSH3 0x11E7 SWAP3 SWAP2 SWAP1 PUSH3 0x264B JUMP JUMPDEST PUSH1 0x40 MLOAD DUP1 SWAP2 SUB SWAP1 LOG3 POP SWAP2 SWAP1 POP JUMP JUMPDEST PUSH1 0x0 PUSH1 0x1 PUSH1 0x0 DUP4 DUP2 MSTORE PUSH1 0x20 ADD SWAP1 DUP2 MSTORE PUSH1 0x20 ADD PUSH1 0x0 KECCAK256 SWAP1 POP DUP1 PUSH1 0x5 ADD PUSH1 0x0 SWAP1 SLOAD SWAP1 PUSH2 0x100 EXP SWAP1 DIV PUSH1 0xFF AND PUSH3 0x1260 JUMPI PUSH1 0x40 MLOAD PUSH32 0x8C379A000000000000000000000000000000000000000000000000000000000 DUP2 MSTORE PUSH1 0x4 ADD PUSH3 0x1257 SWAP1 PUSH3 0x23B7 JUMP JUMPDEST PUSH1 0x40 MLOAD DUP1 SWAP2 SUB SWAP1 REVERT JUMPDEST PUSH1 0x0 PUSH3 0x126D DUP3 PUSH3 0x1823 JUMP JUMPDEST SWAP1 POP PUSH1 0x0 PUSH3 0x127C DUP3 PUSH3 0x193C JUMP JUMPDEST SWAP1 POP PUSH1 0x0 DUP2 DUP1 PUSH1 0x20 ADD SWAP1 MLOAD DUP2 ADD SWAP1 PUSH3 0x1296 SWAP2 SWAP1 PUSH3 0x31E9 JUMP JUMPDEST SWAP1 POP PUSH1 0x0 JUMPDEST DUP5 PUSH1 0x3 ADD DUP1 SLOAD SWAP1 POP DUP2 LT ISZERO PUSH3 0x13A5 JUMPI PUSH1 0x3 PUSH1 0x14 SWAP1 SLOAD SWAP1 PUSH2 0x100 EXP SWAP1 DIV PUSH2 0xFFFF AND PUSH2 0xFFFF AND PUSH3 0x1321 DUP7 PUSH1 0x3 ADD DUP4 DUP2 SLOAD DUP2 LT PUSH3 0x12DD JUMPI PUSH3 0x12DC PUSH3 0x2530 JUMP JUMPDEST JUMPDEST SWAP1 PUSH1 0x0 MSTORE PUSH1 0x20 PUSH1 0x0 KECCAK256 SWAP1 PUSH1 0x3 MUL ADD PUSH1 0x0 ADD PUSH1 0x18 SWAP1 SLOAD SWAP1 PUSH2 0x100 EXP SWAP1 DIV PUSH2 0xFFFF AND DUP5 DUP5 DUP2 MLOAD DUP2 LT PUSH3 0x1313 JUMPI PUSH3 0x1312 PUSH3 0x2530 JUMP JUMPDEST JUMPDEST PUSH1 0x20 MUL PUSH1 0x20 ADD ADD MLOAD PUSH3 0x19FE JUMP JUMPDEST PUSH2 0xFFFF AND GT ISZERO PUSH3 0x138F JUMPI DUP2 DUP2 DUP2 MLOAD DUP2 LT PUSH3 0x1342 JUMPI PUSH3 0x1341 PUSH3 0x2530 JUMP JUMPDEST JUMPDEST PUSH1 0x20 MUL PUSH1 0x20 ADD ADD MLOAD DUP6 PUSH1 0x3 ADD DUP3 DUP2 SLOAD DUP2 LT PUSH3 0x1363 JUMPI PUSH3 0x1362 PUSH3 0x2530 JUMP JUMPDEST JUMPDEST SWAP1 PUSH1 0x0 MSTORE PUSH1 0x20 PUSH1 0x0 KECCAK256 SWAP1 PUSH1 0x3 MUL ADD PUSH1 0x0 ADD PUSH1 0x18 PUSH2 0x100 EXP DUP2 SLOAD DUP2 PUSH2 0xFFFF MUL NOT AND SWAP1 DUP4 PUSH2 0xFFFF AND MUL OR SWAP1 SSTORE POP JUMPDEST DUP1 DUP1 PUSH3 0x139C SWAP1 PUSH3 0x25C3 JUMP JUMPDEST SWAP2 POP POP PUSH3 0x129B JUMP JUMPDEST POP DUP5 PUSH32 0xC257294AD49C215E1A248C91A86BC2612B4781D9677285CC9C14498F485EF122 TIMESTAMP PUSH1 0x40 MLOAD PUSH3 0x13D8 SWAP2 SWAP1 PUSH3 0x20F0 JUMP JUMPDEST PUSH1 0x40 MLOAD DUP1 SWAP2 SUB SWAP1 LOG2 POP POP POP POP POP JUMP JUMPDEST PUSH1 0x0 DUP4 PUSH1 0x0 ADD MLOAD DUP4 DUP6 PUSH1 0x80 ADD MLOAD DUP5 PUSH1 0x40 MLOAD PUSH1 0x20 ADD PUSH3 0x140A SWAP5 SWAP4 SWAP3 SWAP2 SWAP1 PUSH3 0x329D JUMP JUMPDEST PUSH1 0x40 MLOAD PUSH1 0x20 DUP2 DUP4 SUB SUB DUP2 MSTORE SWAP1 PUSH1 0x40 MSTORE SWAP1 POP PUSH2 0x800 PUSH20 0xFFFFFFFFFFFFFFFFFFFFFFFFFFFFFFFFFFFFFFFF AND PUSH4 0x6B206FC7 DUP6 PUSH1 0x0 ADD MLOAD DUP4 PUSH1 0x40 MLOAD DUP4 PUSH4 0xFFFFFFFF AND PUSH1 0xE0 SHL DUP2 MSTORE PUSH1 0x4 ADD PUSH3 0x145E SWAP3 SWAP2 SWAP1 PUSH3 0x32F1 JUMP JUMPDEST PUSH1 0x0 PUSH1 0x40 MLOAD DUP1 DUP4 SUB DUP2 PUSH1 0x0 DUP8 DUP1 EXTCODESIZE ISZERO DUP1 ISZERO PUSH3 0x1479 JUMPI PUSH1 0x0 DUP1 REVERT JUMPDEST POP GAS CALL ISZERO DUP1 ISZERO PUSH3 0x148E JUMPI RETURNDATASIZE PUSH1 0x0 DUP1 RETURNDATACOPY RETURNDATASIZE PUSH1 0x0 REVERT JUMPDEST POP POP POP POP POP POP POP POP JUMP JUMPDEST PUSH1 0x0 DUP1 PUSH1 0x0 SWAP1 POP JUMPDEST DUP4 DUP4 SWAP1 POP DUP2 LT ISZERO PUSH3 0x1513 JUMPI DUP4 DUP4 DUP3 DUP2 DUP2 LT PUSH3 0x14C2 JUMPI PUSH3 0x14C1 PUSH3 0x2530 JUMP JUMPDEST JUMPDEST SWAP1 POP PUSH1 0x20 MUL DUP2 ADD SWAP1 PUSH3 0x14D6 SWAP2 SWAP1 PUSH3 0x2A7B JUMP JUMPDEST PUSH1 0x40 ADD PUSH1 0x20 DUP2 ADD SWAP1 PUSH3 0x14EA SWAP2 SWAP1 PUSH3 0x333C JUMP JUMPDEST PUSH2 0xFFFF AND DUP3 PUSH3 0x14FB SWAP2 SWAP1 PUSH3 0x306C JUMP JUMPDEST SWAP2 POP DUP1 DUP1 PUSH3 0x150A SWAP1 PUSH3 0x25C3 JUMP JUMPDEST SWAP2 POP POP PUSH3 0x14A0 JUMP JUMPDEST POP PUSH2 0x2710 DUP2 EQ PUSH3 0x155B JUMPI PUSH1 0x40 MLOAD PUSH32 0x8C379A000000000000000000000000000000000000000000000000000000000 DUP2 MSTORE PUSH1 0x4 ADD PUSH3 0x1552 SWAP1 PUSH3 0x33BE JUMP JUMPDEST PUSH1 0x40 MLOAD DUP1 SWAP2 SUB SWAP1 REVERT JUMPDEST POP POP POP JUMP JUMPDEST PUSH1 0x0 PUSH1 0x1 PUSH1 0x0 DUP5 DUP2 MSTORE PUSH1 0x20 ADD SWAP1 DUP2 MSTORE PUSH1 0x20 ADD PUSH1 0x0 KECCAK256 SWAP1 POP PUSH1 0x0 JUMPDEST DUP2 PUSH1 0x3 ADD DUP1 SLOAD SWAP1 POP DUP2 LT ISZERO PUSH3 0x181D JUMPI PUSH1 0x0 DUP3 PUSH1 0x3 ADD DUP3 DUP2 SLOAD DUP2 LT PUSH3 0x15A5 JUMPI PUSH3 0x15A4 PUSH3 0x2530 JUMP JUMPDEST JUMPDEST SWAP1 PUSH1 0x0 MSTORE PUSH1 0x20 PUSH1 0x0 KECCAK256 SWAP1 PUSH1 0x3 MUL ADD PUSH1 0x40 MLOAD DUP1 PUSH1 0xA0 ADD PUSH1 0x40 MSTORE SWAP1 DUP2 PUSH1 0x0 DUP3 ADD PUSH1 0x0 SWAP1 SLOAD SWAP1 PUSH2 0x100 EXP SWAP1 DIV PUSH4 0xFFFFFFFF AND PUSH4 0xFFFFFFFF AND PUSH4 0xFFFFFFFF AND DUP2 MSTORE PUSH1 0x20 ADD PUSH1 0x0 DUP3 ADD PUSH1 0x4 SWAP1 SLOAD SWAP1 PUSH2 0x100 EXP SWAP1 DIV PUSH20 0xFFFFFFFFFFFFFFFFFFFFFFFFFFFFFFFFFFFFFFFF AND PUSH20 0xFFFFFFFFFFFFFFFFFFFFFFFFFFFFFFFFFFFFFFFF AND PUSH20 0xFFFFFFFFFFFFFFFFFFFFFFFFFFFFFFFFFFFFFFFF AND DUP2 MSTORE PUSH1 0x20 ADD PUSH1 0x0 DUP3 ADD PUSH1 0x18 SWAP1 SLOAD SWAP1 PUSH2 0x100 EXP SWAP1 DIV PUSH2 0xFFFF AND PUSH2 0xFFFF AND PUSH2 0xFFFF AND DUP2 MSTORE PUSH1 0x20 ADD PUSH1 0x1 DUP3 ADD DUP1 SLOAD PUSH3 0x166C SWAP1 PUSH3 0x258E JUMP JUMPDEST DUP1 PUSH1 0x1F ADD PUSH1 0x20 DUP1 SWAP2 DIV MUL PUSH1 0x20 ADD PUSH1 0x40 MLOAD SWAP1 DUP2 ADD PUSH1 0x40 MSTORE DUP1 SWAP3 SWAP2 SWAP1 DUP2 DUP2 MSTORE PUSH1 0x20 ADD DUP3 DUP1 SLOAD PUSH3 0x169A SWAP1 PUSH3 0x258E JUMP JUMPDEST DUP1 ISZERO PUSH3 0x16EB JUMPI DUP1 PUSH1 0x1F LT PUSH3 0x16BF JUMPI PUSH2 0x100 DUP1 DUP4 SLOAD DIV MUL DUP4 MSTORE SWAP2 PUSH1 0x20 ADD SWAP2 PUSH3 0x16EB JUMP JUMPDEST DUP3 ADD SWAP2 SWAP1 PUSH1 0x0 MSTORE PUSH1 0x20 PUSH1 0x0 KECCAK256 SWAP1 JUMPDEST DUP2 SLOAD DUP2 MSTORE SWAP1 PUSH1 0x1 ADD SWAP1 PUSH1 0x20 ADD DUP1 DUP4 GT PUSH3 0x16CD JUMPI DUP3 SWAP1 SUB PUSH1 0x1F AND DUP3 ADD SWAP2 JUMPDEST POP POP POP POP POP DUP2 MSTORE PUSH1 0x20 ADD PUSH1 0x2 DUP3 ADD DUP1 SLOAD PUSH3 0x1706 SWAP1 PUSH3 0x258E JUMP JUMPDEST DUP1 PUSH1 0x1F ADD PUSH1 0x20 DUP1 SWAP2 DIV MUL PUSH1 0x20 ADD PUSH1 0x40 MLOAD SWAP1 DUP2 ADD PUSH1 0x40 MSTORE DUP1 SWAP3 SWAP2 SWAP1 DUP2 DUP2 MSTORE PUSH1 0x20 ADD DUP3 DUP1 SLOAD PUSH3 0x1734 SWAP1 PUSH3 0x258E JUMP JUMPDEST DUP1 ISZERO PUSH3 0x1785 JUMPI DUP1 PUSH1 0x1F LT PUSH3 0x1759 JUMPI PUSH2 0x100 DUP1 DUP4 SLOAD DIV MUL DUP4 MSTORE SWAP2 PUSH1 0x20 ADD SWAP2 PUSH3 0x1785 JUMP JUMPDEST DUP3 ADD SWAP2 SWAP1 PUSH1 0x0 MSTORE PUSH1 0x20 PUSH1 0x0 KECCAK256 SWAP1 JUMPDEST DUP2 SLOAD DUP2 MSTORE SWAP1 PUSH1 0x1 ADD SWAP1 PUSH1 0x20 ADD DUP1 DUP4 GT PUSH3 0x1767 JUMPI DUP3 SWAP1 SUB PUSH1 0x1F AND DUP3 ADD SWAP2 JUMPDEST POP POP POP POP POP DUP2 MSTORE POP POP SWAP1 POP PUSH1 0x0 PUSH2 0x2710 DUP3 PUSH1 0x40 ADD MLOAD PUSH2 0xFFFF AND DUP7 PUSH3 0x17AB SWAP2 SWAP1 PUSH3 0x247E JUMP JUMPDEST PUSH3 0x17B7 SWAP2 SWAP1 PUSH3 0x24F8 JUMP JUMPDEST SWAP1 POP PUSH3 0x17C5 DUP3 DUP3 PUSH3 0x1A3B JUMP JUMPDEST DUP6 PUSH32 0x2A714ABD697B83E14DF66CE02BCADCAB42E9D2305E12D5ABF7B61656DFA689EB DUP4 PUSH1 0x0 ADD MLOAD DUP4 PUSH1 0x40 MLOAD PUSH3 0x17FD SWAP3 SWAP2 SWAP1 PUSH3 0x33E0 JUMP JUMPDEST PUSH1 0x40 MLOAD DUP1 SWAP2 SUB SWAP1 LOG2 POP POP DUP1 DUP1 PUSH3 0x1814 SWAP1 PUSH3 0x25C3 JUMP JUMPDEST SWAP2 POP POP PUSH3 0x157A JUMP JUMPDEST POP POP POP POP JUMP JUMPDEST PUSH1 0x60 PUSH1 0x0 DUP3 PUSH1 0x3 ADD DUP1 SLOAD SWAP1 POP PUSH8 0xFFFFFFFFFFFFFFFF DUP2 GT ISZERO PUSH3 0x184B JUMPI PUSH3 0x184A PUSH3 0x2786 JUMP JUMPDEST JUMPDEST PUSH1 0x40 MLOAD SWAP1 DUP1 DUP3 MSTORE DUP1 PUSH1 0x20 MUL PUSH1 0x20 ADD DUP3 ADD PUSH1 0x40 MSTORE DUP1 ISZERO PUSH3 0x187A JUMPI DUP2 PUSH1 0x20 ADD PUSH1 0x20 DUP3 MUL DUP1 CALLDATASIZE DUP4 CALLDATACOPY DUP1 DUP3 ADD SWAP2 POP POP SWAP1 POP JUMPDEST POP SWAP1 POP PUSH1 0x0 JUMPDEST DUP4 PUSH1 0x3 ADD DUP1 SLOAD SWAP1 POP DUP2 LT ISZERO PUSH3 0x190B JUMPI DUP4 PUSH1 0x3 ADD DUP2 DUP2 SLOAD DUP2 LT PUSH3 0x18A9 JUMPI PUSH3 0x18A8 PUSH3 0x2530 JUMP JUMPDEST JUMPDEST SWAP1 PUSH1 0x0 MSTORE PUSH1 0x20 PUSH1 0x0 KECCAK256 SWAP1 PUSH1 0x3 MUL ADD PUSH1 0x0 ADD PUSH1 0x18 SWAP1 SLOAD SWAP1 PUSH2 0x100 EXP SWAP1 DIV PUSH2 0xFFFF AND DUP3 DUP3 DUP2 MLOAD DUP2 LT PUSH3 0x18DF JUMPI PUSH3 0x18DE PUSH3 0x2530 JUMP JUMPDEST JUMPDEST PUSH1 0x20 MUL PUSH1 0x20 ADD ADD SWAP1 PUSH2 0xFFFF AND SWAP1 DUP2 PUSH2 0xFFFF AND DUP2 MSTORE POP POP DUP1 DUP1 PUSH3 0x1902 SWAP1 PUSH3 0x25C3 JUMP JUMPDEST SWAP2 POP POP PUSH3 0x1880 JUMP JUMPDEST POP DUP1 DUP4 PUSH1 0x4 ADD SLOAD PUSH1 0x40 MLOAD PUSH1 0x20 ADD PUSH3 0x1925 SWAP3 SWAP2 SWAP1 PUSH3 0x34CA JUMP JUMPDEST PUSH1 0x40 MLOAD PUSH1 0x20 DUP2 DUP4 SUB SUB DUP2 MSTORE SWAP1 PUSH1 0x40 MSTORE SWAP2 POP POP SWAP2 SWAP1 POP JUMP JUMPDEST PUSH1 0x60 PUSH1 0x0 DUP1 PUSH2 0x900 PUSH20 0xFFFFFFFFFFFFFFFFFFFFFFFFFFFFFFFFFFFFFFFF AND DUP5 PUSH1 0x40 MLOAD PUSH3 0x196A SWAP2 SWAP1 PUSH3 0x3540 JUMP JUMPDEST PUSH1 0x0 PUSH1 0x40 MLOAD DUP1 DUP4 SUB DUP2 DUP6 GAS STATICCALL SWAP2 POP POP RETURNDATASIZE DUP1 PUSH1 0x0 DUP2 EQ PUSH3 0x19A7 JUMPI PUSH1 0x40 MLOAD SWAP2 POP PUSH1 0x1F NOT PUSH1 0x3F RETURNDATASIZE ADD AND DUP3 ADD PUSH1 0x40 MSTORE RETURNDATASIZE DUP3 MSTORE RETURNDATASIZE PUSH1 0x0 PUSH1 0x20 DUP5 ADD RETURNDATACOPY PUSH3 0x19AC JUMP JUMPDEST PUSH1 0x60 SWAP2 POP JUMPDEST POP SWAP2 POP SWAP2 POP DUP2 PUSH3 0x19F4 JUMPI PUSH1 0x40 MLOAD PUSH32 0x8C379A000000000000000000000000000000000000000000000000000000000 DUP2 MSTORE PUSH1 0x4 ADD PUSH3 0x19EB SWAP1 PUSH3 0x35A9 JUMP JUMPDEST PUSH1 0x40 MLOAD DUP1 SWAP2 SUB SWAP1 REVERT JUMPDEST DUP1 SWAP3 POP POP POP SWAP2 SWAP1 POP JUMP JUMPDEST PUSH1 0x0 DUP2 PUSH2 0xFFFF AND DUP4 PUSH2 0xFFFF AND GT PUSH3 0x1A24 JUMPI DUP3 DUP3 PUSH3 0x1A1E SWAP2 SWAP1 PUSH3 0x35CB JUMP JUMPDEST PUSH3 0x1A33 JUMP JUMPDEST DUP2 DUP4 PUSH3 0x1A32 SWAP2 SWAP1 PUSH3 0x35CB JUMP JUMPDEST JUMPDEST SWAP1 POP SWAP3 SWAP2 POP POP JUMP JUMPDEST PUSH1 0x0 DUP3 PUSH1 0x0 ADD MLOAD DUP3 DUP5 PUSH1 0x60 ADD MLOAD PUSH1 0x40 MLOAD PUSH1 0x20 ADD PUSH3 0x1A5C SWAP4 SWAP3 SWAP2 SWAP1 PUSH3 0x3608 JUMP JUMPDEST PUSH1 0x40 MLOAD PUSH1 0x20 DUP2 DUP4 SUB SUB DUP2 MSTORE SWAP1 PUSH1 0x40 MSTORE SWAP1 POP PUSH2 0x800 PUSH20 0xFFFFFFFFFFFFFFFFFFFFFFFFFFFFFFFFFFFFFFFF AND PUSH4 0x6B206FC7 DUP5 PUSH1 0x0 ADD MLOAD DUP4 PUSH1 0x40 MLOAD DUP4 PUSH4 0xFFFFFFFF AND PUSH1 0xE0 SHL DUP2 MSTORE PUSH1 0x4 ADD PUSH3 0x1AB0 SWAP3 SWAP2 SWAP1 PUSH3 0x32F1 JUMP JUMPDEST PUSH1 0x0 PUSH1 0x40 MLOAD DUP1 DUP4 SUB DUP2 PUSH1 0x0 DUP8 DUP1 EXTCODESIZE ISZERO DUP1 ISZERO PUSH3 0x1ACB JUMPI PUSH1 0x0 DUP1 REVERT JUMPDEST POP GAS CALL ISZERO DUP1 ISZERO PUSH3 0x1AE0 JUMPI RETURNDATASIZE PUSH1 0x0 DUP1 RETURNDATACOPY RETURNDATASIZE PUSH1 0x0 REVERT JUMPDEST POP POP POP POP POP POP POP JUMP JUMPDEST PUSH1 0x40 MLOAD DUP1 PUSH1 0xC0 ADD PUSH1 0x40 MSTORE DUP1 PUSH1 0x0 DUP2 MSTORE PUSH1 0x20 ADD PUSH1 0x60 DUP2 MSTORE PUSH1 0x20 ADD PUSH1 0x0 PUSH20 0xFFFFFFFFFFFFFFFFFFFFFFFFFFFFFFFFFFFFFFFF AND DUP2 MSTORE PUSH1 0x20 ADD PUSH1 0x60 DUP2 MSTORE PUSH1 0x20 ADD PUSH1 0x0 DUP2 MSTORE PUSH1 0x20 ADD PUSH1 0x0 ISZERO ISZERO DUP2 MSTORE POP SWAP1 JUMP JUMPDEST PUSH2 0x1CA1 DUP1 PUSH3 0x364D DUP4 CODECOPY ADD SWAP1 JUMP JUMPDEST PUSH1 0x0 PUSH20 0xFFFFFFFFFFFFFFFFFFFFFFFFFFFFFFFFFFFFFFFF DUP3 AND SWAP1 POP SWAP2 SWAP1 POP JUMP JUMPDEST PUSH1 0x0 PUSH3 0x1B72 DUP3 PUSH3 0x1B45 JUMP JUMPDEST SWAP1 POP SWAP2 SWAP1 POP JUMP JUMPDEST PUSH3 0x1B84 DUP2 PUSH3 0x1B65 JUMP JUMPDEST DUP3 MSTORE POP POP JUMP JUMPDEST PUSH1 0x0 PUSH1 0x20 DUP3 ADD SWAP1 POP PUSH3 0x1BA1 PUSH1 0x0 DUP4 ADD DUP5 PUSH3 0x1B79 JUMP JUMPDEST SWAP3 SWAP2 POP POP JUMP JUMPDEST PUSH1 0x0 PUSH2 0xFFFF DUP3 AND SWAP1 POP SWAP2 SWAP1 POP JUMP JUMPDEST PUSH3 0x1BC0 DUP2 PUSH3 0x1BA7 JUMP JUMPDEST DUP3 MSTORE POP POP JUMP JUMPDEST PUSH1 0x0 PUSH1 0x20 DUP3 ADD SWAP1 POP PUSH3 0x1BDD PUSH1 0x0 DUP4 ADD DUP5 PUSH3 0x1BB5 JUMP JUMPDEST SWAP3 SWAP2 POP POP JUMP JUMPDEST PUSH1 0x0 PUSH1 0x40 MLOAD SWAP1 POP SWAP1 JUMP JUMPDEST PUSH1 0x0 DUP1 REVERT JUMPDEST PUSH1 0x0 DUP1 REVERT JUMPDEST PUSH1 0x0 DUP2 SWAP1 POP SWAP2 SWAP1 POP JUMP JUMPDEST PUSH3 0x1C0C DUP2 PUSH3 0x1BF7 JUMP JUMPDEST DUP2 EQ PUSH3 0x1C18 JUMPI PUSH1 0x0 DUP1 REVERT JUMPDEST POP JUMP JUMPDEST PUSH1 0x0 DUP2 CALLDATALOAD SWAP1 POP PUSH3 0x1C2C DUP2 PUSH3 0x1C01 JUMP JUMPDEST SWAP3 SWAP2 POP POP JUMP JUMPDEST PUSH1 0x0 DUP1 PUSH1 0x40 DUP4 DUP6 SUB SLT ISZERO PUSH3 0x1C4C JUMPI PUSH3 0x1C4B PUSH3 0x1BED JUMP JUMPDEST JUMPDEST PUSH1 0x0 PUSH3 0x1C5C DUP6 DUP3 DUP7 ADD PUSH3 0x1C1B JUMP JUMPDEST SWAP3 POP POP PUSH1 0x20 PUSH3 0x1C6F DUP6 DUP3 DUP7 ADD PUSH3 0x1C1B JUMP JUMPDEST SWAP2 POP POP SWAP3 POP SWAP3 SWAP1 POP JUMP JUMPDEST PUSH3 0x1C84 DUP2 PUSH3 0x1B65 JUMP JUMPDEST DUP2 EQ PUSH3 0x1C90 JUMPI PUSH1 0x0 DUP1 REVERT JUMPDEST POP JUMP JUMPDEST PUSH1 0x0 DUP2 CALLDATALOAD SWAP1 POP PUSH3 0x1CA4 DUP2 PUSH3 0x1C79 JUMP JUMPDEST SWAP3 SWAP2 POP POP JUMP JUMPDEST PUSH1 0x0 DUP1 PUSH1 0x40 DUP4 DUP6 SUB SLT ISZERO PUSH3 0x1CC4 JUMPI PUSH3 0x1CC3 PUSH3 0x1BED JUMP JUMPDEST JUMPDEST PUSH1 0x0 PUSH3 0x1CD4 DUP6 DUP3 DUP7 ADD PUSH3 0x1C93 JUMP JUMPDEST SWAP3 POP POP PUSH1 0x20 PUSH3 0x1CE7 DUP6 DUP3 DUP7 ADD PUSH3 0x1C1B JUMP JUMPDEST SWAP2 POP POP SWAP3 POP SWAP3 SWAP1 POP JUMP JUMPDEST PUSH3 0x1CFC DUP2 PUSH3 0x1BF7 JUMP JUMPDEST DUP3 MSTORE POP POP JUMP JUMPDEST PUSH1 0x0 PUSH1 0x60 DUP3 ADD SWAP1 POP PUSH3 0x1D19 PUSH1 0x0 DUP4 ADD DUP7 PUSH3 0x1CF1 JUMP JUMPDEST PUSH3 0x1D28 PUSH1 0x20 DUP4 ADD DUP6 PUSH3 0x1CF1 JUMP JUMPDEST PUSH3 0x1D37 PUSH1 0x40 DUP4 ADD DUP5 PUSH3 0x1CF1 JUMP JUMPDEST SWAP5 SWAP4 POP POP POP POP JUMP JUMPDEST PUSH1 0x0 PUSH1 0x20 DUP3 DUP5 SUB SLT ISZERO PUSH3 0x1D58 JUMPI PUSH3 0x1D57 PUSH3 0x1BED JUMP JUMPDEST JUMPDEST PUSH1 0x0 PUSH3 0x1D68 DUP5 DUP3 DUP6 ADD PUSH3 0x1C1B JUMP JUMPDEST SWAP2 POP POP SWAP3 SWAP2 POP POP JUMP JUMPDEST PUSH3 0x1D7C DUP2 PUSH3 0x1BF7 JUMP JUMPDEST DUP3 MSTORE POP POP JUMP JUMPDEST PUSH1 0x0 DUP2 MLOAD SWAP1 POP SWAP2 SWAP1 POP JUMP JUMPDEST PUSH1 0x0 DUP3 DUP3 MSTORE PUSH1 0x20 DUP3 ADD SWAP1 POP SWAP3 SWAP2 POP POP JUMP JUMPDEST PUSH1 0x0 JUMPDEST DUP4 DUP2 LT ISZERO PUSH3 0x1DBE JUMPI DUP1 DUP3 ADD MLOAD DUP2 DUP5 ADD MSTORE PUSH1 0x20 DUP2 ADD SWAP1 POP PUSH3 0x1DA1 JUMP JUMPDEST PUSH1 0x0 DUP5 DUP5 ADD MSTORE POP POP POP POP JUMP JUMPDEST PUSH1 0x0 PUSH1 0x1F NOT PUSH1 0x1F DUP4 ADD AND SWAP1 POP SWAP2 SWAP1 POP JUMP JUMPDEST PUSH1 0x0 PUSH3 0x1DE8 DUP3 PUSH3 0x1D82 JUMP JUMPDEST PUSH3 0x1DF4 DUP2 DUP6 PUSH3 0x1D8D JUMP JUMPDEST SWAP4 POP PUSH3 0x1E06 DUP2 DUP6 PUSH1 0x20 DUP7 ADD PUSH3 0x1D9E JUMP JUMPDEST PUSH3 0x1E11 DUP2 PUSH3 0x1DCA JUMP JUMPDEST DUP5 ADD SWAP2 POP POP SWAP3 SWAP2 POP POP JUMP JUMPDEST PUSH3 0x1E27 DUP2 PUSH3 0x1B65 JUMP JUMPDEST DUP3 MSTORE POP POP JUMP JUMPDEST PUSH1 0x0 DUP2 MLOAD SWAP1 POP SWAP2 SWAP1 POP JUMP JUMPDEST PUSH1 0x0 DUP3 DUP3 MSTORE PUSH1 0x20 DUP3 ADD SWAP1 POP SWAP3 SWAP2 POP POP JUMP JUMPDEST PUSH1 0x0 DUP2 SWAP1 POP PUSH1 0x20 DUP3 ADD SWAP1 POP SWAP2 SWAP1 POP JUMP JUMPDEST PUSH1 0x0 PUSH4 0xFFFFFFFF DUP3 AND SWAP1 POP SWAP2 SWAP1 POP JUMP JUMPDEST PUSH3 0x1E74 DUP2 PUSH3 0x1E59 JUMP JUMPDEST DUP3 MSTORE POP POP JUMP JUMPDEST PUSH3 0x1E85 DUP2 PUSH3 0x1BA7 JUMP JUMPDEST DUP3 MSTORE POP POP JUMP JUMPDEST PUSH1 0x0 DUP2 MLOAD SWAP1 POP SWAP2 SWAP1 POP JUMP JUMPDEST PUSH1 0x0 DUP3 DUP3 MSTORE PUSH1 0x20 DUP3 ADD SWAP1 POP SWAP3 SWAP2 POP POP JUMP JUMPDEST PUSH1 0x0 PUSH3 0x1EB4 DUP3 PUSH3 0x1E8B JUMP JUMPDEST PUSH3 0x1EC0 DUP2 DUP6 PUSH3 0x1E96 JUMP JUMPDEST SWAP4 POP PUSH3 0x1ED2 DUP2 DUP6 PUSH1 0x20 DUP7 ADD PUSH3 0x1D9E JUMP JUMPDEST PUSH3 0x1EDD DUP2 PUSH3 0x1DCA JUMP JUMPDEST DUP5 ADD SWAP2 POP POP SWAP3 SWAP2 POP POP JUMP JUMPDEST PUSH1 0x0 PUSH1 0xA0 DUP4 ADD PUSH1 0x0 DUP4 ADD MLOAD PUSH3 0x1F02 PUSH1 0x0 DUP7 ADD DUP3 PUSH3 0x1E69 JUMP JUMPDEST POP PUSH1 0x20 DUP4 ADD MLOAD PUSH3 0x1F17 PUSH1 0x20 DUP7 ADD DUP3 PUSH3 0x1E1C JUMP JUMPDEST POP PUSH1 0x40 DUP4 ADD MLOAD PUSH3 0x1F2C PUSH1 0x40 DUP7 ADD DUP3 PUSH3 0x1E7A JUMP JUMPDEST POP PUSH1 0x60 DUP4 ADD MLOAD DUP5 DUP3 SUB PUSH1 0x60 DUP7 ADD MSTORE PUSH3 0x1F46 DUP3 DUP3 PUSH3 0x1EA7 JUMP JUMPDEST SWAP2 POP POP PUSH1 0x80 DUP4 ADD MLOAD DUP5 DUP3 SUB PUSH1 0x80 DUP7 ADD MSTORE PUSH3 0x1F62 DUP3 DUP3 PUSH3 0x1EA7 JUMP JUMPDEST SWAP2 POP POP DUP1 SWAP2 POP POP SWAP3 SWAP2 POP POP JUMP JUMPDEST PUSH1 0x0 PUSH3 0x1F7D DUP4 DUP4 PUSH3 0x1EE8 JUMP JUMPDEST SWAP1 POP SWAP3 SWAP2 POP POP JUMP JUMPDEST PUSH1 0x0 PUSH1 0x20 DUP3 ADD SWAP1 POP SWAP2 SWAP1 POP JUMP JUMPDEST PUSH1 0x0 PUSH3 0x1F9F DUP3 PUSH3 0x1E2D JUMP JUMPDEST PUSH3 0x1FAB DUP2 DUP6 PUSH3 0x1E38 JUMP JUMPDEST SWAP4 POP DUP4 PUSH1 0x20 DUP3 MUL DUP6 ADD PUSH3 0x1FBF DUP6 PUSH3 0x1E49 JUMP JUMPDEST DUP1 PUSH1 0x0 JUMPDEST DUP6 DUP2 LT ISZERO PUSH3 0x2001 JUMPI DUP5 DUP5 SUB DUP10 MSTORE DUP2 MLOAD PUSH3 0x1FDF DUP6 DUP3 PUSH3 0x1F6F JUMP JUMPDEST SWAP5 POP PUSH3 0x1FEC DUP4 PUSH3 0x1F85 JUMP JUMPDEST SWAP3 POP PUSH1 0x20 DUP11 ADD SWAP10 POP POP PUSH1 0x1 DUP2 ADD SWAP1 POP PUSH3 0x1FC3 JUMP JUMPDEST POP DUP3 SWAP8 POP DUP8 SWAP6 POP POP POP POP POP POP SWAP3 SWAP2 POP POP JUMP JUMPDEST PUSH1 0x0 DUP2 ISZERO ISZERO SWAP1 POP SWAP2 SWAP1 POP JUMP JUMPDEST PUSH3 0x202A DUP2 PUSH3 0x2013 JUMP JUMPDEST DUP3 MSTORE POP POP JUMP JUMPDEST PUSH1 0x0 PUSH1 0xC0 DUP4 ADD PUSH1 0x0 DUP4 ADD MLOAD PUSH3 0x204A PUSH1 0x0 DUP7 ADD DUP3 PUSH3 0x1D71 JUMP JUMPDEST POP PUSH1 0x20 DUP4 ADD MLOAD DUP5 DUP3 SUB PUSH1 0x20 DUP7 ADD MSTORE PUSH3 0x2064 DUP3 DUP3 PUSH3 0x1DDB JUMP JUMPDEST SWAP2 POP POP PUSH1 0x40 DUP4 ADD MLOAD PUSH3 0x207B PUSH1 0x40 DUP7 ADD DUP3 PUSH3 0x1E1C JUMP JUMPDEST POP PUSH1 0x60 DUP4 ADD MLOAD DUP5 DUP3 SUB PUSH1 0x60 DUP7 ADD MSTORE PUSH3 0x2095 DUP3 DUP3 PUSH3 0x1F92 JUMP JUMPDEST SWAP2 POP POP PUSH1 0x80 DUP4 ADD MLOAD PUSH3 0x20AC PUSH1 0x80 DUP7 ADD DUP3 PUSH3 0x1D71 JUMP JUMPDEST POP PUSH1 0xA0 DUP4 ADD MLOAD PUSH3 0x20C1 PUSH1 0xA0 DUP7 ADD DUP3 PUSH3 0x201F JUMP JUMPDEST POP DUP1 SWAP2 POP POP SWAP3 SWAP2 POP POP JUMP JUMPDEST PUSH1 0x0 PUSH1 0x20 DUP3 ADD SWAP1 POP DUP2 DUP2 SUB PUSH1 0x0 DUP4 ADD MSTORE PUSH3 0x20E8 DUP2 DUP5 PUSH3 0x2030 JUMP JUMPDEST SWAP1 POP SWAP3 SWAP2 POP POP JUMP JUMPDEST PUSH1 0x0 PUSH1 0x20 DUP3 ADD SWAP1 POP PUSH3 0x2107 PUSH1 0x0 DUP4 ADD DUP5 PUSH3 0x1CF1 JUMP JUMPDEST SWAP3 SWAP2 POP POP JUMP JUMPDEST PUSH1 0x0 DUP3 DUP3 MSTORE PUSH1 0x20 DUP3 ADD SWAP1 POP SWAP3 SWAP2 POP POP JUMP JUMPDEST PUSH1 0x0 PUSH3 0x212B DUP3 PUSH3 0x1D82 JUMP JUMPDEST PUSH3 0x2137 DUP2 DUP6 PUSH3 0x210D JUMP JUMPDEST SWAP4 POP PUSH3 0x2149 DUP2 DUP6 PUSH1 0x20 DUP7 ADD PUSH3 0x1D9E JUMP JUMPDEST PUSH3 0x2154 DUP2 PUSH3 0x1DCA JUMP JUMPDEST DUP5 ADD SWAP2 POP POP SWAP3 SWAP2 POP POP JUMP JUMPDEST PUSH3 0x216A DUP2 PUSH3 0x2013 JUMP JUMPDEST DUP3 MSTORE POP POP JUMP JUMPDEST PUSH1 0x0 PUSH1 0xA0 DUP3 ADD SWAP1 POP PUSH3 0x2187 PUSH1 0x0 DUP4 ADD DUP9 PUSH3 0x1CF1 JUMP JUMPDEST DUP2 DUP2 SUB PUSH1 0x20 DUP4 ADD MSTORE PUSH3 0x219B DUP2 DUP8 PUSH3 0x211E JUMP JUMPDEST SWAP1 POP PUSH3 0x21AC PUSH1 0x40 DUP4 ADD DUP7 PUSH3 0x1B79 JUMP JUMPDEST PUSH3 0x21BB PUSH1 0x60 DUP4 ADD DUP6 PUSH3 0x1CF1 JUMP JUMPDEST PUSH3 0x21CA PUSH1 0x80 DUP4 ADD DUP5 PUSH3 0x215F JUMP JUMPDEST SWAP7 SWAP6 POP POP POP POP POP POP JUMP JUMPDEST PUSH1 0x0 DUP1 REVERT JUMPDEST PUSH1 0x0 DUP1 REVERT JUMPDEST PUSH1 0x0 DUP1 REVERT JUMPDEST PUSH1 0x0 DUP1 DUP4 PUSH1 0x1F DUP5 ADD SLT PUSH3 0x21FC JUMPI PUSH3 0x21FB PUSH3 0x21D4 JUMP JUMPDEST JUMPDEST DUP3 CALLDATALOAD SWAP1 POP PUSH8 0xFFFFFFFFFFFFFFFF DUP2 GT ISZERO PUSH3 0x221C JUMPI PUSH3 0x221B PUSH3 0x21D9 JUMP JUMPDEST JUMPDEST PUSH1 0x20 DUP4 ADD SWAP2 POP DUP4 PUSH1 0x1 DUP3 MUL DUP4 ADD GT ISZERO PUSH3 0x223B JUMPI PUSH3 0x223A PUSH3 0x21DE JUMP JUMPDEST JUMPDEST SWAP3 POP SWAP3 SWAP1 POP JUMP JUMPDEST PUSH1 0x0 DUP1 DUP4 PUSH1 0x1F DUP5 ADD SLT PUSH3 0x225B JUMPI PUSH3 0x225A PUSH3 0x21D4 JUMP JUMPDEST JUMPDEST DUP3 CALLDATALOAD SWAP1 POP PUSH8 0xFFFFFFFFFFFFFFFF DUP2 GT ISZERO PUSH3 0x227B JUMPI PUSH3 0x227A PUSH3 0x21D9 JUMP JUMPDEST JUMPDEST PUSH1 0x20 DUP4 ADD SWAP2 POP DUP4 PUSH1 0x20 DUP3 MUL DUP4 ADD GT ISZERO PUSH3 0x229A JUMPI PUSH3 0x2299 PUSH3 0x21DE JUMP JUMPDEST JUMPDEST SWAP3 POP SWAP3 SWAP1 POP JUMP JUMPDEST PUSH1 0x0 DUP1 PUSH1 0x0 DUP1 PUSH1 0x0 DUP1 PUSH1 0x60 DUP8 DUP10 SUB SLT ISZERO PUSH3 0x22C1 JUMPI PUSH3 0x22C0 PUSH3 0x1BED JUMP JUMPDEST JUMPDEST PUSH1 0x0 DUP8 ADD CALLDATALOAD PUSH8 0xFFFFFFFFFFFFFFFF DUP2 GT ISZERO PUSH3 0x22E2 JUMPI PUSH3 0x22E1 PUSH3 0x1BF2 JUMP JUMPDEST JUMPDEST PUSH3 0x22F0 DUP10 DUP3 DUP11 ADD PUSH3 0x21E3 JUMP JUMPDEST SWAP7 POP SWAP7 POP POP PUSH1 0x20 DUP8 ADD CALLDATALOAD PUSH8 0xFFFFFFFFFFFFFFFF DUP2 GT ISZERO PUSH3 0x2316 JUMPI PUSH3 0x2315 PUSH3 0x1BF2 JUMP JUMPDEST JUMPDEST PUSH3 0x2324 DUP10 DUP3 DUP11 ADD PUSH3 0x21E3 JUMP JUMPDEST SWAP5 POP SWAP5 POP POP PUSH1 0x40 DUP8 ADD CALLDATALOAD PUSH8 0xFFFFFFFFFFFFFFFF DUP2 GT ISZERO PUSH3 0x234A JUMPI PUSH3 0x2349 PUSH3 0x1BF2 JUMP JUMPDEST JUMPDEST PUSH3 0x2358 DUP10 DUP3 DUP11 ADD PUSH3 0x2242 JUMP JUMPDEST SWAP3 POP SWAP3 POP POP SWAP3 SWAP6 POP SWAP3 SWAP6 POP SWAP3 SWAP6 JUMP JUMPDEST PUSH32 0x4261736B6574206E6F7420616374697665000000000000000000000000000000 PUSH1 0x0 DUP3 ADD MSTORE POP JUMP JUMPDEST PUSH1 0x0 PUSH3 0x239F PUSH1 0x11 DUP4 PUSH3 0x210D JUMP JUMPDEST SWAP2 POP PUSH3 0x23AC DUP3 PUSH3 0x2367 JUMP JUMPDEST PUSH1 0x20 DUP3 ADD SWAP1 POP SWAP2 SWAP1 POP JUMP JUMPDEST PUSH1 0x0 PUSH1 0x20 DUP3 ADD SWAP1 POP DUP2 DUP2 SUB PUSH1 0x0 DUP4 ADD MSTORE PUSH3 0x23D2 DUP2 PUSH3 0x2390 JUMP JUMPDEST SWAP1 POP SWAP2 SWAP1 POP JUMP JUMPDEST PUSH1 0x0 PUSH1 0x40 DUP3 ADD SWAP1 POP PUSH3 0x23F0 PUSH1 0x0 DUP4 ADD DUP6 PUSH3 0x1B79 JUMP JUMPDEST PUSH3 0x23FF PUSH1 0x20 DUP4 ADD DUP5 PUSH3 0x1CF1 JUMP JUMPDEST SWAP4 SWAP3 POP POP POP JUMP JUMPDEST PUSH1 0x0 DUP2 MLOAD SWAP1 POP PUSH3 0x2417 DUP2 PUSH3 0x1C01 JUMP JUMPDEST SWAP3 SWAP2 POP POP JUMP JUMPDEST PUSH1 0x0 PUSH1 0x20 DUP3 DUP5 SUB SLT ISZERO PUSH3 0x2436 JUMPI PUSH3 0x2435 PUSH3 0x1BED JUMP JUMPDEST JUMPDEST PUSH1 0x0 PUSH3 0x2446 DUP5 DUP3 DUP6 ADD PUSH3 0x2406 JUMP JUMPDEST SWAP2 POP POP SWAP3 SWAP2 POP POP JUMP JUMPDEST PUSH32 0x4E487B7100000000000000000000000000000000000000000000000000000000 PUSH1 0x0 MSTORE PUSH1 0x11 PUSH1 0x4 MSTORE PUSH1 0x24 PUSH1 0x0 REVERT JUMPDEST PUSH1 0x0 PUSH3 0x248B DUP3 PUSH3 0x1BF7 JUMP JUMPDEST SWAP2 POP PUSH3 0x2498 DUP4 PUSH3 0x1BF7 JUMP JUMPDEST SWAP3 POP DUP3 DUP3 MUL PUSH3 0x24A8 DUP2 PUSH3 0x1BF7 JUMP JUMPDEST SWAP2 POP DUP3 DUP3 DIV DUP5 EQ DUP4 ISZERO OR PUSH3 0x24C2 JUMPI PUSH3 0x24C1 PUSH3 0x244F JUMP JUMPDEST JUMPDEST POP SWAP3 SWAP2 POP POP JUMP JUMPDEST PUSH32 0x4E487B7100000000000000000000000000000000000000000000000000000000 PUSH1 0x0 MSTORE PUSH1 0x12 PUSH1 0x4 MSTORE PUSH1 0x24 PUSH1 0x0 REVERT JUMPDEST PUSH1 0x0 PUSH3 0x2505 DUP3 PUSH3 0x1BF7 JUMP JUMPDEST SWAP2 POP PUSH3 0x2512 DUP4 PUSH3 0x1BF7 JUMP JUMPDEST SWAP3 POP DUP3 PUSH3 0x2525 JUMPI PUSH3 0x2524 PUSH3 0x24C9 JUMP JUMPDEST JUMPDEST DUP3 DUP3 DIV SWAP1 POP SWAP3 SWAP2 POP POP JUMP JUMPDEST PUSH32 0x4E487B7100000000000000000000000000000000000000000000000000000000 PUSH1 0x0 MSTORE PUSH1 0x32 PUSH1 0x4 MSTORE PUSH1 0x24 PUSH1 0x0 REVERT JUMPDEST PUSH32 0x4E487B7100000000000000000000000000000000000000000000000000000000 PUSH1 0x0 MSTORE PUSH1 0x22 PUSH1 0x4 MSTORE PUSH1 0x24 PUSH1 0x0 REVERT JUMPDEST PUSH1 0x0 PUSH1 0x2 DUP3 DIV SWAP1 POP PUSH1 0x1 DUP3 AND DUP1 PUSH3 0x25A7 JUMPI PUSH1 0x7F DUP3 AND SWAP2 POP JUMPDEST PUSH1 0x20 DUP3 LT DUP2 SUB PUSH3 0x25BD JUMPI PUSH3 0x25BC PUSH3 0x255F JUMP JUMPDEST JUMPDEST POP SWAP2 SWAP1 POP JUMP JUMPDEST PUSH1 0x0 PUSH3 0x25D0 DUP3 PUSH3 0x1BF7 JUMP JUMPDEST SWAP2 POP PUSH32 0xFFFFFFFFFFFFFFFFFFFFFFFFFFFFFFFFFFFFFFFFFFFFFFFFFFFFFFFFFFFFFFFF DUP3 SUB PUSH3 0x2605 JUMPI PUSH3 0x2604 PUSH3 0x244F JUMP JUMPDEST JUMPDEST PUSH1 0x1 DUP3 ADD SWAP1 POP SWAP2 SWAP1 POP JUMP JUMPDEST PUSH1 0x0 PUSH3 0x261D DUP3 PUSH3 0x1BF7 JUMP JUMPDEST SWAP2 POP PUSH3 0x262A DUP4 PUSH3 0x1BF7 JUMP JUMPDEST SWAP3 POP DUP3 DUP3 SUB SWAP1 POP DUP2 DUP2 GT ISZERO PUSH3 0x2645 JUMPI PUSH3 0x2644 PUSH3 0x244F JUMP JUMPDEST JUMPDEST SWAP3 SWAP2 POP POP JUMP JUMPDEST PUSH1 0x0 PUSH1 0x40 DUP3 ADD SWAP1 POP PUSH3 0x2662 PUSH1 0x0 DUP4 ADD DUP6 PUSH3 0x1CF1 JUMP JUMPDEST PUSH3 0x2671 PUSH1 0x20 DUP4 ADD DUP5 PUSH3 0x1CF1 JUMP JUMPDEST SWAP4 SWAP3 POP POP POP JUMP JUMPDEST PUSH32 0x4E6F74206F776E65720000000000000000000000000000000000000000000000 PUSH1 0x0 DUP3 ADD MSTORE POP JUMP JUMPDEST PUSH1 0x0 PUSH3 0x26B0 PUSH1 0x9 DUP4 PUSH3 0x210D JUMP JUMPDEST SWAP2 POP PUSH3 0x26BD DUP3 PUSH3 0x2678 JUMP JUMPDEST PUSH1 0x20 DUP3 ADD SWAP1 POP SWAP2 SWAP1 POP JUMP JUMPDEST PUSH1 0x0 PUSH1 0x20 DUP3 ADD SWAP1 POP DUP2 DUP2 SUB PUSH1 0x0 DUP4 ADD MSTORE PUSH3 0x26E3 DUP2 PUSH3 0x26A1 JUMP JUMPDEST SWAP1 POP SWAP2 SWAP1 POP JUMP JUMPDEST DUP3 DUP2 DUP4 CALLDATACOPY PUSH1 0x0 DUP4 DUP4 ADD MSTORE POP POP POP JUMP JUMPDEST PUSH1 0x0 PUSH3 0x2707 DUP4 DUP6 PUSH3 0x210D JUMP JUMPDEST SWAP4 POP PUSH3 0x2716 DUP4 DUP6 DUP5 PUSH3 0x26EA JUMP JUMPDEST PUSH3 0x2721 DUP4 PUSH3 0x1DCA JUMP JUMPDEST DUP5 ADD SWAP1 POP SWAP4 SWAP3 POP POP POP JUMP JUMPDEST PUSH1 0x0 PUSH1 0x60 DUP3 ADD SWAP1 POP DUP2 DUP2 SUB PUSH1 0x0 DUP4 ADD MSTORE PUSH3 0x2749 DUP2 DUP8 DUP10 PUSH3 0x26F9 JUMP JUMPDEST SWAP1 POP DUP2 DUP2 SUB PUSH1 0x20 DUP4 ADD MSTORE PUSH3 0x2760 DUP2 DUP6 DUP8 PUSH3 0x26F9 JUMP JUMPDEST SWAP1 POP PUSH3 0x2771 PUSH1 0x40 DUP4 ADD DUP5 PUSH3 0x1B79 JUMP JUMPDEST SWAP7 SWAP6 POP POP POP POP POP POP JUMP JUMPDEST PUSH1 0x0 DUP3 SWAP1 POP SWAP3 SWAP2 POP POP JUMP JUMPDEST PUSH32 0x4E487B7100000000000000000000000000000000000000000000000000000000 PUSH1 0x0 MSTORE PUSH1 0x41 PUSH1 0x4 MSTORE PUSH1 0x24 PUSH1 0x0 REVERT JUMPDEST PUSH1 0x0 DUP2 SWAP1 POP DUP2 PUSH1 0x0 MSTORE PUSH1 0x20 PUSH1 0x0 KECCAK256 SWAP1 POP SWAP2 SWAP1 POP JUMP JUMPDEST PUSH1 0x0 PUSH1 0x20 PUSH1 0x1F DUP4 ADD DIV SWAP1 POP SWAP2 SWAP1 POP JUMP JUMPDEST PUSH1 0x0 DUP3 DUP3 SHL SWAP1 POP SWAP3 SWAP2 POP POP JUMP JUMPDEST PUSH1 0x0 PUSH1 0x8 DUP4 MUL PUSH3 0x2819 PUSH32 0xFFFFFFFFFFFFFFFFFFFFFFFFFFFFFFFFFFFFFFFFFFFFFFFFFFFFFFFFFFFFFFFF DUP3 PUSH3 0x27DA JUMP JUMPDEST PUSH3 0x2825 DUP7 DUP4 PUSH3 0x27DA JUMP JUMPDEST SWAP6 POP DUP1 NOT DUP5 AND SWAP4 POP DUP1 DUP7 AND DUP5 OR SWAP3 POP POP POP SWAP4 SWAP3 POP POP POP JUMP JUMPDEST PUSH1 0x0 DUP2 SWAP1 POP SWAP2 SWAP1 POP JUMP JUMPDEST PUSH1 0x0 PUSH3 0x2868 PUSH3 0x2862 PUSH3 0x285C DUP5 PUSH3 0x1BF7 JUMP JUMPDEST PUSH3 0x283D JUMP JUMPDEST PUSH3 0x1BF7 JUMP JUMPDEST SWAP1 POP SWAP2 SWAP1 POP JUMP JUMPDEST PUSH1 0x0 DUP2 SWAP1 POP SWAP2 SWAP1 POP JUMP JUMPDEST PUSH3 0x2884 DUP4 PUSH3 0x2847 JUMP JUMPDEST PUSH3 0x289C PUSH3 0x2893 DUP3 PUSH3 0x286F JUMP JUMPDEST DUP5 DUP5 SLOAD PUSH3 0x27E7 JUMP JUMPDEST DUP3 SSTORE POP POP POP POP JUMP JUMPDEST PUSH1 0x0 SWAP1 JUMP JUMPDEST PUSH3 0x28B3 PUSH3 0x28A4 JUMP JUMPDEST PUSH3 0x28C0 DUP2 DUP5 DUP5 PUSH3 0x2879 JUMP JUMPDEST POP POP POP JUMP JUMPDEST JUMPDEST DUP2 DUP2 LT ISZERO PUSH3 0x28E8 JUMPI PUSH3 0x28DC PUSH1 0x0 DUP3 PUSH3 0x28A9 JUMP JUMPDEST PUSH1 0x1 DUP2 ADD SWAP1 POP PUSH3 0x28C6 JUMP JUMPDEST POP POP JUMP JUMPDEST PUSH1 0x1F DUP3 GT ISZERO PUSH3 0x2937 JUMPI PUSH3 0x2901 DUP2 PUSH3 0x27B5 JUMP JUMPDEST PUSH3 0x290C DUP5 PUSH3 0x27CA JUMP JUMPDEST DUP2 ADD PUSH1 0x20 DUP6 LT ISZERO PUSH3 0x291C JUMPI DUP2 SWAP1 POP JUMPDEST PUSH3 0x2934 PUSH3 0x292B DUP6 PUSH3 0x27CA JUMP JUMPDEST DUP4 ADD DUP3 PUSH3 0x28C5 JUMP JUMPDEST POP POP JUMPDEST POP POP POP JUMP JUMPDEST PUSH1 0x0 DUP3 DUP3 SHR SWAP1 POP SWAP3 SWAP2 POP POP JUMP JUMPDEST PUSH1 0x0 PUSH3 0x295C PUSH1 0x0 NOT DUP5 PUSH1 0x8 MUL PUSH3 0x293C JUMP JUMPDEST NOT DUP1 DUP4 AND SWAP2 POP POP SWAP3 SWAP2 POP POP JUMP JUMPDEST PUSH1 0x0 PUSH3 0x2977 DUP4 DUP4 PUSH3 0x2949 JUMP JUMPDEST SWAP2 POP DUP3 PUSH1 0x2 MUL DUP3 OR SWAP1 POP SWAP3 SWAP2 POP POP JUMP JUMPDEST PUSH3 0x2993 DUP4 DUP4 PUSH3 0x277B JUMP JUMPDEST PUSH8 0xFFFFFFFFFFFFFFFF DUP2 GT ISZERO PUSH3 0x29AF JUMPI PUSH3 0x29AE PUSH3 0x2786 JUMP JUMPDEST JUMPDEST PUSH3 0x29BB DUP3 SLOAD PUSH3 0x258E JUMP JUMPDEST PUSH3 0x29C8 DUP3 DUP3 DUP6 PUSH3 0x28EC JUMP JUMPDEST PUSH1 0x0 PUSH1 0x1F DUP4 GT PUSH1 0x1 DUP2 EQ PUSH3 0x29FC JUMPI PUSH1 0x0 DUP5 ISZERO PUSH3 0x29E7 JUMPI DUP3 DUP8 ADD CALLDATALOAD SWAP1 POP JUMPDEST PUSH3 0x29F3 DUP6 DUP3 PUSH3 0x2969 JUMP JUMPDEST DUP7 SSTORE POP PUSH3 0x2A63 JUMP JUMPDEST PUSH1 0x1F NOT DUP5 AND PUSH3 0x2A0C DUP7 PUSH3 0x27B5 JUMP JUMPDEST PUSH1 0x0 JUMPDEST DUP3 DUP2 LT ISZERO PUSH3 0x2A36 JUMPI DUP5 DUP10 ADD CALLDATALOAD DUP3 SSTORE PUSH1 0x1 DUP3 ADD SWAP2 POP PUSH1 0x20 DUP6 ADD SWAP5 POP PUSH1 0x20 DUP2 ADD SWAP1 POP PUSH3 0x2A0F JUMP JUMPDEST DUP7 DUP4 LT ISZERO PUSH3 0x2A56 JUMPI DUP5 DUP10 ADD CALLDATALOAD PUSH3 0x2A52 PUSH1 0x1F DUP10 AND DUP3 PUSH3 0x2949 JUMP JUMPDEST DUP4 SSTORE POP JUMPDEST PUSH1 0x1 PUSH1 0x2 DUP9 MUL ADD DUP9 SSTORE POP POP POP JUMPDEST POP POP POP POP POP POP POP JUMP JUMPDEST PUSH1 0x0 DUP1 REVERT JUMPDEST PUSH1 0x0 DUP1 REVERT JUMPDEST PUSH1 0x0 DUP1 REVERT JUMPDEST PUSH1 0x0 DUP3 CALLDATALOAD PUSH1 0x1 PUSH1 0xA0 SUB DUP4 CALLDATASIZE SUB SUB DUP2 SLT PUSH3 0x2A9A JUMPI PUSH3 0x2A99 PUSH3 0x2A6C JUMP JUMPDEST JUMPDEST DUP1 DUP4 ADD SWAP2 POP POP SWAP3 SWAP2 POP POP JUMP JUMPDEST PUSH3 0x2AB1 DUP2 PUSH3 0x1E59 JUMP JUMPDEST DUP2 EQ PUSH3 0x2ABD JUMPI PUSH1 0x0 DUP1 REVERT JUMPDEST POP JUMP JUMPDEST PUSH1 0x0 DUP2 CALLDATALOAD PUSH3 0x2ACF DUP2 PUSH3 0x2AA6 JUMP JUMPDEST DUP1 SWAP2 POP POP SWAP2 SWAP1 POP JUMP JUMPDEST PUSH1 0x0 DUP2 PUSH1 0x0 SHL SWAP1 POP SWAP2 SWAP1 POP JUMP JUMPDEST PUSH1 0x0 PUSH4 0xFFFFFFFF PUSH3 0x2AF7 DUP5 PUSH3 0x2AD8 JUMP JUMPDEST SWAP4 POP DUP1 NOT DUP4 AND SWAP3 POP DUP1 DUP5 AND DUP4 OR SWAP2 POP POP SWAP3 SWAP2 POP POP JUMP JUMPDEST PUSH1 0x0 PUSH3 0x2B2E PUSH3 0x2B28 PUSH3 0x2B22 DUP5 PUSH3 0x1E59 JUMP JUMPDEST PUSH3 0x283D JUMP JUMPDEST PUSH3 0x1E59 JUMP JUMPDEST SWAP1 POP SWAP2 SWAP1 POP JUMP JUMPDEST PUSH1 0x0 DUP2 SWAP1 POP SWAP2 SWAP1 POP JUMP JUMPDEST PUSH3 0x2B4A DUP3 PUSH3 0x2B0D JUMP JUMPDEST PUSH3 0x2B61 PUSH3 0x2B59 DUP3 PUSH3 0x2B35 JUMP JUMPDEST DUP4 SLOAD PUSH3 0x2AE5 JUMP JUMPDEST DUP3 SSTORE POP POP POP JUMP JUMPDEST PUSH1 0x0 DUP2 CALLDATALOAD PUSH3 0x2B77 DUP2 PUSH3 0x1C79 JUMP JUMPDEST DUP1 SWAP2 POP POP SWAP2 SWAP1 POP JUMP JUMPDEST PUSH1 0x0 DUP2 PUSH1 0x20 SHL SWAP1 POP SWAP2 SWAP1 POP JUMP JUMPDEST PUSH1 0x0 PUSH24 0xFFFFFFFFFFFFFFFFFFFFFFFFFFFFFFFFFFFFFFFF00000000 PUSH3 0x2BB3 DUP5 PUSH3 0x2B80 JUMP JUMPDEST SWAP4 POP DUP1 NOT DUP4 AND SWAP3 POP DUP1 DUP5 AND DUP4 OR SWAP2 POP POP SWAP3 SWAP2 POP POP JUMP JUMPDEST PUSH1 0x0 PUSH3 0x2BEA PUSH3 0x2BE4 PUSH3 0x2BDE DUP5 PUSH3 0x1B45 JUMP JUMPDEST PUSH3 0x283D JUMP JUMPDEST PUSH3 0x1B45 JUMP JUMPDEST SWAP1 POP SWAP2 SWAP1 POP JUMP JUMPDEST PUSH1 0x0 PUSH3 0x2BFE DUP3 PUSH3 0x2BC9 JUMP JUMPDEST SWAP1 POP SWAP2 SWAP1 POP JUMP JUMPDEST PUSH1 0x0 PUSH3 0x2C12 DUP3 PUSH3 0x2BF1 JUMP JUMPDEST SWAP1 POP SWAP2 SWAP1 POP JUMP JUMPDEST PUSH1 0x0 DUP2 SWAP1 POP SWAP2 SWAP1 POP JUMP JUMPDEST PUSH3 0x2C2E DUP3 PUSH3 0x2C05 JUMP JUMPDEST PUSH3 0x2C45 PUSH3 0x2C3D DUP3 PUSH3 0x2C19 JUMP JUMPDEST DUP4 SLOAD PUSH3 0x2B8D JUMP JUMPDEST DUP3 SSTORE POP POP POP JUMP JUMPDEST PUSH3 0x2C57 DUP2 PUSH3 0x1BA7 JUMP JUMPDEST DUP2 EQ PUSH3 0x2C63 JUMPI PUSH1 0x0 DUP1 REVERT JUMPDEST POP JUMP JUMPDEST PUSH1 0x0 DUP2 CALLDATALOAD PUSH3 0x2C75 DUP2 PUSH3 0x2C4C JUMP JUMPDEST DUP1 SWAP2 POP POP SWAP2 SWAP1 POP JUMP JUMPDEST PUSH1 0x0 DUP2 PUSH1 0xC0 SHL SWAP1 POP SWAP2 SWAP1 POP JUMP JUMPDEST PUSH1 0x0 PUSH26 0xFFFF000000000000000000000000000000000000000000000000 PUSH3 0x2CB3 DUP5 PUSH3 0x2C7E JUMP JUMPDEST SWAP4 POP DUP1 NOT DUP4 AND SWAP3 POP DUP1 DUP5 AND DUP4 OR SWAP2 POP POP SWAP3 SWAP2 POP POP JUMP JUMPDEST PUSH1 0x0 PUSH3 0x2CEA PUSH3 0x2CE4 PUSH3 0x2CDE DUP5 PUSH3 0x1BA7 JUMP JUMPDEST PUSH3 0x283D JUMP JUMPDEST PUSH3 0x1BA7 JUMP JUMPDEST SWAP1 POP SWAP2 SWAP1 POP JUMP JUMPDEST PUSH1 0x0 DUP2 SWAP1 POP SWAP2 SWAP1 POP JUMP JUMPDEST PUSH3 0x2D06 DUP3 PUSH3 0x2CC9 JUMP JUMPDEST PUSH3 0x2D1D PUSH3 0x2D15 DUP3 PUSH3 0x2CF1 JUMP JUMPDEST DUP4 SLOAD PUSH3 0x2C8B JUMP JUMPDEST DUP3 SSTORE POP POP POP JUMP JUMPDEST PUSH1 0x0 DUP1 DUP4 CALLDATALOAD PUSH1 0x1 PUSH1 0x20 SUB DUP5 CALLDATASIZE SUB SUB DUP2 SLT PUSH3 0x2D44 JUMPI PUSH3 0x2D43 PUSH3 0x2A6C JUMP JUMPDEST JUMPDEST DUP1 DUP5 ADD SWAP3 POP DUP3 CALLDATALOAD SWAP2 POP PUSH8 0xFFFFFFFFFFFFFFFF DUP3 GT ISZERO PUSH3 0x2D69 JUMPI PUSH3 0x2D68 PUSH3 0x2A71 JUMP JUMPDEST JUMPDEST PUSH1 0x20 DUP4 ADD SWAP3 POP PUSH1 0x1 DUP3 MUL CALLDATASIZE SUB DUP4 SGT ISZERO PUSH3 0x2D88 JUMPI PUSH3 0x2D87 PUSH3 0x2A76 JUMP JUMPDEST JUMPDEST POP SWAP3 POP SWAP3 SWAP1 POP JUMP JUMPDEST PUSH1 0x0 DUP3 SWAP1 POP SWAP3 SWAP2 POP POP JUMP JUMPDEST PUSH1 0x0 DUP2 SWAP1 POP DUP2 PUSH1 0x0 MSTORE PUSH1 0x20 PUSH1 0x0 KECCAK256 SWAP1 POP SWAP2 SWAP1 POP JUMP JUMPDEST PUSH1 0x1F DUP3 GT ISZERO PUSH3 0x2DFB JUMPI PUSH3 0x2DC5 DUP2 PUSH3 0x2D9B JUMP JUMPDEST PUSH3 0x2DD0 DUP5 PUSH3 0x27CA JUMP JUMPDEST DUP2 ADD PUSH1 0x20 DUP6 LT ISZERO PUSH3 0x2DE0 JUMPI DUP2 SWAP1 POP JUMPDEST PUSH3 0x2DF8 PUSH3 0x2DEF DUP6 PUSH3 0x27CA JUMP JUMPDEST DUP4 ADD DUP3 PUSH3 0x28C5 JUMP JUMPDEST POP POP JUMPDEST POP POP POP JUMP JUMPDEST PUSH3 0x2E0C DUP4 DUP4 PUSH3 0x2D90 JUMP JUMPDEST PUSH8 0xFFFFFFFFFFFFFFFF DUP2 GT ISZERO PUSH3 0x2E28 JUMPI PUSH3 0x2E27 PUSH3 0x2786 JUMP JUMPDEST JUMPDEST PUSH3 0x2E34 DUP3 SLOAD PUSH3 0x258E JUMP JUMPDEST PUSH3 0x2E41 DUP3 DUP3 DUP6 PUSH3 0x2DB0 JUMP JUMPDEST PUSH1 0x0 PUSH1 0x1F DUP4 GT PUSH1 0x1 DUP2 EQ PUSH3 0x2E75 JUMPI PUSH1 0x0 DUP5 ISZERO PUSH3 0x2E60 JUMPI DUP3 DUP8 ADD CALLDATALOAD SWAP1 POP JUMPDEST PUSH3 0x2E6C DUP6 DUP3 PUSH3 0x2969 JUMP JUMPDEST DUP7 SSTORE POP PUSH3 0x2EDC JUMP JUMPDEST PUSH1 0x1F NOT DUP5 AND PUSH3 0x2E85 DUP7 PUSH3 0x2D9B JUMP JUMPDEST PUSH1 0x0 JUMPDEST DUP3 DUP2 LT ISZERO PUSH3 0x2EAF JUMPI DUP5 DUP10 ADD CALLDATALOAD DUP3 SSTORE PUSH1 0x1 DUP3 ADD SWAP2 POP PUSH1 0x20 DUP6 ADD SWAP5 POP PUSH1 0x20 DUP2 ADD SWAP1 POP PUSH3 0x2E88 JUMP JUMPDEST DUP7 DUP4 LT ISZERO PUSH3 0x2ECF JUMPI DUP5 DUP10 ADD CALLDATALOAD PUSH3 0x2ECB PUSH1 0x1F DUP10 AND DUP3 PUSH3 0x2949 JUMP JUMPDEST DUP4 SSTORE POP JUMPDEST PUSH1 0x1 PUSH1 0x2 DUP9 MUL ADD DUP9 SSTORE POP POP POP JUMPDEST POP POP POP POP POP POP POP JUMP JUMPDEST PUSH3 0x2EF2 DUP4 DUP4 DUP4 PUSH3 0x2E00 JUMP JUMPDEST POP POP POP JUMP JUMPDEST PUSH1 0x0 DUP2 ADD PUSH1 0x0 DUP4 ADD DUP1 PUSH3 0x2F0B DUP2 PUSH3 0x2AC0 JUMP JUMPDEST SWAP1 POP PUSH3 0x2F19 DUP2 DUP5 PUSH3 0x2B3F JUMP JUMPDEST POP POP POP PUSH1 0x0 DUP2 ADD PUSH1 0x20 DUP4 ADD DUP1 PUSH3 0x2F30 DUP2 PUSH3 0x2B68 JUMP JUMPDEST SWAP1 POP PUSH3 0x2F3E DUP2 DUP5 PUSH3 0x2C23 JUMP JUMPDEST POP POP POP PUSH1 0x0 DUP2 ADD PUSH1 0x40 DUP4 ADD DUP1 PUSH3 0x2F55 DUP2 PUSH3 0x2C66 JUMP JUMPDEST SWAP1 POP PUSH3 0x2F63 DUP2 DUP5 PUSH3 0x2CFB JUMP JUMPDEST POP POP POP PUSH1 0x1 DUP2 ADD PUSH1 0x60 DUP4 ADD PUSH3 0x2F7A DUP2 DUP6 PUSH3 0x2D24 JUMP JUMPDEST PUSH3 0x2F87 DUP2 DUP4 DUP7 PUSH3 0x2EE5 JUMP JUMPDEST POP POP POP POP PUSH1 0x2 DUP2 ADD PUSH1 0x80 DUP4 ADD PUSH3 0x2F9F DUP2 DUP6 PUSH3 0x2D24 JUMP JUMPDEST PUSH3 0x2FAC DUP2 DUP4 DUP7 PUSH3 0x2EE5 JUMP JUMPDEST POP POP POP POP POP POP JUMP JUMPDEST PUSH3 0x2FC0 DUP3 DUP3 PUSH3 0x2EF7 JUMP JUMPDEST POP POP JUMP JUMPDEST PUSH1 0x0 PUSH1 0x40 DUP3 ADD SWAP1 POP DUP2 DUP2 SUB PUSH1 0x0 DUP4 ADD MSTORE PUSH3 0x2FE1 DUP2 DUP6 DUP8 PUSH3 0x26F9 JUMP JUMPDEST SWAP1 POP PUSH3 0x2FF2 PUSH1 0x20 DUP4 ADD DUP5 PUSH3 0x1B79 JUMP JUMPDEST SWAP5 SWAP4 POP POP POP POP JUMP JUMPDEST PUSH32 0x4D757374206465706F736974203E203000000000000000000000000000000000 PUSH1 0x0 DUP3 ADD MSTORE POP JUMP JUMPDEST PUSH1 0x0 PUSH3 0x3032 PUSH1 0x10 DUP4 PUSH3 0x210D JUMP JUMPDEST SWAP2 POP PUSH3 0x303F DUP3 PUSH3 0x2FFA JUMP JUMPDEST PUSH1 0x20 DUP3 ADD SWAP1 POP SWAP2 SWAP1 POP JUMP JUMPDEST PUSH1 0x0 PUSH1 0x20 DUP3 ADD SWAP1 POP DUP2 DUP2 SUB PUSH1 0x0 DUP4 ADD MSTORE PUSH3 0x3065 DUP2 PUSH3 0x3023 JUMP JUMPDEST SWAP1 POP SWAP2 SWAP1 POP JUMP JUMPDEST PUSH1 0x0 PUSH3 0x3079 DUP3 PUSH3 0x1BF7 JUMP JUMPDEST SWAP2 POP PUSH3 0x3086 DUP4 PUSH3 0x1BF7 JUMP JUMPDEST SWAP3 POP DUP3 DUP3 ADD SWAP1 POP DUP1 DUP3 GT ISZERO PUSH3 0x30A1 JUMPI PUSH3 0x30A0 PUSH3 0x244F JUMP JUMPDEST JUMPDEST SWAP3 SWAP2 POP POP JUMP JUMPDEST PUSH3 0x30B2 DUP3 PUSH3 0x1DCA JUMP JUMPDEST DUP2 ADD DUP2 DUP2 LT PUSH8 0xFFFFFFFFFFFFFFFF DUP3 GT OR ISZERO PUSH3 0x30D4 JUMPI PUSH3 0x30D3 PUSH3 0x2786 JUMP JUMPDEST JUMPDEST DUP1 PUSH1 0x40 MSTORE POP POP POP JUMP JUMPDEST PUSH1 0x0 PUSH3 0x30E9 PUSH3 0x1BE3 JUMP JUMPDEST SWAP1 POP PUSH3 0x30F7 DUP3 DUP3 PUSH3 0x30A7 JUMP JUMPDEST SWAP2 SWAP1 POP JUMP JUMPDEST PUSH1 0x0 PUSH8 0xFFFFFFFFFFFFFFFF DUP3 GT ISZERO PUSH3 0x311A JUMPI PUSH3 0x3119 PUSH3 0x2786 JUMP JUMPDEST JUMPDEST PUSH1 0x20 DUP3 MUL SWAP1 POP PUSH1 0x20 DUP2 ADD SWAP1 POP SWAP2 SWAP1 POP JUMP JUMPDEST PUSH1 0x0 DUP2 MLOAD SWAP1 POP PUSH3 0x313C DUP2 PUSH3 0x2C4C JUMP JUMPDEST SWAP3 SWAP2 POP POP JUMP JUMPDEST PUSH1 0x0 PUSH3 0x3159 PUSH3 0x3153 DUP5 PUSH3 0x30FC JUMP JUMPDEST PUSH3 0x30DD JUMP JUMPDEST SWAP1 POP DUP1 DUP4 DUP3 MSTORE PUSH1 0x20 DUP3 ADD SWAP1 POP PUSH1 0x20 DUP5 MUL DUP4 ADD DUP6 DUP2 GT ISZERO PUSH3 0x317F JUMPI PUSH3 0x317E PUSH3 0x21DE JUMP JUMPDEST JUMPDEST DUP4 JUMPDEST DUP2 DUP2 LT ISZERO PUSH3 0x31AC JUMPI DUP1 PUSH3 0x3197 DUP9 DUP3 PUSH3 0x312B JUMP JUMPDEST DUP5 MSTORE PUSH1 0x20 DUP5 ADD SWAP4 POP POP PUSH1 0x20 DUP2 ADD SWAP1 POP PUSH3 0x3181 JUMP JUMPDEST POP POP POP SWAP4 SWAP3 POP POP POP JUMP JUMPDEST PUSH1 0x0 DUP3 PUSH1 0x1F DUP4 ADD SLT PUSH3 0x31CE JUMPI PUSH3 0x31CD PUSH3 0x21D4 JUMP JUMPDEST JUMPDEST DUP2 MLOAD PUSH3 0x31E0 DUP5 DUP3 PUSH1 0x20 DUP7 ADD PUSH3 0x3142 JUMP JUMPDEST SWAP2 POP POP SWAP3 SWAP2 POP POP JUMP JUMPDEST PUSH1 0x0 PUSH1 0x20 DUP3 DUP5 SUB SLT ISZERO PUSH3 0x3202 JUMPI PUSH3 0x3201 PUSH3 0x1BED JUMP JUMPDEST JUMPDEST PUSH1 0x0 DUP3 ADD MLOAD PUSH8 0xFFFFFFFFFFFFFFFF DUP2 GT ISZERO PUSH3 0x3223 JUMPI PUSH3 0x3222 PUSH3 0x1BF2 JUMP JUMPDEST JUMPDEST PUSH3 0x3231 DUP5 DUP3 DUP6 ADD PUSH3 0x31B6 JUMP JUMPDEST SWAP2 POP POP SWAP3 SWAP2 POP POP JUMP JUMPDEST PUSH3 0x3245 DUP2 PUSH3 0x1E59 JUMP JUMPDEST DUP3 MSTORE POP POP JUMP JUMPDEST PUSH1 0x0 DUP3 DUP3 MSTORE PUSH1 0x20 DUP3 ADD SWAP1 POP SWAP3 SWAP2 POP POP JUMP JUMPDEST PUSH1 0x0 PUSH3 0x3269 DUP3 PUSH3 0x1E8B JUMP JUMPDEST PUSH3 0x3275 DUP2 DUP6 PUSH3 0x324B JUMP JUMPDEST SWAP4 POP PUSH3 0x3287 DUP2 DUP6 PUSH1 0x20 DUP7 ADD PUSH3 0x1D9E JUMP JUMPDEST PUSH3 0x3292 DUP2 PUSH3 0x1DCA JUMP JUMPDEST DUP5 ADD SWAP2 POP POP SWAP3 SWAP2 POP POP JUMP JUMPDEST PUSH1 0x0 PUSH1 0x80 DUP3 ADD SWAP1 POP PUSH3 0x32B4 PUSH1 0x0 DUP4 ADD DUP8 PUSH3 0x323A JUMP JUMPDEST PUSH3 0x32C3 PUSH1 0x20 DUP4 ADD DUP7 PUSH3 0x1CF1 JUMP JUMPDEST DUP2 DUP2 SUB PUSH1 0x40 DUP4 ADD MSTORE PUSH3 0x32D7 DUP2 DUP6 PUSH3 0x325C JUMP JUMPDEST SWAP1 POP PUSH3 0x32E8 PUSH1 0x60 DUP4 ADD DUP5 PUSH3 0x1B79 JUMP JUMPDEST SWAP6 SWAP5 POP POP POP POP POP JUMP JUMPDEST PUSH1 0x0 PUSH1 0x40 DUP3 ADD SWAP1 POP PUSH3 0x3308 PUSH1 0x0 DUP4 ADD DUP6 PUSH3 0x323A JUMP JUMPDEST DUP2 DUP2 SUB PUSH1 0x20 DUP4 ADD MSTORE PUSH3 0x331C DUP2 DUP5 PUSH3 0x325C JUMP JUMPDEST SWAP1 POP SWAP4 SWAP3 POP POP POP JUMP JUMPDEST PUSH1 0x0 DUP2 CALLDATALOAD SWAP1 POP PUSH3 0x3336 DUP2 PUSH3 0x2C4C JUMP JUMPDEST SWAP3 SWAP2 POP POP JUMP JUMPDEST PUSH1 0x0 PUSH1 0x20 DUP3 DUP5 SUB SLT ISZERO PUSH3 0x3355 JUMPI PUSH3 0x3354 PUSH3 0x1BED JUMP JUMPDEST JUMPDEST PUSH1 0x0 PUSH3 0x3365 DUP5 DUP3 DUP6 ADD PUSH3 0x3325 JUMP JUMPDEST SWAP2 POP POP SWAP3 SWAP2 POP POP JUMP JUMPDEST PUSH32 0x57656967687473206D7573742073756D20746F20313030303020627073000000 PUSH1 0x0 DUP3 ADD MSTORE POP JUMP JUMPDEST PUSH1 0x0 PUSH3 0x33A6 PUSH1 0x1D DUP4 PUSH3 0x210D JUMP JUMPDEST SWAP2 POP PUSH3 0x33B3 DUP3 PUSH3 0x336E JUMP JUMPDEST PUSH1 0x20 DUP3 ADD SWAP1 POP SWAP2 SWAP1 POP JUMP JUMPDEST PUSH1 0x0 PUSH1 0x20 DUP3 ADD SWAP1 POP DUP2 DUP2 SUB PUSH1 0x0 DUP4 ADD MSTORE PUSH3 0x33D9 DUP2 PUSH3 0x3397 JUMP JUMPDEST SWAP1 POP SWAP2 SWAP1 POP JUMP JUMPDEST PUSH1 0x0 PUSH1 0x40 DUP3 ADD SWAP1 POP PUSH3 0x33F7 PUSH1 0x0 DUP4 ADD DUP6 PUSH3 0x323A JUMP JUMPDEST PUSH3 0x3406 PUSH1 0x20 DUP4 ADD DUP5 PUSH3 0x1CF1 JUMP JUMPDEST SWAP4 SWAP3 POP POP POP JUMP JUMPDEST PUSH1 0x0 DUP2 MLOAD SWAP1 POP SWAP2 SWAP1 POP JUMP JUMPDEST PUSH1 0x0 DUP3 DUP3 MSTORE PUSH1 0x20 DUP3 ADD SWAP1 POP SWAP3 SWAP2 POP POP JUMP JUMPDEST PUSH1 0x0 DUP2 SWAP1 POP PUSH1 0x20 DUP3 ADD SWAP1 POP SWAP2 SWAP1 POP JUMP JUMPDEST PUSH1 0x0 PUSH3 0x3447 DUP4 DUP4 PUSH3 0x1E7A JUMP JUMPDEST PUSH1 0x20 DUP4 ADD SWAP1 POP SWAP3 SWAP2 POP POP JUMP JUMPDEST PUSH1 0x0 PUSH1 0x20 DUP3 ADD SWAP1 POP SWAP2 SWAP1 POP JUMP JUMPDEST PUSH1 0x0 PUSH3 0x346D DUP3 PUSH3 0x340D JUMP JUMPDEST PUSH3 0x3479 DUP2 DUP6 PUSH3 0x3418 JUMP JUMPDEST SWAP4 POP PUSH3 0x3486 DUP4 PUSH3 0x3429 JUMP JUMPDEST DUP1 PUSH1 0x0 JUMPDEST DUP4 DUP2 LT ISZERO PUSH3 0x34BD JUMPI DUP2 MLOAD PUSH3 0x34A1 DUP9 DUP3 PUSH3 0x3439 JUMP JUMPDEST SWAP8 POP PUSH3 0x34AE DUP4 PUSH3 0x3453 JUMP JUMPDEST SWAP3 POP POP PUSH1 0x1 DUP2 ADD SWAP1 POP PUSH3 0x348A JUMP JUMPDEST POP DUP6 SWAP4 POP POP POP POP SWAP3 SWAP2 POP POP JUMP JUMPDEST PUSH1 0x0 PUSH1 0x40 DUP3 ADD SWAP1 POP DUP2 DUP2 SUB PUSH1 0x0 DUP4 ADD MSTORE PUSH3 0x34E6 DUP2 DUP6 PUSH3 0x3460 JUMP JUMPDEST SWAP1 POP PUSH3 0x34F7 PUSH1 0x20 DUP4 ADD DUP5 PUSH3 0x1CF1 JUMP JUMPDEST SWAP4 SWAP3 POP POP POP JUMP JUMPDEST PUSH1 0x0 DUP2 SWAP1 POP SWAP3 SWAP2 POP POP JUMP JUMPDEST PUSH1 0x0 PUSH3 0x3516 DUP3 PUSH3 0x1E8B JUMP JUMPDEST PUSH3 0x3522 DUP2 DUP6 PUSH3 0x34FE JUMP JUMPDEST SWAP4 POP PUSH3 0x3534 DUP2 DUP6 PUSH1 0x20 DUP7 ADD PUSH3 0x1D9E JUMP JUMPDEST DUP1 DUP5 ADD SWAP2 POP POP SWAP3 SWAP2 POP POP JUMP JUMPDEST PUSH1 0x0 PUSH3 0x354E DUP3 DUP5 PUSH3 0x3509 JUMP JUMPDEST SWAP2 POP DUP2 SWAP1 POP SWAP3 SWAP2 POP POP JUMP JUMPDEST PUSH32 0x50564D20656E67696E652063616C6C206661696C656400000000000000000000 PUSH1 0x0 DUP3 ADD MSTORE POP JUMP JUMPDEST PUSH1 0x0 PUSH3 0x3591 PUSH1 0x16 DUP4 PUSH3 0x210D JUMP JUMPDEST SWAP2 POP PUSH3 0x359E DUP3 PUSH3 0x3559 JUMP JUMPDEST PUSH1 0x20 DUP3 ADD SWAP1 POP SWAP2 SWAP1 POP JUMP JUMPDEST PUSH1 0x0 PUSH1 0x20 DUP3 ADD SWAP1 POP DUP2 DUP2 SUB PUSH1 0x0 DUP4 ADD MSTORE PUSH3 0x35C4 DUP2 PUSH3 0x3582 JUMP JUMPDEST SWAP1 POP SWAP2 SWAP1 POP JUMP JUMPDEST PUSH1 0x0 PUSH3 0x35D8 DUP3 PUSH3 0x1BA7 JUMP JUMPDEST SWAP2 POP PUSH3 0x35E5 DUP4 PUSH3 0x1BA7 JUMP JUMPDEST SWAP3 POP DUP3 DUP3 SUB SWAP1 POP PUSH2 0xFFFF DUP2 GT ISZERO PUSH3 0x3602 JUMPI PUSH3 0x3601 PUSH3 0x244F JUMP JUMPDEST JUMPDEST SWAP3 SWAP2 POP POP JUMP JUMPDEST PUSH1 0x0 PUSH1 0x60 DUP3 ADD SWAP1 POP PUSH3 0x361F PUSH1 0x0 DUP4 ADD DUP7 PUSH3 0x323A JUMP JUMPDEST PUSH3 0x362E PUSH1 0x20 DUP4 ADD DUP6 PUSH3 0x1CF1 JUMP JUMPDEST DUP2 DUP2 SUB PUSH1 0x40 DUP4 ADD MSTORE PUSH3 0x3642 DUP2 DUP5 PUSH3 0x325C JUMP JUMPDEST SWAP1 POP SWAP5 SWAP4 POP POP POP POP JUMP INVALID PUSH1 0x80 PUSH1 0x40 MSTORE CALLVALUE DUP1 ISZERO PUSH3 0x11 JUMPI PUSH1 0x0 DUP1 REVERT JUMPDEST POP PUSH1 0x40 MLOAD PUSH3 0x1CA1 CODESIZE SUB DUP1 PUSH3 0x1CA1 DUP4 CODECOPY DUP2 DUP2 ADD PUSH1 0x40 MSTORE DUP2 ADD SWAP1 PUSH3 0x37 SWAP2 SWAP1 PUSH3 0x3EF JUMP JUMPDEST CALLER DUP4 DUP4 DUP2 PUSH1 0x3 SWAP1 DUP2 PUSH3 0x4B SWAP2 SWAP1 PUSH3 0x6D4 JUMP JUMPDEST POP DUP1 PUSH1 0x4 SWAP1 DUP2 PUSH3 0x5D SWAP2 SWAP1 PUSH3 0x6D4 JUMP JUMPDEST POP POP POP PUSH1 0x0 PUSH20 0xFFFFFFFFFFFFFFFFFFFFFFFFFFFFFFFFFFFFFFFF AND DUP2 PUSH20 0xFFFFFFFFFFFFFFFFFFFFFFFFFFFFFFFFFFFFFFFF AND SUB PUSH3 0xD5 JUMPI PUSH1 0x0 PUSH1 0x40 MLOAD PUSH32 0x1E4FBDF700000000000000000000000000000000000000000000000000000000 DUP2 MSTORE PUSH1 0x4 ADD PUSH3 0xCC SWAP2 SWAP1 PUSH3 0x7CC JUMP JUMPDEST PUSH1 0x40 MLOAD DUP1 SWAP2 SUB SWAP1 REVERT JUMPDEST PUSH3 0xE6 DUP2 PUSH3 0x131 PUSH1 0x20 SHL PUSH1 0x20 SHR JUMP JUMPDEST POP DUP1 PUSH1 0x6 PUSH1 0x0 PUSH2 0x100 EXP DUP2 SLOAD DUP2 PUSH20 0xFFFFFFFFFFFFFFFFFFFFFFFFFFFFFFFFFFFFFFFF MUL NOT AND SWAP1 DUP4 PUSH20 0xFFFFFFFFFFFFFFFFFFFFFFFFFFFFFFFFFFFFFFFF AND MUL OR SWAP1 SSTORE POP POP POP POP PUSH3 0x7E9 JUMP JUMPDEST PUSH1 0x0 PUSH1 0x5 PUSH1 0x0 SWAP1 SLOAD SWAP1 PUSH2 0x100 EXP SWAP1 DIV PUSH20 0xFFFFFFFFFFFFFFFFFFFFFFFFFFFFFFFFFFFFFFFF AND SWAP1 POP DUP2 PUSH1 0x5 PUSH1 0x0 PUSH2 0x100 EXP DUP2 SLOAD DUP2 PUSH20 0xFFFFFFFFFFFFFFFFFFFFFFFFFFFFFFFFFFFFFFFF MUL NOT AND SWAP1 DUP4 PUSH20 0xFFFFFFFFFFFFFFFFFFFFFFFFFFFFFFFFFFFFFFFF AND MUL OR SWAP1 SSTORE POP DUP2 PUSH20 0xFFFFFFFFFFFFFFFFFFFFFFFFFFFFFFFFFFFFFFFF AND DUP2 PUSH20 0xFFFFFFFFFFFFFFFFFFFFFFFFFFFFFFFFFFFFFFFF AND PUSH32 0x8BE0079C531659141344CD1FD0A4F28419497F9722A3DAAFE3B4186F6B6457E0 PUSH1 0x40 MLOAD PUSH1 0x40 MLOAD DUP1 SWAP2 SUB SWAP1 LOG3 POP POP JUMP JUMPDEST PUSH1 0x0 PUSH1 0x40 MLOAD SWAP1 POP SWAP1 JUMP JUMPDEST PUSH1 0x0 DUP1 REVERT JUMPDEST PUSH1 0x0 DUP1 REVERT JUMPDEST PUSH1 0x0 DUP1 REVERT JUMPDEST PUSH1 0x0 DUP1 REVERT JUMPDEST PUSH1 0x0 PUSH1 0x1F NOT PUSH1 0x1F DUP4 ADD AND SWAP1 POP SWAP2 SWAP1 POP JUMP JUMPDEST PUSH32 0x4E487B7100000000000000000000000000000000000000000000000000000000 PUSH1 0x0 MSTORE PUSH1 0x41 PUSH1 0x4 MSTORE PUSH1 0x24 PUSH1 0x0 REVERT JUMPDEST PUSH3 0x260 DUP3 PUSH3 0x215 JUMP JUMPDEST DUP2 ADD DUP2 DUP2 LT PUSH8 0xFFFFFFFFFFFFFFFF DUP3 GT OR ISZERO PUSH3 0x282 JUMPI PUSH3 0x281 PUSH3 0x226 JUMP JUMPDEST JUMPDEST DUP1 PUSH1 0x40 MSTORE POP POP POP JUMP JUMPDEST PUSH1 0x0 PUSH3 0x297 PUSH3 0x1F7 JUMP JUMPDEST SWAP1 POP PUSH3 0x2A5 DUP3 DUP3 PUSH3 0x255 JUMP JUMPDEST SWAP2 SWAP1 POP JUMP JUMPDEST PUSH1 0x0 PUSH8 0xFFFFFFFFFFFFFFFF DUP3 GT ISZERO PUSH3 0x2C8 JUMPI PUSH3 0x2C7 PUSH3 0x226 JUMP JUMPDEST JUMPDEST PUSH3 0x2D3 DUP3 PUSH3 0x215 JUMP JUMPDEST SWAP1 POP PUSH1 0x20 DUP2 ADD SWAP1 POP SWAP2 SWAP1 POP JUMP JUMPDEST PUSH1 0x0 JUMPDEST DUP4 DUP2 LT ISZERO PUSH3 0x300 JUMPI DUP1 DUP3 ADD MLOAD DUP2 DUP5 ADD MSTORE PUSH1 0x20 DUP2 ADD SWAP1 POP PUSH3 0x2E3 JUMP JUMPDEST PUSH1 0x0 DUP5 DUP5 ADD MSTORE POP POP POP POP JUMP JUMPDEST PUSH1 0x0 PUSH3 0x323 PUSH3 0x31D DUP5 PUSH3 0x2AA JUMP JUMPDEST PUSH3 0x28B JUMP JUMPDEST SWAP1 POP DUP3 DUP2 MSTORE PUSH1 0x20 DUP2 ADD DUP5 DUP5 DUP5 ADD GT ISZERO PUSH3 0x342 JUMPI PUSH3 0x341 PUSH3 0x210 JUMP JUMPDEST JUMPDEST PUSH3 0x34F DUP5 DUP3 DUP6 PUSH3 0x2E0 JUMP JUMPDEST POP SWAP4 SWAP3 POP POP POP JUMP JUMPDEST PUSH1 0x0 DUP3 PUSH1 0x1F DUP4 ADD SLT PUSH3 0x36F JUMPI PUSH3 0x36E PUSH3 0x20B JUMP JUMPDEST JUMPDEST DUP2 MLOAD PUSH3 0x381 DUP5 DUP3 PUSH1 0x20 DUP7 ADD PUSH3 0x30C JUMP JUMPDEST SWAP2 POP POP SWAP3 SWAP2 POP POP JUMP JUMPDEST PUSH1 0x0 PUSH20 0xFFFFFFFFFFFFFFFFFFFFFFFFFFFFFFFFFFFFFFFF DUP3 AND SWAP1 POP SWAP2 SWAP1 POP JUMP JUMPDEST PUSH1 0x0 PUSH3 0x3B7 DUP3 PUSH3 0x38A JUMP JUMPDEST SWAP1 POP SWAP2 SWAP1 POP JUMP JUMPDEST PUSH3 0x3C9 DUP2 PUSH3 0x3AA JUMP JUMPDEST DUP2 EQ PUSH3 0x3D5 JUMPI PUSH1 0x0 DUP1 REVERT JUMPDEST POP JUMP JUMPDEST PUSH1 0x0 DUP2 MLOAD SWAP1 POP PUSH3 0x3E9 DUP2 PUSH3 0x3BE JUMP JUMPDEST SWAP3 SWAP2 POP POP JUMP JUMPDEST PUSH1 0x0 DUP1 PUSH1 0x0 PUSH1 0x60 DUP5 DUP7 SUB SLT ISZERO PUSH3 0x40B JUMPI PUSH3 0x40A PUSH3 0x201 JUMP JUMPDEST JUMPDEST PUSH1 0x0 DUP5 ADD MLOAD PUSH8 0xFFFFFFFFFFFFFFFF DUP2 GT ISZERO PUSH3 0x42C JUMPI PUSH3 0x42B PUSH3 0x206 JUMP JUMPDEST JUMPDEST PUSH3 0x43A DUP7 DUP3 DUP8 ADD PUSH3 0x357 JUMP JUMPDEST SWAP4 POP POP PUSH1 0x20 DUP5 ADD MLOAD PUSH8 0xFFFFFFFFFFFFFFFF DUP2 GT ISZERO PUSH3 0x45E JUMPI PUSH3 0x45D PUSH3 0x206 JUMP JUMPDEST JUMPDEST PUSH3 0x46C DUP7 DUP3 DUP8 ADD PUSH3 0x357 JUMP JUMPDEST SWAP3 POP POP PUSH1 0x40 PUSH3 0x47F DUP7 DUP3 DUP8 ADD PUSH3 0x3D8 JUMP JUMPDEST SWAP2 POP POP SWAP3 POP SWAP3 POP SWAP3 JUMP JUMPDEST PUSH1 0x0 DUP2 MLOAD SWAP1 POP SWAP2 SWAP1 POP JUMP JUMPDEST PUSH32 0x4E487B7100000000000000000000000000000000000000000000000000000000 PUSH1 0x0 MSTORE PUSH1 0x22 PUSH1 0x4 MSTORE PUSH1 0x24 PUSH1 0x0 REVERT JUMPDEST PUSH1 0x0 PUSH1 0x2 DUP3 DIV SWAP1 POP PUSH1 0x1 DUP3 AND DUP1 PUSH3 0x4DC JUMPI PUSH1 0x7F DUP3 AND SWAP2 POP JUMPDEST PUSH1 0x20 DUP3 LT DUP2 SUB PUSH3 0x4F2 JUMPI PUSH3 0x4F1 PUSH3 0x494 JUMP JUMPDEST JUMPDEST POP SWAP2 SWAP1 POP JUMP JUMPDEST PUSH1 0x0 DUP2 SWAP1 POP DUP2 PUSH1 0x0 MSTORE PUSH1 0x20 PUSH1 0x0 KECCAK256 SWAP1 POP SWAP2 SWAP1 POP JUMP JUMPDEST PUSH1 0x0 PUSH1 0x20 PUSH1 0x1F DUP4 ADD DIV SWAP1 POP SWAP2 SWAP1 POP JUMP JUMPDEST PUSH1 0x0 DUP3 DUP3 SHL SWAP1 POP SWAP3 SWAP2 POP POP JUMP JUMPDEST PUSH1 0x0 PUSH1 0x8 DUP4 MUL PUSH3 0x55C PUSH32 0xFFFFFFFFFFFFFFFFFFFFFFFFFFFFFFFFFFFFFFFFFFFFFFFFFFFFFFFFFFFFFFFF DUP3 PUSH3 0x51D JUMP JUMPDEST PUSH3 0x568 DUP7 DUP4 PUSH3 0x51D JUMP JUMPDEST SWAP6 POP DUP1 NOT DUP5 AND SWAP4 POP DUP1 DUP7 AND DUP5 OR SWAP3 POP POP POP SWAP4 SWAP3 POP POP POP JUMP JUMPDEST PUSH1 0x0 DUP2 SWAP1 POP SWAP2 SWAP1 POP JUMP JUMPDEST PUSH1 0x0 DUP2 SWAP1 POP SWAP2 SWAP1 POP JUMP JUMPDEST PUSH1 0x0 PUSH3 0x5B5 PUSH3 0x5AF PUSH3 0x5A9 DUP5 PUSH3 0x580 JUMP JUMPDEST PUSH3 0x58A JUMP JUMPDEST PUSH3 0x580 JUMP JUMPDEST SWAP1 POP SWAP2 SWAP1 POP JUMP JUMPDEST PUSH1 0x0 DUP2 SWAP1 POP SWAP2 SWAP1 POP JUMP JUMPDEST PUSH3 0x5D1 DUP4 PUSH3 0x594 JUMP JUMPDEST PUSH3 0x5E9 PUSH3 0x5E0 DUP3 PUSH3 0x5BC JUMP JUMPDEST DUP5 DUP5 SLOAD PUSH3 0x52A JUMP JUMPDEST DUP3 SSTORE POP POP POP POP JUMP JUMPDEST PUSH1 0x0 SWAP1 JUMP JUMPDEST PUSH3 0x600 PUSH3 0x5F1 JUMP JUMPDEST PUSH3 0x60D DUP2 DUP5 DUP5 PUSH3 0x5C6 JUMP JUMPDEST POP POP POP JUMP JUMPDEST JUMPDEST DUP2 DUP2 LT ISZERO PUSH3 0x635 JUMPI PUSH3 0x629 PUSH1 0x0 DUP3 PUSH3 0x5F6 JUMP JUMPDEST PUSH1 0x1 DUP2 ADD SWAP1 POP PUSH3 0x613 JUMP JUMPDEST POP POP JUMP JUMPDEST PUSH1 0x1F DUP3 GT ISZERO PUSH3 0x684 JUMPI PUSH3 0x64E DUP2 PUSH3 0x4F8 JUMP JUMPDEST PUSH3 0x659 DUP5 PUSH3 0x50D JUMP JUMPDEST DUP2 ADD PUSH1 0x20 DUP6 LT ISZERO PUSH3 0x669 JUMPI DUP2 SWAP1 POP JUMPDEST PUSH3 0x681 PUSH3 0x678 DUP6 PUSH3 0x50D JUMP JUMPDEST DUP4 ADD DUP3 PUSH3 0x612 JUMP JUMPDEST POP POP JUMPDEST POP POP POP JUMP JUMPDEST PUSH1 0x0 DUP3 DUP3 SHR SWAP1 POP SWAP3 SWAP2 POP POP JUMP JUMPDEST PUSH1 0x0 PUSH3 0x6A9 PUSH1 0x0 NOT DUP5 PUSH1 0x8 MUL PUSH3 0x689 JUMP JUMPDEST NOT DUP1 DUP4 AND SWAP2 POP POP SWAP3 SWAP2 POP POP JUMP JUMPDEST PUSH1 0x0 PUSH3 0x6C4 DUP4 DUP4 PUSH3 0x696 JUMP JUMPDEST SWAP2 POP DUP3 PUSH1 0x2 MUL DUP3 OR SWAP1 POP SWAP3 SWAP2 POP POP JUMP JUMPDEST PUSH3 0x6DF DUP3 PUSH3 0x489 JUMP JUMPDEST PUSH8 0xFFFFFFFFFFFFFFFF DUP2 GT ISZERO PUSH3 0x6FB JUMPI PUSH3 0x6FA PUSH3 0x226 JUMP JUMPDEST JUMPDEST PUSH3 0x707 DUP3 SLOAD PUSH3 0x4C3 JUMP JUMPDEST PUSH3 0x714 DUP3 DUP3 DUP6 PUSH3 0x639 JUMP JUMPDEST PUSH1 0x0 PUSH1 0x20 SWAP1 POP PUSH1 0x1F DUP4 GT PUSH1 0x1 DUP2 EQ PUSH3 0x74C JUMPI PUSH1 0x0 DUP5 ISZERO PUSH3 0x737 JUMPI DUP3 DUP8 ADD MLOAD SWAP1 POP JUMPDEST PUSH3 0x743 DUP6 DUP3 PUSH3 0x6B6 JUMP JUMPDEST DUP7 SSTORE POP PUSH3 0x7B3 JUMP JUMPDEST PUSH1 0x1F NOT DUP5 AND PUSH3 0x75C DUP7 PUSH3 0x4F8 JUMP JUMPDEST PUSH1 0x0 JUMPDEST DUP3 DUP2 LT ISZERO PUSH3 0x786 JUMPI DUP5 DUP10 ADD MLOAD DUP3 SSTORE PUSH1 0x1 DUP3 ADD SWAP2 POP PUSH1 0x20 DUP6 ADD SWAP5 POP PUSH1 0x20 DUP2 ADD SWAP1 POP PUSH3 0x75F JUMP JUMPDEST DUP7 DUP4 LT ISZERO PUSH3 0x7A6 JUMPI DUP5 DUP10 ADD MLOAD PUSH3 0x7A2 PUSH1 0x1F DUP10 AND DUP3 PUSH3 0x696 JUMP JUMPDEST DUP4 SSTORE POP JUMPDEST PUSH1 0x1 PUSH1 0x2 DUP9 MUL ADD DUP9 SSTORE POP POP POP JUMPDEST POP POP POP POP POP POP JUMP JUMPDEST PUSH3 0x7C6 DUP2 PUSH3 0x3AA JUMP JUMPDEST DUP3 MSTORE POP POP JUMP JUMPDEST PUSH1 0x0 PUSH1 0x20 DUP3 ADD SWAP1 POP PUSH3 0x7E3 PUSH1 0x0 DUP4 ADD DUP5 PUSH3 0x7BB JUMP JUMPDEST SWAP3 SWAP2 POP POP JUMP JUMPDEST PUSH2 0x14A8 DUP1 PUSH3 0x7F9 PUSH1 0x0 CODECOPY PUSH1 0x0 RETURN INVALID PUSH1 0x80 PUSH1 0x40 MSTORE CALLVALUE DUP1 ISZERO PUSH2 0x10 JUMPI PUSH1 0x0 DUP1 REVERT JUMPDEST POP PUSH1 0x4 CALLDATASIZE LT PUSH2 0x100 JUMPI PUSH1 0x0 CALLDATALOAD PUSH1 0xE0 SHR DUP1 PUSH4 0x715018A6 GT PUSH2 0x97 JUMPI DUP1 PUSH4 0xA9059CBB GT PUSH2 0x66 JUMPI DUP1 PUSH4 0xA9059CBB EQ PUSH2 0x28B JUMPI DUP1 PUSH4 0xD0EBDBE7 EQ PUSH2 0x2BB JUMPI DUP1 PUSH4 0xDD62ED3E EQ PUSH2 0x2D7 JUMPI DUP1 PUSH4 0xF2FDE38B EQ PUSH2 0x307 JUMPI PUSH2 0x100 JUMP JUMPDEST DUP1 PUSH4 0x715018A6 EQ PUSH2 0x229 JUMPI DUP1 PUSH4 0x8DA5CB5B EQ PUSH2 0x233 JUMPI DUP1 PUSH4 0x95D89B41 EQ PUSH2 0x251 JUMPI DUP1 PUSH4 0x9DC29FAC EQ PUSH2 0x26F JUMPI PUSH2 0x100 JUMP JUMPDEST DUP1 PUSH4 0x23B872DD GT PUSH2 0xD3 JUMPI DUP1 PUSH4 0x23B872DD EQ PUSH2 0x18F JUMPI DUP1 PUSH4 0x313CE567 EQ PUSH2 0x1BF JUMPI DUP1 PUSH4 0x40C10F19 EQ PUSH2 0x1DD JUMPI DUP1 PUSH4 0x70A08231 EQ PUSH2 0x1F9 JUMPI PUSH2 0x100 JUMP JUMPDEST DUP1 PUSH4 0x6FDDE03 EQ PUSH2 0x105 JUMPI DUP1 PUSH4 0x95EA7B3 EQ PUSH2 0x123 JUMPI DUP1 PUSH4 0x18160DDD EQ PUSH2 0x153 JUMPI DUP1 PUSH4 0x22D23F68 EQ PUSH2 0x171 JUMPI JUMPDEST PUSH1 0x0 DUP1 REVERT JUMPDEST PUSH2 0x10D PUSH2 0x323 JUMP JUMPDEST PUSH1 0x40 MLOAD PUSH2 0x11A SWAP2 SWAP1 PUSH2 0x1090 JUMP JUMPDEST PUSH1 0x40 MLOAD DUP1 SWAP2 SUB SWAP1 RETURN JUMPDEST PUSH2 0x13D PUSH1 0x4 DUP1 CALLDATASIZE SUB DUP2 ADD SWAP1 PUSH2 0x138 SWAP2 SWAP1 PUSH2 0x114B JUMP JUMPDEST PUSH2 0x3B5 JUMP JUMPDEST PUSH1 0x40 MLOAD PUSH2 0x14A SWAP2 SWAP1 PUSH2 0x11A6 JUMP JUMPDEST PUSH1 0x40 MLOAD DUP1 SWAP2 SUB SWAP1 RETURN JUMPDEST PUSH2 0x15B PUSH2 0x3D8 JUMP JUMPDEST PUSH1 0x40 MLOAD PUSH2 0x168 SWAP2 SWAP1 PUSH2 0x11D0 JUMP JUMPDEST PUSH1 0x40 MLOAD DUP1 SWAP2 SUB SWAP1 RETURN JUMPDEST PUSH2 0x179 PUSH2 0x3E2 JUMP JUMPDEST PUSH1 0x40 MLOAD PUSH2 0x186 SWAP2 SWAP1 PUSH2 0x11FA JUMP JUMPDEST PUSH1 0x40 MLOAD DUP1 SWAP2 SUB SWAP1 RETURN JUMPDEST PUSH2 0x1A9 PUSH1 0x4 DUP1 CALLDATASIZE SUB DUP2 ADD SWAP1 PUSH2 0x1A4 SWAP2 SWAP1 PUSH2 0x1215 JUMP JUMPDEST PUSH2 0x408 JUMP JUMPDEST PUSH1 0x40 MLOAD PUSH2 0x1B6 SWAP2 SWAP1 PUSH2 0x11A6 JUMP JUMPDEST PUSH1 0x40 MLOAD DUP1 SWAP2 SUB SWAP1 RETURN JUMPDEST PUSH2 0x1C7 PUSH2 0x437 JUMP JUMPDEST PUSH1 0x40 MLOAD PUSH2 0x1D4 SWAP2 SWAP1 PUSH2 0x1284 JUMP JUMPDEST PUSH1 0x40 MLOAD DUP1 SWAP2 SUB SWAP1 RETURN JUMPDEST PUSH2 0x1F7 PUSH1 0x4 DUP1 CALLDATASIZE SUB DUP2 ADD SWAP1 PUSH2 0x1F2 SWAP2 SWAP1 PUSH2 0x114B JUMP JUMPDEST PUSH2 0x440 JUMP JUMPDEST STOP JUMPDEST PUSH2 0x213 PUSH1 0x4 DUP1 CALLDATASIZE SUB DUP2 ADD SWAP1 PUSH2 0x20E SWAP2 SWAP1 PUSH2 0x129F JUMP JUMPDEST PUSH2 0x4DE JUMP JUMPDEST PUSH1 0x40 MLOAD PUSH2 0x220 SWAP2 SWAP1 PUSH2 0x11D0 JUMP JUMPDEST PUSH1 0x40 MLOAD DUP1 SWAP2 SUB SWAP1 RETURN JUMPDEST PUSH2 0x231 PUSH2 0x526 JUMP JUMPDEST STOP JUMPDEST PUSH2 0x23B PUSH2 0x53A JUMP JUMPDEST PUSH1 0x40 MLOAD PUSH2 0x248 SWAP2 SWAP1 PUSH2 0x11FA JUMP JUMPDEST PUSH1 0x40 MLOAD DUP1 SWAP2 SUB SWAP1 RETURN JUMPDEST PUSH2 0x259 PUSH2 0x564 JUMP JUMPDEST PUSH1 0x40 MLOAD PUSH2 0x266 SWAP2 SWAP1 PUSH2 0x1090 JUMP JUMPDEST PUSH1 0x40 MLOAD DUP1 SWAP2 SUB SWAP1 RETURN JUMPDEST PUSH2 0x289 PUSH1 0x4 DUP1 CALLDATASIZE SUB DUP2 ADD SWAP1 PUSH2 0x284 SWAP2 SWAP1 PUSH2 0x114B JUMP JUMPDEST PUSH2 0x5F6 JUMP JUMPDEST STOP JUMPDEST PUSH2 0x2A5 PUSH1 0x4 DUP1 CALLDATASIZE SUB DUP2 ADD SWAP1 PUSH2 0x2A0 SWAP2 SWAP1 PUSH2 0x114B JUMP JUMPDEST PUSH2 0x694 JUMP JUMPDEST PUSH1 0x40 MLOAD PUSH2 0x2B2 SWAP2 SWAP1 PUSH2 0x11A6 JUMP JUMPDEST PUSH1 0x40 MLOAD DUP1 SWAP2 SUB SWAP1 RETURN JUMPDEST PUSH2 0x2D5 PUSH1 0x4 DUP1 CALLDATASIZE SUB DUP2 ADD SWAP1 PUSH2 0x2D0 SWAP2 SWAP1 PUSH2 0x129F JUMP JUMPDEST PUSH2 0x6B7 JUMP JUMPDEST STOP JUMPDEST PUSH2 0x2F1 PUSH1 0x4 DUP1 CALLDATASIZE SUB DUP2 ADD SWAP1 PUSH2 0x2EC SWAP2 SWAP1 PUSH2 0x12CC JUMP JUMPDEST PUSH2 0x703 JUMP JUMPDEST PUSH1 0x40 MLOAD PUSH2 0x2FE SWAP2 SWAP1 PUSH2 0x11D0 JUMP JUMPDEST PUSH1 0x40 MLOAD DUP1 SWAP2 SUB SWAP1 RETURN JUMPDEST PUSH2 0x321 PUSH1 0x4 DUP1 CALLDATASIZE SUB DUP2 ADD SWAP1 PUSH2 0x31C SWAP2 SWAP1 PUSH2 0x129F JUMP JUMPDEST PUSH2 0x78A JUMP JUMPDEST STOP JUMPDEST PUSH1 0x60 PUSH1 0x3 DUP1 SLOAD PUSH2 0x332 SWAP1 PUSH2 0x133B JUMP JUMPDEST DUP1 PUSH1 0x1F ADD PUSH1 0x20 DUP1 SWAP2 DIV MUL PUSH1 0x20 ADD PUSH1 0x40 MLOAD SWAP1 DUP2 ADD PUSH1 0x40 MSTORE DUP1 SWAP3 SWAP2 SWAP1 DUP2 DUP2 MSTORE PUSH1 0x20 ADD DUP3 DUP1 SLOAD PUSH2 0x35E SWAP1 PUSH2 0x133B JUMP JUMPDEST DUP1 ISZERO PUSH2 0x3AB JUMPI DUP1 PUSH1 0x1F LT PUSH2 0x380 JUMPI PUSH2 0x100 DUP1 DUP4 SLOAD DIV MUL DUP4 MSTORE SWAP2 PUSH1 0x20 ADD SWAP2 PUSH2 0x3AB JUMP JUMPDEST DUP3 ADD SWAP2 SWAP1 PUSH1 0x0 MSTORE PUSH1 0x20 PUSH1 0x0 KECCAK256 SWAP1 JUMPDEST DUP2 SLOAD DUP2 MSTORE SWAP1 PUSH1 0x1 ADD SWAP1 PUSH1 0x20 ADD DUP1 DUP4 GT PUSH2 0x38E JUMPI DUP3 SWAP1 SUB PUSH1 0x1F AND DUP3 ADD SWAP2 JUMPDEST POP POP POP POP POP SWAP1 POP SWAP1 JUMP JUMPDEST PUSH1 0x0 DUP1 PUSH2 0x3C0 PUSH2 0x810 JUMP JUMPDEST SWAP1 POP PUSH2 0x3CD DUP2 DUP6 DUP6 PUSH2 0x818 JUMP JUMPDEST PUSH1 0x1 SWAP2 POP POP SWAP3 SWAP2 POP POP JUMP JUMPDEST PUSH1 0x0 PUSH1 0x2 SLOAD SWAP1 POP SWAP1 JUMP JUMPDEST PUSH1 0x6 PUSH1 0x0 SWAP1 SLOAD SWAP1 PUSH2 0x100 EXP SWAP1 DIV PUSH20 0xFFFFFFFFFFFFFFFFFFFFFFFFFFFFFFFFFFFFFFFF AND DUP2 JUMP JUMPDEST PUSH1 0x0 DUP1 PUSH2 0x413 PUSH2 0x810 JUMP JUMPDEST SWAP1 POP PUSH2 0x420 DUP6 DUP3 DUP6 PUSH2 0x82A JUMP JUMPDEST PUSH2 0x42B DUP6 DUP6 DUP6 PUSH2 0x8BF JUMP JUMPDEST PUSH1 0x1 SWAP2 POP POP SWAP4 SWAP3 POP POP POP JUMP JUMPDEST PUSH1 0x0 PUSH1 0x12 SWAP1 POP SWAP1 JUMP JUMPDEST PUSH1 0x6 PUSH1 0x0 SWAP1 SLOAD SWAP1 PUSH2 0x100 EXP SWAP1 DIV PUSH20 0xFFFFFFFFFFFFFFFFFFFFFFFFFFFFFFFFFFFFFFFF AND PUSH20 0xFFFFFFFFFFFFFFFFFFFFFFFFFFFFFFFFFFFFFFFF AND CALLER PUSH20 0xFFFFFFFFFFFFFFFFFFFFFFFFFFFFFFFFFFFFFFFF AND EQ PUSH2 0x4D0 JUMPI PUSH1 0x40 MLOAD PUSH32 0x8C379A000000000000000000000000000000000000000000000000000000000 DUP2 MSTORE PUSH1 0x4 ADD PUSH2 0x4C7 SWAP1 PUSH2 0x13B8 JUMP JUMPDEST PUSH1 0x40 MLOAD DUP1 SWAP2 SUB SWAP1 REVERT JUMPDEST PUSH2 0x4DA DUP3 DUP3 PUSH2 0x9B3 JUMP JUMPDEST POP POP JUMP JUMPDEST PUSH1 0x0 DUP1 PUSH1 0x0 DUP4 PUSH20 0xFFFFFFFFFFFFFFFFFFFFFFFFFFFFFFFFFFFFFFFF AND PUSH20 0xFFFFFFFFFFFFFFFFFFFFFFFFFFFFFFFFFFFFFFFF AND DUP2 MSTORE PUSH1 0x20 ADD SWAP1 DUP2 MSTORE PUSH1 0x20 ADD PUSH1 0x0 KECCAK256 SLOAD SWAP1 POP SWAP2 SWAP1 POP JUMP JUMPDEST PUSH2 0x52E PUSH2 0xA35 JUMP JUMPDEST PUSH2 0x538 PUSH1 0x0 PUSH2 0xABC JUMP JUMPDEST JUMP JUMPDEST PUSH1 0x0 PUSH1 0x5 PUSH1 0x0 SWAP1 SLOAD SWAP1 PUSH2 0x100 EXP SWAP1 DIV PUSH20 0xFFFFFFFFFFFFFFFFFFFFFFFFFFFFFFFFFFFFFFFF AND SWAP1 POP SWAP1 JUMP JUMPDEST PUSH1 0x60 PUSH1 0x4 DUP1 SLOAD PUSH2 0x573 SWAP1 PUSH2 0x133B JUMP JUMPDEST DUP1 PUSH1 0x1F ADD PUSH1 0x20 DUP1 SWAP2 DIV MUL PUSH1 0x20 ADD PUSH1 0x40 MLOAD SWAP1 DUP2 ADD PUSH1 0x40 MSTORE DUP1 SWAP3 SWAP2 SWAP1 DUP2 DUP2 MSTORE PUSH1 0x20 ADD DUP3 DUP1 SLOAD PUSH2 0x59F SWAP1 PUSH2 0x133B JUMP JUMPDEST DUP1 ISZERO PUSH2 0x5EC JUMPI DUP1 PUSH1 0x1F LT PUSH2 0x5C1 JUMPI PUSH2 0x100 DUP1 DUP4 SLOAD DIV MUL DUP4 MSTORE SWAP2 PUSH1 0x20 ADD SWAP2 PUSH2 0x5EC JUMP JUMPDEST DUP3 ADD SWAP2 SWAP1 PUSH1 0x0 MSTORE PUSH1 0x20 PUSH1 0x0 KECCAK256 SWAP1 JUMPDEST DUP2 SLOAD DUP2 MSTORE SWAP1 PUSH1 0x1 ADD SWAP1 PUSH1 0x20 ADD DUP1 DUP4 GT PUSH2 0x5CF JUMPI DUP3 SWAP1 SUB PUSH1 0x1F AND DUP3 ADD SWAP2 JUMPDEST POP POP POP POP POP SWAP1 POP SWAP1 JUMP JUMPDEST PUSH1 0x6 PUSH1 0x0 SWAP1 SLOAD SWAP1 PUSH2 0x100 EXP SWAP1 DIV PUSH20 0xFFFFFFFFFFFFFFFFFFFFFFFFFFFFFFFFFFFFFFFF AND PUSH20 0xFFFFFFFFFFFFFFFFFFFFFFFFFFFFFFFFFFFFFFFF AND CALLER PUSH20 0xFFFFFFFFFFFFFFFFFFFFFFFFFFFFFFFFFFFFFFFF AND EQ PUSH2 0x686 JUMPI PUSH1 0x40 MLOAD PUSH32 0x8C379A000000000000000000000000000000000000000000000000000000000 DUP2 MSTORE PUSH1 0x4 ADD PUSH2 0x67D SWAP1 PUSH2 0x13B8 JUMP JUMPDEST PUSH1 0x40 MLOAD DUP1 SWAP2 SUB SWAP1 REVERT JUMPDEST PUSH2 0x690 DUP3 DUP3 PUSH2 0xB82 JUMP JUMPDEST POP POP JUMP JUMPDEST PUSH1 0x0 DUP1 PUSH2 0x69F PUSH2 0x810 JUMP JUMPDEST SWAP1 POP PUSH2 0x6AC DUP2 DUP6 DUP6 PUSH2 0x8BF JUMP JUMPDEST PUSH1 0x1 SWAP2 POP POP SWAP3 SWAP2 POP POP JUMP JUMPDEST PUSH2 0x6BF PUSH2 0xA35 JUMP JUMPDEST DUP1 PUSH1 0x6 PUSH1 0x0 PUSH2 0x100 EXP DUP2 SLOAD DUP2 PUSH20 0xFFFFFFFFFFFFFFFFFFFFFFFFFFFFFFFFFFFFFFFF MUL NOT AND SWAP1 DUP4 PUSH20 0xFFFFFFFFFFFFFFFFFFFFFFFFFFFFFFFFFFFFFFFF AND MUL OR SWAP1 SSTORE POP POP JUMP JUMPDEST PUSH1 0x0 PUSH1 0x1 PUSH1 0x0 DUP5 PUSH20 0xFFFFFFFFFFFFFFFFFFFFFFFFFFFFFFFFFFFFFFFF AND PUSH20 0xFFFFFFFFFFFFFFFFFFFFFFFFFFFFFFFFFFFFFFFF AND DUP2 MSTORE PUSH1 0x20 ADD SWAP1 DUP2 MSTORE PUSH1 0x20 ADD PUSH1 0x0 KECCAK256 PUSH1 0x0 DUP4 PUSH20 0xFFFFFFFFFFFFFFFFFFFFFFFFFFFFFFFFFFFFFFFF AND PUSH20 0xFFFFFFFFFFFFFFFFFFFFFFFFFFFFFFFFFFFFFFFF AND DUP2 MSTORE PUSH1 0x20 ADD SWAP1 DUP2 MSTORE PUSH1 0x20 ADD PUSH1 0x0 KECCAK256 SLOAD SWAP1 POP SWAP3 SWAP2 POP POP JUMP JUMPDEST PUSH2 0x792 PUSH2 0xA35 JUMP JUMPDEST PUSH1 0x0 PUSH20 0xFFFFFFFFFFFFFFFFFFFFFFFFFFFFFFFFFFFFFFFF AND DUP2 PUSH20 0xFFFFFFFFFFFFFFFFFFFFFFFFFFFFFFFFFFFFFFFF AND SUB PUSH2 0x804 JUMPI PUSH1 0x0 PUSH1 0x40 MLOAD PUSH32 0x1E4FBDF700000000000000000000000000000000000000000000000000000000 DUP2 MSTORE PUSH1 0x4 ADD PUSH2 0x7FB SWAP2 SWAP1 PUSH2 0x11FA JUMP JUMPDEST PUSH1 0x40 MLOAD DUP1 SWAP2 SUB SWAP1 REVERT JUMPDEST PUSH2 0x80D DUP2 PUSH2 0xABC JUMP JUMPDEST POP JUMP JUMPDEST PUSH1 0x0 CALLER SWAP1 POP SWAP1 JUMP JUMPDEST PUSH2 0x825 DUP4 DUP4 DUP4 PUSH1 0x1 PUSH2 0xC04 JUMP JUMPDEST POP POP POP JUMP JUMPDEST PUSH1 0x0 PUSH2 0x836 DUP5 DUP5 PUSH2 0x703 JUMP JUMPDEST SWAP1 POP PUSH32 0xFFFFFFFFFFFFFFFFFFFFFFFFFFFFFFFFFFFFFFFFFFFFFFFFFFFFFFFFFFFFFFFF DUP2 LT ISZERO PUSH2 0x8B9 JUMPI DUP2 DUP2 LT ISZERO PUSH2 0x8A9 JUMPI DUP3 DUP2 DUP4 PUSH1 0x40 MLOAD PUSH32 0xFB8F41B200000000000000000000000000000000000000000000000000000000 DUP2 MSTORE PUSH1 0x4 ADD PUSH2 0x8A0 SWAP4 SWAP3 SWAP2 SWAP1 PUSH2 0x13D8 JUMP JUMPDEST PUSH1 0x40 MLOAD DUP1 SWAP2 SUB SWAP1 REVERT JUMPDEST PUSH2 0x8B8 DUP5 DUP5 DUP5 DUP5 SUB PUSH1 0x0 PUSH2 0xC04 JUMP JUMPDEST JUMPDEST POP POP POP POP JUMP JUMPDEST PUSH1 0x0 PUSH20 0xFFFFFFFFFFFFFFFFFFFFFFFFFFFFFFFFFFFFFFFF AND DUP4 PUSH20 0xFFFFFFFFFFFFFFFFFFFFFFFFFFFFFFFFFFFFFFFF AND SUB PUSH2 0x931 JUMPI PUSH1 0x0 PUSH1 0x40 MLOAD PUSH32 0x96C6FD1E00000000000000000000000000000000000000000000000000000000 DUP2 MSTORE PUSH1 0x4 ADD PUSH2 0x928 SWAP2 SWAP1 PUSH2 0x11FA JUMP JUMPDEST PUSH1 0x40 MLOAD DUP1 SWAP2 SUB SWAP1 REVERT JUMPDEST PUSH1 0x0 PUSH20 0xFFFFFFFFFFFFFFFFFFFFFFFFFFFFFFFFFFFFFFFF AND DUP3 PUSH20 0xFFFFFFFFFFFFFFFFFFFFFFFFFFFFFFFFFFFFFFFF AND SUB PUSH2 0x9A3 JUMPI PUSH1 0x0 PUSH1 0x40 MLOAD PUSH32 0xEC442F0500000000000000000000000000000000000000000000000000000000 DUP2 MSTORE PUSH1 0x4 ADD PUSH2 0x99A SWAP2 SWAP1 PUSH2 0x11FA JUMP JUMPDEST PUSH1 0x40 MLOAD DUP1 SWAP2 SUB SWAP1 REVERT JUMPDEST PUSH2 0x9AE DUP4 DUP4 DUP4 PUSH2 0xDDB JUMP JUMPDEST POP POP POP JUMP JUMPDEST PUSH1 0x0 PUSH20 0xFFFFFFFFFFFFFFFFFFFFFFFFFFFFFFFFFFFFFFFF AND DUP3 PUSH20 0xFFFFFFFFFFFFFFFFFFFFFFFFFFFFFFFFFFFFFFFF AND SUB PUSH2 0xA25 JUMPI PUSH1 0x0 PUSH1 0x40 MLOAD PUSH32 0xEC442F0500000000000000000000000000000000000000000000000000000000 DUP2 MSTORE PUSH1 0x4 ADD PUSH2 0xA1C SWAP2 SWAP1 PUSH2 0x11FA JUMP JUMPDEST PUSH1 0x40 MLOAD DUP1 SWAP2 SUB SWAP1 REVERT JUMPDEST PUSH2 0xA31 PUSH1 0x0 DUP4 DUP4 PUSH2 0xDDB JUMP JUMPDEST POP POP JUMP JUMPDEST PUSH2 0xA3D PUSH2 0x810 JUMP JUMPDEST PUSH20 0xFFFFFFFFFFFFFFFFFFFFFFFFFFFFFFFFFFFFFFFF AND PUSH2 0xA5B PUSH2 0x53A JUMP JUMPDEST PUSH20 0xFFFFFFFFFFFFFFFFFFFFFFFFFFFFFFFFFFFFFFFF AND EQ PUSH2 0xABA JUMPI PUSH2 0xA7E PUSH2 0x810 JUMP JUMPDEST PUSH1 0x40 MLOAD PUSH32 0x118CDAA700000000000000000000000000000000000000000000000000000000 DUP2 MSTORE PUSH1 0x4 ADD PUSH2 0xAB1 SWAP2 SWAP1 PUSH2 0x11FA JUMP JUMPDEST PUSH1 0x40 MLOAD DUP1 SWAP2 SUB SWAP1 REVERT JUMPDEST JUMP JUMPDEST PUSH1 0x0 PUSH1 0x5 PUSH1 0x0 SWAP1 SLOAD SWAP1 PUSH2 0x100 EXP SWAP1 DIV PUSH20 0xFFFFFFFFFFFFFFFFFFFFFFFFFFFFFFFFFFFFFFFF AND SWAP1 POP DUP2 PUSH1 0x5 PUSH1 0x0 PUSH2 0x100 EXP DUP2 SLOAD DUP2 PUSH20 0xFFFFFFFFFFFFFFFFFFFFFFFFFFFFFFFFFFFFFFFF MUL NOT AND SWAP1 DUP4 PUSH20 0xFFFFFFFFFFFFFFFFFFFFFFFFFFFFFFFFFFFFFFFF AND MUL OR SWAP1 SSTORE POP DUP2 PUSH20 0xFFFFFFFFFFFFFFFFFFFFFFFFFFFFFFFFFFFFFFFF AND DUP2 PUSH20 0xFFFFFFFFFFFFFFFFFFFFFFFFFFFFFFFFFFFFFFFF AND PUSH32 0x8BE0079C531659141344CD1FD0A4F28419497F9722A3DAAFE3B4186F6B6457E0 PUSH1 0x40 MLOAD PUSH1 0x40 MLOAD DUP1 SWAP2 SUB SWAP1 LOG3 POP POP JUMP JUMPDEST PUSH1 0x0 PUSH20 0xFFFFFFFFFFFFFFFFFFFFFFFFFFFFFFFFFFFFFFFF AND DUP3 PUSH20 0xFFFFFFFFFFFFFFFFFFFFFFFFFFFFFFFFFFFFFFFF AND SUB PUSH2 0xBF4 JUMPI PUSH1 0x0 PUSH1 0x40 MLOAD PUSH32 0x96C6FD1E00000000000000000000000000000000000000000000000000000000 DUP2 MSTORE PUSH1 0x4 ADD PUSH2 0xBEB SWAP2 SWAP1 PUSH2 0x11FA JUMP JUMPDEST PUSH1 0x40 MLOAD DUP1 SWAP2 SUB SWAP1 REVERT JUMPDEST PUSH2 0xC00 DUP3 PUSH1 0x0 DUP4 PUSH2 0xDDB JUMP JUMPDEST POP POP JUMP JUMPDEST PUSH1 0x0 PUSH20 0xFFFFFFFFFFFFFFFFFFFFFFFFFFFFFFFFFFFFFFFF AND DUP5 PUSH20 0xFFFFFFFFFFFFFFFFFFFFFFFFFFFFFFFFFFFFFFFF AND SUB PUSH2 0xC76 JUMPI PUSH1 0x0 PUSH1 0x40 MLOAD PUSH32 0xE602DF0500000000000000000000000000000000000000000000000000000000 DUP2 MSTORE PUSH1 0x4 ADD PUSH2 0xC6D SWAP2 SWAP1 PUSH2 0x11FA JUMP JUMPDEST PUSH1 0x40 MLOAD DUP1 SWAP2 SUB SWAP1 REVERT JUMPDEST PUSH1 0x0 PUSH20 0xFFFFFFFFFFFFFFFFFFFFFFFFFFFFFFFFFFFFFFFF AND DUP4 PUSH20 0xFFFFFFFFFFFFFFFFFFFFFFFFFFFFFFFFFFFFFFFF AND SUB PUSH2 0xCE8 JUMPI PUSH1 0x0 PUSH1 0x40 MLOAD PUSH32 0x94280D6200000000000000000000000000000000000000000000000000000000 DUP2 MSTORE PUSH1 0x4 ADD PUSH2 0xCDF SWAP2 SWAP1 PUSH2 0x11FA JUMP JUMPDEST PUSH1 0x40 MLOAD DUP1 SWAP2 SUB SWAP1 REVERT JUMPDEST DUP2 PUSH1 0x1 PUSH1 0x0 DUP7 PUSH20 0xFFFFFFFFFFFFFFFFFFFFFFFFFFFFFFFFFFFFFFFF AND PUSH20 0xFFFFFFFFFFFFFFFFFFFFFFFFFFFFFFFFFFFFFFFF AND DUP2 MSTORE PUSH1 0x20 ADD SWAP1 DUP2 MSTORE PUSH1 0x20 ADD PUSH1 0x0 KECCAK256 PUSH1 0x0 DUP6 PUSH20 0xFFFFFFFFFFFFFFFFFFFFFFFFFFFFFFFFFFFFFFFF AND PUSH20 0xFFFFFFFFFFFFFFFFFFFFFFFFFFFFFFFFFFFFFFFF AND DUP2 MSTORE PUSH1 0x20 ADD SWAP1 DUP2 MSTORE PUSH1 0x20 ADD PUSH1 0x0 KECCAK256 DUP2 SWAP1 SSTORE POP DUP1 ISZERO PUSH2 0xDD5 JUMPI DUP3 PUSH20 0xFFFFFFFFFFFFFFFFFFFFFFFFFFFFFFFFFFFFFFFF AND DUP5 PUSH20 0xFFFFFFFFFFFFFFFFFFFFFFFFFFFFFFFFFFFFFFFF AND PUSH32 0x8C5BE1E5EBEC7D5BD14F71427D1E84F3DD0314C0F7B2291E5B200AC8C7C3B925 DUP5 PUSH1 0x40 MLOAD PUSH2 0xDCC SWAP2 SWAP1 PUSH2 0x11D0 JUMP JUMPDEST PUSH1 0x40 MLOAD DUP1 SWAP2 SUB SWAP1 LOG3 JUMPDEST POP POP POP POP JUMP JUMPDEST PUSH1 0x0 PUSH20 0xFFFFFFFFFFFFFFFFFFFFFFFFFFFFFFFFFFFFFFFF AND DUP4 PUSH20 0xFFFFFFFFFFFFFFFFFFFFFFFFFFFFFFFFFFFFFFFF AND SUB PUSH2 0xE2D JUMPI DUP1 PUSH1 0x2 PUSH1 0x0 DUP3 DUP3 SLOAD PUSH2 0xE21 SWAP2 SWAP1 PUSH2 0x143E JUMP JUMPDEST SWAP3 POP POP DUP2 SWAP1 SSTORE POP PUSH2 0xF00 JUMP JUMPDEST PUSH1 0x0 DUP1 PUSH1 0x0 DUP6 PUSH20 0xFFFFFFFFFFFFFFFFFFFFFFFFFFFFFFFFFFFFFFFF AND PUSH20 0xFFFFFFFFFFFFFFFFFFFFFFFFFFFFFFFFFFFFFFFF AND DUP2 MSTORE PUSH1 0x20 ADD SWAP1 DUP2 MSTORE PUSH1 0x20 ADD PUSH1 0x0 KECCAK256 SLOAD SWAP1 POP DUP2 DUP2 LT ISZERO PUSH2 0xEB9 JUMPI DUP4 DUP2 DUP4 PUSH1 0x40 MLOAD PUSH32 0xE450D38C00000000000000000000000000000000000000000000000000000000 DUP2 MSTORE PUSH1 0x4 ADD PUSH2 0xEB0 SWAP4 SWAP3 SWAP2 SWAP1 PUSH2 0x13D8 JUMP JUMPDEST PUSH1 0x40 MLOAD DUP1 SWAP2 SUB SWAP1 REVERT JUMPDEST DUP2 DUP2 SUB PUSH1 0x0 DUP1 DUP7 PUSH20 0xFFFFFFFFFFFFFFFFFFFFFFFFFFFFFFFFFFFFFFFF AND PUSH20 0xFFFFFFFFFFFFFFFFFFFFFFFFFFFFFFFFFFFFFFFF AND DUP2 MSTORE PUSH1 0x20 ADD SWAP1 DUP2 MSTORE PUSH1 0x20 ADD PUSH1 0x0 KECCAK256 DUP2 SWAP1 SSTORE POP POP JUMPDEST PUSH1 0x0 PUSH20 0xFFFFFFFFFFFFFFFFFFFFFFFFFFFFFFFFFFFFFFFF AND DUP3 PUSH20 0xFFFFFFFFFFFFFFFFFFFFFFFFFFFFFFFFFFFFFFFF AND SUB PUSH2 0xF49 JUMPI DUP1 PUSH1 0x2 PUSH1 0x0 DUP3 DUP3 SLOAD SUB SWAP3 POP POP DUP2 SWAP1 SSTORE POP PUSH2 0xF96 JUMP JUMPDEST DUP1 PUSH1 0x0 DUP1 DUP5 PUSH20 0xFFFFFFFFFFFFFFFFFFFFFFFFFFFFFFFFFFFFFFFF AND PUSH20 0xFFFFFFFFFFFFFFFFFFFFFFFFFFFFFFFFFFFFFFFF AND DUP2 MSTORE PUSH1 0x20 ADD SWAP1 DUP2 MSTORE PUSH1 0x20 ADD PUSH1 0x0 KECCAK256 PUSH1 0x0 DUP3 DUP3 SLOAD ADD SWAP3 POP POP DUP2 SWAP1 SSTORE POP JUMPDEST DUP2 PUSH20 0xFFFFFFFFFFFFFFFFFFFFFFFFFFFFFFFFFFFFFFFF AND DUP4 PUSH20 0xFFFFFFFFFFFFFFFFFFFFFFFFFFFFFFFFFFFFFFFF AND PUSH32 0xDDF252AD1BE2C89B69C2B068FC378DAA952BA7F163C4A11628F55A4DF523B3EF DUP4 PUSH1 0x40 MLOAD PUSH2 0xFF3 SWAP2 SWAP1 PUSH2 0x11D0 JUMP JUMPDEST PUSH1 0x40 MLOAD DUP1 SWAP2 SUB SWAP1 LOG3 POP POP POP JUMP JUMPDEST PUSH1 0x0 DUP2 MLOAD SWAP1 POP SWAP2 SWAP1 POP JUMP JUMPDEST PUSH1 0x0 DUP3 DUP3 MSTORE PUSH1 0x20 DUP3 ADD SWAP1 POP SWAP3 SWAP2 POP POP JUMP JUMPDEST PUSH1 0x0 JUMPDEST DUP4 DUP2 LT ISZERO PUSH2 0x103A JUMPI DUP1 DUP3 ADD MLOAD DUP2 DUP5 ADD MSTORE PUSH1 0x20 DUP2 ADD SWAP1 POP PUSH2 0x101F JUMP JUMPDEST PUSH1 0x0 DUP5 DUP5 ADD MSTORE POP POP POP POP JUMP JUMPDEST PUSH1 0x0 PUSH1 0x1F NOT PUSH1 0x1F DUP4 ADD AND SWAP1 POP SWAP2 SWAP1 POP JUMP JUMPDEST PUSH1 0x0 PUSH2 0x1062 DUP3 PUSH2 0x1000 JUMP JUMPDEST PUSH2 0x106C DUP2 DUP6 PUSH2 0x100B JUMP JUMPDEST SWAP4 POP PUSH2 0x107C DUP2 DUP6 PUSH1 0x20 DUP7 ADD PUSH2 0x101C JUMP JUMPDEST PUSH2 0x1085 DUP2 PUSH2 0x1046 JUMP JUMPDEST DUP5 ADD SWAP2 POP POP SWAP3 SWAP2 POP POP JUMP JUMPDEST PUSH1 0x0 PUSH1 0x20 DUP3 ADD SWAP1 POP DUP2 DUP2 SUB PUSH1 0x0 DUP4 ADD MSTORE PUSH2 0x10AA DUP2 DUP5 PUSH2 0x1057 JUMP JUMPDEST SWAP1 POP SWAP3 SWAP2 POP POP JUMP JUMPDEST PUSH1 0x0 DUP1 REVERT JUMPDEST PUSH1 0x0 PUSH20 0xFFFFFFFFFFFFFFFFFFFFFFFFFFFFFFFFFFFFFFFF DUP3 AND SWAP1 POP SWAP2 SWAP1 POP JUMP JUMPDEST PUSH1 0x0 PUSH2 0x10E2 DUP3 PUSH2 0x10B7 JUMP JUMPDEST SWAP1 POP SWAP2 SWAP1 POP JUMP JUMPDEST PUSH2 0x10F2 DUP2 PUSH2 0x10D7 JUMP JUMPDEST DUP2 EQ PUSH2 0x10FD JUMPI PUSH1 0x0 DUP1 REVERT JUMPDEST POP JUMP JUMPDEST PUSH1 0x0 DUP2 CALLDATALOAD SWAP1 POP PUSH2 0x110F DUP2 PUSH2 0x10E9 JUMP JUMPDEST SWAP3 SWAP2 POP POP JUMP JUMPDEST PUSH1 0x0 DUP2 SWAP1 POP SWAP2 SWAP1 POP JUMP JUMPDEST PUSH2 0x1128 DUP2 PUSH2 0x1115 JUMP JUMPDEST DUP2 EQ PUSH2 0x1133 JUMPI PUSH1 0x0 DUP1 REVERT JUMPDEST POP JUMP JUMPDEST PUSH1 0x0 DUP2 CALLDATALOAD SWAP1 POP PUSH2 0x1145 DUP2 PUSH2 0x111F JUMP JUMPDEST SWAP3 SWAP2 POP POP JUMP JUMPDEST PUSH1 0x0 DUP1 PUSH1 0x40 DUP4 DUP6 SUB SLT ISZERO PUSH2 0x1162 JUMPI PUSH2 0x1161 PUSH2 0x10B2 JUMP JUMPDEST JUMPDEST PUSH1 0x0 PUSH2 0x1170 DUP6 DUP3 DUP7 ADD PUSH2 0x1100 JUMP JUMPDEST SWAP3 POP POP PUSH1 0x20 PUSH2 0x1181 DUP6 DUP3 DUP7 ADD PUSH2 0x1136 JUMP JUMPDEST SWAP2 POP POP SWAP3 POP SWAP3 SWAP1 POP JUMP JUMPDEST PUSH1 0x0 DUP2 ISZERO ISZERO SWAP1 POP SWAP2 SWAP1 POP JUMP JUMPDEST PUSH2 0x11A0 DUP2 PUSH2 0x118B JUMP JUMPDEST DUP3 MSTORE POP POP JUMP JUMPDEST PUSH1 0x0 PUSH1 0x20 DUP3 ADD SWAP1 POP PUSH2 0x11BB PUSH1 0x0 DUP4 ADD DUP5 PUSH2 0x1197 JUMP JUMPDEST SWAP3 SWAP2 POP POP JUMP JUMPDEST PUSH2 0x11CA DUP2 PUSH2 0x1115 JUMP JUMPDEST DUP3 MSTORE POP POP JUMP JUMPDEST PUSH1 0x0 PUSH1 0x20 DUP3 ADD SWAP1 POP PUSH2 0x11E5 PUSH1 0x0 DUP4 ADD DUP5 PUSH2 0x11C1 JUMP JUMPDEST SWAP3 SWAP2 POP POP JUMP JUMPDEST PUSH2 0x11F4 DUP2 PUSH2 0x10D7 JUMP JUMPDEST DUP3 MSTORE POP POP JUMP JUMPDEST PUSH1 0x0 PUSH1 0x20 DUP3 ADD SWAP1 POP PUSH2 0x120F PUSH1 0x0 DUP4 ADD DUP5 PUSH2 0x11EB JUMP JUMPDEST SWAP3 SWAP2 POP POP JUMP JUMPDEST PUSH1 0x0 DUP1 PUSH1 0x0 PUSH1 0x60 DUP5 DUP7 SUB SLT ISZERO PUSH2 0x122E JUMPI PUSH2 0x122D PUSH2 0x10B2 JUMP JUMPDEST JUMPDEST PUSH1 0x0 PUSH2 0x123C DUP7 DUP3 DUP8 ADD PUSH2 0x1100 JUMP JUMPDEST SWAP4 POP POP PUSH1 0x20 PUSH2 0x124D DUP7 DUP3 DUP8 ADD PUSH2 0x1100 JUMP JUMPDEST SWAP3 POP POP PUSH1 0x40 PUSH2 0x125E DUP7 DUP3 DUP8 ADD PUSH2 0x1136 JUMP JUMPDEST SWAP2 POP POP SWAP3 POP SWAP3 POP SWAP3 JUMP JUMPDEST PUSH1 0x0 PUSH1 0xFF DUP3 AND SWAP1 POP SWAP2 SWAP1 POP JUMP JUMPDEST PUSH2 0x127E DUP2 PUSH2 0x1268 JUMP JUMPDEST DUP3 MSTORE POP POP JUMP JUMPDEST PUSH1 0x0 PUSH1 0x20 DUP3 ADD SWAP1 POP PUSH2 0x1299 PUSH1 0x0 DUP4 ADD DUP5 PUSH2 0x1275 JUMP JUMPDEST SWAP3 SWAP2 POP POP JUMP JUMPDEST PUSH1 0x0 PUSH1 0x20 DUP3 DUP5 SUB SLT ISZERO PUSH2 0x12B5 JUMPI PUSH2 0x12B4 PUSH2 0x10B2 JUMP JUMPDEST JUMPDEST PUSH1 0x0 PUSH2 0x12C3 DUP5 DUP3 DUP6 ADD PUSH2 0x1100 JUMP JUMPDEST SWAP2 POP POP SWAP3 SWAP2 POP POP JUMP JUMPDEST PUSH1 0x0 DUP1 PUSH1 0x40 DUP4 DUP6 SUB SLT ISZERO PUSH2 0x12E3 JUMPI PUSH2 0x12E2 PUSH2 0x10B2 JUMP JUMPDEST JUMPDEST PUSH1 0x0 PUSH2 0x12F1 DUP6 DUP3 DUP7 ADD PUSH2 0x1100 JUMP JUMPDEST SWAP3 POP POP PUSH1 0x20 PUSH2 0x1302 DUP6 DUP3 DUP7 ADD PUSH2 0x1100 JUMP JUMPDEST SWAP2 POP POP SWAP3 POP SWAP3 SWAP1 POP JUMP JUMPDEST PUSH32 0x4E487B7100000000000000000000000000000000000000000000000000000000 PUSH1 0x0 MSTORE PUSH1 0x22 PUSH1 0x4 MSTORE PUSH1 0x24 PUSH1 0x0 REVERT JUMPDEST PUSH1 0x0 PUSH1 0x2 DUP3 DIV SWAP1 POP PUSH1 0x1 DUP3 AND DUP1 PUSH2 0x1353 JUMPI PUSH1 0x7F DUP3 AND SWAP2 POP JUMPDEST PUSH1 0x20 DUP3 LT DUP2 SUB PUSH2 0x1366 JUMPI PUSH2 0x1365 PUSH2 0x130C JUMP JUMPDEST JUMPDEST POP SWAP2 SWAP1 POP JUMP JUMPDEST PUSH32 0x4E6F74206261736B6574206D616E616765720000000000000000000000000000 PUSH1 0x0 DUP3 ADD MSTORE POP JUMP JUMPDEST PUSH1 0x0 PUSH2 0x13A2 PUSH1 0x12 DUP4 PUSH2 0x100B JUMP JUMPDEST SWAP2 POP PUSH2 0x13AD DUP3 PUSH2 0x136C JUMP JUMPDEST PUSH1 0x20 DUP3 ADD SWAP1 POP SWAP2 SWAP1 POP JUMP JUMPDEST PUSH1 0x0 PUSH1 0x20 DUP3 ADD SWAP1 POP DUP2 DUP2 SUB PUSH1 0x0 DUP4 ADD MSTORE PUSH2 0x13D1 DUP2 PUSH2 0x1395 JUMP JUMPDEST SWAP1 POP SWAP2 SWAP1 POP JUMP JUMPDEST PUSH1 0x0 PUSH1 0x60 DUP3 ADD SWAP1 POP PUSH2 0x13ED PUSH1 0x0 DUP4 ADD DUP7 PUSH2 0x11EB JUMP JUMPDEST PUSH2 0x13FA PUSH1 0x20 DUP4 ADD DUP6 PUSH2 0x11C1 JUMP JUMPDEST PUSH2 0x1407 PUSH1 0x40 DUP4 ADD DUP5 PUSH2 0x11C1 JUMP JUMPDEST SWAP5 SWAP4 POP POP POP POP JUMP JUMPDEST PUSH32 0x4E487B7100000000000000000000000000000000000000000000000000000000 PUSH1 0x0 MSTORE PUSH1 0x11 PUSH1 0x4 MSTORE PUSH1 0x24 PUSH1 0x0 REVERT JUMPDEST PUSH1 0x0 PUSH2 0x1449 DUP3 PUSH2 0x1115 JUMP JUMPDEST SWAP2 POP PUSH2 0x1454 DUP4 PUSH2 0x1115 JUMP JUMPDEST SWAP3 POP DUP3 DUP3 ADD SWAP1 POP DUP1 DUP3 GT ISZERO PUSH2 0x146C JUMPI PUSH2 0x146B PUSH2 0x140F JUMP JUMPDEST JUMPDEST SWAP3 SWAP2 POP POP JUMP INVALID LOG2 PUSH5 0x6970667358 0x22 SLT KECCAK256 0xD1 PUSH7 0xBF067522860D7 SUB PUSH12 0x26F4D5E51D77EDBCC2017A94 0xD8 NOT ADDRESS DUP2 0xB9 COINBASE 0xDF 0xFC DUP12 PUSH5 0x736F6C6343 STOP ADDMOD EQ STOP CALLER LOG2 PUSH5 0x6970667358 0x22 SLT KECCAK256 0xAC OR DUP2 0xEB 0x26 SGT MSTORE8 STOP 0xF6 INVALID MOD 0x2F 0x24 0xBF SELFBALANCE 0xBC MLOAD 0xE5 0xB2 0x4E PUSH5 0x23E0F4C6D1 0xCA 0xC8 0x29 0xE5 SLOAD DUP3 PUSH5 0x736F6C6343 STOP ADDMOD EQ STOP CALLER "},"methodIdentifiers":{"PVM_ENGINE()":"041c42d9","XCM_PRECOMPILE()":"077120cc","baskets(uint256)":"a60ed374","createBasket(string,string,(uint32,address,uint16,bytes,bytes)[])":"af4d612f","deposit(uint256)":"b6b55f25","getBasket(uint256)":"77977d50","getBasketNAV(uint256)":"903746b9","nextBasketId()":"a7600528","owner()":"8da5cb5b","rebalance(uint256)":"f4993018","rebalanceThresholdBps()":"4000001a","userPositions(address,uint256)":"5e1b4d99","withdraw(uint256,uint256)":"441a3e70"}}}}}