{"contracts/mocks/MockPVMEngine.sol":{"MockPVMEngine":{"abi":[{"inputs":[],"name":"MAX_WEIGHT_BPS","outputs":[{"internalType":"uint256","name":"","type":"uint256"}],"stateMutability":"view","type":"function"},{"inputs":[],"name":"MIN_WEIGHT_BPS","outputs":[{"internalType":"uint256","name":"","type":"uint256"}],"stateMutability":"view","type":"function"},{"inputs":[{"internalType":"bytes","name":"input","type":"bytes"}],"name":"optimizeAllocation","outputs":[{"internalType":"bytes","name":"","type":"bytes"}],"stateMutability":"pure","type":"function"},{"inputs":[{"internalType":"bytes","name":"input","type":"bytes"}],"name":"rebalanceBasket","outputs":[{"internalType":"bytes","name":"","type":"bytes"}],"stateMutability":"pure","type":"function"},{"inputs":[{"internalType":"bytes","name":"input","type":"bytes"}],"name":"riskAdjustedYield","outputs":[{"internalType":"bytes","name":"","type":"bytes"}],"stateMutability":"pure","type":"function"}],"evm":{"bytecode":{"linkReferences":{},"object":"608060405234801561001057600080fd5b50611901806100206000396000f3fe608060405234801561001057600080fd5b50600436106100575760003560e01c806303acaa991461005c57806314eff2ec1461007a5780633cbe5ec1146100aa5780637f26cdb4146100c8578063f84a2730146100f8575b600080fd5b610064610128565b6040516100719190611563565b60405180910390f35b610094600480360381019061008f91906115ed565b61012e565b6040516100a191906116ca565b60405180910390f35b6100b26107ab565b6040516100bf9190611563565b60405180910390f35b6100e260048036038101906100dd91906115ed565b6107b1565b6040516100ef91906116ca565b60405180910390f35b610112600480360381019061010d91906115ed565b6110cc565b60405161011f91906116ca565b60405180910390f35b61138881565b60606006838390501015610153576040518060200160405280600081525090506107a5565b600061017b8484600081811061016c5761016b6116ec565b5b9050013560f81c60f81b61153a565b90506000600260048361018e919061174a565b600461019a919061178c565b6101a4919061178c565b9050808585905010156101ca5760405180602001604052806000815250925050506107a5565b60008267ffffffffffffffff8111156101e6576101e56117c0565b5b6040519080825280602002602001820160405280156102145781602001602082028036833780820191505090505b50905060008367ffffffffffffffff811115610233576102326117c0565b5b6040519080825280602002602001820160405280156102615781602001602082028036833780820191505090505b50905060005b8481101561032c5760086102ba89896001600286610285919061174a565b6004610291919061178c565b61029b919061178c565b8181106102ab576102aa6116ec565b5b9050013560f81c60f81b61153a565b901b6102f989896002856102ce919061174a565b60046102da919061178c565b8181106102ea576102e96116ec565b5b9050013560f81c60f81b61153a565b1783828151811061030d5761030c6116ec565b5b6020026020010181815250508080610324906117ef565b915050610267565b5060005b8481101561042357600861039a8989600160028661034e919061174a565b60028b61035b919061174a565b6004610367919061178c565b610371919061178c565b61037b919061178c565b81811061038b5761038a6116ec565b5b9050013560f81c60f81b61153a565b901b6103f089896002856103ae919061174a565b60028a6103bb919061174a565b60046103c7919061178c565b6103d1919061178c565b8181106103e1576103e06116ec565b5b9050013560f81c60f81b61153a565b17828281518110610404576104036116ec565b5b602002602001018181525050808061041b906117ef565b915050610330565b50600060086104718989600160048a61043c919061174a565b6004610448919061178c565b610452919061178c565b818110610462576104616116ec565b5b9050013560f81c60f81b61153a565b901b6104b08989600489610485919061174a565b6004610491919061178c565b8181106104a1576104a06116ec565b5b9050013560f81c60f81b61153a565b1790506000805b868110156105aa5760008482815181106104d4576104d36116ec565b5b60200260200101518683815181106104ef576104ee6116ec565b5b6020026020010151116105415785828151811061050f5761050e6116ec565b5b602002602001015185838151811061052a576105296116ec565b5b602002602001015161053c9190611837565b610582565b848281518110610554576105536116ec565b5b602002602001015186838151811061056f5761056e6116ec565b5b60200260200101516105819190611837565b5b9050838111156105965760019250506105aa565b5080806105a2906117ef565b9150506104b7565b5060006002876105ba919061174a565b60016105c6919061178c565b67ffffffffffffffff8111156105df576105de6117c0565b5b6040519080825280601f01601f1916602001820160405280156106115781602001600182028036833780820191505090505b50905081610620576000610623565b60015b60f81b8160008151811061063a576106396116ec565b5b60200101907effffffffffffffffffffffffffffffffffffffffffffffffffffffffffffff1916908160001a9053506000826106765785610678565b845b905060005b8881101561079857818181518110610698576106976116ec565b5b602002602001015160f81b836002836106b1919061174a565b60016106bd919061178c565b815181106106ce576106cd6116ec565b5b60200101907effffffffffffffffffffffffffffffffffffffffffffffffffffffffffffff1916908160001a9053506008828281518110610712576107116116ec565b5b6020026020010151901c60f81b83600160028461072f919061174a565b600161073b919061178c565b610745919061178c565b81518110610756576107556116ec565b5b60200101907effffffffffffffffffffffffffffffffffffffffffffffffffffffffffffff1916908160001a9053508080610790906117ef565b91505061067d565b5081985050505050505050505b92915050565b6103e881565b606060048383905010156107d6576040518060200160405280600081525090506110c6565b60006107fe848460008181106107ef576107ee6116ec565b5b9050013560f81c60f81b61153a565b905060088161080d919061174a565b6004610819919061178c565b84849050101561083b57604051806020016040528060008152509150506110c6565b60008167ffffffffffffffff811115610857576108566117c0565b5b6040519080825280602002602001820160405280156108855781602001602082028036833780820191505090505b50905060008267ffffffffffffffff8111156108a4576108a36117c0565b5b6040519080825280602002602001820160405280156108d25781602001602082028036833780820191505090505b50905060005b83811015610a3957601861092b888860036004866108f6919061174a565b6004610902919061178c565b61090c919061178c565b81811061091c5761091b6116ec565b5b9050013560f81c60f81b61153a565b901b601061097889896002600487610943919061174a565b600461094f919061178c565b610959919061178c565b818110610969576109686116ec565b5b9050013560f81c60f81b61153a565b901b60086109c58a8a6001600488610990919061174a565b600461099c919061178c565b6109a6919061178c565b8181106109b6576109b56116ec565b5b9050013560f81c60f81b61153a565b901b610a048a8a6004876109d9919061174a565b60046109e5919061178c565b8181106109f5576109f46116ec565b5b9050013560f81c60f81b61153a565b171717838281518110610a1a57610a196116ec565b5b6020026020010181815250508080610a31906117ef565b9150506108d8565b5060005b83811015610bfa576018610aa788886003600486610a5b919061174a565b60048a610a68919061174a565b6004610a74919061178c565b610a7e919061178c565b610a88919061178c565b818110610a9857610a976116ec565b5b9050013560f81c60f81b61153a565b901b6010610b0b89896002600487610abf919061174a565b60048b610acc919061174a565b6004610ad8919061178c565b610ae2919061178c565b610aec919061178c565b818110610afc57610afb6116ec565b5b9050013560f81c60f81b61153a565b901b6008610b6f8a8a6001600488610b23919061174a565b60048c610b30919061174a565b6004610b3c919061178c565b610b46919061178c565b610b50919061178c565b818110610b6057610b5f6116ec565b5b9050013560f81c60f81b61153a565b901b610bc58a8a600487610b83919061174a565b60048b610b90919061174a565b6004610b9c919061178c565b610ba6919061178c565b818110610bb657610bb56116ec565b5b9050013560f81c60f81b61153a565b171717828281518110610bdb57610bda6116ec565b5b6020026020010181815250508080610bf2906117ef565b915050610a3d565b5060008367ffffffffffffffff811115610c1757610c166117c0565b5b604051908082528060200260200182016040528015610c455781602001602082028036833780820191505090505b50905060005b84811015610ce5576000838281518110610c6857610c676116ec565b5b6020026020010151612710610c7d919061178c565b905080612710868481518110610c9657610c956116ec565b5b6020026020010151610ca8919061174a565b610cb2919061189a565b838381518110610cc557610cc46116ec565b5b602002602001018181525050508080610cdd906117ef565b915050610c4b565b506000600885610cf5919061174a565b67ffffffffffffffff811115610d0e57610d0d6117c0565b5b6040519080825280601f01601f191660200182016040528015610d405781602001600182028036833780820191505090505b50905060005b858110156110bc57600060f81b82600883610d61919061174a565b81518110610d7257610d716116ec565b5b60200101907effffffffffffffffffffffffffffffffffffffffffffffffffffffffffffff1916908160001a905350600060f81b826001600884610db6919061174a565b610dc0919061178c565b81518110610dd157610dd06116ec565b5b60200101907effffffffffffffffffffffffffffffffffffffffffffffffffffffffffffff1916908160001a905350600060f81b826002600884610e15919061174a565b610e1f919061178c565b81518110610e3057610e2f6116ec565b5b60200101907effffffffffffffffffffffffffffffffffffffffffffffffffffffffffffff1916908160001a9053508060f81b826003600884610e73919061174a565b610e7d919061178c565b81518110610e8e57610e8d6116ec565b5b60200101907effffffffffffffffffffffffffffffffffffffffffffffffffffffffffffff1916908160001a905350828181518110610ed057610ecf6116ec565b5b602002602001015160f81b826004600884610eeb919061174a565b610ef5919061178c565b81518110610f0657610f056116ec565b5b60200101907effffffffffffffffffffffffffffffffffffffffffffffffffffffffffffff1916908160001a9053506008838281518110610f4a57610f496116ec565b5b6020026020010151901c60f81b826005600884610f67919061174a565b610f71919061178c565b81518110610f8257610f816116ec565b5b60200101907effffffffffffffffffffffffffffffffffffffffffffffffffffffffffffff1916908160001a9053506010838281518110610fc657610fc56116ec565b5b6020026020010151901c60f81b826006600884610fe3919061174a565b610fed919061178c565b81518110610ffe57610ffd6116ec565b5b60200101907effffffffffffffffffffffffffffffffffffffffffffffffffffffffffffff1916908160001a9053506018838281518110611042576110416116ec565b5b6020026020010151901c60f81b82600760088461105f919061174a565b611069919061178c565b8151811061107a576110796116ec565b5b60200101907effffffffffffffffffffffffffffffffffffffffffffffffffffffffffffff1916908160001a90535080806110b4906117ef565b915050610d46565b5080955050505050505b92915050565b606060048383905010156110f157604051806020016040528060008152509050611534565b60006111198484600081811061110a576111096116ec565b5b9050013560f81c60f81b61153a565b905060008167ffffffffffffffff811115611137576111366117c0565b5b6040519080825280602002602001820160405280156111655781602001602082028036833780820191505090505b50905060005b828110156111bf5760c881611180919061174a565b61032061118d919061178c565b8282815181106111a05761119f6116ec565b5b60200260200101818152505080806111b7906117ef565b91505061116b565b506000805b83811015611207578281815181106111df576111de6116ec565b5b6020026020010151826111f2919061178c565b915080806111ff906117ef565b9150506111c4565b506000810361122a57604051806020016040528060008152509350505050611534565b60008367ffffffffffffffff811115611246576112456117c0565b5b6040519080825280602002602001820160405280156112745781602001602082028036833780820191505090505b50905060005b848110156113115760008361271086848151811061129b5761129a6116ec565b5b60200260200101516112ad919061174a565b6112b7919061189a565b905061138881116112da576103e881106112d157806112d5565b6103e85b6112de565b6113885b8383815181106112f1576112f06116ec565b5b602002602001018181525050508080611309906117ef565b91505061127a565b506000805b8581101561135957828181518110611331576113306116ec565b5b602002602001015182611344919061178c565b91508080611351906117ef565b915050611316565b50612710811415801561136c5750600085115b156113c6578061271061137f9190611837565b82600081518110611393576113926116ec565b5b60200260200101516113a5919061178c565b826000815181106113b9576113b86116ec565b5b6020026020010181815250505b60006002866113d5919061174a565b67ffffffffffffffff8111156113ee576113ed6117c0565b5b6040519080825280601f01601f1916602001820160405280156114205781602001600182028036833780820191505090505b50905060005b8681101561152957838181518110611441576114406116ec565b5b602002602001015160f81b8260028361145a919061174a565b8151811061146b5761146a6116ec565b5b60200101907effffffffffffffffffffffffffffffffffffffffffffffffffffffffffffff1916908160001a90535060088482815181106114af576114ae6116ec565b5b6020026020010151901c60f81b8260016002846114cc919061174a565b6114d6919061178c565b815181106114e7576114e66116ec565b5b60200101907effffffffffffffffffffffffffffffffffffffffffffffffffffffffffffff1916908160001a9053508080611521906117ef565b915050611426565b508096505050505050505b92915050565b60008160f81c60ff169050919050565b6000819050919050565b61155d8161154a565b82525050565b60006020820190506115786000830184611554565b92915050565b600080fd5b600080fd5b600080fd5b600080fd5b600080fd5b60008083601f8401126115ad576115ac611588565b5b8235905067ffffffffffffffff8111156115ca576115c961158d565b5b6020830191508360018202830111156115e6576115e5611592565b5b9250929050565b600080602083850312156116045761160361157e565b5b600083013567ffffffffffffffff81111561162257611621611583565b5b61162e85828601611597565b92509250509250929050565b600081519050919050565b600082825260208201905092915050565b60005b83811015611674578082015181840152602081019050611659565b60008484015250505050565b6000601f19601f8301169050919050565b600061169c8261163a565b6116a68185611645565b93506116b6818560208601611656565b6116bf81611680565b840191505092915050565b600060208201905081810360008301526116e48184611691565b905092915050565b7f4e487b7100000000000000000000000000000000000000000000000000000000600052603260045260246000fd5b7f4e487b7100000000000000000000000000000000000000000000000000000000600052601160045260246000fd5b60006117558261154a565b91506117608361154a565b925082820261176e8161154a565b915082820484148315176117855761178461171b565b5b5092915050565b60006117978261154a565b91506117a28361154a565b92508282019050808211156117ba576117b961171b565b5b92915050565b7f4e487b7100000000000000000000000000000000000000000000000000000000600052604160045260246000fd5b60006117fa8261154a565b91507fffffffffffffffffffffffffffffffffffffffffffffffffffffffffffffffff820361182c5761182b61171b565b5b600182019050919050565b60006118428261154a565b915061184d8361154a565b92508282039050818111156118655761186461171b565b5b92915050565b7f4e487b7100000000000000000000000000000000000000000000000000000000600052601260045260246000fd5b60006118a58261154a565b91506118b08361154a565b9250826118c0576118bf61186b565b5b82820490509291505056fea2646970667358221220bc60eb32fab5014c5878bdcff83806ba23a9353bf60ed10e8d47d5cb20324a5d64736f6c63430008140033","opcodes":"PUSH1 0x80 PUSH1 0x40 MSTORE CALLVALUE DUP1 ISZERO PUSH2 0x10 JUMPI PUSH1 0x0 DUP1 REVERT JUMPDEST POP PUSH2 0x1901 DUP1 PUSH2 0x20 PUSH1 0x0 CODECOPY PUSH1 0x0 RETURN INVALID PUSH1 0x80 PUSH1 0x40 MSTORE CALLVALUE DUP1 ISZERO PUSH2 0x10 JUMPI PUSH1 0x0 DUP1 REVERT JUMPDEST POP PUSH1 0x4 CALLDATASIZE LT PUSH2 0x57 JUMPI PUSH1 0x0 CALLDATALOAD PUSH1 0xE0 SHR DUP1 PUSH4 0x3ACAA99 EQ PUSH2 0x5C JUMPI DUP1 PUSH4 0x14EFF2EC EQ PUSH2 0x7A JUMPI DUP1 PUSH4 0x3CBE5EC1 EQ PUSH2 0xAA JUMPI DUP1 PUSH4 0x7F26CDB4 EQ PUSH2 0xC8 JUMPI DUP1 PUSH4 0xF84A2730 EQ PUSH2 0xF8 JUMPI JUMPDEST PUSH1 0x0 DUP1 REVERT JUMPDEST PUSH2 0x64 PUSH2 0x128 JUMP JUMPDEST PUSH1 0x40 MLOAD PUSH2 0x71 SWAP2 SWAP1 PUSH2 0x1563 JUMP JUMPDEST PUSH1 0x40 MLOAD DUP1 SWAP2 SUB SWAP1 RETURN JUMPDEST PUSH2 0x94 PUSH1 0x4 DUP1 CALLDATASIZE SUB DUP2 ADD SWAP1 PUSH2 0x8F SWAP2 SWAP1 PUSH2 0x15ED JUMP JUMPDEST PUSH2 0x12E JUMP JUMPDEST PUSH1 0x40 MLOAD PUSH2 0xA1 SWAP2 SWAP1 PUSH2 0x16CA JUMP JUMPDEST PUSH1 0x40 MLOAD DUP1 SWAP2 SUB SWAP1 RETURN JUMPDEST PUSH2 0xB2 PUSH2 0x7AB JUMP JUMPDEST PUSH1 0x40 MLOAD PUSH2 0xBF SWAP2 SWAP1 PUSH2 0x1563 JUMP JUMPDEST PUSH1 0x40 MLOAD DUP1 SWAP2 SUB SWAP1 RETURN JUMPDEST PUSH2 0xE2 PUSH1 0x4 DUP1 CALLDATASIZE SUB DUP2 ADD SWAP1 PUSH2 0xDD SWAP2 SWAP1 PUSH2 0x15ED JUMP JUMPDEST PUSH2 0x7B1 JUMP JUMPDEST PUSH1 0x40 MLOAD PUSH2 0xEF SWAP2 SWAP1 PUSH2 0x16CA JUMP JUMPDEST PUSH1 0x40 MLOAD DUP1 SWAP2 SUB SWAP1 RETURN JUMPDEST PUSH2 0x112 PUSH1 0x4 DUP1 CALLDATASIZE SUB DUP2 ADD SWAP1 PUSH2 0x10D SWAP2 SWAP1 PUSH2 0x15ED JUMP JUMPDEST PUSH2 0x10CC JUMP JUMPDEST PUSH1 0x40 MLOAD PUSH2 0x11F SWAP2 SWAP1 PUSH2 0x16CA JUMP JUMPDEST PUSH1 0x40 MLOAD DUP1 SWAP2 SUB SWAP1 RETURN JUMPDEST PUSH2 0x1388 DUP2 JUMP JUMPDEST PUSH1 0x60 PUSH1 0x6 DUP4 DUP4 SWAP1 POP LT ISZERO PUSH2 0x153 JUMPI PUSH1 0x40 MLOAD DUP1 PUSH1 0x20 ADD PUSH1 0x40 MSTORE DUP1 PUSH1 0x0 DUP2 MSTORE POP SWAP1 POP PUSH2 0x7A5 JUMP JUMPDEST PUSH1 0x0 PUSH2 0x17B DUP5 DUP5 PUSH1 0x0 DUP2 DUP2 LT PUSH2 0x16C JUMPI PUSH2 0x16B PUSH2 0x16EC JUMP JUMPDEST JUMPDEST SWAP1 POP ADD CALLDATALOAD PUSH1 0xF8 SHR PUSH1 0xF8 SHL PUSH2 0x153A JUMP JUMPDEST SWAP1 POP PUSH1 0x0 PUSH1 0x2 PUSH1 0x4 DUP4 PUSH2 0x18E SWAP2 SWAP1 PUSH2 0x174A JUMP JUMPDEST PUSH1 0x4 PUSH2 0x19A SWAP2 SWAP1 PUSH2 0x178C JUMP JUMPDEST PUSH2 0x1A4 SWAP2 SWAP1 PUSH2 0x178C JUMP JUMPDEST SWAP1 POP DUP1 DUP6 DUP6 SWAP1 POP LT ISZERO PUSH2 0x1CA JUMPI PUSH1 0x40 MLOAD DUP1 PUSH1 0x20 ADD PUSH1 0x40 MSTORE DUP1 PUSH1 0x0 DUP2 MSTORE POP SWAP3 POP POP POP PUSH2 0x7A5 JUMP JUMPDEST PUSH1 0x0 DUP3 PUSH8 0xFFFFFFFFFFFFFFFF DUP2 GT ISZERO PUSH2 0x1E6 JUMPI PUSH2 0x1E5 PUSH2 0x17C0 JUMP JUMPDEST JUMPDEST PUSH1 0x40 MLOAD SWAP1 DUP1 DUP3 MSTORE DUP1 PUSH1 0x20 MUL PUSH1 0x20 ADD DUP3 ADD PUSH1 0x40 MSTORE DUP1 ISZERO PUSH2 0x214 JUMPI DUP2 PUSH1 0x20 ADD PUSH1 0x20 DUP3 MUL DUP1 CALLDATASIZE DUP4 CALLDATACOPY DUP1 DUP3 ADD SWAP2 POP POP SWAP1 POP JUMPDEST POP SWAP1 POP PUSH1 0x0 DUP4 PUSH8 0xFFFFFFFFFFFFFFFF DUP2 GT ISZERO PUSH2 0x233 JUMPI PUSH2 0x232 PUSH2 0x17C0 JUMP JUMPDEST JUMPDEST PUSH1 0x40 MLOAD SWAP1 DUP1 DUP3 MSTORE DUP1 PUSH1 0x20 MUL PUSH1 0x20 ADD DUP3 ADD PUSH1 0x40 MSTORE DUP1 ISZERO PUSH2 0x261 JUMPI DUP2 PUSH1 0x20 ADD PUSH1 0x20 DUP3 MUL DUP1 CALLDATASIZE DUP4 CALLDATACOPY DUP1 DUP3 ADD SWAP2 POP POP SWAP1 POP JUMPDEST POP SWAP1 POP PUSH1 0x0 JUMPDEST DUP5 DUP2 LT ISZERO PUSH2 0x32C JUMPI PUSH1 0x8 PUSH2 0x2BA DUP10 DUP10 PUSH1 0x1 PUSH1 0x2 DUP7 PUSH2 0x285 SWAP2 SWAP1 PUSH2 0x174A JUMP JUMPDEST PUSH1 0x4 PUSH2 0x291 SWAP2 SWAP1 PUSH2 0x178C JUMP JUMPDEST PUSH2 0x29B SWAP2 SWAP1 PUSH2 0x178C JUMP JUMPDEST DUP2 DUP2 LT PUSH2 0x2AB JUMPI PUSH2 0x2AA PUSH2 0x16EC JUMP JUMPDEST JUMPDEST SWAP1 POP ADD CALLDATALOAD PUSH1 0xF8 SHR PUSH1 0xF8 SHL PUSH2 0x153A JUMP JUMPDEST SWAP1 SHL PUSH2 0x2F9 DUP10 DUP10 PUSH1 0x2 DUP6 PUSH2 0x2CE SWAP2 SWAP1 PUSH2 0x174A JUMP JUMPDEST PUSH1 0x4 PUSH2 0x2DA SWAP2 SWAP1 PUSH2 0x178C JUMP JUMPDEST DUP2 DUP2 LT PUSH2 0x2EA JUMPI PUSH2 0x2E9 PUSH2 0x16EC JUMP JUMPDEST JUMPDEST SWAP1 POP ADD CALLDATALOAD PUSH1 0xF8 SHR PUSH1 0xF8 SHL PUSH2 0x153A JUMP JUMPDEST OR DUP4 DUP3 DUP2 MLOAD DUP2 LT PUSH2 0x30D JUMPI PUSH2 0x30C PUSH2 0x16EC JUMP JUMPDEST JUMPDEST PUSH1 0x20 MUL PUSH1 0x20 ADD ADD DUP2 DUP2 MSTORE POP POP DUP1 DUP1 PUSH2 0x324 SWAP1 PUSH2 0x17EF JUMP JUMPDEST SWAP2 POP POP PUSH2 0x267 JUMP JUMPDEST POP PUSH1 0x0 JUMPDEST DUP5 DUP2 LT ISZERO PUSH2 0x423 JUMPI PUSH1 0x8 PUSH2 0x39A DUP10 DUP10 PUSH1 0x1 PUSH1 0x2 DUP7 PUSH2 0x34E SWAP2 SWAP1 PUSH2 0x174A JUMP JUMPDEST PUSH1 0x2 DUP12 PUSH2 0x35B SWAP2 SWAP1 PUSH2 0x174A JUMP JUMPDEST PUSH1 0x4 PUSH2 0x367 SWAP2 SWAP1 PUSH2 0x178C JUMP JUMPDEST PUSH2 0x371 SWAP2 SWAP1 PUSH2 0x178C JUMP JUMPDEST PUSH2 0x37B SWAP2 SWAP1 PUSH2 0x178C JUMP JUMPDEST DUP2 DUP2 LT PUSH2 0x38B JUMPI PUSH2 0x38A PUSH2 0x16EC JUMP JUMPDEST JUMPDEST SWAP1 POP ADD CALLDATALOAD PUSH1 0xF8 SHR PUSH1 0xF8 SHL PUSH2 0x153A JUMP JUMPDEST SWAP1 SHL PUSH2 0x3F0 DUP10 DUP10 PUSH1 0x2 DUP6 PUSH2 0x3AE SWAP2 SWAP1 PUSH2 0x174A JUMP JUMPDEST PUSH1 0x2 DUP11 PUSH2 0x3BB SWAP2 SWAP1 PUSH2 0x174A JUMP JUMPDEST PUSH1 0x4 PUSH2 0x3C7 SWAP2 SWAP1 PUSH2 0x178C JUMP JUMPDEST PUSH2 0x3D1 SWAP2 SWAP1 PUSH2 0x178C JUMP JUMPDEST DUP2 DUP2 LT PUSH2 0x3E1 JUMPI PUSH2 0x3E0 PUSH2 0x16EC JUMP JUMPDEST JUMPDEST SWAP1 POP ADD CALLDATALOAD PUSH1 0xF8 SHR PUSH1 0xF8 SHL PUSH2 0x153A JUMP JUMPDEST OR DUP3 DUP3 DUP2 MLOAD DUP2 LT PUSH2 0x404 JUMPI PUSH2 0x403 PUSH2 0x16EC JUMP JUMPDEST JUMPDEST PUSH1 0x20 MUL PUSH1 0x20 ADD ADD DUP2 DUP2 MSTORE POP POP DUP1 DUP1 PUSH2 0x41B SWAP1 PUSH2 0x17EF JUMP JUMPDEST SWAP2 POP POP PUSH2 0x330 JUMP JUMPDEST POP PUSH1 0x0 PUSH1 0x8 PUSH2 0x471 DUP10 DUP10 PUSH1 0x1 PUSH1 0x4 DUP11 PUSH2 0x43C SWAP2 SWAP1 PUSH2 0x174A JUMP JUMPDEST PUSH1 0x4 PUSH2 0x448 SWAP2 SWAP1 PUSH2 0x178C JUMP JUMPDEST PUSH2 0x452 SWAP2 SWAP1 PUSH2 0x178C JUMP JUMPDEST DUP2 DUP2 LT PUSH2 0x462 JUMPI PUSH2 0x461 PUSH2 0x16EC JUMP JUMPDEST JUMPDEST SWAP1 POP ADD CALLDATALOAD PUSH1 0xF8 SHR PUSH1 0xF8 SHL PUSH2 0x153A JUMP JUMPDEST SWAP1 SHL PUSH2 0x4B0 DUP10 DUP10 PUSH1 0x4 DUP10 PUSH2 0x485 SWAP2 SWAP1 PUSH2 0x174A JUMP JUMPDEST PUSH1 0x4 PUSH2 0x491 SWAP2 SWAP1 PUSH2 0x178C JUMP JUMPDEST DUP2 DUP2 LT PUSH2 0x4A1 JUMPI PUSH2 0x4A0 PUSH2 0x16EC JUMP JUMPDEST JUMPDEST SWAP1 POP ADD CALLDATALOAD PUSH1 0xF8 SHR PUSH1 0xF8 SHL PUSH2 0x153A JUMP JUMPDEST OR SWAP1 POP PUSH1 0x0 DUP1 JUMPDEST DUP7 DUP2 LT ISZERO PUSH2 0x5AA JUMPI PUSH1 0x0 DUP5 DUP3 DUP2 MLOAD DUP2 LT PUSH2 0x4D4 JUMPI PUSH2 0x4D3 PUSH2 0x16EC JUMP JUMPDEST JUMPDEST PUSH1 0x20 MUL PUSH1 0x20 ADD ADD MLOAD DUP7 DUP4 DUP2 MLOAD DUP2 LT PUSH2 0x4EF JUMPI PUSH2 0x4EE PUSH2 0x16EC JUMP JUMPDEST JUMPDEST PUSH1 0x20 MUL PUSH1 0x20 ADD ADD MLOAD GT PUSH2 0x541 JUMPI DUP6 DUP3 DUP2 MLOAD DUP2 LT PUSH2 0x50F JUMPI PUSH2 0x50E PUSH2 0x16EC JUMP JUMPDEST JUMPDEST PUSH1 0x20 MUL PUSH1 0x20 ADD ADD MLOAD DUP6 DUP4 DUP2 MLOAD DUP2 LT PUSH2 0x52A JUMPI PUSH2 0x529 PUSH2 0x16EC JUMP JUMPDEST JUMPDEST PUSH1 0x20 MUL PUSH1 0x20 ADD ADD MLOAD PUSH2 0x53C SWAP2 SWAP1 PUSH2 0x1837 JUMP JUMPDEST PUSH2 0x582 JUMP JUMPDEST DUP5 DUP3 DUP2 MLOAD DUP2 LT PUSH2 0x554 JUMPI PUSH2 0x553 PUSH2 0x16EC JUMP JUMPDEST JUMPDEST PUSH1 0x20 MUL PUSH1 0x20 ADD ADD MLOAD DUP7 DUP4 DUP2 MLOAD DUP2 LT PUSH2 0x56F JUMPI PUSH2 0x56E PUSH2 0x16EC JUMP JUMPDEST JUMPDEST PUSH1 0x20 MUL PUSH1 0x20 ADD ADD MLOAD PUSH2 0x581 SWAP2 SWAP1 PUSH2 0x1837 JUMP JUMPDEST JUMPDEST SWAP1 POP DUP4 DUP2 GT ISZERO PUSH2 0x596 JUMPI PUSH1 0x1 SWAP3 POP POP PUSH2 0x5AA JUMP JUMPDEST POP DUP1 DUP1 PUSH2 0x5A2 SWAP1 PUSH2 0x17EF JUMP JUMPDEST SWAP2 POP POP PUSH2 0x4B7 JUMP JUMPDEST POP PUSH1 0x0 PUSH1 0x2 DUP8 PUSH2 0x5BA SWAP2 SWAP1 PUSH2 0x174A JUMP JUMPDEST PUSH1 0x1 PUSH2 0x5C6 SWAP2 SWAP1 PUSH2 0x178C JUMP JUMPDEST PUSH8 0xFFFFFFFFFFFFFFFF DUP2 GT ISZERO PUSH2 0x5DF JUMPI PUSH2 0x5DE PUSH2 0x17C0 JUMP JUMPDEST JUMPDEST PUSH1 0x40 MLOAD SWAP1 DUP1 DUP3 MSTORE DUP1 PUSH1 0x1F ADD PUSH1 0x1F NOT AND PUSH1 0x20 ADD DUP3 ADD PUSH1 0x40 MSTORE DUP1 ISZERO PUSH2 0x611 JUMPI DUP2 PUSH1 0x20 ADD PUSH1 0x1 DUP3 MUL DUP1 CALLDATASIZE DUP4 CALLDATACOPY DUP1 DUP3 ADD SWAP2 POP POP SWAP1 POP JUMPDEST POP SWAP1 POP DUP2 PUSH2 0x620 JUMPI PUSH1 0x0 PUSH2 0x623 JUMP JUMPDEST PUSH1 0x1 JUMPDEST PUSH1 0xF8 SHL DUP2 PUSH1 0x0 DUP2 MLOAD DUP2 LT PUSH2 0x63A JUMPI PUSH2 0x639 PUSH2 0x16EC JUMP JUMPDEST JUMPDEST PUSH1 0x20 ADD ADD SWAP1 PUSH31 0xFFFFFFFFFFFFFFFFFFFFFFFFFFFFFFFFFFFFFFFFFFFFFFFFFFFFFFFFFFFFFF NOT AND SWAP1 DUP2 PUSH1 0x0 BYTE SWAP1 MSTORE8 POP PUSH1 0x0 DUP3 PUSH2 0x676 JUMPI DUP6 PUSH2 0x678 JUMP JUMPDEST DUP5 JUMPDEST SWAP1 POP PUSH1 0x0 JUMPDEST DUP9 DUP2 LT ISZERO PUSH2 0x798 JUMPI DUP2 DUP2 DUP2 MLOAD DUP2 LT PUSH2 0x698 JUMPI PUSH2 0x697 PUSH2 0x16EC JUMP JUMPDEST JUMPDEST PUSH1 0x20 MUL PUSH1 0x20 ADD ADD MLOAD PUSH1 0xF8 SHL DUP4 PUSH1 0x2 DUP4 PUSH2 0x6B1 SWAP2 SWAP1 PUSH2 0x174A JUMP JUMPDEST PUSH1 0x1 PUSH2 0x6BD SWAP2 SWAP1 PUSH2 0x178C JUMP JUMPDEST DUP2 MLOAD DUP2 LT PUSH2 0x6CE JUMPI PUSH2 0x6CD PUSH2 0x16EC JUMP JUMPDEST JUMPDEST PUSH1 0x20 ADD ADD SWAP1 PUSH31 0xFFFFFFFFFFFFFFFFFFFFFFFFFFFFFFFFFFFFFFFFFFFFFFFFFFFFFFFFFFFFFF NOT AND SWAP1 DUP2 PUSH1 0x0 BYTE SWAP1 MSTORE8 POP PUSH1 0x8 DUP3 DUP3 DUP2 MLOAD DUP2 LT PUSH2 0x712 JUMPI PUSH2 0x711 PUSH2 0x16EC JUMP JUMPDEST JUMPDEST PUSH1 0x20 MUL PUSH1 0x20 ADD ADD MLOAD SWAP1 SHR PUSH1 0xF8 SHL DUP4 PUSH1 0x1 PUSH1 0x2 DUP5 PUSH2 0x72F SWAP2 SWAP1 PUSH2 0x174A JUMP JUMPDEST PUSH1 0x1 PUSH2 0x73B SWAP2 SWAP1 PUSH2 0x178C JUMP JUMPDEST PUSH2 0x745 SWAP2 SWAP1 PUSH2 0x178C JUMP JUMPDEST DUP2 MLOAD DUP2 LT PUSH2 0x756 JUMPI PUSH2 0x755 PUSH2 0x16EC JUMP JUMPDEST JUMPDEST PUSH1 0x20 ADD ADD SWAP1 PUSH31 0xFFFFFFFFFFFFFFFFFFFFFFFFFFFFFFFFFFFFFFFFFFFFFFFFFFFFFFFFFFFFFF NOT AND SWAP1 DUP2 PUSH1 0x0 BYTE SWAP1 MSTORE8 POP DUP1 DUP1 PUSH2 0x790 SWAP1 PUSH2 0x17EF JUMP JUMPDEST SWAP2 POP POP PUSH2 0x67D JUMP JUMPDEST POP DUP2 SWAP9 POP POP POP POP POP POP POP POP POP JUMPDEST SWAP3 SWAP2 POP POP JUMP JUMPDEST PUSH2 0x3E8 DUP2 JUMP JUMPDEST PUSH1 0x60 PUSH1 0x4 DUP4 DUP4 SWAP1 POP LT ISZERO PUSH2 0x7D6 JUMPI PUSH1 0x40 MLOAD DUP1 PUSH1 0x20 ADD PUSH1 0x40 MSTORE DUP1 PUSH1 0x0 DUP2 MSTORE POP SWAP1 POP PUSH2 0x10C6 JUMP JUMPDEST PUSH1 0x0 PUSH2 0x7FE DUP5 DUP5 PUSH1 0x0 DUP2 DUP2 LT PUSH2 0x7EF JUMPI PUSH2 0x7EE PUSH2 0x16EC JUMP JUMPDEST JUMPDEST SWAP1 POP ADD CALLDATALOAD PUSH1 0xF8 SHR PUSH1 0xF8 SHL PUSH2 0x153A JUMP JUMPDEST SWAP1 POP PUSH1 0x8 DUP2 PUSH2 0x80D SWAP2 SWAP1 PUSH2 0x174A JUMP JUMPDEST PUSH1 0x4 PUSH2 0x819 SWAP2 SWAP1 PUSH2 0x178C JUMP JUMPDEST DUP5 DUP5 SWAP1 POP LT ISZERO PUSH2 0x83B JUMPI PUSH1 0x40 MLOAD DUP1 PUSH1 0x20 ADD PUSH1 0x40 MSTORE DUP1 PUSH1 0x0 DUP2 MSTORE POP SWAP2 POP POP PUSH2 0x10C6 JUMP JUMPDEST PUSH1 0x0 DUP2 PUSH8 0xFFFFFFFFFFFFFFFF DUP2 GT ISZERO PUSH2 0x857 JUMPI PUSH2 0x856 PUSH2 0x17C0 JUMP JUMPDEST JUMPDEST PUSH1 0x40 MLOAD SWAP1 DUP1 DUP3 MSTORE DUP1 PUSH1 0x20 MUL PUSH1 0x20 ADD DUP3 ADD PUSH1 0x40 MSTORE DUP1 ISZERO PUSH2 0x885 JUMPI DUP2 PUSH1 0x20 ADD PUSH1 0x20 DUP3 MUL DUP1 CALLDATASIZE DUP4 CALLDATACOPY DUP1 DUP3 ADD SWAP2 POP POP SWAP1 POP JUMPDEST POP SWAP1 POP PUSH1 0x0 DUP3 PUSH8 0xFFFFFFFFFFFFFFFF DUP2 GT ISZERO PUSH2 0x8A4 JUMPI PUSH2 0x8A3 PUSH2 0x17C0 JUMP JUMPDEST JUMPDEST PUSH1 0x40 MLOAD SWAP1 DUP1 DUP3 MSTORE DUP1 PUSH1 0x20 MUL PUSH1 0x20 ADD DUP3 ADD PUSH1 0x40 MSTORE DUP1 ISZERO PUSH2 0x8D2 JUMPI DUP2 PUSH1 0x20 ADD PUSH1 0x20 DUP3 MUL DUP1 CALLDATASIZE DUP4 CALLDATACOPY DUP1 DUP3 ADD SWAP2 POP POP SWAP1 POP JUMPDEST POP SWAP1 POP PUSH1 0x0 JUMPDEST DUP4 DUP2 LT ISZERO PUSH2 0xA39 JUMPI PUSH1 0x18 PUSH2 0x92B DUP9 DUP9 PUSH1 0x3 PUSH1 0x4 DUP7 PUSH2 0x8F6 SWAP2 SWAP1 PUSH2 0x174A JUMP JUMPDEST PUSH1 0x4 PUSH2 0x902 SWAP2 SWAP1 PUSH2 0x178C JUMP JUMPDEST PUSH2 0x90C SWAP2 SWAP1 PUSH2 0x178C JUMP JUMPDEST DUP2 DUP2 LT PUSH2 0x91C JUMPI PUSH2 0x91B PUSH2 0x16EC JUMP JUMPDEST JUMPDEST SWAP1 POP ADD CALLDATALOAD PUSH1 0xF8 SHR PUSH1 0xF8 SHL PUSH2 0x153A JUMP JUMPDEST SWAP1 SHL PUSH1 0x10 PUSH2 0x978 DUP10 DUP10 PUSH1 0x2 PUSH1 0x4 DUP8 PUSH2 0x943 SWAP2 SWAP1 PUSH2 0x174A JUMP JUMPDEST PUSH1 0x4 PUSH2 0x94F SWAP2 SWAP1 PUSH2 0x178C JUMP JUMPDEST PUSH2 0x959 SWAP2 SWAP1 PUSH2 0x178C JUMP JUMPDEST DUP2 DUP2 LT PUSH2 0x969 JUMPI PUSH2 0x968 PUSH2 0x16EC JUMP JUMPDEST JUMPDEST SWAP1 POP ADD CALLDATALOAD PUSH1 0xF8 SHR PUSH1 0xF8 SHL PUSH2 0x153A JUMP JUMPDEST SWAP1 SHL PUSH1 0x8 PUSH2 0x9C5 DUP11 DUP11 PUSH1 0x1 PUSH1 0x4 DUP9 PUSH2 0x990 SWAP2 SWAP1 PUSH2 0x174A JUMP JUMPDEST PUSH1 0x4 PUSH2 0x99C SWAP2 SWAP1 PUSH2 0x178C JUMP JUMPDEST PUSH2 0x9A6 SWAP2 SWAP1 PUSH2 0x178C JUMP JUMPDEST DUP2 DUP2 LT PUSH2 0x9B6 JUMPI PUSH2 0x9B5 PUSH2 0x16EC JUMP JUMPDEST JUMPDEST SWAP1 POP ADD CALLDATALOAD PUSH1 0xF8 SHR PUSH1 0xF8 SHL PUSH2 0x153A JUMP JUMPDEST SWAP1 SHL PUSH2 0xA04 DUP11 DUP11 PUSH1 0x4 DUP8 PUSH2 0x9D9 SWAP2 SWAP1 PUSH2 0x174A JUMP JUMPDEST PUSH1 0x4 PUSH2 0x9E5 SWAP2 SWAP1 PUSH2 0x178C JUMP JUMPDEST DUP2 DUP2 LT PUSH2 0x9F5 JUMPI PUSH2 0x9F4 PUSH2 0x16EC JUMP JUMPDEST JUMPDEST SWAP1 POP ADD CALLDATALOAD PUSH1 0xF8 SHR PUSH1 0xF8 SHL PUSH2 0x153A JUMP JUMPDEST OR OR OR DUP4 DUP3 DUP2 MLOAD DUP2 LT PUSH2 0xA1A JUMPI PUSH2 0xA19 PUSH2 0x16EC JUMP JUMPDEST JUMPDEST PUSH1 0x20 MUL PUSH1 0x20 ADD ADD DUP2 DUP2 MSTORE POP POP DUP1 DUP1 PUSH2 0xA31 SWAP1 PUSH2 0x17EF JUMP JUMPDEST SWAP2 POP POP PUSH2 0x8D8 JUMP JUMPDEST POP PUSH1 0x0 JUMPDEST DUP4 DUP2 LT ISZERO PUSH2 0xBFA JUMPI PUSH1 0x18 PUSH2 0xAA7 DUP9 DUP9 PUSH1 0x3 PUSH1 0x4 DUP7 PUSH2 0xA5B SWAP2 SWAP1 PUSH2 0x174A JUMP JUMPDEST PUSH1 0x4 DUP11 PUSH2 0xA68 SWAP2 SWAP1 PUSH2 0x174A JUMP JUMPDEST PUSH1 0x4 PUSH2 0xA74 SWAP2 SWAP1 PUSH2 0x178C JUMP JUMPDEST PUSH2 0xA7E SWAP2 SWAP1 PUSH2 0x178C JUMP JUMPDEST PUSH2 0xA88 SWAP2 SWAP1 PUSH2 0x178C JUMP JUMPDEST DUP2 DUP2 LT PUSH2 0xA98 JUMPI PUSH2 0xA97 PUSH2 0x16EC JUMP JUMPDEST JUMPDEST SWAP1 POP ADD CALLDATALOAD PUSH1 0xF8 SHR PUSH1 0xF8 SHL PUSH2 0x153A JUMP JUMPDEST SWAP1 SHL PUSH1 0x10 PUSH2 0xB0B DUP10 DUP10 PUSH1 0x2 PUSH1 0x4 DUP8 PUSH2 0xABF SWAP2 SWAP1 PUSH2 0x174A JUMP JUMPDEST PUSH1 0x4 DUP12 PUSH2 0xACC SWAP2 SWAP1 PUSH2 0x174A JUMP JUMPDEST PUSH1 0x4 PUSH2 0xAD8 SWAP2 SWAP1 PUSH2 0x178C JUMP JUMPDEST PUSH2 0xAE2 SWAP2 SWAP1 PUSH2 0x178C JUMP JUMPDEST PUSH2 0xAEC SWAP2 SWAP1 PUSH2 0x178C JUMP JUMPDEST DUP2 DUP2 LT PUSH2 0xAFC JUMPI PUSH2 0xAFB PUSH2 0x16EC JUMP JUMPDEST JUMPDEST SWAP1 POP ADD CALLDATALOAD PUSH1 0xF8 SHR PUSH1 0xF8 SHL PUSH2 0x153A JUMP JUMPDEST SWAP1 SHL PUSH1 0x8 PUSH2 0xB6F DUP11 DUP11 PUSH1 0x1 PUSH1 0x4 DUP9 PUSH2 0xB23 SWAP2 SWAP1 PUSH2 0x174A JUMP JUMPDEST PUSH1 0x4 DUP13 PUSH2 0xB30 SWAP2 SWAP1 PUSH2 0x174A JUMP JUMPDEST PUSH1 0x4 PUSH2 0xB3C SWAP2 SWAP1 PUSH2 0x178C JUMP JUMPDEST PUSH2 0xB46 SWAP2 SWAP1 PUSH2 0x178C JUMP JUMPDEST PUSH2 0xB50 SWAP2 SWAP1 PUSH2 0x178C JUMP JUMPDEST DUP2 DUP2 LT PUSH2 0xB60 JUMPI PUSH2 0xB5F PUSH2 0x16EC JUMP JUMPDEST JUMPDEST SWAP1 POP ADD CALLDATALOAD PUSH1 0xF8 SHR PUSH1 0xF8 SHL PUSH2 0x153A JUMP JUMPDEST SWAP1 SHL PUSH2 0xBC5 DUP11 DUP11 PUSH1 0x4 DUP8 PUSH2 0xB83 SWAP2 SWAP1 PUSH2 0x174A JUMP JUMPDEST PUSH1 0x4 DUP12 PUSH2 0xB90 SWAP2 SWAP1 PUSH2 0x174A JUMP JUMPDEST PUSH1 0x4 PUSH2 0xB9C SWAP2 SWAP1 PUSH2 0x178C JUMP JUMPDEST PUSH2 0xBA6 SWAP2 SWAP1 PUSH2 0x178C JUMP JUMPDEST DUP2 DUP2 LT PUSH2 0xBB6 JUMPI PUSH2 0xBB5 PUSH2 0x16EC JUMP JUMPDEST JUMPDEST SWAP1 POP ADD CALLDATALOAD PUSH1 0xF8 SHR PUSH1 0xF8 SHL PUSH2 0x153A JUMP JUMPDEST OR OR OR DUP3 DUP3 DUP2 MLOAD DUP2 LT PUSH2 0xBDB JUMPI PUSH2 0xBDA PUSH2 0x16EC JUMP JUMPDEST JUMPDEST PUSH1 0x20 MUL PUSH1 0x20 ADD ADD DUP2 DUP2 MSTORE POP POP DUP1 DUP1 PUSH2 0xBF2 SWAP1 PUSH2 0x17EF JUMP JUMPDEST SWAP2 POP POP PUSH2 0xA3D JUMP JUMPDEST POP PUSH1 0x0 DUP4 PUSH8 0xFFFFFFFFFFFFFFFF DUP2 GT ISZERO PUSH2 0xC17 JUMPI PUSH2 0xC16 PUSH2 0x17C0 JUMP JUMPDEST JUMPDEST PUSH1 0x40 MLOAD SWAP1 DUP1 DUP3 MSTORE DUP1 PUSH1 0x20 MUL PUSH1 0x20 ADD DUP3 ADD PUSH1 0x40 MSTORE DUP1 ISZERO PUSH2 0xC45 JUMPI DUP2 PUSH1 0x20 ADD PUSH1 0x20 DUP3 MUL DUP1 CALLDATASIZE DUP4 CALLDATACOPY DUP1 DUP3 ADD SWAP2 POP POP SWAP1 POP JUMPDEST POP SWAP1 POP PUSH1 0x0 JUMPDEST DUP5 DUP2 LT ISZERO PUSH2 0xCE5 JUMPI PUSH1 0x0 DUP4 DUP3 DUP2 MLOAD DUP2 LT PUSH2 0xC68 JUMPI PUSH2 0xC67 PUSH2 0x16EC JUMP JUMPDEST JUMPDEST PUSH1 0x20 MUL PUSH1 0x20 ADD ADD MLOAD PUSH2 0x2710 PUSH2 0xC7D SWAP2 SWAP1 PUSH2 0x178C JUMP JUMPDEST SWAP1 POP DUP1 PUSH2 0x2710 DUP7 DUP5 DUP2 MLOAD DUP2 LT PUSH2 0xC96 JUMPI PUSH2 0xC95 PUSH2 0x16EC JUMP JUMPDEST JUMPDEST PUSH1 0x20 MUL PUSH1 0x20 ADD ADD MLOAD PUSH2 0xCA8 SWAP2 SWAP1 PUSH2 0x174A JUMP JUMPDEST PUSH2 0xCB2 SWAP2 SWAP1 PUSH2 0x189A JUMP JUMPDEST DUP4 DUP4 DUP2 MLOAD DUP2 LT PUSH2 0xCC5 JUMPI PUSH2 0xCC4 PUSH2 0x16EC JUMP JUMPDEST JUMPDEST PUSH1 0x20 MUL PUSH1 0x20 ADD ADD DUP2 DUP2 MSTORE POP POP POP DUP1 DUP1 PUSH2 0xCDD SWAP1 PUSH2 0x17EF JUMP JUMPDEST SWAP2 POP POP PUSH2 0xC4B JUMP JUMPDEST POP PUSH1 0x0 PUSH1 0x8 DUP6 PUSH2 0xCF5 SWAP2 SWAP1 PUSH2 0x174A JUMP JUMPDEST PUSH8 0xFFFFFFFFFFFFFFFF DUP2 GT ISZERO PUSH2 0xD0E JUMPI PUSH2 0xD0D PUSH2 0x17C0 JUMP JUMPDEST JUMPDEST PUSH1 0x40 MLOAD SWAP1 DUP1 DUP3 MSTORE DUP1 PUSH1 0x1F ADD PUSH1 0x1F NOT AND PUSH1 0x20 ADD DUP3 ADD PUSH1 0x40 MSTORE DUP1 ISZERO PUSH2 0xD40 JUMPI DUP2 PUSH1 0x20 ADD PUSH1 0x1 DUP3 MUL DUP1 CALLDATASIZE DUP4 CALLDATACOPY DUP1 DUP3 ADD SWAP2 POP POP SWAP1 POP JUMPDEST POP SWAP1 POP PUSH1 0x0 JUMPDEST DUP6 DUP2 LT ISZERO PUSH2 0x10BC JUMPI PUSH1 0x0 PUSH1 0xF8 SHL DUP3 PUSH1 0x8 DUP4 PUSH2 0xD61 SWAP2 SWAP1 PUSH2 0x174A JUMP JUMPDEST DUP2 MLOAD DUP2 LT PUSH2 0xD72 JUMPI PUSH2 0xD71 PUSH2 0x16EC JUMP JUMPDEST JUMPDEST PUSH1 0x20 ADD ADD SWAP1 PUSH31 0xFFFFFFFFFFFFFFFFFFFFFFFFFFFFFFFFFFFFFFFFFFFFFFFFFFFFFFFFFFFFFF NOT AND SWAP1 DUP2 PUSH1 0x0 BYTE SWAP1 MSTORE8 POP PUSH1 0x0 PUSH1 0xF8 SHL DUP3 PUSH1 0x1 PUSH1 0x8 DUP5 PUSH2 0xDB6 SWAP2 SWAP1 PUSH2 0x174A JUMP JUMPDEST PUSH2 0xDC0 SWAP2 SWAP1 PUSH2 0x178C JUMP JUMPDEST DUP2 MLOAD DUP2 LT PUSH2 0xDD1 JUMPI PUSH2 0xDD0 PUSH2 0x16EC JUMP JUMPDEST JUMPDEST PUSH1 0x20 ADD ADD SWAP1 PUSH31 0xFFFFFFFFFFFFFFFFFFFFFFFFFFFFFFFFFFFFFFFFFFFFFFFFFFFFFFFFFFFFFF NOT AND SWAP1 DUP2 PUSH1 0x0 BYTE SWAP1 MSTORE8 POP PUSH1 0x0 PUSH1 0xF8 SHL DUP3 PUSH1 0x2 PUSH1 0x8 DUP5 PUSH2 0xE15 SWAP2 SWAP1 PUSH2 0x174A JUMP JUMPDEST PUSH2 0xE1F SWAP2 SWAP1 PUSH2 0x178C JUMP JUMPDEST DUP2 MLOAD DUP2 LT PUSH2 0xE30 JUMPI PUSH2 0xE2F PUSH2 0x16EC JUMP JUMPDEST JUMPDEST PUSH1 0x20 ADD ADD SWAP1 PUSH31 0xFFFFFFFFFFFFFFFFFFFFFFFFFFFFFFFFFFFFFFFFFFFFFFFFFFFFFFFFFFFFFF NOT AND SWAP1 DUP2 PUSH1 0x0 BYTE SWAP1 MSTORE8 POP DUP1 PUSH1 0xF8 SHL DUP3 PUSH1 0x3 PUSH1 0x8 DUP5 PUSH2 0xE73 SWAP2 SWAP1 PUSH2 0x174A JUMP JUMPDEST PUSH2 0xE7D SWAP2 SWAP1 PUSH2 0x178C JUMP JUMPDEST DUP2 MLOAD DUP2 LT PUSH2 0xE8E JUMPI PUSH2 0xE8D PUSH2 0x16EC JUMP JUMPDEST JUMPDEST PUSH1 0x20 ADD ADD SWAP1 PUSH31 0xFFFFFFFFFFFFFFFFFFFFFFFFFFFFFFFFFFFFFFFFFFFFFFFFFFFFFFFFFFFFFF NOT AND SWAP1 DUP2 PUSH1 0x0 BYTE SWAP1 MSTORE8 POP DUP3 DUP2 DUP2 MLOAD DUP2 LT PUSH2 0xED0 JUMPI PUSH2 0xECF PUSH2 0x16EC JUMP JUMPDEST JUMPDEST PUSH1 0x20 MUL PUSH1 0x20 ADD ADD MLOAD PUSH1 0xF8 SHL DUP3 PUSH1 0x4 PUSH1 0x8 DUP5 PUSH2 0xEEB SWAP2 SWAP1 PUSH2 0x174A JUMP JUMPDEST PUSH2 0xEF5 SWAP2 SWAP1 PUSH2 0x178C JUMP JUMPDEST DUP2 MLOAD DUP2 LT PUSH2 0xF06 JUMPI PUSH2 0xF05 PUSH2 0x16EC JUMP JUMPDEST JUMPDEST PUSH1 0x20 ADD ADD SWAP1 PUSH31 0xFFFFFFFFFFFFFFFFFFFFFFFFFFFFFFFFFFFFFFFFFFFFFFFFFFFFFFFFFFFFFF NOT AND SWAP1 DUP2 PUSH1 0x0 BYTE SWAP1 MSTORE8 POP PUSH1 0x8 DUP4 DUP3 DUP2 MLOAD DUP2 LT PUSH2 0xF4A JUMPI PUSH2 0xF49 PUSH2 0x16EC JUMP JUMPDEST JUMPDEST PUSH1 0x20 MUL PUSH1 0x20 ADD ADD MLOAD SWAP1 SHR PUSH1 0xF8 SHL DUP3 PUSH1 0x5 PUSH1 0x8 DUP5 PUSH2 0xF67 SWAP2 SWAP1 PUSH2 0x174A JUMP JUMPDEST PUSH2 0xF71 SWAP2 SWAP1 PUSH2 0x178C JUMP JUMPDEST DUP2 MLOAD DUP2 LT PUSH2 0xF82 JUMPI PUSH2 0xF81 PUSH2 0x16EC JUMP JUMPDEST JUMPDEST PUSH1 0x20 ADD ADD SWAP1 PUSH31 0xFFFFFFFFFFFFFFFFFFFFFFFFFFFFFFFFFFFFFFFFFFFFFFFFFFFFFFFFFFFFFF NOT AND SWAP1 DUP2 PUSH1 0x0 BYTE SWAP1 MSTORE8 POP PUSH1 0x10 DUP4 DUP3 DUP2 MLOAD DUP2 LT PUSH2 0xFC6 JUMPI PUSH2 0xFC5 PUSH2 0x16EC JUMP JUMPDEST JUMPDEST PUSH1 0x20 MUL PUSH1 0x20 ADD ADD MLOAD SWAP1 SHR PUSH1 0xF8 SHL DUP3 PUSH1 0x6 PUSH1 0x8 DUP5 PUSH2 0xFE3 SWAP2 SWAP1 PUSH2 0x174A JUMP JUMPDEST PUSH2 0xFED SWAP2 SWAP1 PUSH2 0x178C JUMP JUMPDEST DUP2 MLOAD DUP2 LT PUSH2 0xFFE JUMPI PUSH2 0xFFD PUSH2 0x16EC JUMP JUMPDEST JUMPDEST PUSH1 0x20 ADD ADD SWAP1 PUSH31 0xFFFFFFFFFFFFFFFFFFFFFFFFFFFFFFFFFFFFFFFFFFFFFFFFFFFFFFFFFFFFFF NOT AND SWAP1 DUP2 PUSH1 0x0 BYTE SWAP1 MSTORE8 POP PUSH1 0x18 DUP4 DUP3 DUP2 MLOAD DUP2 LT PUSH2 0x1042 JUMPI PUSH2 0x1041 PUSH2 0x16EC JUMP JUMPDEST JUMPDEST PUSH1 0x20 MUL PUSH1 0x20 ADD ADD MLOAD SWAP1 SHR PUSH1 0xF8 SHL DUP3 PUSH1 0x7 PUSH1 0x8 DUP5 PUSH2 0x105F SWAP2 SWAP1 PUSH2 0x174A JUMP JUMPDEST PUSH2 0x1069 SWAP2 SWAP1 PUSH2 0x178C JUMP JUMPDEST DUP2 MLOAD DUP2 LT PUSH2 0x107A JUMPI PUSH2 0x1079 PUSH2 0x16EC JUMP JUMPDEST JUMPDEST PUSH1 0x20 ADD ADD SWAP1 PUSH31 0xFFFFFFFFFFFFFFFFFFFFFFFFFFFFFFFFFFFFFFFFFFFFFFFFFFFFFFFFFFFFFF NOT AND SWAP1 DUP2 PUSH1 0x0 BYTE SWAP1 MSTORE8 POP DUP1 DUP1 PUSH2 0x10B4 SWAP1 PUSH2 0x17EF JUMP JUMPDEST SWAP2 POP POP PUSH2 0xD46 JUMP JUMPDEST POP DUP1 SWAP6 POP POP POP POP POP POP JUMPDEST SWAP3 SWAP2 POP POP JUMP JUMPDEST PUSH1 0x60 PUSH1 0x4 DUP4 DUP4 SWAP1 POP LT ISZERO PUSH2 0x10F1 JUMPI PUSH1 0x40 MLOAD DUP1 PUSH1 0x20 ADD PUSH1 0x40 MSTORE DUP1 PUSH1 0x0 DUP2 MSTORE POP SWAP1 POP PUSH2 0x1534 JUMP JUMPDEST PUSH1 0x0 PUSH2 0x1119 DUP5 DUP5 PUSH1 0x0 DUP2 DUP2 LT PUSH2 0x110A JUMPI PUSH2 0x1109 PUSH2 0x16EC JUMP JUMPDEST JUMPDEST SWAP1 POP ADD CALLDATALOAD PUSH1 0xF8 SHR PUSH1 0xF8 SHL PUSH2 0x153A JUMP JUMPDEST SWAP1 POP PUSH1 0x0 DUP2 PUSH8 0xFFFFFFFFFFFFFFFF DUP2 GT ISZERO PUSH2 0x1137 JUMPI PUSH2 0x1136 PUSH2 0x17C0 JUMP JUMPDEST JUMPDEST PUSH1 0x40 MLOAD SWAP1 DUP1 DUP3 MSTORE DUP1 PUSH1 0x20 MUL PUSH1 0x20 ADD DUP3 ADD PUSH1 0x40 MSTORE DUP1 ISZERO PUSH2 0x1165 JUMPI DUP2 PUSH1 0x20 ADD PUSH1 0x20 DUP3 MUL DUP1 CALLDATASIZE DUP4 CALLDATACOPY DUP1 DUP3 ADD SWAP2 POP POP SWAP1 POP JUMPDEST POP SWAP1 POP PUSH1 0x0 JUMPDEST DUP3 DUP2 LT ISZERO PUSH2 0x11BF JUMPI PUSH1 0xC8 DUP2 PUSH2 0x1180 SWAP2 SWAP1 PUSH2 0x174A JUMP JUMPDEST PUSH2 0x320 PUSH2 0x118D SWAP2 SWAP1 PUSH2 0x178C JUMP JUMPDEST DUP3 DUP3 DUP2 MLOAD DUP2 LT PUSH2 0x11A0 JUMPI PUSH2 0x119F PUSH2 0x16EC JUMP JUMPDEST JUMPDEST PUSH1 0x20 MUL PUSH1 0x20 ADD ADD DUP2 DUP2 MSTORE POP POP DUP1 DUP1 PUSH2 0x11B7 SWAP1 PUSH2 0x17EF JUMP JUMPDEST SWAP2 POP POP PUSH2 0x116B JUMP JUMPDEST POP PUSH1 0x0 DUP1 JUMPDEST DUP4 DUP2 LT ISZERO PUSH2 0x1207 JUMPI DUP3 DUP2 DUP2 MLOAD DUP2 LT PUSH2 0x11DF JUMPI PUSH2 0x11DE PUSH2 0x16EC JUMP JUMPDEST JUMPDEST PUSH1 0x20 MUL PUSH1 0x20 ADD ADD MLOAD DUP3 PUSH2 0x11F2 SWAP2 SWAP1 PUSH2 0x178C JUMP JUMPDEST SWAP2 POP DUP1 DUP1 PUSH2 0x11FF SWAP1 PUSH2 0x17EF JUMP JUMPDEST SWAP2 POP POP PUSH2 0x11C4 JUMP JUMPDEST POP PUSH1 0x0 DUP2 SUB PUSH2 0x122A JUMPI PUSH1 0x40 MLOAD DUP1 PUSH1 0x20 ADD PUSH1 0x40 MSTORE DUP1 PUSH1 0x0 DUP2 MSTORE POP SWAP4 POP POP POP POP PUSH2 0x1534 JUMP JUMPDEST PUSH1 0x0 DUP4 PUSH8 0xFFFFFFFFFFFFFFFF DUP2 GT ISZERO PUSH2 0x1246 JUMPI PUSH2 0x1245 PUSH2 0x17C0 JUMP JUMPDEST JUMPDEST PUSH1 0x40 MLOAD SWAP1 DUP1 DUP3 MSTORE DUP1 PUSH1 0x20 MUL PUSH1 0x20 ADD DUP3 ADD PUSH1 0x40 MSTORE DUP1 ISZERO PUSH2 0x1274 JUMPI DUP2 PUSH1 0x20 ADD PUSH1 0x20 DUP3 MUL DUP1 CALLDATASIZE DUP4 CALLDATACOPY DUP1 DUP3 ADD SWAP2 POP POP SWAP1 POP JUMPDEST POP SWAP1 POP PUSH1 0x0 JUMPDEST DUP5 DUP2 LT ISZERO PUSH2 0x1311 JUMPI PUSH1 0x0 DUP4 PUSH2 0x2710 DUP7 DUP5 DUP2 MLOAD DUP2 LT PUSH2 0x129B JUMPI PUSH2 0x129A PUSH2 0x16EC JUMP JUMPDEST JUMPDEST PUSH1 0x20 MUL PUSH1 0x20 ADD ADD MLOAD PUSH2 0x12AD SWAP2 SWAP1 PUSH2 0x174A JUMP JUMPDEST PUSH2 0x12B7 SWAP2 SWAP1 PUSH2 0x189A JUMP JUMPDEST SWAP1 POP PUSH2 0x1388 DUP2 GT PUSH2 0x12DA JUMPI PUSH2 0x3E8 DUP2 LT PUSH2 0x12D1 JUMPI DUP1 PUSH2 0x12D5 JUMP JUMPDEST PUSH2 0x3E8 JUMPDEST PUSH2 0x12DE JUMP JUMPDEST PUSH2 0x1388 JUMPDEST DUP4 DUP4 DUP2 MLOAD DUP2 LT PUSH2 0x12F1 JUMPI PUSH2 0x12F0 PUSH2 0x16EC JUMP JUMPDEST JUMPDEST PUSH1 0x20 MUL PUSH1 0x20 ADD ADD DUP2 DUP2 MSTORE POP POP POP DUP1 DUP1 PUSH2 0x1309 SWAP1 PUSH2 0x17EF JUMP JUMPDEST SWAP2 POP POP PUSH2 0x127A JUMP JUMPDEST POP PUSH1 0x0 DUP1 JUMPDEST DUP6 DUP2 LT ISZERO PUSH2 0x1359 JUMPI DUP3 DUP2 DUP2 MLOAD DUP2 LT PUSH2 0x1331 JUMPI PUSH2 0x1330 PUSH2 0x16EC JUMP JUMPDEST JUMPDEST PUSH1 0x20 MUL PUSH1 0x20 ADD ADD MLOAD DUP3 PUSH2 0x1344 SWAP2 SWAP1 PUSH2 0x178C JUMP JUMPDEST SWAP2 POP DUP1 DUP1 PUSH2 0x1351 SWAP1 PUSH2 0x17EF JUMP JUMPDEST SWAP2 POP POP PUSH2 0x1316 JUMP JUMPDEST POP PUSH2 0x2710 DUP2 EQ ISZERO DUP1 ISZERO PUSH2 0x136C JUMPI POP PUSH1 0x0 DUP6 GT JUMPDEST ISZERO PUSH2 0x13C6 JUMPI DUP1 PUSH2 0x2710 PUSH2 0x137F SWAP2 SWAP1 PUSH2 0x1837 JUMP JUMPDEST DUP3 PUSH1 0x0 DUP2 MLOAD DUP2 LT PUSH2 0x1393 JUMPI PUSH2 0x1392 PUSH2 0x16EC JUMP JUMPDEST JUMPDEST PUSH1 0x20 MUL PUSH1 0x20 ADD ADD MLOAD PUSH2 0x13A5 SWAP2 SWAP1 PUSH2 0x178C JUMP JUMPDEST DUP3 PUSH1 0x0 DUP2 MLOAD DUP2 LT PUSH2 0x13B9 JUMPI PUSH2 0x13B8 PUSH2 0x16EC JUMP JUMPDEST JUMPDEST PUSH1 0x20 MUL PUSH1 0x20 ADD ADD DUP2 DUP2 MSTORE POP POP JUMPDEST PUSH1 0x0 PUSH1 0x2 DUP7 PUSH2 0x13D5 SWAP2 SWAP1 PUSH2 0x174A JUMP JUMPDEST PUSH8 0xFFFFFFFFFFFFFFFF DUP2 GT ISZERO PUSH2 0x13EE JUMPI PUSH2 0x13ED PUSH2 0x17C0 JUMP JUMPDEST JUMPDEST PUSH1 0x40 MLOAD SWAP1 DUP1 DUP3 MSTORE DUP1 PUSH1 0x1F ADD PUSH1 0x1F NOT AND PUSH1 0x20 ADD DUP3 ADD PUSH1 0x40 MSTORE DUP1 ISZERO PUSH2 0x1420 JUMPI DUP2 PUSH1 0x20 ADD PUSH1 0x1 DUP3 MUL DUP1 CALLDATASIZE DUP4 CALLDATACOPY DUP1 DUP3 ADD SWAP2 POP POP SWAP1 POP JUMPDEST POP SWAP1 POP PUSH1 0x0 JUMPDEST DUP7 DUP2 LT ISZERO PUSH2 0x1529 JUMPI DUP4 DUP2 DUP2 MLOAD DUP2 LT PUSH2 0x1441 JUMPI PUSH2 0x1440 PUSH2 0x16EC JUMP JUMPDEST JUMPDEST PUSH1 0x20 MUL PUSH1 0x20 ADD ADD MLOAD PUSH1 0xF8 SHL DUP3 PUSH1 0x2 DUP4 PUSH2 0x145A SWAP2 SWAP1 PUSH2 0x174A JUMP JUMPDEST DUP2 MLOAD DUP2 LT PUSH2 0x146B JUMPI PUSH2 0x146A PUSH2 0x16EC JUMP JUMPDEST JUMPDEST PUSH1 0x20 ADD ADD SWAP1 PUSH31 0xFFFFFFFFFFFFFFFFFFFFFFFFFFFFFFFFFFFFFFFFFFFFFFFFFFFFFFFFFFFFFF NOT AND SWAP1 DUP2 PUSH1 0x0 BYTE SWAP1 MSTORE8 POP PUSH1 0x8 DUP5 DUP3 DUP2 MLOAD DUP2 LT PUSH2 0x14AF JUMPI PUSH2 0x14AE PUSH2 0x16EC JUMP JUMPDEST JUMPDEST PUSH1 0x20 MUL PUSH1 0x20 ADD ADD MLOAD SWAP1 SHR PUSH1 0xF8 SHL DUP3 PUSH1 0x1 PUSH1 0x2 DUP5 PUSH2 0x14CC SWAP2 SWAP1 PUSH2 0x174A JUMP JUMPDEST PUSH2 0x14D6 SWAP2 SWAP1 PUSH2 0x178C JUMP JUMPDEST DUP2 MLOAD DUP2 LT PUSH2 0x14E7 JUMPI PUSH2 0x14E6 PUSH2 0x16EC JUMP JUMPDEST JUMPDEST PUSH1 0x20 ADD ADD SWAP1 PUSH31 0xFFFFFFFFFFFFFFFFFFFFFFFFFFFFFFFFFFFFFFFFFFFFFFFFFFFFFFFFFFFFFF NOT AND SWAP1 DUP2 PUSH1 0x0 BYTE SWAP1 MSTORE8 POP DUP1 DUP1 PUSH2 0x1521 SWAP1 PUSH2 0x17EF JUMP JUMPDEST SWAP2 POP POP PUSH2 0x1426 JUMP JUMPDEST POP DUP1 SWAP7 POP POP POP POP POP POP POP JUMPDEST SWAP3 SWAP2 POP POP JUMP JUMPDEST PUSH1 0x0 DUP2 PUSH1 0xF8 SHR PUSH1 0xFF AND SWAP1 POP SWAP2 SWAP1 POP JUMP JUMPDEST PUSH1 0x0 DUP2 SWAP1 POP SWAP2 SWAP1 POP JUMP JUMPDEST PUSH2 0x155D DUP2 PUSH2 0x154A JUMP JUMPDEST DUP3 MSTORE POP POP JUMP JUMPDEST PUSH1 0x0 PUSH1 0x20 DUP3 ADD SWAP1 POP PUSH2 0x1578 PUSH1 0x0 DUP4 ADD DUP5 PUSH2 0x1554 JUMP JUMPDEST SWAP3 SWAP2 POP POP JUMP JUMPDEST PUSH1 0x0 DUP1 REVERT JUMPDEST PUSH1 0x0 DUP1 REVERT JUMPDEST PUSH1 0x0 DUP1 REVERT JUMPDEST PUSH1 0x0 DUP1 REVERT JUMPDEST PUSH1 0x0 DUP1 REVERT JUMPDEST PUSH1 0x0 DUP1 DUP4 PUSH1 0x1F DUP5 ADD SLT PUSH2 0x15AD JUMPI PUSH2 0x15AC PUSH2 0x1588 JUMP JUMPDEST JUMPDEST DUP3 CALLDATALOAD SWAP1 POP PUSH8 0xFFFFFFFFFFFFFFFF DUP2 GT ISZERO PUSH2 0x15CA JUMPI PUSH2 0x15C9 PUSH2 0x158D JUMP JUMPDEST JUMPDEST PUSH1 0x20 DUP4 ADD SWAP2 POP DUP4 PUSH1 0x1 DUP3 MUL DUP4 ADD GT ISZERO PUSH2 0x15E6 JUMPI PUSH2 0x15E5 PUSH2 0x1592 JUMP JUMPDEST JUMPDEST SWAP3 POP SWAP3 SWAP1 POP JUMP JUMPDEST PUSH1 0x0 DUP1 PUSH1 0x20 DUP4 DUP6 SUB SLT ISZERO PUSH2 0x1604 JUMPI PUSH2 0x1603 PUSH2 0x157E JUMP JUMPDEST JUMPDEST PUSH1 0x0 DUP4 ADD CALLDATALOAD PUSH8 0xFFFFFFFFFFFFFFFF DUP2 GT ISZERO PUSH2 0x1622 JUMPI PUSH2 0x1621 PUSH2 0x1583 JUMP JUMPDEST JUMPDEST PUSH2 0x162E DUP6 DUP3 DUP7 ADD PUSH2 0x1597 JUMP JUMPDEST SWAP3 POP SWAP3 POP POP SWAP3 POP SWAP3 SWAP1 POP JUMP JUMPDEST PUSH1 0x0 DUP2 MLOAD SWAP1 POP SWAP2 SWAP1 POP JUMP JUMPDEST PUSH1 0x0 DUP3 DUP3 MSTORE PUSH1 0x20 DUP3 ADD SWAP1 POP SWAP3 SWAP2 POP POP JUMP JUMPDEST PUSH1 0x0 JUMPDEST DUP4 DUP2 LT ISZERO PUSH2 0x1674 JUMPI DUP1 DUP3 ADD MLOAD DUP2 DUP5 ADD MSTORE PUSH1 0x20 DUP2 ADD SWAP1 POP PUSH2 0x1659 JUMP JUMPDEST PUSH1 0x0 DUP5 DUP5 ADD MSTORE POP POP POP POP JUMP JUMPDEST PUSH1 0x0 PUSH1 0x1F NOT PUSH1 0x1F DUP4 ADD AND SWAP1 POP SWAP2 SWAP1 POP JUMP JUMPDEST PUSH1 0x0 PUSH2 0x169C DUP3 PUSH2 0x163A JUMP JUMPDEST PUSH2 0x16A6 DUP2 DUP6 PUSH2 0x1645 JUMP JUMPDEST SWAP4 POP PUSH2 0x16B6 DUP2 DUP6 PUSH1 0x20 DUP7 ADD PUSH2 0x1656 JUMP JUMPDEST PUSH2 0x16BF DUP2 PUSH2 0x1680 JUMP JUMPDEST DUP5 ADD SWAP2 POP POP SWAP3 SWAP2 POP POP JUMP JUMPDEST PUSH1 0x0 PUSH1 0x20 DUP3 ADD SWAP1 POP DUP2 DUP2 SUB PUSH1 0x0 DUP4 ADD MSTORE PUSH2 0x16E4 DUP2 DUP5 PUSH2 0x1691 JUMP JUMPDEST SWAP1 POP SWAP3 SWAP2 POP POP JUMP JUMPDEST PUSH32 0x4E487B7100000000000000000000000000000000000000000000000000000000 PUSH1 0x0 MSTORE PUSH1 0x32 PUSH1 0x4 MSTORE PUSH1 0x24 PUSH1 0x0 REVERT JUMPDEST PUSH32 0x4E487B7100000000000000000000000000000000000000000000000000000000 PUSH1 0x0 MSTORE PUSH1 0x11 PUSH1 0x4 MSTORE PUSH1 0x24 PUSH1 0x0 REVERT JUMPDEST PUSH1 0x0 PUSH2 0x1755 DUP3 PUSH2 0x154A JUMP JUMPDEST SWAP2 POP PUSH2 0x1760 DUP4 PUSH2 0x154A JUMP JUMPDEST SWAP3 POP DUP3 DUP3 MUL PUSH2 0x176E DUP2 PUSH2 0x154A JUMP JUMPDEST SWAP2 POP DUP3 DUP3 DIV DUP5 EQ DUP4 ISZERO OR PUSH2 0x1785 JUMPI PUSH2 0x1784 PUSH2 0x171B JUMP JUMPDEST JUMPDEST POP SWAP3 SWAP2 POP POP JUMP JUMPDEST PUSH1 0x0 PUSH2 0x1797 DUP3 PUSH2 0x154A JUMP JUMPDEST SWAP2 POP PUSH2 0x17A2 DUP4 PUSH2 0x154A JUMP JUMPDEST SWAP3 POP DUP3 DUP3 ADD SWAP1 POP DUP1 DUP3 GT ISZERO PUSH2 0x17BA JUMPI PUSH2 0x17B9 PUSH2 0x171B JUMP JUMPDEST JUMPDEST SWAP3 SWAP2 POP POP JUMP JUMPDEST PUSH32 0x4E487B7100000000000000000000000000000000000000000000000000000000 PUSH1 0x0 MSTORE PUSH1 0x41 PUSH1 0x4 MSTORE PUSH1 0x24 PUSH1 0x0 REVERT JUMPDEST PUSH1 0x0 PUSH2 0x17FA DUP3 PUSH2 0x154A JUMP JUMPDEST SWAP2 POP PUSH32 0xFFFFFFFFFFFFFFFFFFFFFFFFFFFFFFFFFFFFFFFFFFFFFFFFFFFFFFFFFFFFFFFF DUP3 SUB PUSH2 0x182C JUMPI PUSH2 0x182B PUSH2 0x171B JUMP JUMPDEST JUMPDEST PUSH1 0x1 DUP3 ADD SWAP1 POP SWAP2 SWAP1 POP JUMP JUMPDEST PUSH1 0x0 PUSH2 0x1842 DUP3 PUSH2 0x154A JUMP JUMPDEST SWAP2 POP PUSH2 0x184D DUP4 PUSH2 0x154A JUMP JUMPDEST SWAP3 POP DUP3 DUP3 SUB SWAP1 POP DUP2 DUP2 GT ISZERO PUSH2 0x1865 JUMPI PUSH2 0x1864 PUSH2 0x171B JUMP JUMPDEST JUMPDEST SWAP3 SWAP2 POP POP JUMP JUMPDEST PUSH32 0x4E487B7100000000000000000000000000000000000000000000000000000000 PUSH1 0x0 MSTORE PUSH1 0x12 PUSH1 0x4 MSTORE PUSH1 0x24 PUSH1 0x0 REVERT JUMPDEST PUSH1 0x0 PUSH2 0x18A5 DUP3 PUSH2 0x154A JUMP JUMPDEST SWAP2 POP PUSH2 0x18B0 DUP4 PUSH2 0x154A JUMP JUMPDEST SWAP3 POP DUP3 PUSH2 0x18C0 JUMPI PUSH2 0x18BF PUSH2 0x186B JUMP JUMPDEST JUMPDEST DUP3 DUP3 DIV SWAP1 POP SWAP3 SWAP2 POP POP JUMP INVALID LOG2 PUSH5 0x6970667358 0x22 SLT KECCAK256 0xBC PUSH1 0xEB ORIGIN STATICCALL 0xB5 ADD 0x4C PC PUSH25 0xBDCFF83806BA23A9353BF60ED10E8D47D5CB20324A5D64736F PUSH13 0x63430008140033000000000000 "},"methodIdentifiers":{"MAX_WEIGHT_BPS()":"03acaa99","MIN_WEIGHT_BPS()":"3cbe5ec1","optimizeAllocation(bytes)":"f84a2730","rebalanceBasket(bytes)":"14eff2ec","riskAdjustedYield(bytes)":"7f26cdb4"}}}}}