{"contracts/BasketManager.sol":{"BasketManager":{"abi":[{"inputs":[],"stateMutability":"nonpayable","type":"constructor"},{"anonymous":false,"inputs":[{"indexed":true,"internalType":"uint256","name":"basketId","type":"uint256"},{"indexed":false,"internalType":"string","name":"name","type":"string"},{"indexed":false,"internalType":"address","name":"token","type":"address"}],"name":"BasketCreated","type":"event"},{"anonymous":false,"inputs":[{"indexed":true,"internalType":"uint256","name":"basketId","type":"uint256"},{"indexed":false,"internalType":"uint32","name":"paraId","type":"uint32"},{"indexed":false,"internalType":"uint256","name":"amount","type":"uint256"}],"name":"DeploymentDispatched","type":"event"},{"anonymous":false,"inputs":[{"indexed":true,"internalType":"uint256","name":"basketId","type":"uint256"},{"indexed":true,"internalType":"address","name":"user","type":"address"},{"indexed":false,"internalType":"uint256","name":"amount","type":"uint256"},{"indexed":false,"internalType":"uint256","name":"tokensMinted","type":"uint256"}],"name":"Deposited","type":"event"},{"anonymous":false,"inputs":[{"indexed":true,"internalType":"uint256","name":"basketId","type":"uint256"},{"indexed":false,"internalType":"uint256","name":"timestamp","type":"uint256"}],"name":"Rebalanced","type":"event"},{"anonymous":false,"inputs":[{"indexed":true,"internalType":"uint256","name":"basketId","type":"uint256"},{"indexed":true,"internalType":"address","name":"user","type":"address"},{"indexed":false,"internalType":"uint256","name":"tokensBurned","type":"uint256"},{"indexed":false,"internalType":"uint256","name":"amountOut","type":"uint256"}],"name":"Withdrawn","type":"event"},{"inputs":[],"name":"PVM_ENGINE","outputs":[{"internalType":"address","name":"","type":"address"}],"stateMutability":"view","type":"function"},{"inputs":[],"name":"XCM_PRECOMPILE","outputs":[{"internalType":"address","name":"","type":"address"}],"stateMutability":"view","type":"function"},{"inputs":[{"internalType":"uint256","name":"","type":"uint256"}],"name":"baskets","outputs":[{"internalType":"uint256","name":"id","type":"uint256"},{"internalType":"string","name":"name","type":"string"},{"internalType":"address","name":"token","type":"address"},{"internalType":"uint256","name":"totalDeposited","type":"uint256"},{"internalType":"bool","name":"active","type":"bool"}],"stateMutability":"view","type":"function"},{"inputs":[{"internalType":"string","name":"name","type":"string"},{"internalType":"string","name":"symbol","type":"string"},{"components":[{"internalType":"uint32","name":"paraId","type":"uint32"},{"internalType":"address","name":"protocol","type":"address"},{"internalType":"uint16","name":"weightBps","type":"uint16"},{"internalType":"bytes","name":"depositCall","type":"bytes"},{"internalType":"bytes","name":"withdrawCall","type":"bytes"}],"internalType":"struct BasketManager.AllocationConfig[]","name":"allocations","type":"tuple[]"}],"name":"createBasket","outputs":[{"internalType":"uint256","name":"basketId","type":"uint256"}],"stateMutability":"nonpayable","type":"function"},{"inputs":[{"internalType":"uint256","name":"basketId","type":"uint256"}],"name":"deposit","outputs":[{"internalType":"uint256","name":"tokensMinted","type":"uint256"}],"stateMutability":"payable","type":"function"},{"inputs":[{"internalType":"uint256","name":"basketId","type":"uint256"}],"name":"getBasket","outputs":[{"components":[{"internalType":"uint256","name":"id","type":"uint256"},{"internalType":"string","name":"name","type":"string"},{"internalType":"address","name":"token","type":"address"},{"components":[{"internalType":"uint32","name":"paraId","type":"uint32"},{"internalType":"address","name":"protocol","type":"address"},{"internalType":"uint16","name":"weightBps","type":"uint16"},{"internalType":"bytes","name":"depositCall","type":"bytes"},{"internalType":"bytes","name":"withdrawCall","type":"bytes"}],"internalType":"struct BasketManager.AllocationConfig[]","name":"allocations","type":"tuple[]"},{"internalType":"uint256","name":"totalDeposited","type":"uint256"},{"internalType":"bool","name":"active","type":"bool"}],"internalType":"struct BasketManager.Basket","name":"","type":"tuple"}],"stateMutability":"view","type":"function"},{"inputs":[{"internalType":"uint256","name":"basketId","type":"uint256"}],"name":"getBasketNAV","outputs":[{"internalType":"uint256","name":"","type":"uint256"}],"stateMutability":"view","type":"function"},{"inputs":[],"name":"nextBasketId","outputs":[{"internalType":"uint256","name":"","type":"uint256"}],"stateMutability":"view","type":"function"},{"inputs":[],"name":"owner","outputs":[{"internalType":"address","name":"","type":"address"}],"stateMutability":"view","type":"function"},{"inputs":[{"internalType":"uint256","name":"basketId","type":"uint256"}],"name":"rebalance","outputs":[],"stateMutability":"nonpayable","type":"function"},{"inputs":[],"name":"rebalanceThresholdBps","outputs":[{"internalType":"uint16","name":"","type":"uint16"}],"stateMutability":"view","type":"function"},{"inputs":[{"internalType":"address","name":"","type":"address"},{"internalType":"uint256","name":"","type":"uint256"}],"name":"userPositions","outputs":[{"internalType":"uint256","name":"basketId","type":"uint256"},{"internalType":"uint256","name":"tokenBalance","type":"uint256"},{"internalType":"uint256","name":"depositedAt","type":"uint256"}],"stateMutability":"view","type":"function"},{"inputs":[{"internalType":"uint256","name":"basketId","type":"uint256"},{"internalType":"uint256","name":"tokenAmount","type":"uint256"}],"name":"withdraw","outputs":[],"stateMutability":"nonpayable","type":"function"}],"evm":{"bytecode":{"linkReferences":{},"object":"60806040526003805461ffff60a01b1916601960a31b17905534801561002457600080fd5b50600380546001600160a01b03191633179055612e2d806100466000396000f3fe608060405260043610620000d25760003560e01c80638da5cb5b1162000089578063a76005281162000060578063a76005281462000295578063af4d612f14620002ad578063b6b55f2514620002d2578063f499301814620002e957600080fd5b80638da5cb5b14620001f8578063903746b9146200021a578063a60ed374146200025d57600080fd5b8063041c42d914620000d7578063077120cc146200010c5780634000001a1462000124578063441a3e70146200015c5780635e1b4d99146200018357806377977d5014620001c4575b600080fd5b348015620000e457600080fd5b50620000ef61090081565b6040516001600160a01b0390911681526020015b60405180910390f35b3480156200011957600080fd5b50620000ef61080081565b3480156200013157600080fd5b506003546200014890600160a01b900461ffff1681565b60405161ffff909116815260200162000103565b3480156200016957600080fd5b50620001816200017b36600462001629565b6200030e565b005b3480156200019057600080fd5b50620001a8620001a236600462001665565b620006f7565b6040805193845260208401929092529082015260600162000103565b348015620001d157600080fd5b50620001e9620001e336600462001694565b6200073a565b60405162000103919062001702565b3480156200020557600080fd5b50600354620000ef906001600160a01b031681565b3480156200022757600080fd5b506200024e6200023936600462001694565b60009081526001602052604090206004015490565b60405190815260200162000103565b3480156200026a57600080fd5b50620002826200027c36600462001694565b62000a3c565b604051620001039594939291906200181c565b348015620002a257600080fd5b506200024e60005481565b348015620002ba57600080fd5b506200024e620002cc366004620018ab565b62000b09565b6200024e620002e336600462001694565b62000ccd565b348015620002f657600080fd5b50620001816200030836600462001694565b62000e1d565b6000828152600160205260409020600581015460ff166200034c5760405162461bcd60e51b815260040162000343906200197f565b60405180910390fd5b6002810154604051632770a7eb60e21b8152336004820152602481018490526001600160a01b0390911690639dc29fac90604401600060405180830381600087803b1580156200039b57600080fd5b505af1158015620003b0573d6000803e3d6000fd5b5050505060008160020160009054906101000a90046001600160a01b03166001600160a01b03166318160ddd6040518163ffffffff1660e01b8152600401602060405180830381865afa1580156200040c573d6000803e3d6000fd5b505050506040513d601f19601f82011682018060405250810190620004329190620019aa565b6200044684670de0b6b3a7640000620019da565b620004529190620019f4565b905060005b60038301548110156200069857600069021e19e0c9bab2400000838560030184815481106200048a576200048a62001a17565b60009182526020909120600390910201546004870154620004b791600160c01b900461ffff1690620019da565b620004c39190620019da565b620004cf9190620019f4565b905062000682846003018381548110620004ed57620004ed62001a17565b60009182526020918290206040805160a081018252600393909302909101805463ffffffff8116845264010000000081046001600160a01b031694840194909452600160c01b90930461ffff1690820152600182018054919291606084019190620005589062001a2d565b80601f0160208091040260200160405190810160405280929190818152602001828054620005869062001a2d565b8015620005d75780601f10620005ab57610100808354040283529160200191620005d7565b820191906000526020600020905b815481529060010190602001808311620005b957829003601f168201915b50505050508152602001600282018054620005f29062001a2d565b80601f0160208091040260200160405190810160405280929190818152602001828054620006209062001a2d565b8015620006715780601f10620006455761010080835404028352916020019162000671565b820191906000526020600020905b8154815290600101906020018083116200065357829003601f168201915b505050505081525050823362000fd2565b50806200068f8162001a69565b91505062000457565b5082826004016000828254620006af919062001a85565b90915550506040805184815260208101859052339186917f1c84cc0f96161bdafea718a9094dd21c21d1fb2f9ca2ebb9bd4e39918efbaace910160405180910390a350505050565b600260205281600052604060002081815481106200071457600080fd5b600091825260209091206003909102018054600182015460029092015490935090915083565b6200077f6040518060c00160405280600081526020016060815260200160006001600160a01b0316815260200160608152602001600081526020016000151581525090565b600082815260016020818152604092839020835160c0810190945280548452918201805491840191620007b29062001a2d565b80601f0160208091040260200160405190810160405280929190818152602001828054620007e09062001a2d565b8015620008315780601f10620008055761010080835404028352916020019162000831565b820191906000526020600020905b8154815290600101906020018083116200081357829003601f168201915b505050918352505060028201546001600160a01b0316602080830191909152600383018054604080518285028101850182528281529401939260009084015b8282101562000a145760008481526020908190206040805160a08101825260038602909201805463ffffffff8116845264010000000081046001600160a01b031694840194909452600160c01b90930461ffff1690820152600182018054919291606084019190620008e29062001a2d565b80601f0160208091040260200160405190810160405280929190818152602001828054620009109062001a2d565b8015620009615780601f10620009355761010080835404028352916020019162000961565b820191906000526020600020905b8154815290600101906020018083116200094357829003601f168201915b505050505081526020016002820180546200097c9062001a2d565b80601f0160208091040260200160405190810160405280929190818152602001828054620009aa9062001a2d565b8015620009fb5780601f10620009cf57610100808354040283529160200191620009fb565b820191906000526020600020905b815481529060010190602001808311620009dd57829003601f168201915b5050505050815250508152602001906001019062000870565b505050908252506004820154602082015260059091015460ff16151560409091015292915050565b60016020819052600091825260409091208054918101805462000a5f9062001a2d565b80601f016020809104026020016040519081016040528092919081815260200182805462000a8d9062001a2d565b801562000ade5780601f1062000ab25761010080835404028352916020019162000ade565b820191906000526020600020905b81548152906001019060200180831162000ac057829003601f168201915b505050506002830154600484015460059094015492936001600160a01b039091169290915060ff1685565b6003546000906001600160a01b0316331462000b545760405162461bcd60e51b81526020600482015260096024820152682737ba1037bbb732b960b91b604482015260640162000343565b62000b60838362001069565b60008054908062000b718362001a69565b9190505590506000878787873060405162000b8c906200161b565b62000b9c95949392919062001ac4565b604051809103906000f08015801562000bb9573d6000803e3d6000fd5b506000838152600160208190526040909120848155919250810162000be0898b8362001b72565b506002810180546001600160a01b0319166001600160a01b03841617905560058101805460ff1916600117905560005b8481101562000c82578160030186868381811062000c325762000c3262001a17565b905060200281019062000c46919062001c40565b81546001810183556000928352602090922090916003020162000c6a828262001cbc565b5050808062000c799062001a69565b91505062000c10565b50827f829f34ae8184bf5738e5e995441f1e5d7ccbb07fe323b0d01d850c3dfa08182b8a8a8560405162000cb99392919062001d87565b60405180910390a250509695505050505050565b6000818152600160205260408120600581015460ff1662000d025760405162461bcd60e51b815260040162000343906200197f565b6000341162000d475760405162461bcd60e51b815260206004820152601060248201526f04d757374206465706f736974203e20360841b604482015260640162000343565b60028101546040516340c10f1960e01b8152336004820152346024820181905293506001600160a01b03909116906340c10f1990604401600060405180830381600087803b15801562000d9957600080fd5b505af115801562000dae573d6000803e3d6000fd5b505050503481600401600082825462000dc8919062001db5565b9091555062000dda9050833462001132565b6040805134815260208101849052339185917fad5b4075b97dbf75ad5c78f7afac948e4ae611c4fdf2825e2ce3c6c96925bf3b910160405180910390a350919050565b6000818152600160205260409020600581015460ff1662000e525760405162461bcd60e51b815260040162000343906200197f565b600062000e5f826200138f565b9050600062000e6e8262001497565b905060008180602001905181019062000e88919062001ddd565b905060005b600385015481101562000f8f57600360149054906101000a900461ffff1661ffff1662000f0e86600301838154811062000ecb5762000ecb62001a17565b906000526020600020906003020160000160189054906101000a900461ffff1684848151811062000f005762000f0062001a17565b60200260200101516200154e565b61ffff16111562000f7a5781818151811062000f2e5762000f2e62001a17565b602002602001015185600301828154811062000f4e5762000f4e62001a17565b906000526020600020906003020160000160186101000a81548161ffff021916908361ffff1602179055505b8062000f868162001a69565b91505062000e8d565b50847fc257294ad49c215e1a248c91a86bc2612b4781d9677285cc9c14498f485ef1224260405162000fc391815260200190565b60405180910390a25050505050565b600083600001518385608001518460405160200162000ff5949392919062001eb0565b60408051601f19818403018152908290528551636b206fc760e01b835290925061080091636b206fc7916200102f91859060040162001ef0565b600060405180830381600087803b1580156200104a57600080fd5b505af11580156200105f573d6000803e3d6000fd5b5050505050505050565b6000805b82811015620010d9578383828181106200108b576200108b62001a17565b90506020028101906200109f919062001c40565b620010b290606081019060400162001f19565b620010c29061ffff168362001db5565b915080620010d08162001a69565b9150506200106d565b5080612710146200112d5760405162461bcd60e51b815260206004820152601d60248201527f57656967687473206d7573742073756d20746f20313030303020627073000000604482015260640162000343565b505050565b6000828152600160205260408120905b60038201548110156200138957600082600301828154811062001169576200116962001a17565b60009182526020918290206040805160a081018252600393909302909101805463ffffffff8116845264010000000081046001600160a01b031694840194909452600160c01b90930461ffff1690820152600182018054919291606084019190620011d49062001a2d565b80601f0160208091040260200160405190810160405280929190818152602001828054620012029062001a2d565b8015620012535780601f10620012275761010080835404028352916020019162001253565b820191906000526020600020905b8154815290600101906020018083116200123557829003601f168201915b505050505081526020016002820180546200126e9062001a2d565b80601f01602080910402602001604051908101604052809291908181526020018280546200129c9062001a2d565b8015620012ed5780601f10620012c157610100808354040283529160200191620012ed565b820191906000526020600020905b815481529060010190602001808311620012cf57829003601f168201915b50505050508152505090506000612710826040015161ffff1686620013139190620019da565b6200131f9190620019f4565b90506200132d828262001587565b81516040805163ffffffff90921682526020820183905287917f2a714abd697b83e14df66ce02bcadcab42e9d2305e12d5abf7b61656dfa689eb910160405180910390a250508080620013809062001a69565b91505062001142565b50505050565b600381015460609060009067ffffffffffffffff811115620013b557620013b562001b0a565b604051908082528060200260200182016040528015620013df578160200160208202803683370190505b50905060005b600384015481101562001467578360030181815481106200140a576200140a62001a17565b906000526020600020906003020160000160189054906101000a900461ffff168282815181106200143f576200143f62001a17565b61ffff90921660209283029190910190910152806200145e8162001a69565b915050620013e5565b5060048301546040516200148091839160200162001f39565b604051602081830303815290604052915050919050565b60606000806109006001600160a01b031684604051620014b8919062001f87565b600060405180830381855afa9150503d8060008114620014f5576040519150601f19603f3d011682016040523d82523d6000602084013e620014fa565b606091505b509150915081620015475760405162461bcd60e51b815260206004820152601660248201527514159348195b99da5b994818d85b1b0819985a5b195960521b604482015260640162000343565b9392505050565b60008161ffff168361ffff161162001572576200156c838362001f9b565b6200157e565b6200157e828462001f9b565b90505b92915050565b60008260000151828460600151604051602001620015a89392919062001fc0565b60408051601f19818403018152908290528451636b206fc760e01b835290925061080091636b206fc791620015e291859060040162001ef0565b600060405180830381600087803b158015620015fd57600080fd5b505af115801562001612573d6000803e3d6000fd5b50505050505050565b610e078062001ff183390190565b600080604083850312156200163d57600080fd5b50508035926020909101359150565b6001600160a01b03811681146200166257600080fd5b50565b600080604083850312156200167957600080fd5b823562001686816200164c565b946020939093013593505050565b600060208284031215620016a757600080fd5b5035919050565b60005b83811015620016cb578181015183820152602001620016b1565b50506000910152565b60008151808452620016ee816020860160208601620016ae565b601f01601f19169290920160200192915050565b6000602080835283518184015280840151604060c0818601526200172a60e0860183620016d4565b915080860151606060018060a01b0380831682890152818901519250601f196080818a880301818b01528685518089528989019150898160051b8a01018a8801975060005b82811015620017eb57858b8303018452885160a063ffffffff8251168452888e830151168e85015261ffff8c830151168c85015289820151818b860152620017ba82860182620016d4565b91505086820151915083810387850152620017d68183620016d4565b9a8e019a958e0195935050506001016200176f565b50838e015160a08e015260a08e01519a506200180b60c08e018c15159052565b9d9c50505050505050505050505050565b85815260a0602082015260006200183760a0830187620016d4565b6001600160a01b03959095166040830152506060810192909252151560809091015292915050565b60008083601f8401126200187257600080fd5b50813567ffffffffffffffff8111156200188b57600080fd5b602083019150836020828501011115620018a457600080fd5b9250929050565b60008060008060008060608789031215620018c557600080fd5b863567ffffffffffffffff80821115620018de57600080fd5b620018ec8a838b016200185f565b909850965060208901359150808211156200190657600080fd5b620019148a838b016200185f565b909650945060408901359150808211156200192e57600080fd5b818901915089601f8301126200194357600080fd5b8135818111156200195357600080fd5b8a60208260051b85010111156200196957600080fd5b6020830194508093505050509295509295509295565b6020808252601190820152704261736b6574206e6f742061637469766560781b604082015260600190565b600060208284031215620019bd57600080fd5b5051919050565b634e487b7160e01b600052601160045260246000fd5b8082028115828204841417620015815762001581620019c4565b60008262001a1257634e487b7160e01b600052601260045260246000fd5b500490565b634e487b7160e01b600052603260045260246000fd5b600181811c9082168062001a4257607f821691505b60208210810362001a6357634e487b7160e01b600052602260045260246000fd5b50919050565b60006001820162001a7e5762001a7e620019c4565b5060010190565b81810381811115620015815762001581620019c4565b81835281816020850137506000828201602090810191909152601f909101601f19169091010190565b60608152600062001ada60608301878962001a9b565b828103602084015262001aef81868862001a9b565b91505060018060a01b03831660408301529695505050505050565b634e487b7160e01b600052604160045260246000fd5b601f8211156200112d57600081815260208120601f850160051c8101602086101562001b495750805b601f850160051c820191505b8181101562001b6a5782815560010162001b55565b505050505050565b67ffffffffffffffff83111562001b8d5762001b8d62001b0a565b62001ba58362001b9e835462001a2d565b8362001b20565b6000601f84116001811462001bdc576000851562001bc35750838201355b600019600387901b1c1916600186901b17835562001c39565b600083815260209020601f19861690835b8281101562001c0f578685013582556020948501946001909201910162001bed565b508682101562001c2d5760001960f88860031b161c19848701351681555b505060018560011b0183555b5050505050565b60008235609e1983360301811262001c5757600080fd5b9190910192915050565b61ffff811681146200166257600080fd5b6000808335601e1984360301811262001c8a57600080fd5b83018035915067ffffffffffffffff82111562001ca657600080fd5b602001915036819003821315620018a457600080fd5b813563ffffffff811680821462001cd257600080fd5b825463ffffffff198116821784559150602084013562001cf2816200164c565b640100000000600160c01b0360209190911b166001600160c01b03198316821781178455604085013562001d268162001c61565b6001600160d01b0319939093169091171760c09190911b61ffff60c01b1617815562001d56606083018362001c72565b62001d6681836001860162001b72565b505062001d77608083018362001c72565b6200138981836002860162001b72565b60408152600062001d9d60408301858762001a9b565b905060018060a01b0383166020830152949350505050565b80820180821115620015815762001581620019c4565b805162001dd88162001c61565b919050565b6000602080838503121562001df157600080fd5b825167ffffffffffffffff8082111562001e0a57600080fd5b818501915085601f83011262001e1f57600080fd5b81518181111562001e345762001e3462001b0a565b8060051b604051601f19603f8301168101818110858211171562001e5c5762001e5c62001b0a565b60405291825284820192508381018501918883111562001e7b57600080fd5b938501935b8285101562001ea45762001e948562001dcb565b8452938501939285019262001e80565b98975050505050505050565b63ffffffff8516815283602082015260806040820152600062001ed76080830185620016d4565b905060018060a01b038316606083015295945050505050565b63ffffffff8316815260406020820152600062001f116040830184620016d4565b949350505050565b60006020828403121562001f2c57600080fd5b8135620015478162001c61565b604080825283519082018190526000906020906060840190828701845b8281101562001f7857815161ffff168452928401929084019060010162001f56565b50505092019290925292915050565b6000825162001c57818460208701620016ae565b61ffff82811682821603908082111562001fb95762001fb9620019c4565b5092915050565b63ffffffff8416815282602082015260606040820152600062001fe76060830184620016d4565b9594505050505056fe60806040523480156200001157600080fd5b5060405162000e0738038062000e078339810160408190526200003491620001d2565b3383836003620000458382620002ee565b506004620000548282620002ee565b5050506001600160a01b0381166200008657604051631e4fbdf760e01b81526000600482015260240160405180910390fd5b6200009181620000bb565b50600680546001600160a01b0319166001600160a01b039290921691909117905550620003ba9050565b600580546001600160a01b038381166001600160a01b0319831681179093556040519116919082907f8be0079c531659141344cd1fd0a4f28419497f9722a3daafe3b4186f6b6457e090600090a35050565b634e487b7160e01b600052604160045260246000fd5b600082601f8301126200013557600080fd5b81516001600160401b03808211156200015257620001526200010d565b604051601f8301601f19908116603f011681019082821181831017156200017d576200017d6200010d565b816040528381526020925086838588010111156200019a57600080fd5b600091505b83821015620001be57858201830151818301840152908201906200019f565b600093810190920192909252949350505050565b600080600060608486031215620001e857600080fd5b83516001600160401b03808211156200020057600080fd5b6200020e8783880162000123565b945060208601519150808211156200022557600080fd5b50620002348682870162000123565b604086015190935090506001600160a01b03811681146200025457600080fd5b809150509250925092565b600181811c908216806200027457607f821691505b6020821081036200029557634e487b7160e01b600052602260045260246000fd5b50919050565b601f821115620002e957600081815260208120601f850160051c81016020861015620002c45750805b601f850160051c820191505b81811015620002e557828155600101620002d0565b5050505b505050565b81516001600160401b038111156200030a576200030a6200010d565b62000322816200031b84546200025f565b846200029b565b602080601f8311600181146200035a5760008415620003415750858301515b600019600386901b1c1916600185901b178555620002e5565b600085815260208120601f198616915b828110156200038b578886015182559484019460019091019084016200036a565b5085821015620003aa5787850151600019600388901b60f8161c191681555b5050505050600190811b01905550565b610a3d80620003ca6000396000f3fe608060405234801561001057600080fd5b50600436106101005760003560e01c8063715018a611610097578063a9059cbb11610066578063a9059cbb14610217578063d0ebdbe71461022a578063dd62ed3e1461023d578063f2fde38b1461027657600080fd5b8063715018a6146101e35780638da5cb5b146101eb57806395d89b41146101fc5780639dc29fac1461020457600080fd5b806323b872dd116100d357806323b872dd14610183578063313ce5671461019657806340c10f19146101a557806370a08231146101ba57600080fd5b806306fdde0314610105578063095ea7b31461012357806318160ddd1461014657806322d23f6814610158575b600080fd5b61010d610289565b60405161011a9190610887565b60405180910390f35b6101366101313660046108f1565b61031b565b604051901515815260200161011a565b6002545b60405190815260200161011a565b60065461016b906001600160a01b031681565b6040516001600160a01b03909116815260200161011a565b61013661019136600461091b565b610335565b6040516012815260200161011a565b6101b86101b33660046108f1565b610359565b005b61014a6101c8366004610957565b6001600160a01b031660009081526020819052604090205490565b6101b86103bb565b6005546001600160a01b031661016b565b61010d6103cf565b6101b86102123660046108f1565b6103de565b6101366102253660046108f1565b610437565b6101b8610238366004610957565b610445565b61014a61024b366004610979565b6001600160a01b03918216600090815260016020908152604080832093909416825291909152205490565b6101b8610284366004610957565b61046f565b606060038054610298906109ac565b80601f01602080910402602001604051908101604052809291908181526020018280546102c4906109ac565b80156103115780601f106102e657610100808354040283529160200191610311565b820191906000526020600020905b8154815290600101906020018083116102f457829003601f168201915b5050505050905090565b6000336103298185856104ad565b60019150505b92915050565b6000336103438582856104bf565b61034e85858561053e565b506001949350505050565b6006546001600160a01b031633146103ad5760405162461bcd60e51b81526020600482015260126024820152712737ba103130b9b5b2ba1036b0b730b3b2b960711b60448201526064015b60405180910390fd5b6103b7828261059d565b5050565b6103c36105d3565b6103cd6000610600565b565b606060048054610298906109ac565b6006546001600160a01b0316331461042d5760405162461bcd60e51b81526020600482015260126024820152712737ba103130b9b5b2ba1036b0b730b3b2b960711b60448201526064016103a4565b6103b78282610652565b60003361032981858561053e565b61044d6105d3565b600680546001600160a01b0319166001600160a01b0392909216919091179055565b6104776105d3565b6001600160a01b0381166104a157604051631e4fbdf760e01b8152600060048201526024016103a4565b6104aa81610600565b50565b6104ba8383836001610688565b505050565b6001600160a01b03838116600090815260016020908152604080832093861683529290522054600019811015610538578181101561052957604051637dc7a0d960e11b81526001600160a01b038416600482015260248101829052604481018390526064016103a4565b61053884848484036000610688565b50505050565b6001600160a01b03831661056857604051634b637e8f60e11b8152600060048201526024016103a4565b6001600160a01b0382166105925760405163ec442f0560e01b8152600060048201526024016103a4565b6104ba83838361075d565b6001600160a01b0382166105c75760405163ec442f0560e01b8152600060048201526024016103a4565b6103b76000838361075d565b6005546001600160a01b031633146103cd5760405163118cdaa760e01b81523360048201526024016103a4565b600580546001600160a01b038381166001600160a01b0319831681179093556040519116919082907f8be0079c531659141344cd1fd0a4f28419497f9722a3daafe3b4186f6b6457e090600090a35050565b6001600160a01b03821661067c57604051634b637e8f60e11b8152600060048201526024016103a4565b6103b78260008361075d565b6001600160a01b0384166106b25760405163e602df0560e01b8152600060048201526024016103a4565b6001600160a01b0383166106dc57604051634a1406b160e11b8152600060048201526024016103a4565b6001600160a01b038085166000908152600160209081526040808320938716835292905220829055801561053857826001600160a01b0316846001600160a01b03167f8c5be1e5ebec7d5bd14f71427d1e84f3dd0314c0f7b2291e5b200ac8c7c3b9258460405161074f91815260200190565b60405180910390a350505050565b6001600160a01b03831661078857806002600082825461077d91906109e6565b909155506107fa9050565b6001600160a01b038316600090815260208190526040902054818110156107db5760405163391434e360e21b81526001600160a01b038516600482015260248101829052604481018390526064016103a4565b6001600160a01b03841660009081526020819052604090209082900390555b6001600160a01b03821661081657600280548290039055610835565b6001600160a01b03821660009081526020819052604090208054820190555b816001600160a01b0316836001600160a01b03167fddf252ad1be2c89b69c2b068fc378daa952ba7f163c4a11628f55a4df523b3ef8360405161087a91815260200190565b60405180910390a3505050565b600060208083528351808285015260005b818110156108b457858101830151858201604001528201610898565b506000604082860101526040601f19601f8301168501019250505092915050565b80356001600160a01b03811681146108ec57600080fd5b919050565b6000806040838503121561090457600080fd5b61090d836108d5565b946020939093013593505050565b60008060006060848603121561093057600080fd5b610939846108d5565b9250610947602085016108d5565b9150604084013590509250925092565b60006020828403121561096957600080fd5b610972826108d5565b9392505050565b6000806040838503121561098c57600080fd5b610995836108d5565b91506109a3602084016108d5565b90509250929050565b600181811c908216806109c057607f821691505b6020821081036109e057634e487b7160e01b600052602260045260246000fd5b50919050565b8082018082111561032f57634e487b7160e01b600052601160045260246000fdfea2646970667358221220e85eba4a5cb8165fd6f3cb0b2d3f36541ddc6287dd636bb994d12028a4eb18e264736f6c63430008140033a26469706673582212208d9029e97bfdf35d0a72447aa613f020d693afe5437e0053459e679291d5694264736f6c63430008140033","opcodes":"PUSH1 0x80 PUSH1 0x40 MSTORE PUSH1 0x3 DUP1 SLOAD PUSH2 0xFFFF PUSH1 0xA0 SHL NOT AND PUSH1 0x19 PUSH1 0xA3 SHL OR SWAP1 SSTORE CALLVALUE DUP1 ISZERO PUSH2 0x24 JUMPI PUSH1 0x0 DUP1 REVERT JUMPDEST POP PUSH1 0x3 DUP1 SLOAD PUSH1 0x1 PUSH1 0x1 PUSH1 0xA0 SHL SUB NOT AND CALLER OR SWAP1 SSTORE PUSH2 0x2E2D DUP1 PUSH2 0x46 PUSH1 0x0 CODECOPY PUSH1 0x0 RETURN INVALID PUSH1 0x80 PUSH1 0x40 MSTORE PUSH1 0x4 CALLDATASIZE LT PUSH3 0xD2 JUMPI PUSH1 0x0 CALLDATALOAD PUSH1 0xE0 SHR DUP1 PUSH4 0x8DA5CB5B GT PUSH3 0x89 JUMPI DUP1 PUSH4 0xA7600528 GT PUSH3 0x60 JUMPI DUP1 PUSH4 0xA7600528 EQ PUSH3 0x295 JUMPI DUP1 PUSH4 0xAF4D612F EQ PUSH3 0x2AD JUMPI DUP1 PUSH4 0xB6B55F25 EQ PUSH3 0x2D2 JUMPI DUP1 PUSH4 0xF4993018 EQ PUSH3 0x2E9 JUMPI PUSH1 0x0 DUP1 REVERT JUMPDEST DUP1 PUSH4 0x8DA5CB5B EQ PUSH3 0x1F8 JUMPI DUP1 PUSH4 0x903746B9 EQ PUSH3 0x21A JUMPI DUP1 PUSH4 0xA60ED374 EQ PUSH3 0x25D JUMPI PUSH1 0x0 DUP1 REVERT JUMPDEST DUP1 PUSH4 0x41C42D9 EQ PUSH3 0xD7 JUMPI DUP1 PUSH4 0x77120CC EQ PUSH3 0x10C JUMPI DUP1 PUSH4 0x4000001A EQ PUSH3 0x124 JUMPI DUP1 PUSH4 0x441A3E70 EQ PUSH3 0x15C JUMPI DUP1 PUSH4 0x5E1B4D99 EQ PUSH3 0x183 JUMPI DUP1 PUSH4 0x77977D50 EQ PUSH3 0x1C4 JUMPI JUMPDEST PUSH1 0x0 DUP1 REVERT JUMPDEST CALLVALUE DUP1 ISZERO PUSH3 0xE4 JUMPI PUSH1 0x0 DUP1 REVERT JUMPDEST POP PUSH3 0xEF PUSH2 0x900 DUP2 JUMP JUMPDEST PUSH1 0x40 MLOAD PUSH1 0x1 PUSH1 0x1 PUSH1 0xA0 SHL SUB SWAP1 SWAP2 AND DUP2 MSTORE PUSH1 0x20 ADD JUMPDEST PUSH1 0x40 MLOAD DUP1 SWAP2 SUB SWAP1 RETURN JUMPDEST CALLVALUE DUP1 ISZERO PUSH3 0x119 JUMPI PUSH1 0x0 DUP1 REVERT JUMPDEST POP PUSH3 0xEF PUSH2 0x800 DUP2 JUMP JUMPDEST CALLVALUE DUP1 ISZERO PUSH3 0x131 JUMPI PUSH1 0x0 DUP1 REVERT JUMPDEST POP PUSH1 0x3 SLOAD PUSH3 0x148 SWAP1 PUSH1 0x1 PUSH1 0xA0 SHL SWAP1 DIV PUSH2 0xFFFF AND DUP2 JUMP JUMPDEST PUSH1 0x40 MLOAD PUSH2 0xFFFF SWAP1 SWAP2 AND DUP2 MSTORE PUSH1 0x20 ADD PUSH3 0x103 JUMP JUMPDEST CALLVALUE DUP1 ISZERO PUSH3 0x169 JUMPI PUSH1 0x0 DUP1 REVERT JUMPDEST POP PUSH3 0x181 PUSH3 0x17B CALLDATASIZE PUSH1 0x4 PUSH3 0x1629 JUMP JUMPDEST PUSH3 0x30E JUMP JUMPDEST STOP JUMPDEST CALLVALUE DUP1 ISZERO PUSH3 0x190 JUMPI PUSH1 0x0 DUP1 REVERT JUMPDEST POP PUSH3 0x1A8 PUSH3 0x1A2 CALLDATASIZE PUSH1 0x4 PUSH3 0x1665 JUMP JUMPDEST PUSH3 0x6F7 JUMP JUMPDEST PUSH1 0x40 DUP1 MLOAD SWAP4 DUP5 MSTORE PUSH1 0x20 DUP5 ADD SWAP3 SWAP1 SWAP3 MSTORE SWAP1 DUP3 ADD MSTORE PUSH1 0x60 ADD PUSH3 0x103 JUMP JUMPDEST CALLVALUE DUP1 ISZERO PUSH3 0x1D1 JUMPI PUSH1 0x0 DUP1 REVERT JUMPDEST POP PUSH3 0x1E9 PUSH3 0x1E3 CALLDATASIZE PUSH1 0x4 PUSH3 0x1694 JUMP JUMPDEST PUSH3 0x73A JUMP JUMPDEST PUSH1 0x40 MLOAD PUSH3 0x103 SWAP2 SWAP1 PUSH3 0x1702 JUMP JUMPDEST CALLVALUE DUP1 ISZERO PUSH3 0x205 JUMPI PUSH1 0x0 DUP1 REVERT JUMPDEST POP PUSH1 0x3 SLOAD PUSH3 0xEF SWAP1 PUSH1 0x1 PUSH1 0x1 PUSH1 0xA0 SHL SUB AND DUP2 JUMP JUMPDEST CALLVALUE DUP1 ISZERO PUSH3 0x227 JUMPI PUSH1 0x0 DUP1 REVERT JUMPDEST POP PUSH3 0x24E PUSH3 0x239 CALLDATASIZE PUSH1 0x4 PUSH3 0x1694 JUMP JUMPDEST PUSH1 0x0 SWAP1 DUP2 MSTORE PUSH1 0x1 PUSH1 0x20 MSTORE PUSH1 0x40 SWAP1 KECCAK256 PUSH1 0x4 ADD SLOAD SWAP1 JUMP JUMPDEST PUSH1 0x40 MLOAD SWAP1 DUP2 MSTORE PUSH1 0x20 ADD PUSH3 0x103 JUMP JUMPDEST CALLVALUE DUP1 ISZERO PUSH3 0x26A JUMPI PUSH1 0x0 DUP1 REVERT JUMPDEST POP PUSH3 0x282 PUSH3 0x27C CALLDATASIZE PUSH1 0x4 PUSH3 0x1694 JUMP JUMPDEST PUSH3 0xA3C JUMP JUMPDEST PUSH1 0x40 MLOAD PUSH3 0x103 SWAP6 SWAP5 SWAP4 SWAP3 SWAP2 SWAP1 PUSH3 0x181C JUMP JUMPDEST CALLVALUE DUP1 ISZERO PUSH3 0x2A2 JUMPI PUSH1 0x0 DUP1 REVERT JUMPDEST POP PUSH3 0x24E PUSH1 0x0 SLOAD DUP2 JUMP JUMPDEST CALLVALUE DUP1 ISZERO PUSH3 0x2BA JUMPI PUSH1 0x0 DUP1 REVERT JUMPDEST POP PUSH3 0x24E PUSH3 0x2CC CALLDATASIZE PUSH1 0x4 PUSH3 0x18AB JUMP JUMPDEST PUSH3 0xB09 JUMP JUMPDEST PUSH3 0x24E PUSH3 0x2E3 CALLDATASIZE PUSH1 0x4 PUSH3 0x1694 JUMP JUMPDEST PUSH3 0xCCD JUMP JUMPDEST CALLVALUE DUP1 ISZERO PUSH3 0x2F6 JUMPI PUSH1 0x0 DUP1 REVERT JUMPDEST POP PUSH3 0x181 PUSH3 0x308 CALLDATASIZE PUSH1 0x4 PUSH3 0x1694 JUMP JUMPDEST PUSH3 0xE1D JUMP JUMPDEST PUSH1 0x0 DUP3 DUP2 MSTORE PUSH1 0x1 PUSH1 0x20 MSTORE PUSH1 0x40 SWAP1 KECCAK256 PUSH1 0x5 DUP2 ADD SLOAD PUSH1 0xFF AND PUSH3 0x34C JUMPI PUSH1 0x40 MLOAD PUSH3 0x461BCD PUSH1 0xE5 SHL DUP2 MSTORE PUSH1 0x4 ADD PUSH3 0x343 SWAP1 PUSH3 0x197F JUMP JUMPDEST PUSH1 0x40 MLOAD DUP1 SWAP2 SUB SWAP1 REVERT JUMPDEST PUSH1 0x2 DUP2 ADD SLOAD PUSH1 0x40 MLOAD PUSH4 0x2770A7EB PUSH1 0xE2 SHL DUP2 MSTORE CALLER PUSH1 0x4 DUP3 ADD MSTORE PUSH1 0x24 DUP2 ADD DUP5 SWAP1 MSTORE PUSH1 0x1 PUSH1 0x1 PUSH1 0xA0 SHL SUB SWAP1 SWAP2 AND SWAP1 PUSH4 0x9DC29FAC SWAP1 PUSH1 0x44 ADD PUSH1 0x0 PUSH1 0x40 MLOAD DUP1 DUP4 SUB DUP2 PUSH1 0x0 DUP8 DUP1 EXTCODESIZE ISZERO DUP1 ISZERO PUSH3 0x39B JUMPI PUSH1 0x0 DUP1 REVERT JUMPDEST POP GAS CALL ISZERO DUP1 ISZERO PUSH3 0x3B0 JUMPI RETURNDATASIZE PUSH1 0x0 DUP1 RETURNDATACOPY RETURNDATASIZE PUSH1 0x0 REVERT JUMPDEST POP POP POP POP PUSH1 0x0 DUP2 PUSH1 0x2 ADD PUSH1 0x0 SWAP1 SLOAD SWAP1 PUSH2 0x100 EXP SWAP1 DIV PUSH1 0x1 PUSH1 0x1 PUSH1 0xA0 SHL SUB AND PUSH1 0x1 PUSH1 0x1 PUSH1 0xA0 SHL SUB AND PUSH4 0x18160DDD PUSH1 0x40 MLOAD DUP2 PUSH4 0xFFFFFFFF AND PUSH1 0xE0 SHL DUP2 MSTORE PUSH1 0x4 ADD PUSH1 0x20 PUSH1 0x40 MLOAD DUP1 DUP4 SUB DUP2 DUP7 GAS STATICCALL ISZERO DUP1 ISZERO PUSH3 0x40C JUMPI RETURNDATASIZE PUSH1 0x0 DUP1 RETURNDATACOPY RETURNDATASIZE PUSH1 0x0 REVERT JUMPDEST POP POP POP POP PUSH1 0x40 MLOAD RETURNDATASIZE PUSH1 0x1F NOT PUSH1 0x1F DUP3 ADD AND DUP3 ADD DUP1 PUSH1 0x40 MSTORE POP DUP2 ADD SWAP1 PUSH3 0x432 SWAP2 SWAP1 PUSH3 0x19AA JUMP JUMPDEST PUSH3 0x446 DUP5 PUSH8 0xDE0B6B3A7640000 PUSH3 0x19DA JUMP JUMPDEST PUSH3 0x452 SWAP2 SWAP1 PUSH3 0x19F4 JUMP JUMPDEST SWAP1 POP PUSH1 0x0 JUMPDEST PUSH1 0x3 DUP4 ADD SLOAD DUP2 LT ISZERO PUSH3 0x698 JUMPI PUSH1 0x0 PUSH10 0x21E19E0C9BAB2400000 DUP4 DUP6 PUSH1 0x3 ADD DUP5 DUP2 SLOAD DUP2 LT PUSH3 0x48A JUMPI PUSH3 0x48A PUSH3 0x1A17 JUMP JUMPDEST PUSH1 0x0 SWAP2 DUP3 MSTORE PUSH1 0x20 SWAP1 SWAP2 KECCAK256 PUSH1 0x3 SWAP1 SWAP2 MUL ADD SLOAD PUSH1 0x4 DUP8 ADD SLOAD PUSH3 0x4B7 SWAP2 PUSH1 0x1 PUSH1 0xC0 SHL SWAP1 DIV PUSH2 0xFFFF AND SWAP1 PUSH3 0x19DA JUMP JUMPDEST PUSH3 0x4C3 SWAP2 SWAP1 PUSH3 0x19DA JUMP JUMPDEST PUSH3 0x4CF SWAP2 SWAP1 PUSH3 0x19F4 JUMP JUMPDEST SWAP1 POP PUSH3 0x682 DUP5 PUSH1 0x3 ADD DUP4 DUP2 SLOAD DUP2 LT PUSH3 0x4ED JUMPI PUSH3 0x4ED PUSH3 0x1A17 JUMP JUMPDEST PUSH1 0x0 SWAP2 DUP3 MSTORE PUSH1 0x20 SWAP2 DUP3 SWAP1 KECCAK256 PUSH1 0x40 DUP1 MLOAD PUSH1 0xA0 DUP2 ADD DUP3 MSTORE PUSH1 0x3 SWAP4 SWAP1 SWAP4 MUL SWAP1 SWAP2 ADD DUP1 SLOAD PUSH4 0xFFFFFFFF DUP2 AND DUP5 MSTORE PUSH5 0x100000000 DUP2 DIV PUSH1 0x1 PUSH1 0x1 PUSH1 0xA0 SHL SUB AND SWAP5 DUP5 ADD SWAP5 SWAP1 SWAP5 MSTORE PUSH1 0x1 PUSH1 0xC0 SHL SWAP1 SWAP4 DIV PUSH2 0xFFFF AND SWAP1 DUP3 ADD MSTORE PUSH1 0x1 DUP3 ADD DUP1 SLOAD SWAP2 SWAP3 SWAP2 PUSH1 0x60 DUP5 ADD SWAP2 SWAP1 PUSH3 0x558 SWAP1 PUSH3 0x1A2D JUMP JUMPDEST DUP1 PUSH1 0x1F ADD PUSH1 0x20 DUP1 SWAP2 DIV MUL PUSH1 0x20 ADD PUSH1 0x40 MLOAD SWAP1 DUP2 ADD PUSH1 0x40 MSTORE DUP1 SWAP3 SWAP2 SWAP1 DUP2 DUP2 MSTORE PUSH1 0x20 ADD DUP3 DUP1 SLOAD PUSH3 0x586 SWAP1 PUSH3 0x1A2D JUMP JUMPDEST DUP1 ISZERO PUSH3 0x5D7 JUMPI DUP1 PUSH1 0x1F LT PUSH3 0x5AB JUMPI PUSH2 0x100 DUP1 DUP4 SLOAD DIV MUL DUP4 MSTORE SWAP2 PUSH1 0x20 ADD SWAP2 PUSH3 0x5D7 JUMP JUMPDEST DUP3 ADD SWAP2 SWAP1 PUSH1 0x0 MSTORE PUSH1 0x20 PUSH1 0x0 KECCAK256 SWAP1 JUMPDEST DUP2 SLOAD DUP2 MSTORE SWAP1 PUSH1 0x1 ADD SWAP1 PUSH1 0x20 ADD DUP1 DUP4 GT PUSH3 0x5B9 JUMPI DUP3 SWAP1 SUB PUSH1 0x1F AND DUP3 ADD SWAP2 JUMPDEST POP POP POP POP POP DUP2 MSTORE PUSH1 0x20 ADD PUSH1 0x2 DUP3 ADD DUP1 SLOAD PUSH3 0x5F2 SWAP1 PUSH3 0x1A2D JUMP JUMPDEST DUP1 PUSH1 0x1F ADD PUSH1 0x20 DUP1 SWAP2 DIV MUL PUSH1 0x20 ADD PUSH1 0x40 MLOAD SWAP1 DUP2 ADD PUSH1 0x40 MSTORE DUP1 SWAP3 SWAP2 SWAP1 DUP2 DUP2 MSTORE PUSH1 0x20 ADD DUP3 DUP1 SLOAD PUSH3 0x620 SWAP1 PUSH3 0x1A2D JUMP JUMPDEST DUP1 ISZERO PUSH3 0x671 JUMPI DUP1 PUSH1 0x1F LT PUSH3 0x645 JUMPI PUSH2 0x100 DUP1 DUP4 SLOAD DIV MUL DUP4 MSTORE SWAP2 PUSH1 0x20 ADD SWAP2 PUSH3 0x671 JUMP JUMPDEST DUP3 ADD SWAP2 SWAP1 PUSH1 0x0 MSTORE PUSH1 0x20 PUSH1 0x0 KECCAK256 SWAP1 JUMPDEST DUP2 SLOAD DUP2 MSTORE SWAP1 PUSH1 0x1 ADD SWAP1 PUSH1 0x20 ADD DUP1 DUP4 GT PUSH3 0x653 JUMPI DUP3 SWAP1 SUB PUSH1 0x1F AND DUP3 ADD SWAP2 JUMPDEST POP POP POP POP POP DUP2 MSTORE POP POP DUP3 CALLER PUSH3 0xFD2 JUMP JUMPDEST POP DUP1 PUSH3 0x68F DUP2 PUSH3 0x1A69 JUMP JUMPDEST SWAP2 POP POP PUSH3 0x457 JUMP JUMPDEST POP DUP3 DUP3 PUSH1 0x4 ADD PUSH1 0x0 DUP3 DUP3 SLOAD PUSH3 0x6AF SWAP2 SWAP1 PUSH3 0x1A85 JUMP JUMPDEST SWAP1 SWAP2 SSTORE POP POP PUSH1 0x40 DUP1 MLOAD DUP5 DUP2 MSTORE PUSH1 0x20 DUP2 ADD DUP6 SWAP1 MSTORE CALLER SWAP2 DUP7 SWAP2 PUSH32 0x1C84CC0F96161BDAFEA718A9094DD21C21D1FB2F9CA2EBB9BD4E39918EFBAACE SWAP2 ADD PUSH1 0x40 MLOAD DUP1 SWAP2 SUB SWAP1 LOG3 POP POP POP POP JUMP JUMPDEST PUSH1 0x2 PUSH1 0x20 MSTORE DUP2 PUSH1 0x0 MSTORE PUSH1 0x40 PUSH1 0x0 KECCAK256 DUP2 DUP2 SLOAD DUP2 LT PUSH3 0x714 JUMPI PUSH1 0x0 DUP1 REVERT JUMPDEST PUSH1 0x0 SWAP2 DUP3 MSTORE PUSH1 0x20 SWAP1 SWAP2 KECCAK256 PUSH1 0x3 SWAP1 SWAP2 MUL ADD DUP1 SLOAD PUSH1 0x1 DUP3 ADD SLOAD PUSH1 0x2 SWAP1 SWAP3 ADD SLOAD SWAP1 SWAP4 POP SWAP1 SWAP2 POP DUP4 JUMP JUMPDEST PUSH3 0x77F PUSH1 0x40 MLOAD DUP1 PUSH1 0xC0 ADD PUSH1 0x40 MSTORE DUP1 PUSH1 0x0 DUP2 MSTORE PUSH1 0x20 ADD PUSH1 0x60 DUP2 MSTORE PUSH1 0x20 ADD PUSH1 0x0 PUSH1 0x1 PUSH1 0x1 PUSH1 0xA0 SHL SUB AND DUP2 MSTORE PUSH1 0x20 ADD PUSH1 0x60 DUP2 MSTORE PUSH1 0x20 ADD PUSH1 0x0 DUP2 MSTORE PUSH1 0x20 ADD PUSH1 0x0 ISZERO ISZERO DUP2 MSTORE POP SWAP1 JUMP JUMPDEST PUSH1 0x0 DUP3 DUP2 MSTORE PUSH1 0x1 PUSH1 0x20 DUP2 DUP2 MSTORE PUSH1 0x40 SWAP3 DUP4 SWAP1 KECCAK256 DUP4 MLOAD PUSH1 0xC0 DUP2 ADD SWAP1 SWAP5 MSTORE DUP1 SLOAD DUP5 MSTORE SWAP2 DUP3 ADD DUP1 SLOAD SWAP2 DUP5 ADD SWAP2 PUSH3 0x7B2 SWAP1 PUSH3 0x1A2D JUMP JUMPDEST DUP1 PUSH1 0x1F ADD PUSH1 0x20 DUP1 SWAP2 DIV MUL PUSH1 0x20 ADD PUSH1 0x40 MLOAD SWAP1 DUP2 ADD PUSH1 0x40 MSTORE DUP1 SWAP3 SWAP2 SWAP1 DUP2 DUP2 MSTORE PUSH1 0x20 ADD DUP3 DUP1 SLOAD PUSH3 0x7E0 SWAP1 PUSH3 0x1A2D JUMP JUMPDEST DUP1 ISZERO PUSH3 0x831 JUMPI DUP1 PUSH1 0x1F LT PUSH3 0x805 JUMPI PUSH2 0x100 DUP1 DUP4 SLOAD DIV MUL DUP4 MSTORE SWAP2 PUSH1 0x20 ADD SWAP2 PUSH3 0x831 JUMP JUMPDEST DUP3 ADD SWAP2 SWAP1 PUSH1 0x0 MSTORE PUSH1 0x20 PUSH1 0x0 KECCAK256 SWAP1 JUMPDEST DUP2 SLOAD DUP2 MSTORE SWAP1 PUSH1 0x1 ADD SWAP1 PUSH1 0x20 ADD DUP1 DUP4 GT PUSH3 0x813 JUMPI DUP3 SWAP1 SUB PUSH1 0x1F AND DUP3 ADD SWAP2 JUMPDEST POP POP POP SWAP2 DUP4 MSTORE POP POP PUSH1 0x2 DUP3 ADD SLOAD PUSH1 0x1 PUSH1 0x1 PUSH1 0xA0 SHL SUB AND PUSH1 0x20 DUP1 DUP4 ADD SWAP2 SWAP1 SWAP2 MSTORE PUSH1 0x3 DUP4 ADD DUP1 SLOAD PUSH1 0x40 DUP1 MLOAD DUP3 DUP6 MUL DUP2 ADD DUP6 ADD DUP3 MSTORE DUP3 DUP2 MSTORE SWAP5 ADD SWAP4 SWAP3 PUSH1 0x0 SWAP1 DUP5 ADD JUMPDEST DUP3 DUP3 LT ISZERO PUSH3 0xA14 JUMPI PUSH1 0x0 DUP5 DUP2 MSTORE PUSH1 0x20 SWAP1 DUP2 SWAP1 KECCAK256 PUSH1 0x40 DUP1 MLOAD PUSH1 0xA0 DUP2 ADD DUP3 MSTORE PUSH1 0x3 DUP7 MUL SWAP1 SWAP3 ADD DUP1 SLOAD PUSH4 0xFFFFFFFF DUP2 AND DUP5 MSTORE PUSH5 0x100000000 DUP2 DIV PUSH1 0x1 PUSH1 0x1 PUSH1 0xA0 SHL SUB AND SWAP5 DUP5 ADD SWAP5 SWAP1 SWAP5 MSTORE PUSH1 0x1 PUSH1 0xC0 SHL SWAP1 SWAP4 DIV PUSH2 0xFFFF AND SWAP1 DUP3 ADD MSTORE PUSH1 0x1 DUP3 ADD DUP1 SLOAD SWAP2 SWAP3 SWAP2 PUSH1 0x60 DUP5 ADD SWAP2 SWAP1 PUSH3 0x8E2 SWAP1 PUSH3 0x1A2D JUMP JUMPDEST DUP1 PUSH1 0x1F ADD PUSH1 0x20 DUP1 SWAP2 DIV MUL PUSH1 0x20 ADD PUSH1 0x40 MLOAD SWAP1 DUP2 ADD PUSH1 0x40 MSTORE DUP1 SWAP3 SWAP2 SWAP1 DUP2 DUP2 MSTORE PUSH1 0x20 ADD DUP3 DUP1 SLOAD PUSH3 0x910 SWAP1 PUSH3 0x1A2D JUMP JUMPDEST DUP1 ISZERO PUSH3 0x961 JUMPI DUP1 PUSH1 0x1F LT PUSH3 0x935 JUMPI PUSH2 0x100 DUP1 DUP4 SLOAD DIV MUL DUP4 MSTORE SWAP2 PUSH1 0x20 ADD SWAP2 PUSH3 0x961 JUMP JUMPDEST DUP3 ADD SWAP2 SWAP1 PUSH1 0x0 MSTORE PUSH1 0x20 PUSH1 0x0 KECCAK256 SWAP1 JUMPDEST DUP2 SLOAD DUP2 MSTORE SWAP1 PUSH1 0x1 ADD SWAP1 PUSH1 0x20 ADD DUP1 DUP4 GT PUSH3 0x943 JUMPI DUP3 SWAP1 SUB PUSH1 0x1F AND DUP3 ADD SWAP2 JUMPDEST POP POP POP POP POP DUP2 MSTORE PUSH1 0x20 ADD PUSH1 0x2 DUP3 ADD DUP1 SLOAD PUSH3 0x97C SWAP1 PUSH3 0x1A2D JUMP JUMPDEST DUP1 PUSH1 0x1F ADD PUSH1 0x20 DUP1 SWAP2 DIV MUL PUSH1 0x20 ADD PUSH1 0x40 MLOAD SWAP1 DUP2 ADD PUSH1 0x40 MSTORE DUP1 SWAP3 SWAP2 SWAP1 DUP2 DUP2 MSTORE PUSH1 0x20 ADD DUP3 DUP1 SLOAD PUSH3 0x9AA SWAP1 PUSH3 0x1A2D JUMP JUMPDEST DUP1 ISZERO PUSH3 0x9FB JUMPI DUP1 PUSH1 0x1F LT PUSH3 0x9CF JUMPI PUSH2 0x100 DUP1 DUP4 SLOAD DIV MUL DUP4 MSTORE SWAP2 PUSH1 0x20 ADD SWAP2 PUSH3 0x9FB JUMP JUMPDEST DUP3 ADD SWAP2 SWAP1 PUSH1 0x0 MSTORE PUSH1 0x20 PUSH1 0x0 KECCAK256 SWAP1 JUMPDEST DUP2 SLOAD DUP2 MSTORE SWAP1 PUSH1 0x1 ADD SWAP1 PUSH1 0x20 ADD DUP1 DUP4 GT PUSH3 0x9DD JUMPI DUP3 SWAP1 SUB PUSH1 0x1F AND DUP3 ADD SWAP2 JUMPDEST POP POP POP POP POP DUP2 MSTORE POP POP DUP2 MSTORE PUSH1 0x20 ADD SWAP1 PUSH1 0x1 ADD SWAP1 PUSH3 0x870 JUMP JUMPDEST POP POP POP SWAP1 DUP3 MSTORE POP PUSH1 0x4 DUP3 ADD SLOAD PUSH1 0x20 DUP3 ADD MSTORE PUSH1 0x5 SWAP1 SWAP2 ADD SLOAD PUSH1 0xFF AND ISZERO ISZERO PUSH1 0x40 SWAP1 SWAP2 ADD MSTORE SWAP3 SWAP2 POP POP JUMP JUMPDEST PUSH1 0x1 PUSH1 0x20 DUP2 SWAP1 MSTORE PUSH1 0x0 SWAP2 DUP3 MSTORE PUSH1 0x40 SWAP1 SWAP2 KECCAK256 DUP1 SLOAD SWAP2 DUP2 ADD DUP1 SLOAD PUSH3 0xA5F SWAP1 PUSH3 0x1A2D JUMP JUMPDEST DUP1 PUSH1 0x1F ADD PUSH1 0x20 DUP1 SWAP2 DIV MUL PUSH1 0x20 ADD PUSH1 0x40 MLOAD SWAP1 DUP2 ADD PUSH1 0x40 MSTORE DUP1 SWAP3 SWAP2 SWAP1 DUP2 DUP2 MSTORE PUSH1 0x20 ADD DUP3 DUP1 SLOAD PUSH3 0xA8D SWAP1 PUSH3 0x1A2D JUMP JUMPDEST DUP1 ISZERO PUSH3 0xADE JUMPI DUP1 PUSH1 0x1F LT PUSH3 0xAB2 JUMPI PUSH2 0x100 DUP1 DUP4 SLOAD DIV MUL DUP4 MSTORE SWAP2 PUSH1 0x20 ADD SWAP2 PUSH3 0xADE JUMP JUMPDEST DUP3 ADD SWAP2 SWAP1 PUSH1 0x0 MSTORE PUSH1 0x20 PUSH1 0x0 KECCAK256 SWAP1 JUMPDEST DUP2 SLOAD DUP2 MSTORE SWAP1 PUSH1 0x1 ADD SWAP1 PUSH1 0x20 ADD DUP1 DUP4 GT PUSH3 0xAC0 JUMPI DUP3 SWAP1 SUB PUSH1 0x1F AND DUP3 ADD SWAP2 JUMPDEST POP POP POP POP PUSH1 0x2 DUP4 ADD SLOAD PUSH1 0x4 DUP5 ADD SLOAD PUSH1 0x5 SWAP1 SWAP5 ADD SLOAD SWAP3 SWAP4 PUSH1 0x1 PUSH1 0x1 PUSH1 0xA0 SHL SUB SWAP1 SWAP2 AND SWAP3 SWAP1 SWAP2 POP PUSH1 0xFF AND DUP6 JUMP JUMPDEST PUSH1 0x3 SLOAD PUSH1 0x0 SWAP1 PUSH1 0x1 PUSH1 0x1 PUSH1 0xA0 SHL SUB AND CALLER EQ PUSH3 0xB54 JUMPI PUSH1 0x40 MLOAD PUSH3 0x461BCD PUSH1 0xE5 SHL DUP2 MSTORE PUSH1 0x20 PUSH1 0x4 DUP3 ADD MSTORE PUSH1 0x9 PUSH1 0x24 DUP3 ADD MSTORE PUSH9 0x2737BA1037BBB732B9 PUSH1 0xB9 SHL PUSH1 0x44 DUP3 ADD MSTORE PUSH1 0x64 ADD PUSH3 0x343 JUMP JUMPDEST PUSH3 0xB60 DUP4 DUP4 PUSH3 0x1069 JUMP JUMPDEST PUSH1 0x0 DUP1 SLOAD SWAP1 DUP1 PUSH3 0xB71 DUP4 PUSH3 0x1A69 JUMP JUMPDEST SWAP2 SWAP1 POP SSTORE SWAP1 POP PUSH1 0x0 DUP8 DUP8 DUP8 DUP8 ADDRESS PUSH1 0x40 MLOAD PUSH3 0xB8C SWAP1 PUSH3 0x161B JUMP JUMPDEST PUSH3 0xB9C SWAP6 SWAP5 SWAP4 SWAP3 SWAP2 SWAP1 PUSH3 0x1AC4 JUMP JUMPDEST PUSH1 0x40 MLOAD DUP1 SWAP2 SUB SWAP1 PUSH1 0x0 CREATE DUP1 ISZERO DUP1 ISZERO PUSH3 0xBB9 JUMPI RETURNDATASIZE PUSH1 0x0 DUP1 RETURNDATACOPY RETURNDATASIZE PUSH1 0x0 REVERT JUMPDEST POP PUSH1 0x0 DUP4 DUP2 MSTORE PUSH1 0x1 PUSH1 0x20 DUP2 SWAP1 MSTORE PUSH1 0x40 SWAP1 SWAP2 KECCAK256 DUP5 DUP2 SSTORE SWAP2 SWAP3 POP DUP2 ADD PUSH3 0xBE0 DUP10 DUP12 DUP4 PUSH3 0x1B72 JUMP JUMPDEST POP PUSH1 0x2 DUP2 ADD DUP1 SLOAD PUSH1 0x1 PUSH1 0x1 PUSH1 0xA0 SHL SUB NOT AND PUSH1 0x1 PUSH1 0x1 PUSH1 0xA0 SHL SUB DUP5 AND OR SWAP1 SSTORE PUSH1 0x5 DUP2 ADD DUP1 SLOAD PUSH1 0xFF NOT AND PUSH1 0x1 OR SWAP1 SSTORE PUSH1 0x0 JUMPDEST DUP5 DUP2 LT ISZERO PUSH3 0xC82 JUMPI DUP2 PUSH1 0x3 ADD DUP7 DUP7 DUP4 DUP2 DUP2 LT PUSH3 0xC32 JUMPI PUSH3 0xC32 PUSH3 0x1A17 JUMP JUMPDEST SWAP1 POP PUSH1 0x20 MUL DUP2 ADD SWAP1 PUSH3 0xC46 SWAP2 SWAP1 PUSH3 0x1C40 JUMP JUMPDEST DUP2 SLOAD PUSH1 0x1 DUP2 ADD DUP4 SSTORE PUSH1 0x0 SWAP3 DUP4 MSTORE PUSH1 0x20 SWAP1 SWAP3 KECCAK256 SWAP1 SWAP2 PUSH1 0x3 MUL ADD PUSH3 0xC6A DUP3 DUP3 PUSH3 0x1CBC JUMP JUMPDEST POP POP DUP1 DUP1 PUSH3 0xC79 SWAP1 PUSH3 0x1A69 JUMP JUMPDEST SWAP2 POP POP PUSH3 0xC10 JUMP JUMPDEST POP DUP3 PUSH32 0x829F34AE8184BF5738E5E995441F1E5D7CCBB07FE323B0D01D850C3DFA08182B DUP11 DUP11 DUP6 PUSH1 0x40 MLOAD PUSH3 0xCB9 SWAP4 SWAP3 SWAP2 SWAP1 PUSH3 0x1D87 JUMP JUMPDEST PUSH1 0x40 MLOAD DUP1 SWAP2 SUB SWAP1 LOG2 POP POP SWAP7 SWAP6 POP POP POP POP POP POP JUMP JUMPDEST PUSH1 0x0 DUP2 DUP2 MSTORE PUSH1 0x1 PUSH1 0x20 MSTORE PUSH1 0x40 DUP2 KECCAK256 PUSH1 0x5 DUP2 ADD SLOAD PUSH1 0xFF AND PUSH3 0xD02 JUMPI PUSH1 0x40 MLOAD PUSH3 0x461BCD PUSH1 0xE5 SHL DUP2 MSTORE PUSH1 0x4 ADD PUSH3 0x343 SWAP1 PUSH3 0x197F JUMP JUMPDEST PUSH1 0x0 CALLVALUE GT PUSH3 0xD47 JUMPI PUSH1 0x40 MLOAD PUSH3 0x461BCD PUSH1 0xE5 SHL DUP2 MSTORE PUSH1 0x20 PUSH1 0x4 DUP3 ADD MSTORE PUSH1 0x10 PUSH1 0x24 DUP3 ADD MSTORE PUSH16 0x4D757374206465706F736974203E203 PUSH1 0x84 SHL PUSH1 0x44 DUP3 ADD MSTORE PUSH1 0x64 ADD PUSH3 0x343 JUMP JUMPDEST PUSH1 0x2 DUP2 ADD SLOAD PUSH1 0x40 MLOAD PUSH4 0x40C10F19 PUSH1 0xE0 SHL DUP2 MSTORE CALLER PUSH1 0x4 DUP3 ADD MSTORE CALLVALUE PUSH1 0x24 DUP3 ADD DUP2 SWAP1 MSTORE SWAP4 POP PUSH1 0x1 PUSH1 0x1 PUSH1 0xA0 SHL SUB SWAP1 SWAP2 AND SWAP1 PUSH4 0x40C10F19 SWAP1 PUSH1 0x44 ADD PUSH1 0x0 PUSH1 0x40 MLOAD DUP1 DUP4 SUB DUP2 PUSH1 0x0 DUP8 DUP1 EXTCODESIZE ISZERO DUP1 ISZERO PUSH3 0xD99 JUMPI PUSH1 0x0 DUP1 REVERT JUMPDEST POP GAS CALL ISZERO DUP1 ISZERO PUSH3 0xDAE JUMPI RETURNDATASIZE PUSH1 0x0 DUP1 RETURNDATACOPY RETURNDATASIZE PUSH1 0x0 REVERT JUMPDEST POP POP POP POP CALLVALUE DUP2 PUSH1 0x4 ADD PUSH1 0x0 DUP3 DUP3 SLOAD PUSH3 0xDC8 SWAP2 SWAP1 PUSH3 0x1DB5 JUMP JUMPDEST SWAP1 SWAP2 SSTORE POP PUSH3 0xDDA SWAP1 POP DUP4 CALLVALUE PUSH3 0x1132 JUMP JUMPDEST PUSH1 0x40 DUP1 MLOAD CALLVALUE DUP2 MSTORE PUSH1 0x20 DUP2 ADD DUP5 SWAP1 MSTORE CALLER SWAP2 DUP6 SWAP2 PUSH32 0xAD5B4075B97DBF75AD5C78F7AFAC948E4AE611C4FDF2825E2CE3C6C96925BF3B SWAP2 ADD PUSH1 0x40 MLOAD DUP1 SWAP2 SUB SWAP1 LOG3 POP SWAP2 SWAP1 POP JUMP JUMPDEST PUSH1 0x0 DUP2 DUP2 MSTORE PUSH1 0x1 PUSH1 0x20 MSTORE PUSH1 0x40 SWAP1 KECCAK256 PUSH1 0x5 DUP2 ADD SLOAD PUSH1 0xFF AND PUSH3 0xE52 JUMPI PUSH1 0x40 MLOAD PUSH3 0x461BCD PUSH1 0xE5 SHL DUP2 MSTORE PUSH1 0x4 ADD PUSH3 0x343 SWAP1 PUSH3 0x197F JUMP JUMPDEST PUSH1 0x0 PUSH3 0xE5F DUP3 PUSH3 0x138F JUMP JUMPDEST SWAP1 POP PUSH1 0x0 PUSH3 0xE6E DUP3 PUSH3 0x1497 JUMP JUMPDEST SWAP1 POP PUSH1 0x0 DUP2 DUP1 PUSH1 0x20 ADD SWAP1 MLOAD DUP2 ADD SWAP1 PUSH3 0xE88 SWAP2 SWAP1 PUSH3 0x1DDD JUMP JUMPDEST SWAP1 POP PUSH1 0x0 JUMPDEST PUSH1 0x3 DUP6 ADD SLOAD DUP2 LT ISZERO PUSH3 0xF8F JUMPI PUSH1 0x3 PUSH1 0x14 SWAP1 SLOAD SWAP1 PUSH2 0x100 EXP SWAP1 DIV PUSH2 0xFFFF AND PUSH2 0xFFFF AND PUSH3 0xF0E DUP7 PUSH1 0x3 ADD DUP4 DUP2 SLOAD DUP2 LT PUSH3 0xECB JUMPI PUSH3 0xECB PUSH3 0x1A17 JUMP JUMPDEST SWAP1 PUSH1 0x0 MSTORE PUSH1 0x20 PUSH1 0x0 KECCAK256 SWAP1 PUSH1 0x3 MUL ADD PUSH1 0x0 ADD PUSH1 0x18 SWAP1 SLOAD SWAP1 PUSH2 0x100 EXP SWAP1 DIV PUSH2 0xFFFF AND DUP5 DUP5 DUP2 MLOAD DUP2 LT PUSH3 0xF00 JUMPI PUSH3 0xF00 PUSH3 0x1A17 JUMP JUMPDEST PUSH1 0x20 MUL PUSH1 0x20 ADD ADD MLOAD PUSH3 0x154E JUMP JUMPDEST PUSH2 0xFFFF AND GT ISZERO PUSH3 0xF7A JUMPI DUP2 DUP2 DUP2 MLOAD DUP2 LT PUSH3 0xF2E JUMPI PUSH3 0xF2E PUSH3 0x1A17 JUMP JUMPDEST PUSH1 0x20 MUL PUSH1 0x20 ADD ADD MLOAD DUP6 PUSH1 0x3 ADD DUP3 DUP2 SLOAD DUP2 LT PUSH3 0xF4E JUMPI PUSH3 0xF4E PUSH3 0x1A17 JUMP JUMPDEST SWAP1 PUSH1 0x0 MSTORE PUSH1 0x20 PUSH1 0x0 KECCAK256 SWAP1 PUSH1 0x3 MUL ADD PUSH1 0x0 ADD PUSH1 0x18 PUSH2 0x100 EXP DUP2 SLOAD DUP2 PUSH2 0xFFFF MUL NOT AND SWAP1 DUP4 PUSH2 0xFFFF AND MUL OR SWAP1 SSTORE POP JUMPDEST DUP1 PUSH3 0xF86 DUP2 PUSH3 0x1A69 JUMP JUMPDEST SWAP2 POP POP PUSH3 0xE8D JUMP JUMPDEST POP DUP5 PUSH32 0xC257294AD49C215E1A248C91A86BC2612B4781D9677285CC9C14498F485EF122 TIMESTAMP PUSH1 0x40 MLOAD PUSH3 0xFC3 SWAP2 DUP2 MSTORE PUSH1 0x20 ADD SWAP1 JUMP JUMPDEST PUSH1 0x40 MLOAD DUP1 SWAP2 SUB SWAP1 LOG2 POP POP POP POP POP JUMP JUMPDEST PUSH1 0x0 DUP4 PUSH1 0x0 ADD MLOAD DUP4 DUP6 PUSH1 0x80 ADD MLOAD DUP5 PUSH1 0x40 MLOAD PUSH1 0x20 ADD PUSH3 0xFF5 SWAP5 SWAP4 SWAP3 SWAP2 SWAP1 PUSH3 0x1EB0 JUMP JUMPDEST PUSH1 0x40 DUP1 MLOAD PUSH1 0x1F NOT DUP2 DUP5 SUB ADD DUP2 MSTORE SWAP1 DUP3 SWAP1 MSTORE DUP6 MLOAD PUSH4 0x6B206FC7 PUSH1 0xE0 SHL DUP4 MSTORE SWAP1 SWAP3 POP PUSH2 0x800 SWAP2 PUSH4 0x6B206FC7 SWAP2 PUSH3 0x102F SWAP2 DUP6 SWAP1 PUSH1 0x4 ADD PUSH3 0x1EF0 JUMP JUMPDEST PUSH1 0x0 PUSH1 0x40 MLOAD DUP1 DUP4 SUB DUP2 PUSH1 0x0 DUP8 DUP1 EXTCODESIZE ISZERO DUP1 ISZERO PUSH3 0x104A JUMPI PUSH1 0x0 DUP1 REVERT JUMPDEST POP GAS CALL ISZERO DUP1 ISZERO PUSH3 0x105F JUMPI RETURNDATASIZE PUSH1 0x0 DUP1 RETURNDATACOPY RETURNDATASIZE PUSH1 0x0 REVERT JUMPDEST POP POP POP POP POP POP POP POP JUMP JUMPDEST PUSH1 0x0 DUP1 JUMPDEST DUP3 DUP2 LT ISZERO PUSH3 0x10D9 JUMPI DUP4 DUP4 DUP3 DUP2 DUP2 LT PUSH3 0x108B JUMPI PUSH3 0x108B PUSH3 0x1A17 JUMP JUMPDEST SWAP1 POP PUSH1 0x20 MUL DUP2 ADD SWAP1 PUSH3 0x109F SWAP2 SWAP1 PUSH3 0x1C40 JUMP JUMPDEST PUSH3 0x10B2 SWAP1 PUSH1 0x60 DUP2 ADD SWAP1 PUSH1 0x40 ADD PUSH3 0x1F19 JUMP JUMPDEST PUSH3 0x10C2 SWAP1 PUSH2 0xFFFF AND DUP4 PUSH3 0x1DB5 JUMP JUMPDEST SWAP2 POP DUP1 PUSH3 0x10D0 DUP2 PUSH3 0x1A69 JUMP JUMPDEST SWAP2 POP POP PUSH3 0x106D JUMP JUMPDEST POP DUP1 PUSH2 0x2710 EQ PUSH3 0x112D JUMPI PUSH1 0x40 MLOAD PUSH3 0x461BCD PUSH1 0xE5 SHL DUP2 MSTORE PUSH1 0x20 PUSH1 0x4 DUP3 ADD MSTORE PUSH1 0x1D PUSH1 0x24 DUP3 ADD MSTORE PUSH32 0x57656967687473206D7573742073756D20746F20313030303020627073000000 PUSH1 0x44 DUP3 ADD MSTORE PUSH1 0x64 ADD PUSH3 0x343 JUMP JUMPDEST POP POP POP JUMP JUMPDEST PUSH1 0x0 DUP3 DUP2 MSTORE PUSH1 0x1 PUSH1 0x20 MSTORE PUSH1 0x40 DUP2 KECCAK256 SWAP1 JUMPDEST PUSH1 0x3 DUP3 ADD SLOAD DUP2 LT ISZERO PUSH3 0x1389 JUMPI PUSH1 0x0 DUP3 PUSH1 0x3 ADD DUP3 DUP2 SLOAD DUP2 LT PUSH3 0x1169 JUMPI PUSH3 0x1169 PUSH3 0x1A17 JUMP JUMPDEST PUSH1 0x0 SWAP2 DUP3 MSTORE PUSH1 0x20 SWAP2 DUP3 SWAP1 KECCAK256 PUSH1 0x40 DUP1 MLOAD PUSH1 0xA0 DUP2 ADD DUP3 MSTORE PUSH1 0x3 SWAP4 SWAP1 SWAP4 MUL SWAP1 SWAP2 ADD DUP1 SLOAD PUSH4 0xFFFFFFFF DUP2 AND DUP5 MSTORE PUSH5 0x100000000 DUP2 DIV PUSH1 0x1 PUSH1 0x1 PUSH1 0xA0 SHL SUB AND SWAP5 DUP5 ADD SWAP5 SWAP1 SWAP5 MSTORE PUSH1 0x1 PUSH1 0xC0 SHL SWAP1 SWAP4 DIV PUSH2 0xFFFF AND SWAP1 DUP3 ADD MSTORE PUSH1 0x1 DUP3 ADD DUP1 SLOAD SWAP2 SWAP3 SWAP2 PUSH1 0x60 DUP5 ADD SWAP2 SWAP1 PUSH3 0x11D4 SWAP1 PUSH3 0x1A2D JUMP JUMPDEST DUP1 PUSH1 0x1F ADD PUSH1 0x20 DUP1 SWAP2 DIV MUL PUSH1 0x20 ADD PUSH1 0x40 MLOAD SWAP1 DUP2 ADD PUSH1 0x40 MSTORE DUP1 SWAP3 SWAP2 SWAP1 DUP2 DUP2 MSTORE PUSH1 0x20 ADD DUP3 DUP1 SLOAD PUSH3 0x1202 SWAP1 PUSH3 0x1A2D JUMP JUMPDEST DUP1 ISZERO PUSH3 0x1253 JUMPI DUP1 PUSH1 0x1F LT PUSH3 0x1227 JUMPI PUSH2 0x100 DUP1 DUP4 SLOAD DIV MUL DUP4 MSTORE SWAP2 PUSH1 0x20 ADD SWAP2 PUSH3 0x1253 JUMP JUMPDEST DUP3 ADD SWAP2 SWAP1 PUSH1 0x0 MSTORE PUSH1 0x20 PUSH1 0x0 KECCAK256 SWAP1 JUMPDEST DUP2 SLOAD DUP2 MSTORE SWAP1 PUSH1 0x1 ADD SWAP1 PUSH1 0x20 ADD DUP1 DUP4 GT PUSH3 0x1235 JUMPI DUP3 SWAP1 SUB PUSH1 0x1F AND DUP3 ADD SWAP2 JUMPDEST POP POP POP POP POP DUP2 MSTORE PUSH1 0x20 ADD PUSH1 0x2 DUP3 ADD DUP1 SLOAD PUSH3 0x126E SWAP1 PUSH3 0x1A2D JUMP JUMPDEST DUP1 PUSH1 0x1F ADD PUSH1 0x20 DUP1 SWAP2 DIV MUL PUSH1 0x20 ADD PUSH1 0x40 MLOAD SWAP1 DUP2 ADD PUSH1 0x40 MSTORE DUP1 SWAP3 SWAP2 SWAP1 DUP2 DUP2 MSTORE PUSH1 0x20 ADD DUP3 DUP1 SLOAD PUSH3 0x129C SWAP1 PUSH3 0x1A2D JUMP JUMPDEST DUP1 ISZERO PUSH3 0x12ED JUMPI DUP1 PUSH1 0x1F LT PUSH3 0x12C1 JUMPI PUSH2 0x100 DUP1 DUP4 SLOAD DIV MUL DUP4 MSTORE SWAP2 PUSH1 0x20 ADD SWAP2 PUSH3 0x12ED JUMP JUMPDEST DUP3 ADD SWAP2 SWAP1 PUSH1 0x0 MSTORE PUSH1 0x20 PUSH1 0x0 KECCAK256 SWAP1 JUMPDEST DUP2 SLOAD DUP2 MSTORE SWAP1 PUSH1 0x1 ADD SWAP1 PUSH1 0x20 ADD DUP1 DUP4 GT PUSH3 0x12CF JUMPI DUP3 SWAP1 SUB PUSH1 0x1F AND DUP3 ADD SWAP2 JUMPDEST POP POP POP POP POP DUP2 MSTORE POP POP SWAP1 POP PUSH1 0x0 PUSH2 0x2710 DUP3 PUSH1 0x40 ADD MLOAD PUSH2 0xFFFF AND DUP7 PUSH3 0x1313 SWAP2 SWAP1 PUSH3 0x19DA JUMP JUMPDEST PUSH3 0x131F SWAP2 SWAP1 PUSH3 0x19F4 JUMP JUMPDEST SWAP1 POP PUSH3 0x132D DUP3 DUP3 PUSH3 0x1587 JUMP JUMPDEST DUP2 MLOAD PUSH1 0x40 DUP1 MLOAD PUSH4 0xFFFFFFFF SWAP1 SWAP3 AND DUP3 MSTORE PUSH1 0x20 DUP3 ADD DUP4 SWAP1 MSTORE DUP8 SWAP2 PUSH32 0x2A714ABD697B83E14DF66CE02BCADCAB42E9D2305E12D5ABF7B61656DFA689EB SWAP2 ADD PUSH1 0x40 MLOAD DUP1 SWAP2 SUB SWAP1 LOG2 POP POP DUP1 DUP1 PUSH3 0x1380 SWAP1 PUSH3 0x1A69 JUMP JUMPDEST SWAP2 POP POP PUSH3 0x1142 JUMP JUMPDEST POP POP POP POP JUMP JUMPDEST PUSH1 0x3 DUP2 ADD SLOAD PUSH1 0x60 SWAP1 PUSH1 0x0 SWAP1 PUSH8 0xFFFFFFFFFFFFFFFF DUP2 GT ISZERO PUSH3 0x13B5 JUMPI PUSH3 0x13B5 PUSH3 0x1B0A JUMP JUMPDEST PUSH1 0x40 MLOAD SWAP1 DUP1 DUP3 MSTORE DUP1 PUSH1 0x20 MUL PUSH1 0x20 ADD DUP3 ADD PUSH1 0x40 MSTORE DUP1 ISZERO PUSH3 0x13DF JUMPI DUP2 PUSH1 0x20 ADD PUSH1 0x20 DUP3 MUL DUP1 CALLDATASIZE DUP4 CALLDATACOPY ADD SWAP1 POP JUMPDEST POP SWAP1 POP PUSH1 0x0 JUMPDEST PUSH1 0x3 DUP5 ADD SLOAD DUP2 LT ISZERO PUSH3 0x1467 JUMPI DUP4 PUSH1 0x3 ADD DUP2 DUP2 SLOAD DUP2 LT PUSH3 0x140A JUMPI PUSH3 0x140A PUSH3 0x1A17 JUMP JUMPDEST SWAP1 PUSH1 0x0 MSTORE PUSH1 0x20 PUSH1 0x0 KECCAK256 SWAP1 PUSH1 0x3 MUL ADD PUSH1 0x0 ADD PUSH1 0x18 SWAP1 SLOAD SWAP1 PUSH2 0x100 EXP SWAP1 DIV PUSH2 0xFFFF AND DUP3 DUP3 DUP2 MLOAD DUP2 LT PUSH3 0x143F JUMPI PUSH3 0x143F PUSH3 0x1A17 JUMP JUMPDEST PUSH2 0xFFFF SWAP1 SWAP3 AND PUSH1 0x20 SWAP3 DUP4 MUL SWAP2 SWAP1 SWAP2 ADD SWAP1 SWAP2 ADD MSTORE DUP1 PUSH3 0x145E DUP2 PUSH3 0x1A69 JUMP JUMPDEST SWAP2 POP POP PUSH3 0x13E5 JUMP JUMPDEST POP PUSH1 0x4 DUP4 ADD SLOAD PUSH1 0x40 MLOAD PUSH3 0x1480 SWAP2 DUP4 SWAP2 PUSH1 0x20 ADD PUSH3 0x1F39 JUMP JUMPDEST PUSH1 0x40 MLOAD PUSH1 0x20 DUP2 DUP4 SUB SUB DUP2 MSTORE SWAP1 PUSH1 0x40 MSTORE SWAP2 POP POP SWAP2 SWAP1 POP JUMP JUMPDEST PUSH1 0x60 PUSH1 0x0 DUP1 PUSH2 0x900 PUSH1 0x1 PUSH1 0x1 PUSH1 0xA0 SHL SUB AND DUP5 PUSH1 0x40 MLOAD PUSH3 0x14B8 SWAP2 SWAP1 PUSH3 0x1F87 JUMP JUMPDEST PUSH1 0x0 PUSH1 0x40 MLOAD DUP1 DUP4 SUB DUP2 DUP6 GAS STATICCALL SWAP2 POP POP RETURNDATASIZE DUP1 PUSH1 0x0 DUP2 EQ PUSH3 0x14F5 JUMPI PUSH1 0x40 MLOAD SWAP2 POP PUSH1 0x1F NOT PUSH1 0x3F RETURNDATASIZE ADD AND DUP3 ADD PUSH1 0x40 MSTORE RETURNDATASIZE DUP3 MSTORE RETURNDATASIZE PUSH1 0x0 PUSH1 0x20 DUP5 ADD RETURNDATACOPY PUSH3 0x14FA JUMP JUMPDEST PUSH1 0x60 SWAP2 POP JUMPDEST POP SWAP2 POP SWAP2 POP DUP2 PUSH3 0x1547 JUMPI PUSH1 0x40 MLOAD PUSH3 0x461BCD PUSH1 0xE5 SHL DUP2 MSTORE PUSH1 0x20 PUSH1 0x4 DUP3 ADD MSTORE PUSH1 0x16 PUSH1 0x24 DUP3 ADD MSTORE PUSH22 0x14159348195B99DA5B994818D85B1B0819985A5B1959 PUSH1 0x52 SHL PUSH1 0x44 DUP3 ADD MSTORE PUSH1 0x64 ADD PUSH3 0x343 JUMP JUMPDEST SWAP4 SWAP3 POP POP POP JUMP JUMPDEST PUSH1 0x0 DUP2 PUSH2 0xFFFF AND DUP4 PUSH2 0xFFFF AND GT PUSH3 0x1572 JUMPI PUSH3 0x156C DUP4 DUP4 PUSH3 0x1F9B JUMP JUMPDEST PUSH3 0x157E JUMP JUMPDEST PUSH3 0x157E DUP3 DUP5 PUSH3 0x1F9B JUMP JUMPDEST SWAP1 POP JUMPDEST SWAP3 SWAP2 POP POP JUMP JUMPDEST PUSH1 0x0 DUP3 PUSH1 0x0 ADD MLOAD DUP3 DUP5 PUSH1 0x60 ADD MLOAD PUSH1 0x40 MLOAD PUSH1 0x20 ADD PUSH3 0x15A8 SWAP4 SWAP3 SWAP2 SWAP1 PUSH3 0x1FC0 JUMP JUMPDEST PUSH1 0x40 DUP1 MLOAD PUSH1 0x1F NOT DUP2 DUP5 SUB ADD DUP2 MSTORE SWAP1 DUP3 SWAP1 MSTORE DUP5 MLOAD PUSH4 0x6B206FC7 PUSH1 0xE0 SHL DUP4 MSTORE SWAP1 SWAP3 POP PUSH2 0x800 SWAP2 PUSH4 0x6B206FC7 SWAP2 PUSH3 0x15E2 SWAP2 DUP6 SWAP1 PUSH1 0x4 ADD PUSH3 0x1EF0 JUMP JUMPDEST PUSH1 0x0 PUSH1 0x40 MLOAD DUP1 DUP4 SUB DUP2 PUSH1 0x0 DUP8 DUP1 EXTCODESIZE ISZERO DUP1 ISZERO PUSH3 0x15FD JUMPI PUSH1 0x0 DUP1 REVERT JUMPDEST POP GAS CALL ISZERO DUP1 ISZERO PUSH3 0x1612 JUMPI RETURNDATASIZE PUSH1 0x0 DUP1 RETURNDATACOPY RETURNDATASIZE PUSH1 0x0 REVERT JUMPDEST POP POP POP POP POP POP POP JUMP JUMPDEST PUSH2 0xE07 DUP1 PUSH3 0x1FF1 DUP4 CODECOPY ADD SWAP1 JUMP JUMPDEST PUSH1 0x0 DUP1 PUSH1 0x40 DUP4 DUP6 SUB SLT ISZERO PUSH3 0x163D JUMPI PUSH1 0x0 DUP1 REVERT JUMPDEST POP POP DUP1 CALLDATALOAD SWAP3 PUSH1 0x20 SWAP1 SWAP2 ADD CALLDATALOAD SWAP2 POP JUMP JUMPDEST PUSH1 0x1 PUSH1 0x1 PUSH1 0xA0 SHL SUB DUP2 AND DUP2 EQ PUSH3 0x1662 JUMPI PUSH1 0x0 DUP1 REVERT JUMPDEST POP JUMP JUMPDEST PUSH1 0x0 DUP1 PUSH1 0x40 DUP4 DUP6 SUB SLT ISZERO PUSH3 0x1679 JUMPI PUSH1 0x0 DUP1 REVERT JUMPDEST DUP3 CALLDATALOAD PUSH3 0x1686 DUP2 PUSH3 0x164C JUMP JUMPDEST SWAP5 PUSH1 0x20 SWAP4 SWAP1 SWAP4 ADD CALLDATALOAD SWAP4 POP POP POP JUMP JUMPDEST PUSH1 0x0 PUSH1 0x20 DUP3 DUP5 SUB SLT ISZERO PUSH3 0x16A7 JUMPI PUSH1 0x0 DUP1 REVERT JUMPDEST POP CALLDATALOAD SWAP2 SWAP1 POP JUMP JUMPDEST PUSH1 0x0 JUMPDEST DUP4 DUP2 LT ISZERO PUSH3 0x16CB JUMPI DUP2 DUP2 ADD MLOAD DUP4 DUP3 ADD MSTORE PUSH1 0x20 ADD PUSH3 0x16B1 JUMP JUMPDEST POP POP PUSH1 0x0 SWAP2 ADD MSTORE JUMP JUMPDEST PUSH1 0x0 DUP2 MLOAD DUP1 DUP5 MSTORE PUSH3 0x16EE DUP2 PUSH1 0x20 DUP7 ADD PUSH1 0x20 DUP7 ADD PUSH3 0x16AE JUMP JUMPDEST PUSH1 0x1F ADD PUSH1 0x1F NOT AND SWAP3 SWAP1 SWAP3 ADD PUSH1 0x20 ADD SWAP3 SWAP2 POP POP JUMP JUMPDEST PUSH1 0x0 PUSH1 0x20 DUP1 DUP4 MSTORE DUP4 MLOAD DUP2 DUP5 ADD MSTORE DUP1 DUP5 ADD MLOAD PUSH1 0x40 PUSH1 0xC0 DUP2 DUP7 ADD MSTORE PUSH3 0x172A PUSH1 0xE0 DUP7 ADD DUP4 PUSH3 0x16D4 JUMP JUMPDEST SWAP2 POP DUP1 DUP7 ADD MLOAD PUSH1 0x60 PUSH1 0x1 DUP1 PUSH1 0xA0 SHL SUB DUP1 DUP4 AND DUP3 DUP10 ADD MSTORE DUP2 DUP10 ADD MLOAD SWAP3 POP PUSH1 0x1F NOT PUSH1 0x80 DUP2 DUP11 DUP9 SUB ADD DUP2 DUP12 ADD MSTORE DUP7 DUP6 MLOAD DUP1 DUP10 MSTORE DUP10 DUP10 ADD SWAP2 POP DUP10 DUP2 PUSH1 0x5 SHL DUP11 ADD ADD DUP11 DUP9 ADD SWAP8 POP PUSH1 0x0 JUMPDEST DUP3 DUP2 LT ISZERO PUSH3 0x17EB JUMPI DUP6 DUP12 DUP4 SUB ADD DUP5 MSTORE DUP9 MLOAD PUSH1 0xA0 PUSH4 0xFFFFFFFF DUP3 MLOAD AND DUP5 MSTORE DUP9 DUP15 DUP4 ADD MLOAD AND DUP15 DUP6 ADD MSTORE PUSH2 0xFFFF DUP13 DUP4 ADD MLOAD AND DUP13 DUP6 ADD MSTORE DUP10 DUP3 ADD MLOAD DUP2 DUP12 DUP7 ADD MSTORE PUSH3 0x17BA DUP3 DUP7 ADD DUP3 PUSH3 0x16D4 JUMP JUMPDEST SWAP2 POP POP DUP7 DUP3 ADD MLOAD SWAP2 POP DUP4 DUP2 SUB DUP8 DUP6 ADD MSTORE PUSH3 0x17D6 DUP2 DUP4 PUSH3 0x16D4 JUMP JUMPDEST SWAP11 DUP15 ADD SWAP11 SWAP6 DUP15 ADD SWAP6 SWAP4 POP POP POP PUSH1 0x1 ADD PUSH3 0x176F JUMP JUMPDEST POP DUP4 DUP15 ADD MLOAD PUSH1 0xA0 DUP15 ADD MSTORE PUSH1 0xA0 DUP15 ADD MLOAD SWAP11 POP PUSH3 0x180B PUSH1 0xC0 DUP15 ADD DUP13 ISZERO ISZERO SWAP1 MSTORE JUMP JUMPDEST SWAP14 SWAP13 POP POP POP POP POP POP POP POP POP POP POP POP POP JUMP JUMPDEST DUP6 DUP2 MSTORE PUSH1 0xA0 PUSH1 0x20 DUP3 ADD MSTORE PUSH1 0x0 PUSH3 0x1837 PUSH1 0xA0 DUP4 ADD DUP8 PUSH3 0x16D4 JUMP JUMPDEST PUSH1 0x1 PUSH1 0x1 PUSH1 0xA0 SHL SUB SWAP6 SWAP1 SWAP6 AND PUSH1 0x40 DUP4 ADD MSTORE POP PUSH1 0x60 DUP2 ADD SWAP3 SWAP1 SWAP3 MSTORE ISZERO ISZERO PUSH1 0x80 SWAP1 SWAP2 ADD MSTORE SWAP3 SWAP2 POP POP JUMP JUMPDEST PUSH1 0x0 DUP1 DUP4 PUSH1 0x1F DUP5 ADD SLT PUSH3 0x1872 JUMPI PUSH1 0x0 DUP1 REVERT JUMPDEST POP DUP2 CALLDATALOAD PUSH8 0xFFFFFFFFFFFFFFFF DUP2 GT ISZERO PUSH3 0x188B JUMPI PUSH1 0x0 DUP1 REVERT JUMPDEST PUSH1 0x20 DUP4 ADD SWAP2 POP DUP4 PUSH1 0x20 DUP3 DUP6 ADD ADD GT ISZERO PUSH3 0x18A4 JUMPI PUSH1 0x0 DUP1 REVERT JUMPDEST SWAP3 POP SWAP3 SWAP1 POP JUMP JUMPDEST PUSH1 0x0 DUP1 PUSH1 0x0 DUP1 PUSH1 0x0 DUP1 PUSH1 0x60 DUP8 DUP10 SUB SLT ISZERO PUSH3 0x18C5 JUMPI PUSH1 0x0 DUP1 REVERT JUMPDEST DUP7 CALLDATALOAD PUSH8 0xFFFFFFFFFFFFFFFF DUP1 DUP3 GT ISZERO PUSH3 0x18DE JUMPI PUSH1 0x0 DUP1 REVERT JUMPDEST PUSH3 0x18EC DUP11 DUP4 DUP12 ADD PUSH3 0x185F JUMP JUMPDEST SWAP1 SWAP9 POP SWAP7 POP PUSH1 0x20 DUP10 ADD CALLDATALOAD SWAP2 POP DUP1 DUP3 GT ISZERO PUSH3 0x1906 JUMPI PUSH1 0x0 DUP1 REVERT JUMPDEST PUSH3 0x1914 DUP11 DUP4 DUP12 ADD PUSH3 0x185F JUMP JUMPDEST SWAP1 SWAP7 POP SWAP5 POP PUSH1 0x40 DUP10 ADD CALLDATALOAD SWAP2 POP DUP1 DUP3 GT ISZERO PUSH3 0x192E JUMPI PUSH1 0x0 DUP1 REVERT JUMPDEST DUP2 DUP10 ADD SWAP2 POP DUP10 PUSH1 0x1F DUP4 ADD SLT PUSH3 0x1943 JUMPI PUSH1 0x0 DUP1 REVERT JUMPDEST DUP2 CALLDATALOAD DUP2 DUP2 GT ISZERO PUSH3 0x1953 JUMPI PUSH1 0x0 DUP1 REVERT JUMPDEST DUP11 PUSH1 0x20 DUP3 PUSH1 0x5 SHL DUP6 ADD ADD GT ISZERO PUSH3 0x1969 JUMPI PUSH1 0x0 DUP1 REVERT JUMPDEST PUSH1 0x20 DUP4 ADD SWAP5 POP DUP1 SWAP4 POP POP POP POP SWAP3 SWAP6 POP SWAP3 SWAP6 POP SWAP3 SWAP6 JUMP JUMPDEST PUSH1 0x20 DUP1 DUP3 MSTORE PUSH1 0x11 SWAP1 DUP3 ADD MSTORE PUSH17 0x4261736B6574206E6F7420616374697665 PUSH1 0x78 SHL PUSH1 0x40 DUP3 ADD MSTORE PUSH1 0x60 ADD SWAP1 JUMP JUMPDEST PUSH1 0x0 PUSH1 0x20 DUP3 DUP5 SUB SLT ISZERO PUSH3 0x19BD JUMPI PUSH1 0x0 DUP1 REVERT JUMPDEST POP MLOAD SWAP2 SWAP1 POP JUMP JUMPDEST PUSH4 0x4E487B71 PUSH1 0xE0 SHL PUSH1 0x0 MSTORE PUSH1 0x11 PUSH1 0x4 MSTORE PUSH1 0x24 PUSH1 0x0 REVERT JUMPDEST DUP1 DUP3 MUL DUP2 ISZERO DUP3 DUP3 DIV DUP5 EQ OR PUSH3 0x1581 JUMPI PUSH3 0x1581 PUSH3 0x19C4 JUMP JUMPDEST PUSH1 0x0 DUP3 PUSH3 0x1A12 JUMPI PUSH4 0x4E487B71 PUSH1 0xE0 SHL PUSH1 0x0 MSTORE PUSH1 0x12 PUSH1 0x4 MSTORE PUSH1 0x24 PUSH1 0x0 REVERT JUMPDEST POP DIV SWAP1 JUMP JUMPDEST PUSH4 0x4E487B71 PUSH1 0xE0 SHL PUSH1 0x0 MSTORE PUSH1 0x32 PUSH1 0x4 MSTORE PUSH1 0x24 PUSH1 0x0 REVERT JUMPDEST PUSH1 0x1 DUP2 DUP2 SHR SWAP1 DUP3 AND DUP1 PUSH3 0x1A42 JUMPI PUSH1 0x7F DUP3 AND SWAP2 POP JUMPDEST PUSH1 0x20 DUP3 LT DUP2 SUB PUSH3 0x1A63 JUMPI PUSH4 0x4E487B71 PUSH1 0xE0 SHL PUSH1 0x0 MSTORE PUSH1 0x22 PUSH1 0x4 MSTORE PUSH1 0x24 PUSH1 0x0 REVERT JUMPDEST POP SWAP2 SWAP1 POP JUMP JUMPDEST PUSH1 0x0 PUSH1 0x1 DUP3 ADD PUSH3 0x1A7E JUMPI PUSH3 0x1A7E PUSH3 0x19C4 JUMP JUMPDEST POP PUSH1 0x1 ADD SWAP1 JUMP JUMPDEST DUP2 DUP2 SUB DUP2 DUP2 GT ISZERO PUSH3 0x1581 JUMPI PUSH3 0x1581 PUSH3 0x19C4 JUMP JUMPDEST DUP2 DUP4 MSTORE DUP2 DUP2 PUSH1 0x20 DUP6 ADD CALLDATACOPY POP PUSH1 0x0 DUP3 DUP3 ADD PUSH1 0x20 SWAP1 DUP2 ADD SWAP2 SWAP1 SWAP2 MSTORE PUSH1 0x1F SWAP1 SWAP2 ADD PUSH1 0x1F NOT AND SWAP1 SWAP2 ADD ADD SWAP1 JUMP JUMPDEST PUSH1 0x60 DUP2 MSTORE PUSH1 0x0 PUSH3 0x1ADA PUSH1 0x60 DUP4 ADD DUP8 DUP10 PUSH3 0x1A9B JUMP JUMPDEST DUP3 DUP2 SUB PUSH1 0x20 DUP5 ADD MSTORE PUSH3 0x1AEF DUP2 DUP7 DUP9 PUSH3 0x1A9B JUMP JUMPDEST SWAP2 POP POP PUSH1 0x1 DUP1 PUSH1 0xA0 SHL SUB DUP4 AND PUSH1 0x40 DUP4 ADD MSTORE SWAP7 SWAP6 POP POP POP POP POP POP JUMP JUMPDEST PUSH4 0x4E487B71 PUSH1 0xE0 SHL PUSH1 0x0 MSTORE PUSH1 0x41 PUSH1 0x4 MSTORE PUSH1 0x24 PUSH1 0x0 REVERT JUMPDEST PUSH1 0x1F DUP3 GT ISZERO PUSH3 0x112D JUMPI PUSH1 0x0 DUP2 DUP2 MSTORE PUSH1 0x20 DUP2 KECCAK256 PUSH1 0x1F DUP6 ADD PUSH1 0x5 SHR DUP2 ADD PUSH1 0x20 DUP7 LT ISZERO PUSH3 0x1B49 JUMPI POP DUP1 JUMPDEST PUSH1 0x1F DUP6 ADD PUSH1 0x5 SHR DUP3 ADD SWAP2 POP JUMPDEST DUP2 DUP2 LT ISZERO PUSH3 0x1B6A JUMPI DUP3 DUP2 SSTORE PUSH1 0x1 ADD PUSH3 0x1B55 JUMP JUMPDEST POP POP POP POP POP POP JUMP JUMPDEST PUSH8 0xFFFFFFFFFFFFFFFF DUP4 GT ISZERO PUSH3 0x1B8D JUMPI PUSH3 0x1B8D PUSH3 0x1B0A JUMP JUMPDEST PUSH3 0x1BA5 DUP4 PUSH3 0x1B9E DUP4 SLOAD PUSH3 0x1A2D JUMP JUMPDEST DUP4 PUSH3 0x1B20 JUMP JUMPDEST PUSH1 0x0 PUSH1 0x1F DUP5 GT PUSH1 0x1 DUP2 EQ PUSH3 0x1BDC JUMPI PUSH1 0x0 DUP6 ISZERO PUSH3 0x1BC3 JUMPI POP DUP4 DUP3 ADD CALLDATALOAD JUMPDEST PUSH1 0x0 NOT PUSH1 0x3 DUP8 SWAP1 SHL SHR NOT AND PUSH1 0x1 DUP7 SWAP1 SHL OR DUP4 SSTORE PUSH3 0x1C39 JUMP JUMPDEST PUSH1 0x0 DUP4 DUP2 MSTORE PUSH1 0x20 SWAP1 KECCAK256 PUSH1 0x1F NOT DUP7 AND SWAP1 DUP4 JUMPDEST DUP3 DUP2 LT ISZERO PUSH3 0x1C0F JUMPI DUP7 DUP6 ADD CALLDATALOAD DUP3 SSTORE PUSH1 0x20 SWAP5 DUP6 ADD SWAP5 PUSH1 0x1 SWAP1 SWAP3 ADD SWAP2 ADD PUSH3 0x1BED JUMP JUMPDEST POP DUP7 DUP3 LT ISZERO PUSH3 0x1C2D JUMPI PUSH1 0x0 NOT PUSH1 0xF8 DUP9 PUSH1 0x3 SHL AND SHR NOT DUP5 DUP8 ADD CALLDATALOAD AND DUP2 SSTORE JUMPDEST POP POP PUSH1 0x1 DUP6 PUSH1 0x1 SHL ADD DUP4 SSTORE JUMPDEST POP POP POP POP POP JUMP JUMPDEST PUSH1 0x0 DUP3 CALLDATALOAD PUSH1 0x9E NOT DUP4 CALLDATASIZE SUB ADD DUP2 SLT PUSH3 0x1C57 JUMPI PUSH1 0x0 DUP1 REVERT JUMPDEST SWAP2 SWAP1 SWAP2 ADD SWAP3 SWAP2 POP POP JUMP JUMPDEST PUSH2 0xFFFF DUP2 AND DUP2 EQ PUSH3 0x1662 JUMPI PUSH1 0x0 DUP1 REVERT JUMPDEST PUSH1 0x0 DUP1 DUP4 CALLDATALOAD PUSH1 0x1E NOT DUP5 CALLDATASIZE SUB ADD DUP2 SLT PUSH3 0x1C8A JUMPI PUSH1 0x0 DUP1 REVERT JUMPDEST DUP4 ADD DUP1 CALLDATALOAD SWAP2 POP PUSH8 0xFFFFFFFFFFFFFFFF DUP3 GT ISZERO PUSH3 0x1CA6 JUMPI PUSH1 0x0 DUP1 REVERT JUMPDEST PUSH1 0x20 ADD SWAP2 POP CALLDATASIZE DUP2 SWAP1 SUB DUP3 SGT ISZERO PUSH3 0x18A4 JUMPI PUSH1 0x0 DUP1 REVERT JUMPDEST DUP2 CALLDATALOAD PUSH4 0xFFFFFFFF DUP2 AND DUP1 DUP3 EQ PUSH3 0x1CD2 JUMPI PUSH1 0x0 DUP1 REVERT JUMPDEST DUP3 SLOAD PUSH4 0xFFFFFFFF NOT DUP2 AND DUP3 OR DUP5 SSTORE SWAP2 POP PUSH1 0x20 DUP5 ADD CALLDATALOAD PUSH3 0x1CF2 DUP2 PUSH3 0x164C JUMP JUMPDEST PUSH5 0x100000000 PUSH1 0x1 PUSH1 0xC0 SHL SUB PUSH1 0x20 SWAP2 SWAP1 SWAP2 SHL AND PUSH1 0x1 PUSH1 0x1 PUSH1 0xC0 SHL SUB NOT DUP4 AND DUP3 OR DUP2 OR DUP5 SSTORE PUSH1 0x40 DUP6 ADD CALLDATALOAD PUSH3 0x1D26 DUP2 PUSH3 0x1C61 JUMP JUMPDEST PUSH1 0x1 PUSH1 0x1 PUSH1 0xD0 SHL SUB NOT SWAP4 SWAP1 SWAP4 AND SWAP1 SWAP2 OR OR PUSH1 0xC0 SWAP2 SWAP1 SWAP2 SHL PUSH2 0xFFFF PUSH1 0xC0 SHL AND OR DUP2 SSTORE PUSH3 0x1D56 PUSH1 0x60 DUP4 ADD DUP4 PUSH3 0x1C72 JUMP JUMPDEST PUSH3 0x1D66 DUP2 DUP4 PUSH1 0x1 DUP7 ADD PUSH3 0x1B72 JUMP JUMPDEST POP POP PUSH3 0x1D77 PUSH1 0x80 DUP4 ADD DUP4 PUSH3 0x1C72 JUMP JUMPDEST PUSH3 0x1389 DUP2 DUP4 PUSH1 0x2 DUP7 ADD PUSH3 0x1B72 JUMP JUMPDEST PUSH1 0x40 DUP2 MSTORE PUSH1 0x0 PUSH3 0x1D9D PUSH1 0x40 DUP4 ADD DUP6 DUP8 PUSH3 0x1A9B JUMP JUMPDEST SWAP1 POP PUSH1 0x1 DUP1 PUSH1 0xA0 SHL SUB DUP4 AND PUSH1 0x20 DUP4 ADD MSTORE SWAP5 SWAP4 POP POP POP POP JUMP JUMPDEST DUP1 DUP3 ADD DUP1 DUP3 GT ISZERO PUSH3 0x1581 JUMPI PUSH3 0x1581 PUSH3 0x19C4 JUMP JUMPDEST DUP1 MLOAD PUSH3 0x1DD8 DUP2 PUSH3 0x1C61 JUMP JUMPDEST SWAP2 SWAP1 POP JUMP JUMPDEST PUSH1 0x0 PUSH1 0x20 DUP1 DUP4 DUP6 SUB SLT ISZERO PUSH3 0x1DF1 JUMPI PUSH1 0x0 DUP1 REVERT JUMPDEST DUP3 MLOAD PUSH8 0xFFFFFFFFFFFFFFFF DUP1 DUP3 GT ISZERO PUSH3 0x1E0A JUMPI PUSH1 0x0 DUP1 REVERT JUMPDEST DUP2 DUP6 ADD SWAP2 POP DUP6 PUSH1 0x1F DUP4 ADD SLT PUSH3 0x1E1F JUMPI PUSH1 0x0 DUP1 REVERT JUMPDEST DUP2 MLOAD DUP2 DUP2 GT ISZERO PUSH3 0x1E34 JUMPI PUSH3 0x1E34 PUSH3 0x1B0A JUMP JUMPDEST DUP1 PUSH1 0x5 SHL PUSH1 0x40 MLOAD PUSH1 0x1F NOT PUSH1 0x3F DUP4 ADD AND DUP2 ADD DUP2 DUP2 LT DUP6 DUP3 GT OR ISZERO PUSH3 0x1E5C JUMPI PUSH3 0x1E5C PUSH3 0x1B0A JUMP JUMPDEST PUSH1 0x40 MSTORE SWAP2 DUP3 MSTORE DUP5 DUP3 ADD SWAP3 POP DUP4 DUP2 ADD DUP6 ADD SWAP2 DUP9 DUP4 GT ISZERO PUSH3 0x1E7B JUMPI PUSH1 0x0 DUP1 REVERT JUMPDEST SWAP4 DUP6 ADD SWAP4 JUMPDEST DUP3 DUP6 LT ISZERO PUSH3 0x1EA4 JUMPI PUSH3 0x1E94 DUP6 PUSH3 0x1DCB JUMP JUMPDEST DUP5 MSTORE SWAP4 DUP6 ADD SWAP4 SWAP3 DUP6 ADD SWAP3 PUSH3 0x1E80 JUMP JUMPDEST SWAP9 SWAP8 POP POP POP POP POP POP POP POP JUMP JUMPDEST PUSH4 0xFFFFFFFF DUP6 AND DUP2 MSTORE DUP4 PUSH1 0x20 DUP3 ADD MSTORE PUSH1 0x80 PUSH1 0x40 DUP3 ADD MSTORE PUSH1 0x0 PUSH3 0x1ED7 PUSH1 0x80 DUP4 ADD DUP6 PUSH3 0x16D4 JUMP JUMPDEST SWAP1 POP PUSH1 0x1 DUP1 PUSH1 0xA0 SHL SUB DUP4 AND PUSH1 0x60 DUP4 ADD MSTORE SWAP6 SWAP5 POP POP POP POP POP JUMP JUMPDEST PUSH4 0xFFFFFFFF DUP4 AND DUP2 MSTORE PUSH1 0x40 PUSH1 0x20 DUP3 ADD MSTORE PUSH1 0x0 PUSH3 0x1F11 PUSH1 0x40 DUP4 ADD DUP5 PUSH3 0x16D4 JUMP JUMPDEST SWAP5 SWAP4 POP POP POP POP JUMP JUMPDEST PUSH1 0x0 PUSH1 0x20 DUP3 DUP5 SUB SLT ISZERO PUSH3 0x1F2C JUMPI PUSH1 0x0 DUP1 REVERT JUMPDEST DUP2 CALLDATALOAD PUSH3 0x1547 DUP2 PUSH3 0x1C61 JUMP JUMPDEST PUSH1 0x40 DUP1 DUP3 MSTORE DUP4 MLOAD SWAP1 DUP3 ADD DUP2 SWAP1 MSTORE PUSH1 0x0 SWAP1 PUSH1 0x20 SWAP1 PUSH1 0x60 DUP5 ADD SWAP1 DUP3 DUP8 ADD DUP5 JUMPDEST DUP3 DUP2 LT ISZERO PUSH3 0x1F78 JUMPI DUP2 MLOAD PUSH2 0xFFFF AND DUP5 MSTORE SWAP3 DUP5 ADD SWAP3 SWAP1 DUP5 ADD SWAP1 PUSH1 0x1 ADD PUSH3 0x1F56 JUMP JUMPDEST POP POP POP SWAP3 ADD SWAP3 SWAP1 SWAP3 MSTORE SWAP3 SWAP2 POP POP JUMP JUMPDEST PUSH1 0x0 DUP3 MLOAD PUSH3 0x1C57 DUP2 DUP5 PUSH1 0x20 DUP8 ADD PUSH3 0x16AE JUMP JUMPDEST PUSH2 0xFFFF DUP3 DUP2 AND DUP3 DUP3 AND SUB SWAP1 DUP1 DUP3 GT ISZERO PUSH3 0x1FB9 JUMPI PUSH3 0x1FB9 PUSH3 0x19C4 JUMP JUMPDEST POP SWAP3 SWAP2 POP POP JUMP JUMPDEST PUSH4 0xFFFFFFFF DUP5 AND DUP2 MSTORE DUP3 PUSH1 0x20 DUP3 ADD MSTORE PUSH1 0x60 PUSH1 0x40 DUP3 ADD MSTORE PUSH1 0x0 PUSH3 0x1FE7 PUSH1 0x60 DUP4 ADD DUP5 PUSH3 0x16D4 JUMP JUMPDEST SWAP6 SWAP5 POP POP POP POP POP JUMP INVALID PUSH1 0x80 PUSH1 0x40 MSTORE CALLVALUE DUP1 ISZERO PUSH3 0x11 JUMPI PUSH1 0x0 DUP1 REVERT JUMPDEST POP PUSH1 0x40 MLOAD PUSH3 0xE07 CODESIZE SUB DUP1 PUSH3 0xE07 DUP4 CODECOPY DUP2 ADD PUSH1 0x40 DUP2 SWAP1 MSTORE PUSH3 0x34 SWAP2 PUSH3 0x1D2 JUMP JUMPDEST CALLER DUP4 DUP4 PUSH1 0x3 PUSH3 0x45 DUP4 DUP3 PUSH3 0x2EE JUMP JUMPDEST POP PUSH1 0x4 PUSH3 0x54 DUP3 DUP3 PUSH3 0x2EE JUMP JUMPDEST POP POP POP PUSH1 0x1 PUSH1 0x1 PUSH1 0xA0 SHL SUB DUP2 AND PUSH3 0x86 JUMPI PUSH1 0x40 MLOAD PUSH4 0x1E4FBDF7 PUSH1 0xE0 SHL DUP2 MSTORE PUSH1 0x0 PUSH1 0x4 DUP3 ADD MSTORE PUSH1 0x24 ADD PUSH1 0x40 MLOAD DUP1 SWAP2 SUB SWAP1 REVERT JUMPDEST PUSH3 0x91 DUP2 PUSH3 0xBB JUMP JUMPDEST POP PUSH1 0x6 DUP1 SLOAD PUSH1 0x1 PUSH1 0x1 PUSH1 0xA0 SHL SUB NOT AND PUSH1 0x1 PUSH1 0x1 PUSH1 0xA0 SHL SUB SWAP3 SWAP1 SWAP3 AND SWAP2 SWAP1 SWAP2 OR SWAP1 SSTORE POP PUSH3 0x3BA SWAP1 POP JUMP JUMPDEST PUSH1 0x5 DUP1 SLOAD PUSH1 0x1 PUSH1 0x1 PUSH1 0xA0 SHL SUB DUP4 DUP2 AND PUSH1 0x1 PUSH1 0x1 PUSH1 0xA0 SHL SUB NOT DUP4 AND DUP2 OR SWAP1 SWAP4 SSTORE PUSH1 0x40 MLOAD SWAP2 AND SWAP2 SWAP1 DUP3 SWAP1 PUSH32 0x8BE0079C531659141344CD1FD0A4F28419497F9722A3DAAFE3B4186F6B6457E0 SWAP1 PUSH1 0x0 SWAP1 LOG3 POP POP JUMP JUMPDEST PUSH4 0x4E487B71 PUSH1 0xE0 SHL PUSH1 0x0 MSTORE PUSH1 0x41 PUSH1 0x4 MSTORE PUSH1 0x24 PUSH1 0x0 REVERT JUMPDEST PUSH1 0x0 DUP3 PUSH1 0x1F DUP4 ADD SLT PUSH3 0x135 JUMPI PUSH1 0x0 DUP1 REVERT JUMPDEST DUP2 MLOAD PUSH1 0x1 PUSH1 0x1 PUSH1 0x40 SHL SUB DUP1 DUP3 GT ISZERO PUSH3 0x152 JUMPI PUSH3 0x152 PUSH3 0x10D JUMP JUMPDEST PUSH1 0x40 MLOAD PUSH1 0x1F DUP4 ADD PUSH1 0x1F NOT SWAP1 DUP2 AND PUSH1 0x3F ADD AND DUP2 ADD SWAP1 DUP3 DUP3 GT DUP2 DUP4 LT OR ISZERO PUSH3 0x17D JUMPI PUSH3 0x17D PUSH3 0x10D JUMP JUMPDEST DUP2 PUSH1 0x40 MSTORE DUP4 DUP2 MSTORE PUSH1 0x20 SWAP3 POP DUP7 DUP4 DUP6 DUP9 ADD ADD GT ISZERO PUSH3 0x19A JUMPI PUSH1 0x0 DUP1 REVERT JUMPDEST PUSH1 0x0 SWAP2 POP JUMPDEST DUP4 DUP3 LT ISZERO PUSH3 0x1BE JUMPI DUP6 DUP3 ADD DUP4 ADD MLOAD DUP2 DUP4 ADD DUP5 ADD MSTORE SWAP1 DUP3 ADD SWAP1 PUSH3 0x19F JUMP JUMPDEST PUSH1 0x0 SWAP4 DUP2 ADD SWAP1 SWAP3 ADD SWAP3 SWAP1 SWAP3 MSTORE SWAP5 SWAP4 POP POP POP POP JUMP JUMPDEST PUSH1 0x0 DUP1 PUSH1 0x0 PUSH1 0x60 DUP5 DUP7 SUB SLT ISZERO PUSH3 0x1E8 JUMPI PUSH1 0x0 DUP1 REVERT JUMPDEST DUP4 MLOAD PUSH1 0x1 PUSH1 0x1 PUSH1 0x40 SHL SUB DUP1 DUP3 GT ISZERO PUSH3 0x200 JUMPI PUSH1 0x0 DUP1 REVERT JUMPDEST PUSH3 0x20E DUP8 DUP4 DUP9 ADD PUSH3 0x123 JUMP JUMPDEST SWAP5 POP PUSH1 0x20 DUP7 ADD MLOAD SWAP2 POP DUP1 DUP3 GT ISZERO PUSH3 0x225 JUMPI PUSH1 0x0 DUP1 REVERT JUMPDEST POP PUSH3 0x234 DUP7 DUP3 DUP8 ADD PUSH3 0x123 JUMP JUMPDEST PUSH1 0x40 DUP7 ADD MLOAD SWAP1 SWAP4 POP SWAP1 POP PUSH1 0x1 PUSH1 0x1 PUSH1 0xA0 SHL SUB DUP2 AND DUP2 EQ PUSH3 0x254 JUMPI PUSH1 0x0 DUP1 REVERT JUMPDEST DUP1 SWAP2 POP POP SWAP3 POP SWAP3 POP SWAP3 JUMP JUMPDEST PUSH1 0x1 DUP2 DUP2 SHR SWAP1 DUP3 AND DUP1 PUSH3 0x274 JUMPI PUSH1 0x7F DUP3 AND SWAP2 POP JUMPDEST PUSH1 0x20 DUP3 LT DUP2 SUB PUSH3 0x295 JUMPI PUSH4 0x4E487B71 PUSH1 0xE0 SHL PUSH1 0x0 MSTORE PUSH1 0x22 PUSH1 0x4 MSTORE PUSH1 0x24 PUSH1 0x0 REVERT JUMPDEST POP SWAP2 SWAP1 POP JUMP JUMPDEST PUSH1 0x1F DUP3 GT ISZERO PUSH3 0x2E9 JUMPI PUSH1 0x0 DUP2 DUP2 MSTORE PUSH1 0x20 DUP2 KECCAK256 PUSH1 0x1F DUP6 ADD PUSH1 0x5 SHR DUP2 ADD PUSH1 0x20 DUP7 LT ISZERO PUSH3 0x2C4 JUMPI POP DUP1 JUMPDEST PUSH1 0x1F DUP6 ADD PUSH1 0x5 SHR DUP3 ADD SWAP2 POP JUMPDEST DUP2 DUP2 LT ISZERO PUSH3 0x2E5 JUMPI DUP3 DUP2 SSTORE PUSH1 0x1 ADD PUSH3 0x2D0 JUMP JUMPDEST POP POP POP JUMPDEST POP POP POP JUMP JUMPDEST DUP2 MLOAD PUSH1 0x1 PUSH1 0x1 PUSH1 0x40 SHL SUB DUP2 GT ISZERO PUSH3 0x30A JUMPI PUSH3 0x30A PUSH3 0x10D JUMP JUMPDEST PUSH3 0x322 DUP2 PUSH3 0x31B DUP5 SLOAD PUSH3 0x25F JUMP JUMPDEST DUP5 PUSH3 0x29B JUMP JUMPDEST PUSH1 0x20 DUP1 PUSH1 0x1F DUP4 GT PUSH1 0x1 DUP2 EQ PUSH3 0x35A JUMPI PUSH1 0x0 DUP5 ISZERO PUSH3 0x341 JUMPI POP DUP6 DUP4 ADD MLOAD JUMPDEST PUSH1 0x0 NOT PUSH1 0x3 DUP7 SWAP1 SHL SHR NOT AND PUSH1 0x1 DUP6 SWAP1 SHL OR DUP6 SSTORE PUSH3 0x2E5 JUMP JUMPDEST PUSH1 0x0 DUP6 DUP2 MSTORE PUSH1 0x20 DUP2 KECCAK256 PUSH1 0x1F NOT DUP7 AND SWAP2 JUMPDEST DUP3 DUP2 LT ISZERO PUSH3 0x38B JUMPI DUP9 DUP7 ADD MLOAD DUP3 SSTORE SWAP5 DUP5 ADD SWAP5 PUSH1 0x1 SWAP1 SWAP2 ADD SWAP1 DUP5 ADD PUSH3 0x36A JUMP JUMPDEST POP DUP6 DUP3 LT ISZERO PUSH3 0x3AA JUMPI DUP8 DUP6 ADD MLOAD PUSH1 0x0 NOT PUSH1 0x3 DUP9 SWAP1 SHL PUSH1 0xF8 AND SHR NOT AND DUP2 SSTORE JUMPDEST POP POP POP POP POP PUSH1 0x1 SWAP1 DUP2 SHL ADD SWAP1 SSTORE POP JUMP JUMPDEST PUSH2 0xA3D DUP1 PUSH3 0x3CA PUSH1 0x0 CODECOPY PUSH1 0x0 RETURN INVALID PUSH1 0x80 PUSH1 0x40 MSTORE CALLVALUE DUP1 ISZERO PUSH2 0x10 JUMPI PUSH1 0x0 DUP1 REVERT JUMPDEST POP PUSH1 0x4 CALLDATASIZE LT PUSH2 0x100 JUMPI PUSH1 0x0 CALLDATALOAD PUSH1 0xE0 SHR DUP1 PUSH4 0x715018A6 GT PUSH2 0x97 JUMPI DUP1 PUSH4 0xA9059CBB GT PUSH2 0x66 JUMPI DUP1 PUSH4 0xA9059CBB EQ PUSH2 0x217 JUMPI DUP1 PUSH4 0xD0EBDBE7 EQ PUSH2 0x22A JUMPI DUP1 PUSH4 0xDD62ED3E EQ PUSH2 0x23D JUMPI DUP1 PUSH4 0xF2FDE38B EQ PUSH2 0x276 JUMPI PUSH1 0x0 DUP1 REVERT JUMPDEST DUP1 PUSH4 0x715018A6 EQ PUSH2 0x1E3 JUMPI DUP1 PUSH4 0x8DA5CB5B EQ PUSH2 0x1EB JUMPI DUP1 PUSH4 0x95D89B41 EQ PUSH2 0x1FC JUMPI DUP1 PUSH4 0x9DC29FAC EQ PUSH2 0x204 JUMPI PUSH1 0x0 DUP1 REVERT JUMPDEST DUP1 PUSH4 0x23B872DD GT PUSH2 0xD3 JUMPI DUP1 PUSH4 0x23B872DD EQ PUSH2 0x183 JUMPI DUP1 PUSH4 0x313CE567 EQ PUSH2 0x196 JUMPI DUP1 PUSH4 0x40C10F19 EQ PUSH2 0x1A5 JUMPI DUP1 PUSH4 0x70A08231 EQ PUSH2 0x1BA JUMPI PUSH1 0x0 DUP1 REVERT JUMPDEST DUP1 PUSH4 0x6FDDE03 EQ PUSH2 0x105 JUMPI DUP1 PUSH4 0x95EA7B3 EQ PUSH2 0x123 JUMPI DUP1 PUSH4 0x18160DDD EQ PUSH2 0x146 JUMPI DUP1 PUSH4 0x22D23F68 EQ PUSH2 0x158 JUMPI JUMPDEST PUSH1 0x0 DUP1 REVERT JUMPDEST PUSH2 0x10D PUSH2 0x289 JUMP JUMPDEST PUSH1 0x40 MLOAD PUSH2 0x11A SWAP2 SWAP1 PUSH2 0x887 JUMP JUMPDEST PUSH1 0x40 MLOAD DUP1 SWAP2 SUB SWAP1 RETURN JUMPDEST PUSH2 0x136 PUSH2 0x131 CALLDATASIZE PUSH1 0x4 PUSH2 0x8F1 JUMP JUMPDEST PUSH2 0x31B JUMP JUMPDEST PUSH1 0x40 MLOAD SWAP1 ISZERO ISZERO DUP2 MSTORE PUSH1 0x20 ADD PUSH2 0x11A JUMP JUMPDEST PUSH1 0x2 SLOAD JUMPDEST PUSH1 0x40 MLOAD SWAP1 DUP2 MSTORE PUSH1 0x20 ADD PUSH2 0x11A JUMP JUMPDEST PUSH1 0x6 SLOAD PUSH2 0x16B SWAP1 PUSH1 0x1 PUSH1 0x1 PUSH1 0xA0 SHL SUB AND DUP2 JUMP JUMPDEST PUSH1 0x40 MLOAD PUSH1 0x1 PUSH1 0x1 PUSH1 0xA0 SHL SUB SWAP1 SWAP2 AND DUP2 MSTORE PUSH1 0x20 ADD PUSH2 0x11A JUMP JUMPDEST PUSH2 0x136 PUSH2 0x191 CALLDATASIZE PUSH1 0x4 PUSH2 0x91B JUMP JUMPDEST PUSH2 0x335 JUMP JUMPDEST PUSH1 0x40 MLOAD PUSH1 0x12 DUP2 MSTORE PUSH1 0x20 ADD PUSH2 0x11A JUMP JUMPDEST PUSH2 0x1B8 PUSH2 0x1B3 CALLDATASIZE PUSH1 0x4 PUSH2 0x8F1 JUMP JUMPDEST PUSH2 0x359 JUMP JUMPDEST STOP JUMPDEST PUSH2 0x14A PUSH2 0x1C8 CALLDATASIZE PUSH1 0x4 PUSH2 0x957 JUMP JUMPDEST PUSH1 0x1 PUSH1 0x1 PUSH1 0xA0 SHL SUB AND PUSH1 0x0 SWAP1 DUP2 MSTORE PUSH1 0x20 DUP2 SWAP1 MSTORE PUSH1 0x40 SWAP1 KECCAK256 SLOAD SWAP1 JUMP JUMPDEST PUSH2 0x1B8 PUSH2 0x3BB JUMP JUMPDEST PUSH1 0x5 SLOAD PUSH1 0x1 PUSH1 0x1 PUSH1 0xA0 SHL SUB AND PUSH2 0x16B JUMP JUMPDEST PUSH2 0x10D PUSH2 0x3CF JUMP JUMPDEST PUSH2 0x1B8 PUSH2 0x212 CALLDATASIZE PUSH1 0x4 PUSH2 0x8F1 JUMP JUMPDEST PUSH2 0x3DE JUMP JUMPDEST PUSH2 0x136 PUSH2 0x225 CALLDATASIZE PUSH1 0x4 PUSH2 0x8F1 JUMP JUMPDEST PUSH2 0x437 JUMP JUMPDEST PUSH2 0x1B8 PUSH2 0x238 CALLDATASIZE PUSH1 0x4 PUSH2 0x957 JUMP JUMPDEST PUSH2 0x445 JUMP JUMPDEST PUSH2 0x14A PUSH2 0x24B CALLDATASIZE PUSH1 0x4 PUSH2 0x979 JUMP JUMPDEST PUSH1 0x1 PUSH1 0x1 PUSH1 0xA0 SHL SUB SWAP2 DUP3 AND PUSH1 0x0 SWAP1 DUP2 MSTORE PUSH1 0x1 PUSH1 0x20 SWAP1 DUP2 MSTORE PUSH1 0x40 DUP1 DUP4 KECCAK256 SWAP4 SWAP1 SWAP5 AND DUP3 MSTORE SWAP2 SWAP1 SWAP2 MSTORE KECCAK256 SLOAD SWAP1 JUMP JUMPDEST PUSH2 0x1B8 PUSH2 0x284 CALLDATASIZE PUSH1 0x4 PUSH2 0x957 JUMP JUMPDEST PUSH2 0x46F JUMP JUMPDEST PUSH1 0x60 PUSH1 0x3 DUP1 SLOAD PUSH2 0x298 SWAP1 PUSH2 0x9AC JUMP JUMPDEST DUP1 PUSH1 0x1F ADD PUSH1 0x20 DUP1 SWAP2 DIV MUL PUSH1 0x20 ADD PUSH1 0x40 MLOAD SWAP1 DUP2 ADD PUSH1 0x40 MSTORE DUP1 SWAP3 SWAP2 SWAP1 DUP2 DUP2 MSTORE PUSH1 0x20 ADD DUP3 DUP1 SLOAD PUSH2 0x2C4 SWAP1 PUSH2 0x9AC JUMP JUMPDEST DUP1 ISZERO PUSH2 0x311 JUMPI DUP1 PUSH1 0x1F LT PUSH2 0x2E6 JUMPI PUSH2 0x100 DUP1 DUP4 SLOAD DIV MUL DUP4 MSTORE SWAP2 PUSH1 0x20 ADD SWAP2 PUSH2 0x311 JUMP JUMPDEST DUP3 ADD SWAP2 SWAP1 PUSH1 0x0 MSTORE PUSH1 0x20 PUSH1 0x0 KECCAK256 SWAP1 JUMPDEST DUP2 SLOAD DUP2 MSTORE SWAP1 PUSH1 0x1 ADD SWAP1 PUSH1 0x20 ADD DUP1 DUP4 GT PUSH2 0x2F4 JUMPI DUP3 SWAP1 SUB PUSH1 0x1F AND DUP3 ADD SWAP2 JUMPDEST POP POP POP POP POP SWAP1 POP SWAP1 JUMP JUMPDEST PUSH1 0x0 CALLER PUSH2 0x329 DUP2 DUP6 DUP6 PUSH2 0x4AD JUMP JUMPDEST PUSH1 0x1 SWAP2 POP POP JUMPDEST SWAP3 SWAP2 POP POP JUMP JUMPDEST PUSH1 0x0 CALLER PUSH2 0x343 DUP6 DUP3 DUP6 PUSH2 0x4BF JUMP JUMPDEST PUSH2 0x34E DUP6 DUP6 DUP6 PUSH2 0x53E JUMP JUMPDEST POP PUSH1 0x1 SWAP5 SWAP4 POP POP POP POP JUMP JUMPDEST PUSH1 0x6 SLOAD PUSH1 0x1 PUSH1 0x1 PUSH1 0xA0 SHL SUB AND CALLER EQ PUSH2 0x3AD JUMPI PUSH1 0x40 MLOAD PUSH3 0x461BCD PUSH1 0xE5 SHL DUP2 MSTORE PUSH1 0x20 PUSH1 0x4 DUP3 ADD MSTORE PUSH1 0x12 PUSH1 0x24 DUP3 ADD MSTORE PUSH18 0x2737BA103130B9B5B2BA1036B0B730B3B2B9 PUSH1 0x71 SHL PUSH1 0x44 DUP3 ADD MSTORE PUSH1 0x64 ADD JUMPDEST PUSH1 0x40 MLOAD DUP1 SWAP2 SUB SWAP1 REVERT JUMPDEST PUSH2 0x3B7 DUP3 DUP3 PUSH2 0x59D JUMP JUMPDEST POP POP JUMP JUMPDEST PUSH2 0x3C3 PUSH2 0x5D3 JUMP JUMPDEST PUSH2 0x3CD PUSH1 0x0 PUSH2 0x600 JUMP JUMPDEST JUMP JUMPDEST PUSH1 0x60 PUSH1 0x4 DUP1 SLOAD PUSH2 0x298 SWAP1 PUSH2 0x9AC JUMP JUMPDEST PUSH1 0x6 SLOAD PUSH1 0x1 PUSH1 0x1 PUSH1 0xA0 SHL SUB AND CALLER EQ PUSH2 0x42D JUMPI PUSH1 0x40 MLOAD PUSH3 0x461BCD PUSH1 0xE5 SHL DUP2 MSTORE PUSH1 0x20 PUSH1 0x4 DUP3 ADD MSTORE PUSH1 0x12 PUSH1 0x24 DUP3 ADD MSTORE PUSH18 0x2737BA103130B9B5B2BA1036B0B730B3B2B9 PUSH1 0x71 SHL PUSH1 0x44 DUP3 ADD MSTORE PUSH1 0x64 ADD PUSH2 0x3A4 JUMP JUMPDEST PUSH2 0x3B7 DUP3 DUP3 PUSH2 0x652 JUMP JUMPDEST PUSH1 0x0 CALLER PUSH2 0x329 DUP2 DUP6 DUP6 PUSH2 0x53E JUMP JUMPDEST PUSH2 0x44D PUSH2 0x5D3 JUMP JUMPDEST PUSH1 0x6 DUP1 SLOAD PUSH1 0x1 PUSH1 0x1 PUSH1 0xA0 SHL SUB NOT AND PUSH1 0x1 PUSH1 0x1 PUSH1 0xA0 SHL SUB SWAP3 SWAP1 SWAP3 AND SWAP2 SWAP1 SWAP2 OR SWAP1 SSTORE JUMP JUMPDEST PUSH2 0x477 PUSH2 0x5D3 JUMP JUMPDEST PUSH1 0x1 PUSH1 0x1 PUSH1 0xA0 SHL SUB DUP2 AND PUSH2 0x4A1 JUMPI PUSH1 0x40 MLOAD PUSH4 0x1E4FBDF7 PUSH1 0xE0 SHL DUP2 MSTORE PUSH1 0x0 PUSH1 0x4 DUP3 ADD MSTORE PUSH1 0x24 ADD PUSH2 0x3A4 JUMP JUMPDEST PUSH2 0x4AA DUP2 PUSH2 0x600 JUMP JUMPDEST POP JUMP JUMPDEST PUSH2 0x4BA DUP4 DUP4 DUP4 PUSH1 0x1 PUSH2 0x688 JUMP JUMPDEST POP POP POP JUMP JUMPDEST PUSH1 0x1 PUSH1 0x1 PUSH1 0xA0 SHL SUB DUP4 DUP2 AND PUSH1 0x0 SWAP1 DUP2 MSTORE PUSH1 0x1 PUSH1 0x20 SWAP1 DUP2 MSTORE PUSH1 0x40 DUP1 DUP4 KECCAK256 SWAP4 DUP7 AND DUP4 MSTORE SWAP3 SWAP1 MSTORE KECCAK256 SLOAD PUSH1 0x0 NOT DUP2 LT ISZERO PUSH2 0x538 JUMPI DUP2 DUP2 LT ISZERO PUSH2 0x529 JUMPI PUSH1 0x40 MLOAD PUSH4 0x7DC7A0D9 PUSH1 0xE1 SHL DUP2 MSTORE PUSH1 0x1 PUSH1 0x1 PUSH1 0xA0 SHL SUB DUP5 AND PUSH1 0x4 DUP3 ADD MSTORE PUSH1 0x24 DUP2 ADD DUP3 SWAP1 MSTORE PUSH1 0x44 DUP2 ADD DUP4 SWAP1 MSTORE PUSH1 0x64 ADD PUSH2 0x3A4 JUMP JUMPDEST PUSH2 0x538 DUP5 DUP5 DUP5 DUP5 SUB PUSH1 0x0 PUSH2 0x688 JUMP JUMPDEST POP POP POP POP JUMP JUMPDEST PUSH1 0x1 PUSH1 0x1 PUSH1 0xA0 SHL SUB DUP4 AND PUSH2 0x568 JUMPI PUSH1 0x40 MLOAD PUSH4 0x4B637E8F PUSH1 0xE1 SHL DUP2 MSTORE PUSH1 0x0 PUSH1 0x4 DUP3 ADD MSTORE PUSH1 0x24 ADD PUSH2 0x3A4 JUMP JUMPDEST PUSH1 0x1 PUSH1 0x1 PUSH1 0xA0 SHL SUB DUP3 AND PUSH2 0x592 JUMPI PUSH1 0x40 MLOAD PUSH4 0xEC442F05 PUSH1 0xE0 SHL DUP2 MSTORE PUSH1 0x0 PUSH1 0x4 DUP3 ADD MSTORE PUSH1 0x24 ADD PUSH2 0x3A4 JUMP JUMPDEST PUSH2 0x4BA DUP4 DUP4 DUP4 PUSH2 0x75D JUMP JUMPDEST PUSH1 0x1 PUSH1 0x1 PUSH1 0xA0 SHL SUB DUP3 AND PUSH2 0x5C7 JUMPI PUSH1 0x40 MLOAD PUSH4 0xEC442F05 PUSH1 0xE0 SHL DUP2 MSTORE PUSH1 0x0 PUSH1 0x4 DUP3 ADD MSTORE PUSH1 0x24 ADD PUSH2 0x3A4 JUMP JUMPDEST PUSH2 0x3B7 PUSH1 0x0 DUP4 DUP4 PUSH2 0x75D JUMP JUMPDEST PUSH1 0x5 SLOAD PUSH1 0x1 PUSH1 0x1 PUSH1 0xA0 SHL SUB AND CALLER EQ PUSH2 0x3CD JUMPI PUSH1 0x40 MLOAD PUSH4 0x118CDAA7 PUSH1 0xE0 SHL DUP2 MSTORE CALLER PUSH1 0x4 DUP3 ADD MSTORE PUSH1 0x24 ADD PUSH2 0x3A4 JUMP JUMPDEST PUSH1 0x5 DUP1 SLOAD PUSH1 0x1 PUSH1 0x1 PUSH1 0xA0 SHL SUB DUP4 DUP2 AND PUSH1 0x1 PUSH1 0x1 PUSH1 0xA0 SHL SUB NOT DUP4 AND DUP2 OR SWAP1 SWAP4 SSTORE PUSH1 0x40 MLOAD SWAP2 AND SWAP2 SWAP1 DUP3 SWAP1 PUSH32 0x8BE0079C531659141344CD1FD0A4F28419497F9722A3DAAFE3B4186F6B6457E0 SWAP1 PUSH1 0x0 SWAP1 LOG3 POP POP JUMP JUMPDEST PUSH1 0x1 PUSH1 0x1 PUSH1 0xA0 SHL SUB DUP3 AND PUSH2 0x67C JUMPI PUSH1 0x40 MLOAD PUSH4 0x4B637E8F PUSH1 0xE1 SHL DUP2 MSTORE PUSH1 0x0 PUSH1 0x4 DUP3 ADD MSTORE PUSH1 0x24 ADD PUSH2 0x3A4 JUMP JUMPDEST PUSH2 0x3B7 DUP3 PUSH1 0x0 DUP4 PUSH2 0x75D JUMP JUMPDEST PUSH1 0x1 PUSH1 0x1 PUSH1 0xA0 SHL SUB DUP5 AND PUSH2 0x6B2 JUMPI PUSH1 0x40 MLOAD PUSH4 0xE602DF05 PUSH1 0xE0 SHL DUP2 MSTORE PUSH1 0x0 PUSH1 0x4 DUP3 ADD MSTORE PUSH1 0x24 ADD PUSH2 0x3A4 JUMP JUMPDEST PUSH1 0x1 PUSH1 0x1 PUSH1 0xA0 SHL SUB DUP4 AND PUSH2 0x6DC JUMPI PUSH1 0x40 MLOAD PUSH4 0x4A1406B1 PUSH1 0xE1 SHL DUP2 MSTORE PUSH1 0x0 PUSH1 0x4 DUP3 ADD MSTORE PUSH1 0x24 ADD PUSH2 0x3A4 JUMP JUMPDEST PUSH1 0x1 PUSH1 0x1 PUSH1 0xA0 SHL SUB DUP1 DUP6 AND PUSH1 0x0 SWAP1 DUP2 MSTORE PUSH1 0x1 PUSH1 0x20 SWAP1 DUP2 MSTORE PUSH1 0x40 DUP1 DUP4 KECCAK256 SWAP4 DUP8 AND DUP4 MSTORE SWAP3 SWAP1 MSTORE KECCAK256 DUP3 SWAP1 SSTORE DUP1 ISZERO PUSH2 0x538 JUMPI DUP3 PUSH1 0x1 PUSH1 0x1 PUSH1 0xA0 SHL SUB AND DUP5 PUSH1 0x1 PUSH1 0x1 PUSH1 0xA0 SHL SUB AND PUSH32 0x8C5BE1E5EBEC7D5BD14F71427D1E84F3DD0314C0F7B2291E5B200AC8C7C3B925 DUP5 PUSH1 0x40 MLOAD PUSH2 0x74F SWAP2 DUP2 MSTORE PUSH1 0x20 ADD SWAP1 JUMP JUMPDEST PUSH1 0x40 MLOAD DUP1 SWAP2 SUB SWAP1 LOG3 POP POP POP POP JUMP JUMPDEST PUSH1 0x1 PUSH1 0x1 PUSH1 0xA0 SHL SUB DUP4 AND PUSH2 0x788 JUMPI DUP1 PUSH1 0x2 PUSH1 0x0 DUP3 DUP3 SLOAD PUSH2 0x77D SWAP2 SWAP1 PUSH2 0x9E6 JUMP JUMPDEST SWAP1 SWAP2 SSTORE POP PUSH2 0x7FA SWAP1 POP JUMP JUMPDEST PUSH1 0x1 PUSH1 0x1 PUSH1 0xA0 SHL SUB DUP4 AND PUSH1 0x0 SWAP1 DUP2 MSTORE PUSH1 0x20 DUP2 SWAP1 MSTORE PUSH1 0x40 SWAP1 KECCAK256 SLOAD DUP2 DUP2 LT ISZERO PUSH2 0x7DB JUMPI PUSH1 0x40 MLOAD PUSH4 0x391434E3 PUSH1 0xE2 SHL DUP2 MSTORE PUSH1 0x1 PUSH1 0x1 PUSH1 0xA0 SHL SUB DUP6 AND PUSH1 0x4 DUP3 ADD MSTORE PUSH1 0x24 DUP2 ADD DUP3 SWAP1 MSTORE PUSH1 0x44 DUP2 ADD DUP4 SWAP1 MSTORE PUSH1 0x64 ADD PUSH2 0x3A4 JUMP JUMPDEST PUSH1 0x1 PUSH1 0x1 PUSH1 0xA0 SHL SUB DUP5 AND PUSH1 0x0 SWAP1 DUP2 MSTORE PUSH1 0x20 DUP2 SWAP1 MSTORE PUSH1 0x40 SWAP1 KECCAK256 SWAP1 DUP3 SWAP1 SUB SWAP1 SSTORE JUMPDEST PUSH1 0x1 PUSH1 0x1 PUSH1 0xA0 SHL SUB DUP3 AND PUSH2 0x816 JUMPI PUSH1 0x2 DUP1 SLOAD DUP3 SWAP1 SUB SWAP1 SSTORE PUSH2 0x835 JUMP JUMPDEST PUSH1 0x1 PUSH1 0x1 PUSH1 0xA0 SHL SUB DUP3 AND PUSH1 0x0 SWAP1 DUP2 MSTORE PUSH1 0x20 DUP2 SWAP1 MSTORE PUSH1 0x40 SWAP1 KECCAK256 DUP1 SLOAD DUP3 ADD SWAP1 SSTORE JUMPDEST DUP2 PUSH1 0x1 PUSH1 0x1 PUSH1 0xA0 SHL SUB AND DUP4 PUSH1 0x1 PUSH1 0x1 PUSH1 0xA0 SHL SUB AND PUSH32 0xDDF252AD1BE2C89B69C2B068FC378DAA952BA7F163C4A11628F55A4DF523B3EF DUP4 PUSH1 0x40 MLOAD PUSH2 0x87A SWAP2 DUP2 MSTORE PUSH1 0x20 ADD SWAP1 JUMP JUMPDEST PUSH1 0x40 MLOAD DUP1 SWAP2 SUB SWAP1 LOG3 POP POP POP JUMP JUMPDEST PUSH1 0x0 PUSH1 0x20 DUP1 DUP4 MSTORE DUP4 MLOAD DUP1 DUP3 DUP6 ADD MSTORE PUSH1 0x0 JUMPDEST DUP2 DUP2 LT ISZERO PUSH2 0x8B4 JUMPI DUP6 DUP2 ADD DUP4 ADD MLOAD DUP6 DUP3 ADD PUSH1 0x40 ADD MSTORE DUP3 ADD PUSH2 0x898 JUMP JUMPDEST POP PUSH1 0x0 PUSH1 0x40 DUP3 DUP7 ADD ADD MSTORE PUSH1 0x40 PUSH1 0x1F NOT PUSH1 0x1F DUP4 ADD AND DUP6 ADD ADD SWAP3 POP POP POP SWAP3 SWAP2 POP POP JUMP JUMPDEST DUP1 CALLDATALOAD PUSH1 0x1 PUSH1 0x1 PUSH1 0xA0 SHL SUB DUP2 AND DUP2 EQ PUSH2 0x8EC JUMPI PUSH1 0x0 DUP1 REVERT JUMPDEST SWAP2 SWAP1 POP JUMP JUMPDEST PUSH1 0x0 DUP1 PUSH1 0x40 DUP4 DUP6 SUB SLT ISZERO PUSH2 0x904 JUMPI PUSH1 0x0 DUP1 REVERT JUMPDEST PUSH2 0x90D DUP4 PUSH2 0x8D5 JUMP JUMPDEST SWAP5 PUSH1 0x20 SWAP4 SWAP1 SWAP4 ADD CALLDATALOAD SWAP4 POP POP POP JUMP JUMPDEST PUSH1 0x0 DUP1 PUSH1 0x0 PUSH1 0x60 DUP5 DUP7 SUB SLT ISZERO PUSH2 0x930 JUMPI PUSH1 0x0 DUP1 REVERT JUMPDEST PUSH2 0x939 DUP5 PUSH2 0x8D5 JUMP JUMPDEST SWAP3 POP PUSH2 0x947 PUSH1 0x20 DUP6 ADD PUSH2 0x8D5 JUMP JUMPDEST SWAP2 POP PUSH1 0x40 DUP5 ADD CALLDATALOAD SWAP1 POP SWAP3 POP SWAP3 POP SWAP3 JUMP JUMPDEST PUSH1 0x0 PUSH1 0x20 DUP3 DUP5 SUB SLT ISZERO PUSH2 0x969 JUMPI PUSH1 0x0 DUP1 REVERT JUMPDEST PUSH2 0x972 DUP3 PUSH2 0x8D5 JUMP JUMPDEST SWAP4 SWAP3 POP POP POP JUMP JUMPDEST PUSH1 0x0 DUP1 PUSH1 0x40 DUP4 DUP6 SUB SLT ISZERO PUSH2 0x98C JUMPI PUSH1 0x0 DUP1 REVERT JUMPDEST PUSH2 0x995 DUP4 PUSH2 0x8D5 JUMP JUMPDEST SWAP2 POP PUSH2 0x9A3 PUSH1 0x20 DUP5 ADD PUSH2 0x8D5 JUMP JUMPDEST SWAP1 POP SWAP3 POP SWAP3 SWAP1 POP JUMP JUMPDEST PUSH1 0x1 DUP2 DUP2 SHR SWAP1 DUP3 AND DUP1 PUSH2 0x9C0 JUMPI PUSH1 0x7F DUP3 AND SWAP2 POP JUMPDEST PUSH1 0x20 DUP3 LT DUP2 SUB PUSH2 0x9E0 JUMPI PUSH4 0x4E487B71 PUSH1 0xE0 SHL PUSH1 0x0 MSTORE PUSH1 0x22 PUSH1 0x4 MSTORE PUSH1 0x24 PUSH1 0x0 REVERT JUMPDEST POP SWAP2 SWAP1 POP JUMP JUMPDEST DUP1 DUP3 ADD DUP1 DUP3 GT ISZERO PUSH2 0x32F JUMPI PUSH4 0x4E487B71 PUSH1 0xE0 SHL PUSH1 0x0 MSTORE PUSH1 0x11 PUSH1 0x4 MSTORE PUSH1 0x24 PUSH1 0x0 REVERT INVALID LOG2 PUSH5 0x6970667358 0x22 SLT KECCAK256 0xE8 0x5E 0xBA 0x4A 0x5C 0xB8 AND PUSH0 0xD6 RETURN 0xCB SIGNEXTEND 0x2D EXTCODEHASH CALLDATASIZE SLOAD SAR 0xDC PUSH3 0x87DD63 PUSH12 0xB994D12028A4EB18E264736F PUSH13 0x63430008140033A26469706673 PC 0x22 SLT KECCAK256 DUP14 SWAP1 0x29 0xE9 PUSH28 0xFDF35D0A72447AA613F020D693AFE5437E0053459E679291D5694264 PUSH20 0x6F6C634300081400330000000000000000000000 "},"methodIdentifiers":{"PVM_ENGINE()":"041c42d9","XCM_PRECOMPILE()":"077120cc","baskets(uint256)":"a60ed374","createBasket(string,string,(uint32,address,uint16,bytes,bytes)[])":"af4d612f","deposit(uint256)":"b6b55f25","getBasket(uint256)":"77977d50","getBasketNAV(uint256)":"903746b9","nextBasketId()":"a7600528","owner()":"8da5cb5b","rebalance(uint256)":"f4993018","rebalanceThresholdBps()":"4000001a","userPositions(address,uint256)":"5e1b4d99","withdraw(uint256,uint256)":"441a3e70"}}}}}