{
  "_format": "hh-sol-artifact-1",
  "contractName": "MockMoonbeamLending",
  "sourceName": "contracts/mocks/MockMoonbeamLending.sol",
  "abi": [
    {
      "inputs": [
        {
          "internalType": "address",
          "name": "_dotToken",
          "type": "address"
        }
      ],
      "stateMutability": "nonpayable",
      "type": "constructor"
    },
    {
      "inputs": [
        {
          "internalType": "address",
          "name": "spender",
          "type": "address"
        },
        {
          "internalType": "uint256",
          "name": "allowance",
          "type": "uint256"
        },
        {
          "internalType": "uint256",
          "name": "needed",
          "type": "uint256"
        }
      ],
      "name": "ERC20InsufficientAllowance",
      "type": "error"
    },
    {
      "inputs": [
        {
          "internalType": "address",
          "name": "sender",
          "type": "address"
        },
        {
          "internalType": "uint256",
          "name": "balance",
          "type": "uint256"
        },
        {
          "internalType": "uint256",
          "name": "needed",
          "type": "uint256"
        }
      ],
      "name": "ERC20InsufficientBalance",
      "type": "error"
    },
    {
      "inputs": [
        {
          "internalType": "address",
          "name": "approver",
          "type": "address"
        }
      ],
      "name": "ERC20InvalidApprover",
      "type": "error"
    },
    {
      "inputs": [
        {
          "internalType": "address",
          "name": "receiver",
          "type": "address"
        }
      ],
      "name": "ERC20InvalidReceiver",
      "type": "error"
    },
    {
      "inputs": [
        {
          "internalType": "address",
          "name": "sender",
          "type": "address"
        }
      ],
      "name": "ERC20InvalidSender",
      "type": "error"
    },
    {
      "inputs": [
        {
          "internalType": "address",
          "name": "spender",
          "type": "address"
        }
      ],
      "name": "ERC20InvalidSpender",
      "type": "error"
    },
    {
      "inputs": [
        {
          "internalType": "address",
          "name": "owner",
          "type": "address"
        }
      ],
      "name": "OwnableInvalidOwner",
      "type": "error"
    },
    {
      "inputs": [
        {
          "internalType": "address",
          "name": "account",
          "type": "address"
        }
      ],
      "name": "OwnableUnauthorizedAccount",
      "type": "error"
    },
    {
      "anonymous": false,
      "inputs": [
        {
          "indexed": true,
          "internalType": "address",
          "name": "user",
          "type": "address"
        },
        {
          "indexed": false,
          "internalType": "uint256",
          "name": "accruedAmount",
          "type": "uint256"
        }
      ],
      "name": "Accrued",
      "type": "event"
    },
    {
      "anonymous": false,
      "inputs": [
        {
          "indexed": true,
          "internalType": "address",
          "name": "owner",
          "type": "address"
        },
        {
          "indexed": true,
          "internalType": "address",
          "name": "spender",
          "type": "address"
        },
        {
          "indexed": false,
          "internalType": "uint256",
          "name": "value",
          "type": "uint256"
        }
      ],
      "name": "Approval",
      "type": "event"
    },
    {
      "anonymous": false,
      "inputs": [
        {
          "indexed": true,
          "internalType": "address",
          "name": "user",
          "type": "address"
        },
        {
          "indexed": false,
          "internalType": "uint256",
          "name": "dotAmount",
          "type": "uint256"
        },
        {
          "indexed": false,
          "internalType": "uint256",
          "name": "shareMinted",
          "type": "uint256"
        }
      ],
      "name": "Deposited",
      "type": "event"
    },
    {
      "anonymous": false,
      "inputs": [
        {
          "indexed": true,
          "internalType": "address",
          "name": "previousOwner",
          "type": "address"
        },
        {
          "indexed": true,
          "internalType": "address",
          "name": "newOwner",
          "type": "address"
        }
      ],
      "name": "OwnershipTransferred",
      "type": "event"
    },
    {
      "anonymous": false,
      "inputs": [
        {
          "indexed": true,
          "internalType": "address",
          "name": "from",
          "type": "address"
        },
        {
          "indexed": true,
          "internalType": "address",
          "name": "to",
          "type": "address"
        },
        {
          "indexed": false,
          "internalType": "uint256",
          "name": "value",
          "type": "uint256"
        }
      ],
      "name": "Transfer",
      "type": "event"
    },
    {
      "anonymous": false,
      "inputs": [
        {
          "indexed": true,
          "internalType": "address",
          "name": "user",
          "type": "address"
        },
        {
          "indexed": false,
          "internalType": "uint256",
          "name": "shareBurned",
          "type": "uint256"
        },
        {
          "indexed": false,
          "internalType": "uint256",
          "name": "dotReturned",
          "type": "uint256"
        }
      ],
      "name": "Withdrawn",
      "type": "event"
    },
    {
      "inputs": [],
      "name": "SUPPLY_RATE",
      "outputs": [
        {
          "internalType": "uint256",
          "name": "",
          "type": "uint256"
        }
      ],
      "stateMutability": "view",
      "type": "function"
    },
    {
      "inputs": [
        {
          "internalType": "address",
          "name": "user",
          "type": "address"
        }
      ],
      "name": "accrue",
      "outputs": [],
      "stateMutability": "nonpayable",
      "type": "function"
    },
    {
      "inputs": [
        {
          "internalType": "address",
          "name": "owner",
          "type": "address"
        },
        {
          "internalType": "address",
          "name": "spender",
          "type": "address"
        }
      ],
      "name": "allowance",
      "outputs": [
        {
          "internalType": "uint256",
          "name": "",
          "type": "uint256"
        }
      ],
      "stateMutability": "view",
      "type": "function"
    },
    {
      "inputs": [
        {
          "internalType": "address",
          "name": "spender",
          "type": "address"
        },
        {
          "internalType": "uint256",
          "name": "value",
          "type": "uint256"
        }
      ],
      "name": "approve",
      "outputs": [
        {
          "internalType": "bool",
          "name": "",
          "type": "bool"
        }
      ],
      "stateMutability": "nonpayable",
      "type": "function"
    },
    {
      "inputs": [
        {
          "internalType": "address",
          "name": "account",
          "type": "address"
        }
      ],
      "name": "balanceOf",
      "outputs": [
        {
          "internalType": "uint256",
          "name": "",
          "type": "uint256"
        }
      ],
      "stateMutability": "view",
      "type": "function"
    },
    {
      "inputs": [],
      "name": "decimals",
      "outputs": [
        {
          "internalType": "uint8",
          "name": "",
          "type": "uint8"
        }
      ],
      "stateMutability": "view",
      "type": "function"
    },
    {
      "inputs": [
        {
          "internalType": "uint256",
          "name": "dotAmount",
          "type": "uint256"
        }
      ],
      "name": "deposit",
      "outputs": [
        {
          "internalType": "uint256",
          "name": "shareMinted",
          "type": "uint256"
        }
      ],
      "stateMutability": "nonpayable",
      "type": "function"
    },
    {
      "inputs": [
        {
          "internalType": "address",
          "name": "",
          "type": "address"
        }
      ],
      "name": "depositTime",
      "outputs": [
        {
          "internalType": "uint256",
          "name": "",
          "type": "uint256"
        }
      ],
      "stateMutability": "view",
      "type": "function"
    },
    {
      "inputs": [
        {
          "internalType": "address",
          "name": "",
          "type": "address"
        }
      ],
      "name": "deposited",
      "outputs": [
        {
          "internalType": "uint256",
          "name": "",
          "type": "uint256"
        }
      ],
      "stateMutability": "view",
      "type": "function"
    },
    {
      "inputs": [],
      "name": "dotToken",
      "outputs": [
        {
          "internalType": "address",
          "name": "",
          "type": "address"
        }
      ],
      "stateMutability": "view",
      "type": "function"
    },
    {
      "inputs": [],
      "name": "getExchangeRate",
      "outputs": [
        {
          "internalType": "uint256",
          "name": "",
          "type": "uint256"
        }
      ],
      "stateMutability": "view",
      "type": "function"
    },
    {
      "inputs": [],
      "name": "getTotalUnderlying",
      "outputs": [
        {
          "internalType": "uint256",
          "name": "",
          "type": "uint256"
        }
      ],
      "stateMutability": "view",
      "type": "function"
    },
    {
      "inputs": [],
      "name": "name",
      "outputs": [
        {
          "internalType": "string",
          "name": "",
          "type": "string"
        }
      ],
      "stateMutability": "view",
      "type": "function"
    },
    {
      "inputs": [],
      "name": "owner",
      "outputs": [
        {
          "internalType": "address",
          "name": "",
          "type": "address"
        }
      ],
      "stateMutability": "view",
      "type": "function"
    },
    {
      "inputs": [],
      "name": "renounceOwnership",
      "outputs": [],
      "stateMutability": "nonpayable",
      "type": "function"
    },
    {
      "inputs": [],
      "name": "symbol",
      "outputs": [
        {
          "internalType": "string",
          "name": "",
          "type": "string"
        }
      ],
      "stateMutability": "view",
      "type": "function"
    },
    {
      "inputs": [],
      "name": "totalSupply",
      "outputs": [
        {
          "internalType": "uint256",
          "name": "",
          "type": "uint256"
        }
      ],
      "stateMutability": "view",
      "type": "function"
    },
    {
      "inputs": [
        {
          "internalType": "address",
          "name": "to",
          "type": "address"
        },
        {
          "internalType": "uint256",
          "name": "value",
          "type": "uint256"
        }
      ],
      "name": "transfer",
      "outputs": [
        {
          "internalType": "bool",
          "name": "",
          "type": "bool"
        }
      ],
      "stateMutability": "nonpayable",
      "type": "function"
    },
    {
      "inputs": [
        {
          "internalType": "address",
          "name": "from",
          "type": "address"
        },
        {
          "internalType": "address",
          "name": "to",
          "type": "address"
        },
        {
          "internalType": "uint256",
          "name": "value",
          "type": "uint256"
        }
      ],
      "name": "transferFrom",
      "outputs": [
        {
          "internalType": "bool",
          "name": "",
          "type": "bool"
        }
      ],
      "stateMutability": "nonpayable",
      "type": "function"
    },
    {
      "inputs": [
        {
          "internalType": "address",
          "name": "newOwner",
          "type": "address"
        }
      ],
      "name": "transferOwnership",
      "outputs": [],
      "stateMutability": "nonpayable",
      "type": "function"
    },
    {
      "inputs": [
        {
          "internalType": "uint256",
          "name": "shareAmount",
          "type": "uint256"
        }
      ],
      "name": "withdraw",
      "outputs": [
        {
          "internalType": "uint256",
          "name": "dotReturned",
          "type": "uint256"
        }
      ],
      "stateMutability": "nonpayable",
      "type": "function"
    }
  ],
  "bytecode": "0x60a06040523480156200001157600080fd5b506040516200243e3803806200243e8339818101604052810190620000379190620002bc565b336040518060400160405280601481526020017f4d6f6f6e6265616d20444f54204c656e64696e670000000000000000000000008152506040518060400160405280600881526020017f6d6f6f6e64444f540000000000000000000000000000000000000000000000008152508160039081620000b5919062000568565b508060049081620000c7919062000568565b505050600073ffffffffffffffffffffffffffffffffffffffff168173ffffffffffffffffffffffffffffffffffffffff16036200013f5760006040517f1e4fbdf700000000000000000000000000000000000000000000000000000000815260040162000136919062000660565b60405180910390fd5b62000150816200018c60201b60201c565b508073ffffffffffffffffffffffffffffffffffffffff1660808173ffffffffffffffffffffffffffffffffffffffff1681525050506200067d565b6000600560009054906101000a900473ffffffffffffffffffffffffffffffffffffffff16905081600560006101000a81548173ffffffffffffffffffffffffffffffffffffffff021916908373ffffffffffffffffffffffffffffffffffffffff1602179055508173ffffffffffffffffffffffffffffffffffffffff168173ffffffffffffffffffffffffffffffffffffffff167f8be0079c531659141344cd1fd0a4f28419497f9722a3daafe3b4186f6b6457e060405160405180910390a35050565b600080fd5b600073ffffffffffffffffffffffffffffffffffffffff82169050919050565b6000620002848262000257565b9050919050565b620002968162000277565b8114620002a257600080fd5b50565b600081519050620002b6816200028b565b92915050565b600060208284031215620002d557620002d462000252565b5b6000620002e584828501620002a5565b91505092915050565b600081519050919050565b7f4e487b7100000000000000000000000000000000000000000000000000000000600052604160045260246000fd5b7f4e487b7100000000000000000000000000000000000000000000000000000000600052602260045260246000fd5b600060028204905060018216806200037057607f821691505b60208210810362000386576200038562000328565b5b50919050565b60008190508160005260206000209050919050565b60006020601f8301049050919050565b600082821b905092915050565b600060088302620003f07fffffffffffffffffffffffffffffffffffffffffffffffffffffffffffffffff82620003b1565b620003fc8683620003b1565b95508019841693508086168417925050509392505050565b6000819050919050565b6000819050919050565b600062000449620004436200043d8462000414565b6200041e565b62000414565b9050919050565b6000819050919050565b620004658362000428565b6200047d620004748262000450565b848454620003be565b825550505050565b600090565b6200049462000485565b620004a18184846200045a565b505050565b5b81811015620004c957620004bd6000826200048a565b600181019050620004a7565b5050565b601f8211156200051857620004e2816200038c565b620004ed84620003a1565b81016020851015620004fd578190505b620005156200050c85620003a1565b830182620004a6565b50505b505050565b600082821c905092915050565b60006200053d600019846008026200051d565b1980831691505092915050565b60006200055883836200052a565b9150826002028217905092915050565b6200057382620002ee565b67ffffffffffffffff8111156200058f576200058e620002f9565b5b6200059b825462000357565b620005a8828285620004cd565b600060209050601f831160018114620005e05760008415620005cb578287015190505b620005d785826200054a565b86555062000647565b601f198416620005f0866200038c565b60005b828110156200061a57848901518255600182019150602085019450602081019050620005f3565b868310156200063a578489015162000636601f8916826200052a565b8355505b6001600288020188555050505b505050505050565b6200065a8162000277565b82525050565b60006020820190506200067760008301846200064f565b92915050565b608051611d90620006ae600039600081816104f301528181610620015281816109c80152610aab0152611d906000f3fe608060405234801561001057600080fd5b50600436106101375760003560e01c806370a08231116100b8578063b40494e51161007c578063b40494e514610354578063b6b55f2514610372578063cb13cddb146103a2578063dd62ed3e146103d2578063e6aa216c14610402578063f2fde38b1461042057610137565b806370a08231146102ae578063715018a6146102de5780638da5cb5b146102e857806395d89b4114610306578063a9059cbb1461032457610137565b806326dd3d88116100ff57806326dd3d88146101f65780632e1a7d4d14610214578063313ce5671461024457806346c64873146102625780636680ac0b1461029257610137565b806306fdde031461013c578063095ea7b31461015a57806313205d2f1461018a57806318160ddd146101a857806323b872dd146101c6575b600080fd5b61014461043c565b6040516101519190611679565b60405180910390f35b610174600480360381019061016f9190611734565b6104ce565b604051610181919061178f565b60405180910390f35b6101926104f1565b60405161019f91906117b9565b60405180910390f35b6101b0610515565b6040516101bd91906117e3565b60405180910390f35b6101e060048036038101906101db91906117fe565b61051f565b6040516101ed919061178f565b60405180910390f35b6101fe61054e565b60405161020b91906117e3565b60405180910390f35b61022e60048036038101906102299190611851565b610554565b60405161023b91906117e3565b60405180910390f35b61024c610759565b604051610259919061189a565b60405180910390f35b61027c600480360381019061027791906118b5565b610762565b60405161028991906117e3565b60405180910390f35b6102ac60048036038101906102a791906118b5565b61077a565b005b6102c860048036038101906102c391906118b5565b610889565b6040516102d591906117e3565b60405180910390f35b6102e66108d1565b005b6102f06108e5565b6040516102fd91906117b9565b60405180910390f35b61030e61090f565b60405161031b9190611679565b60405180910390f35b61033e60048036038101906103399190611734565b6109a1565b60405161034b919061178f565b60405180910390f35b61035c6109c4565b60405161036991906117e3565b60405180910390f35b61038c60048036038101906103879190611851565b610a65565b60405161039991906117e3565b60405180910390f35b6103bc60048036038101906103b791906118b5565b610c87565b6040516103c991906117e3565b60405180910390f35b6103ec60048036038101906103e791906118e2565b610c9f565b6040516103f991906117e3565b60405180910390f35b61040a610d26565b60405161041791906117e3565b60405180910390f35b61043a600480360381019061043591906118b5565b610d73565b005b60606003805461044b90611951565b80601f016020809104026020016040519081016040528092919081815260200182805461047790611951565b80156104c45780601f10610499576101008083540402835291602001916104c4565b820191906000526020600020905b8154815290600101906020018083116104a757829003601f168201915b5050505050905090565b6000806104d9610df9565b90506104e6818585610e01565b600191505092915050565b7f000000000000000000000000000000000000000000000000000000000000000081565b6000600254905090565b60008061052a610df9565b9050610537858285610e13565b610542858585610ea8565b60019150509392505050565b61041a81565b6000808211610598576040517f08c379a000000000000000000000000000000000000000000000000000000000815260040161058f906119ce565b60405180910390fd5b816105a233610889565b10156105e3576040517f08c379a00000000000000000000000000000000000000000000000000000000081526004016105da90611a3a565b60405180910390fd5b60006105ed610515565b905060006105f96109c4565b90508181856106089190611a89565b6106129190611afa565b925061061e3385610f9c565b7f000000000000000000000000000000000000000000000000000000000000000073ffffffffffffffffffffffffffffffffffffffff1663a9059cbb33856040518363ffffffff1660e01b8152600401610679929190611b2b565b6020604051808303816000875af1158015610698573d6000803e3d6000fd5b505050506040513d601f19601f820116820180604052508101906106bc9190611b80565b506000600660003373ffffffffffffffffffffffffffffffffffffffff1673ffffffffffffffffffffffffffffffffffffffff168152602001908152602001600020819055503373ffffffffffffffffffffffffffffffffffffffff167f92ccf450a286a957af52509bc1c9939d1a6a481783e142e41e2499f0bb66ebc6858560405161074a929190611bad565b60405180910390a25050919050565b60006012905090565b60076020528060005260406000206000915090505481565b600061078582610889565b9050600081036107955750610886565b6000600760008473ffffffffffffffffffffffffffffffffffffffff1673ffffffffffffffffffffffffffffffffffffffff16815260200190815260200160002054426107e29190611bd6565b9050600081036107f3575050610886565b6000640757b12c008261041a8561080a9190611a89565b6108149190611a89565b61081e9190611afa565b9050600081111561088257610833848261101e565b8373ffffffffffffffffffffffffffffffffffffffff167f603f16706d8facbdadddadc2f84737909caebc5d1f3adf53d69014f2d908611c8260405161087991906117e3565b60405180910390a25b5050505b50565b60008060008373ffffffffffffffffffffffffffffffffffffffff1673ffffffffffffffffffffffffffffffffffffffff168152602001908152602001600020549050919050565b6108d96110a0565b6108e36000611127565b565b6000600560009054906101000a900473ffffffffffffffffffffffffffffffffffffffff16905090565b60606004805461091e90611951565b80601f016020809104026020016040519081016040528092919081815260200182805461094a90611951565b80156109975780601f1061096c57610100808354040283529160200191610997565b820191906000526020600020905b81548152906001019060200180831161097a57829003601f168201915b5050505050905090565b6000806109ac610df9565b90506109b9818585610ea8565b600191505092915050565b60007f000000000000000000000000000000000000000000000000000000000000000073ffffffffffffffffffffffffffffffffffffffff166370a08231306040518263ffffffff1660e01b8152600401610a1f91906117b9565b602060405180830381865afa158015610a3c573d6000803e3d6000fd5b505050506040513d601f19601f82011682018060405250810190610a609190611c1f565b905090565b6000808211610aa9576040517f08c379a0000000000000000000000000000000000000000000000000000000008152600401610aa090611c98565b60405180910390fd5b7f000000000000000000000000000000000000000000000000000000000000000073ffffffffffffffffffffffffffffffffffffffff166323b872dd3330856040518463ffffffff1660e01b8152600401610b0693929190611cb8565b6020604051808303816000875af1158015610b25573d6000803e3d6000fd5b505050506040513d601f19601f82011682018060405250810190610b499190611b80565b506000610b54610515565b905060008103610b6657829150610b8d565b6000610b706109c4565b9050808285610b7f9190611a89565b610b899190611afa565b9250505b82600660003373ffffffffffffffffffffffffffffffffffffffff1673ffffffffffffffffffffffffffffffffffffffff1681526020019081526020016000206000828254610bdc9190611cef565b9250508190555042600760003373ffffffffffffffffffffffffffffffffffffffff1673ffffffffffffffffffffffffffffffffffffffff16815260200190815260200160002081905550610c31338361101e565b3373ffffffffffffffffffffffffffffffffffffffff167f73a19dd210f1a7f902193214c0ee91dd35ee5b4d920cba8d519eca65a7b488ca8484604051610c79929190611bad565b60405180910390a250919050565b60066020528060005260406000206000915090505481565b6000600160008473ffffffffffffffffffffffffffffffffffffffff1673ffffffffffffffffffffffffffffffffffffffff16815260200190815260200160002060008373ffffffffffffffffffffffffffffffffffffffff1673ffffffffffffffffffffffffffffffffffffffff16815260200190815260200160002054905092915050565b600080610d31610515565b905060008103610d46576103e8915050610d70565b6000610d506109c4565b9050816103e882610d619190611a89565b610d6b9190611afa565b925050505b90565b610d7b6110a0565b600073ffffffffffffffffffffffffffffffffffffffff168173ffffffffffffffffffffffffffffffffffffffff1603610ded5760006040517f1e4fbdf7000000000000000000000000000000000000000000000000000000008152600401610de491906117b9565b60405180910390fd5b610df681611127565b50565b600033905090565b610e0e83838360016111ed565b505050565b6000610e1f8484610c9f565b90507fffffffffffffffffffffffffffffffffffffffffffffffffffffffffffffffff811015610ea25781811015610e92578281836040517ffb8f41b2000000000000000000000000000000000000000000000000000000008152600401610e8993929190611d23565b60405180910390fd5b610ea1848484840360006111ed565b5b50505050565b600073ffffffffffffffffffffffffffffffffffffffff168373ffffffffffffffffffffffffffffffffffffffff1603610f1a5760006040517f96c6fd1e000000000000000000000000000000000000000000000000000000008152600401610f1191906117b9565b60405180910390fd5b600073ffffffffffffffffffffffffffffffffffffffff168273ffffffffffffffffffffffffffffffffffffffff1603610f8c5760006040517fec442f05000000000000000000000000000000000000000000000000000000008152600401610f8391906117b9565b60405180910390fd5b610f978383836113c4565b505050565b600073ffffffffffffffffffffffffffffffffffffffff168273ffffffffffffffffffffffffffffffffffffffff160361100e5760006040517f96c6fd1e00000000000000000000000000000000000000000000000000000000815260040161100591906117b9565b60405180910390fd5b61101a826000836113c4565b5050565b600073ffffffffffffffffffffffffffffffffffffffff168273ffffffffffffffffffffffffffffffffffffffff16036110905760006040517fec442f0500000000000000000000000000000000000000000000000000000000815260040161108791906117b9565b60405180910390fd5b61109c600083836113c4565b5050565b6110a8610df9565b73ffffffffffffffffffffffffffffffffffffffff166110c66108e5565b73ffffffffffffffffffffffffffffffffffffffff1614611125576110e9610df9565b6040517f118cdaa700000000000000000000000000000000000000000000000000000000815260040161111c91906117b9565b60405180910390fd5b565b6000600560009054906101000a900473ffffffffffffffffffffffffffffffffffffffff16905081600560006101000a81548173ffffffffffffffffffffffffffffffffffffffff021916908373ffffffffffffffffffffffffffffffffffffffff1602179055508173ffffffffffffffffffffffffffffffffffffffff168173ffffffffffffffffffffffffffffffffffffffff167f8be0079c531659141344cd1fd0a4f28419497f9722a3daafe3b4186f6b6457e060405160405180910390a35050565b600073ffffffffffffffffffffffffffffffffffffffff168473ffffffffffffffffffffffffffffffffffffffff160361125f5760006040517fe602df0500000000000000000000000000000000000000000000000000000000815260040161125691906117b9565b60405180910390fd5b600073ffffffffffffffffffffffffffffffffffffffff168373ffffffffffffffffffffffffffffffffffffffff16036112d15760006040517f94280d620000000000000000000000000000000000000000000000000000000081526004016112c891906117b9565b60405180910390fd5b81600160008673ffffffffffffffffffffffffffffffffffffffff1673ffffffffffffffffffffffffffffffffffffffff16815260200190815260200160002060008573ffffffffffffffffffffffffffffffffffffffff1673ffffffffffffffffffffffffffffffffffffffff1681526020019081526020016000208190555080156113be578273ffffffffffffffffffffffffffffffffffffffff168473ffffffffffffffffffffffffffffffffffffffff167f8c5be1e5ebec7d5bd14f71427d1e84f3dd0314c0f7b2291e5b200ac8c7c3b925846040516113b591906117e3565b60405180910390a35b50505050565b600073ffffffffffffffffffffffffffffffffffffffff168373ffffffffffffffffffffffffffffffffffffffff160361141657806002600082825461140a9190611cef565b925050819055506114e9565b60008060008573ffffffffffffffffffffffffffffffffffffffff1673ffffffffffffffffffffffffffffffffffffffff168152602001908152602001600020549050818110156114a2578381836040517fe450d38c00000000000000000000000000000000000000000000000000000000815260040161149993929190611d23565b60405180910390fd5b8181036000808673ffffffffffffffffffffffffffffffffffffffff1673ffffffffffffffffffffffffffffffffffffffff16815260200190815260200160002081905550505b600073ffffffffffffffffffffffffffffffffffffffff168273ffffffffffffffffffffffffffffffffffffffff1603611532578060026000828254039250508190555061157f565b806000808473ffffffffffffffffffffffffffffffffffffffff1673ffffffffffffffffffffffffffffffffffffffff168152602001908152602001600020600082825401925050819055505b8173ffffffffffffffffffffffffffffffffffffffff168373ffffffffffffffffffffffffffffffffffffffff167fddf252ad1be2c89b69c2b068fc378daa952ba7f163c4a11628f55a4df523b3ef836040516115dc91906117e3565b60405180910390a3505050565b600081519050919050565b600082825260208201905092915050565b60005b83811015611623578082015181840152602081019050611608565b60008484015250505050565b6000601f19601f8301169050919050565b600061164b826115e9565b61165581856115f4565b9350611665818560208601611605565b61166e8161162f565b840191505092915050565b600060208201905081810360008301526116938184611640565b905092915050565b600080fd5b600073ffffffffffffffffffffffffffffffffffffffff82169050919050565b60006116cb826116a0565b9050919050565b6116db816116c0565b81146116e657600080fd5b50565b6000813590506116f8816116d2565b92915050565b6000819050919050565b611711816116fe565b811461171c57600080fd5b50565b60008135905061172e81611708565b92915050565b6000806040838503121561174b5761174a61169b565b5b6000611759858286016116e9565b925050602061176a8582860161171f565b9150509250929050565b60008115159050919050565b61178981611774565b82525050565b60006020820190506117a46000830184611780565b92915050565b6117b3816116c0565b82525050565b60006020820190506117ce60008301846117aa565b92915050565b6117dd816116fe565b82525050565b60006020820190506117f860008301846117d4565b92915050565b6000806000606084860312156118175761181661169b565b5b6000611825868287016116e9565b9350506020611836868287016116e9565b92505060406118478682870161171f565b9150509250925092565b6000602082840312156118675761186661169b565b5b60006118758482850161171f565b91505092915050565b600060ff82169050919050565b6118948161187e565b82525050565b60006020820190506118af600083018461188b565b92915050565b6000602082840312156118cb576118ca61169b565b5b60006118d9848285016116e9565b91505092915050565b600080604083850312156118f9576118f861169b565b5b6000611907858286016116e9565b9250506020611918858286016116e9565b9150509250929050565b7f4e487b7100000000000000000000000000000000000000000000000000000000600052602260045260246000fd5b6000600282049050600182168061196957607f821691505b60208210810361197c5761197b611922565b5b50919050565b7f4d75737420776974686472617700000000000000000000000000000000000000600082015250565b60006119b8600d836115f4565b91506119c382611982565b602082019050919050565b600060208201905081810360008301526119e7816119ab565b9050919050565b7f496e73756666696369656e742073686172657300000000000000000000000000600082015250565b6000611a246013836115f4565b9150611a2f826119ee565b602082019050919050565b60006020820190508181036000830152611a5381611a17565b9050919050565b7f4e487b7100000000000000000000000000000000000000000000000000000000600052601160045260246000fd5b6000611a94826116fe565b9150611a9f836116fe565b9250828202611aad816116fe565b91508282048414831517611ac457611ac3611a5a565b5b5092915050565b7f4e487b7100000000000000000000000000000000000000000000000000000000600052601260045260246000fd5b6000611b05826116fe565b9150611b10836116fe565b925082611b2057611b1f611acb565b5b828204905092915050565b6000604082019050611b4060008301856117aa565b611b4d60208301846117d4565b9392505050565b611b5d81611774565b8114611b6857600080fd5b50565b600081519050611b7a81611b54565b92915050565b600060208284031215611b9657611b9561169b565b5b6000611ba484828501611b6b565b91505092915050565b6000604082019050611bc260008301856117d4565b611bcf60208301846117d4565b9392505050565b6000611be1826116fe565b9150611bec836116fe565b9250828203905081811115611c0457611c03611a5a565b5b92915050565b600081519050611c1981611708565b92915050565b600060208284031215611c3557611c3461169b565b5b6000611c4384828501611c0a565b91505092915050565b7f4d757374206465706f73697420444f5400000000000000000000000000000000600082015250565b6000611c826010836115f4565b9150611c8d82611c4c565b602082019050919050565b60006020820190508181036000830152611cb181611c75565b9050919050565b6000606082019050611ccd60008301866117aa565b611cda60208301856117aa565b611ce760408301846117d4565b949350505050565b6000611cfa826116fe565b9150611d05836116fe565b9250828201905080821115611d1d57611d1c611a5a565b5b92915050565b6000606082019050611d3860008301866117aa565b611d4560208301856117d4565b611d5260408301846117d4565b94935050505056fea2646970667358221220d547ea99ae6d53ed667e161e85d755404eb31c7606f85f1dac3e62d49d34a70e64736f6c63430008140033",
  "linkReferences": {},
  "deployedLinkReferences": {}
}