{"abi":[{"type":"function","name":"MAX_WEIGHT_BPS","inputs":[],"outputs":[{"name":"","type":"uint256","internalType":"uint256"}],"stateMutability":"view"},{"type":"function","name":"MIN_WEIGHT_BPS","inputs":[],"outputs":[{"name":"","type":"uint256","internalType":"uint256"}],"stateMutability":"view"},{"type":"function","name":"optimizeAllocation","inputs":[{"name":"input","type":"bytes","internalType":"bytes"}],"outputs":[{"name":"","type":"bytes","internalType":"bytes"}],"stateMutability":"pure"},{"type":"function","name":"rebalanceBasket","inputs":[{"name":"input","type":"bytes","internalType":"bytes"}],"outputs":[{"name":"","type":"bytes","internalType":"bytes"}],"stateMutability":"pure"},{"type":"function","name":"riskAdjustedYield","inputs":[{"name":"input","type":"bytes","internalType":"bytes"}],"outputs":[{"name":"","type":"bytes","internalType":"bytes"}],"stateMutability":"pure"}],"bytecode":{"object":"0x608060405234801561000f575f80fd5b506111818061001d5f395ff3fe608060405234801561000f575f80fd5b5060043610610055575f3560e01c806303acaa991461005957806314eff2ec146100755780633cbe5ec1146100955780637f26cdb41461009e578063f84a2730146100b1575b5f80fd5b61006261138881565b6040519081526020015b60405180910390f35b610088610083366004610fe4565b6100c4565b60405161006c9190611050565b6100626103e881565b6100886100ac366004610fe4565b6105b6565b6100886100bf366004610fe4565b610c02565b606060068210156100e3575060408051602081019091525f81526105b0565b5f61010684845f8181106100f9576100f961109b565b919091013560f81c919050565b90505f6101148260046110c3565b61011f9060046110da565b61012a9060026110da565b90508084101561014c5760405180602001604052805f815250925050506105b0565b5f8267ffffffffffffffff811115610166576101666110ed565b60405190808252806020026020018201604052801561018f578160200160208202803683370190505b5090505f8367ffffffffffffffff8111156101ac576101ac6110ed565b6040519080825280602002602001820160405280156101d5578160200160208202803683370190505b5090505f5b8481101561026657600861021989896101f48560026110c3565b6101ff9060046110da565b61020a9060016110da565b8181106100f9576100f961109b565b901b610236898961022b8560026110c3565b61020a9060046110da565b178382815181106102495761024961109b565b60209081029190910101528061025e81611101565b9150506101da565b505f5b848110156103055760086102a389896102838560026110c3565b61028e8a60026110c3565b6102999060046110da565b6101ff91906110da565b901b6102d589896102b58560026110c3565b6102c08a60026110c3565b6102cb9060046110da565b61020a91906110da565b178282815181106102e8576102e861109b565b6020908102919091010152806102fd81611101565b915050610269565b505f600861031989896101f48960046110c3565b901b61032b898961022b8960046110c3565b1790505f805b8681101561041b575f84828151811061034c5761034c61109b565b60200260200101518683815181106103665761036661109b565b6020026020010151116103b6578582815181106103855761038561109b565b602002602001015185838151811061039f5761039f61109b565b60200260200101516103b19190611119565b6103f4565b8482815181106103c8576103c861109b565b60200260200101518683815181106103e2576103e261109b565b60200260200101516103f49190611119565b90508381111561040857600192505061041b565b508061041381611101565b915050610331565b505f6104288760026110c3565b6104339060016110da565b67ffffffffffffffff81111561044b5761044b6110ed565b6040519080825280601f01601f191660200182016040528015610475576020820181803683370190505b50905081610483575f610486565b60015b60f81b815f8151811061049b5761049b61109b565b60200101906001600160f81b03191690815f1a9053505f826104bd57856104bf565b845b90505f5b888110156105a4578181815181106104dd576104dd61109b565b602002602001015160f81b838260026104f691906110c3565b6105019060016110da565b815181106105115761051161109b565b60200101906001600160f81b03191690815f1a905350600882828151811061053b5761053b61109b565b6020026020010151901c60f81b8382600261055691906110c3565b6105619060016110da565b61056c9060016110da565b8151811061057c5761057c61109b565b60200101906001600160f81b03191690815f1a9053508061059c81611101565b9150506104c3565b50909750505050505050505b92915050565b606060048210156105d5575060408051602081019091525f81526105b0565b5f6105eb84845f8181106100f9576100f961109b565b90506105f88160086110c3565b6106039060046110da565b83101561061f57505060408051602081019091525f81526105b0565b5f8167ffffffffffffffff811115610639576106396110ed565b604051908082528060200260200182016040528015610662578160200160208202803683370190505b5090505f8267ffffffffffffffff81111561067f5761067f6110ed565b6040519080825280602002602001820160405280156106a8578160200160208202803683370190505b5090505f5b8381101561075f5760186106dd88886106c78560046110c3565b6106d29060046110da565b61020a9060036110da565b901b601061070789896106f18660046110c3565b6106fc9060046110da565b61020a9060026110da565b901b600861071b8a8a6101f48760046110c3565b901b61072d8a8a61022b8760046110c3565b1717178382815181106107425761074261109b565b60209081029190910101528061075781611101565b9150506106ad565b505f5b8381101561083e57601861079c888861077c8560046110c3565b6107878960046110c3565b6107929060046110da565b6106d291906110da565b901b60106107d089896107b08660046110c3565b6107bb8a60046110c3565b6107c69060046110da565b6106fc91906110da565b901b60086107ef8a8a6107e48760046110c3565b61028e8b60046110c3565b901b61080c8a8a6108018760046110c3565b6102c08b60046110c3565b1717178282815181106108215761082161109b565b60209081029190910101528061083681611101565b915050610762565b505f8367ffffffffffffffff811115610859576108596110ed565b604051908082528060200260200182016040528015610882578160200160208202803683370190505b5090505f5b8481101561091b575f8382815181106108a2576108a261109b565b60200260200101516127106108b791906110da565b9050808583815181106108cc576108cc61109b565b60200260200101516127106108e191906110c3565b6108eb919061112c565b8383815181106108fd576108fd61109b565b6020908102919091010152508061091381611101565b915050610887565b505f6109288560086110c3565b67ffffffffffffffff811115610940576109406110ed565b6040519080825280601f01601f19166020018201604052801561096a576020820181803683370190505b5090505f5b85811015610bf6575f826109848360086110c3565b815181106109945761099461109b565b60200101906001600160f81b03191690815f1a9053505f826109b78360086110c3565b6109c29060016110da565b815181106109d2576109d261109b565b60200101906001600160f81b03191690815f1a9053505f826109f58360086110c3565b610a009060026110da565b81518110610a1057610a1061109b565b60200101906001600160f81b03191690815f1a90535060f881901b82610a378360086110c3565b610a429060036110da565b81518110610a5257610a5261109b565b60200101906001600160f81b03191690815f1a905350828181518110610a7a57610a7a61109b565b602002602001015160f81b82826008610a9391906110c3565b610a9e9060046110da565b81518110610aae57610aae61109b565b60200101906001600160f81b03191690815f1a9053506008838281518110610ad857610ad861109b565b6020026020010151901c60f81b82826008610af391906110c3565b610afe9060056110da565b81518110610b0e57610b0e61109b565b60200101906001600160f81b03191690815f1a9053506010838281518110610b3857610b3861109b565b6020026020010151901c60f81b82826008610b5391906110c3565b610b5e9060066110da565b81518110610b6e57610b6e61109b565b60200101906001600160f81b03191690815f1a9053506018838281518110610b9857610b9861109b565b6020026020010151901c60f81b82826008610bb391906110c3565b610bbe9060076110da565b81518110610bce57610bce61109b565b60200101906001600160f81b03191690815f1a90535080610bee81611101565b91505061096f565b50979650505050505050565b60606004821015610c21575060408051602081019091525f81526105b0565b5f610c3784845f8181106100f9576100f961109b565b90505f8167ffffffffffffffff811115610c5357610c536110ed565b604051908082528060200260200182016040528015610c7c578160200160208202803683370190505b5090505f5b82811015610ccf57610c948160c86110c3565b610ca0906103206110da565b828281518110610cb257610cb261109b565b602090810291909101015280610cc781611101565b915050610c81565b505f805b83811015610d1457828181518110610ced57610ced61109b565b602002602001015182610d0091906110da565b915080610d0c81611101565b915050610cd3565b50805f03610d355760405180602001604052805f81525093505050506105b0565b5f8367ffffffffffffffff811115610d4f57610d4f6110ed565b604051908082528060200260200182016040528015610d78578160200160208202803683370190505b5090505f5b84811015610e0e575f83858381518110610d9957610d9961109b565b6020026020010151612710610dae91906110c3565b610db8919061112c565b90506113888111610dda576103e88110610dd25780610dde565b6103e8610dde565b6113885b838381518110610df057610df061109b565b60209081029190910101525080610e0681611101565b915050610d7d565b505f805b85811015610e5357828181518110610e2c57610e2c61109b565b602002602001015182610e3f91906110da565b915080610e4b81611101565b915050610e12565b508061271014158015610e6557505f85115b15610eb957610e7681612710611119565b825f81518110610e8857610e8861109b565b6020026020010151610e9a91906110da565b825f81518110610eac57610eac61109b565b6020026020010181815250505b5f610ec58660026110c3565b67ffffffffffffffff811115610edd57610edd6110ed565b6040519080825280601f01601f191660200182016040528015610f07576020820181803683370190505b5090505f5b86811015610fd757838181518110610f2657610f2661109b565b602002602001015160f81b82826002610f3f91906110c3565b81518110610f4f57610f4f61109b565b60200101906001600160f81b03191690815f1a9053506008848281518110610f7957610f7961109b565b6020026020010151901c60f81b82826002610f9491906110c3565b610f9f9060016110da565b81518110610faf57610faf61109b565b60200101906001600160f81b03191690815f1a90535080610fcf81611101565b915050610f0c565b5098975050505050505050565b5f8060208385031215610ff5575f80fd5b823567ffffffffffffffff8082111561100c575f80fd5b818501915085601f83011261101f575f80fd5b81358181111561102d575f80fd5b86602082850101111561103e575f80fd5b60209290920196919550909350505050565b5f6020808352835180828501525f5b8181101561107b5785810183015185820160400152820161105f565b505f604082860101526040601f19601f8301168501019250505092915050565b634e487b7160e01b5f52603260045260245ffd5b634e487b7160e01b5f52601160045260245ffd5b80820281158282048414176105b0576105b06110af565b808201808211156105b0576105b06110af565b634e487b7160e01b5f52604160045260245ffd5b5f60018201611112576111126110af565b5060010190565b818103818111156105b0576105b06110af565b5f8261114657634e487b7160e01b5f52601260045260245ffd5b50049056fea2646970667358221220731acb931e09563e375d3a6ad978b11c1bce6ac1acb3aee1555d3a8f834c21cc64736f6c63430008140033","linkReferences":{}},"methodIdentifiers":{"MAX_WEIGHT_BPS()":"03acaa99","MIN_WEIGHT_BPS()":"3cbe5ec1","optimizeAllocation(bytes)":"f84a2730","rebalanceBasket(bytes)":"14eff2ec","riskAdjustedYield(bytes)":"7f26cdb4"},"id":9}