{"abi":[{"type":"constructor","inputs":[{"name":"_dotToken","type":"address","internalType":"address"}],"stateMutability":"nonpayable"},{"type":"function","name":"SUPPLY_RATE","inputs":[],"outputs":[{"name":"","type":"uint256","internalType":"uint256"}],"stateMutability":"view"},{"type":"function","name":"accrue","inputs":[{"name":"user","type":"address","internalType":"address"}],"outputs":[],"stateMutability":"nonpayable"},{"type":"function","name":"allowance","inputs":[{"name":"owner","type":"address","internalType":"address"},{"name":"spender","type":"address","internalType":"address"}],"outputs":[{"name":"","type":"uint256","internalType":"uint256"}],"stateMutability":"view"},{"type":"function","name":"approve","inputs":[{"name":"spender","type":"address","internalType":"address"},{"name":"value","type":"uint256","internalType":"uint256"}],"outputs":[{"name":"","type":"bool","internalType":"bool"}],"stateMutability":"nonpayable"},{"type":"function","name":"balanceOf","inputs":[{"name":"account","type":"address","internalType":"address"}],"outputs":[{"name":"","type":"uint256","internalType":"uint256"}],"stateMutability":"view"},{"type":"function","name":"decimals","inputs":[],"outputs":[{"name":"","type":"uint8","internalType":"uint8"}],"stateMutability":"view"},{"type":"function","name":"deposit","inputs":[{"name":"dotAmount","type":"uint256","internalType":"uint256"}],"outputs":[{"name":"shareMinted","type":"uint256","internalType":"uint256"}],"stateMutability":"nonpayable"},{"type":"function","name":"depositTime","inputs":[{"name":"","type":"address","internalType":"address"}],"outputs":[{"name":"","type":"uint256","internalType":"uint256"}],"stateMutability":"view"},{"type":"function","name":"deposited","inputs":[{"name":"","type":"address","internalType":"address"}],"outputs":[{"name":"","type":"uint256","internalType":"uint256"}],"stateMutability":"view"},{"type":"function","name":"dotToken","inputs":[],"outputs":[{"name":"","type":"address","internalType":"address"}],"stateMutability":"view"},{"type":"function","name":"getExchangeRate","inputs":[],"outputs":[{"name":"","type":"uint256","internalType":"uint256"}],"stateMutability":"view"},{"type":"function","name":"getTotalUnderlying","inputs":[],"outputs":[{"name":"","type":"uint256","internalType":"uint256"}],"stateMutability":"view"},{"type":"function","name":"name","inputs":[],"outputs":[{"name":"","type":"string","internalType":"string"}],"stateMutability":"view"},{"type":"function","name":"owner","inputs":[],"outputs":[{"name":"","type":"address","internalType":"address"}],"stateMutability":"view"},{"type":"function","name":"renounceOwnership","inputs":[],"outputs":[],"stateMutability":"nonpayable"},{"type":"function","name":"symbol","inputs":[],"outputs":[{"name":"","type":"string","internalType":"string"}],"stateMutability":"view"},{"type":"function","name":"totalSupply","inputs":[],"outputs":[{"name":"","type":"uint256","internalType":"uint256"}],"stateMutability":"view"},{"type":"function","name":"transfer","inputs":[{"name":"to","type":"address","internalType":"address"},{"name":"value","type":"uint256","internalType":"uint256"}],"outputs":[{"name":"","type":"bool","internalType":"bool"}],"stateMutability":"nonpayable"},{"type":"function","name":"transferFrom","inputs":[{"name":"from","type":"address","internalType":"address"},{"name":"to","type":"address","internalType":"address"},{"name":"value","type":"uint256","internalType":"uint256"}],"outputs":[{"name":"","type":"bool","internalType":"bool"}],"stateMutability":"nonpayable"},{"type":"function","name":"transferOwnership","inputs":[{"name":"newOwner","type":"address","internalType":"address"}],"outputs":[],"stateMutability":"nonpayable"},{"type":"function","name":"withdraw","inputs":[{"name":"shareAmount","type":"uint256","internalType":"uint256"}],"outputs":[{"name":"dotReturned","type":"uint256","internalType":"uint256"}],"stateMutability":"nonpayable"},{"type":"event","name":"Accrued","inputs":[{"name":"user","type":"address","indexed":true,"internalType":"address"},{"name":"accruedAmount","type":"uint256","indexed":false,"internalType":"uint256"}],"anonymous":false},{"type":"event","name":"Approval","inputs":[{"name":"owner","type":"address","indexed":true,"internalType":"address"},{"name":"spender","type":"address","indexed":true,"internalType":"address"},{"name":"value","type":"uint256","indexed":false,"internalType":"uint256"}],"anonymous":false},{"type":"event","name":"Deposited","inputs":[{"name":"user","type":"address","indexed":true,"internalType":"address"},{"name":"dotAmount","type":"uint256","indexed":false,"internalType":"uint256"},{"name":"shareMinted","type":"uint256","indexed":false,"internalType":"uint256"}],"anonymous":false},{"type":"event","name":"OwnershipTransferred","inputs":[{"name":"previousOwner","type":"address","indexed":true,"internalType":"address"},{"name":"newOwner","type":"address","indexed":true,"internalType":"address"}],"anonymous":false},{"type":"event","name":"Transfer","inputs":[{"name":"from","type":"address","indexed":true,"internalType":"address"},{"name":"to","type":"address","indexed":true,"internalType":"address"},{"name":"value","type":"uint256","indexed":false,"internalType":"uint256"}],"anonymous":false},{"type":"event","name":"Withdrawn","inputs":[{"name":"user","type":"address","indexed":true,"internalType":"address"},{"name":"shareBurned","type":"uint256","indexed":false,"internalType":"uint256"},{"name":"dotReturned","type":"uint256","indexed":false,"internalType":"uint256"}],"anonymous":false},{"type":"error","name":"ERC20InsufficientAllowance","inputs":[{"name":"spender","type":"address","internalType":"address"},{"name":"allowance","type":"uint256","internalType":"uint256"},{"name":"needed","type":"uint256","internalType":"uint256"}]},{"type":"error","name":"ERC20InsufficientBalance","inputs":[{"name":"sender","type":"address","internalType":"address"},{"name":"balance","type":"uint256","internalType":"uint256"},{"name":"needed","type":"uint256","internalType":"uint256"}]},{"type":"error","name":"ERC20InvalidApprover","inputs":[{"name":"approver","type":"address","internalType":"address"}]},{"type":"error","name":"ERC20InvalidReceiver","inputs":[{"name":"receiver","type":"address","internalType":"address"}]},{"type":"error","name":"ERC20InvalidSender","inputs":[{"name":"sender","type":"address","internalType":"address"}]},{"type":"error","name":"ERC20InvalidSpender","inputs":[{"name":"spender","type":"address","internalType":"address"}]},{"type":"error","name":"OwnableInvalidOwner","inputs":[{"name":"owner","type":"address","internalType":"address"}]},{"type":"error","name":"OwnableUnauthorizedAccount","inputs":[{"name":"account","type":"address","internalType":"address"}]}],"bytecode":{"object":"0x60a060405234801562000010575f80fd5b50604051620012683803806200126883398101604081905262000033916200014b565b336040518060400160405280601481526020017f4d6f6f6e6265616d20444f54204c656e64696e67000000000000000000000000815250604051806040016040528060088152602001671b5bdbdb991113d560c21b81525081600390816200009c91906200021a565b506004620000ab82826200021a565b5050506001600160a01b038116620000dc57604051631e4fbdf760e01b81525f600482015260240160405180910390fd5b620000e781620000fa565b506001600160a01b0316608052620002e2565b600580546001600160a01b038381166001600160a01b0319831681179093556040519116919082907f8be0079c531659141344cd1fd0a4f28419497f9722a3daafe3b4186f6b6457e0905f90a35050565b5f602082840312156200015c575f80fd5b81516001600160a01b038116811462000173575f80fd5b9392505050565b634e487b7160e01b5f52604160045260245ffd5b600181811c90821680620001a357607f821691505b602082108103620001c257634e487b7160e01b5f52602260045260245ffd5b50919050565b601f82111562000215575f81815260208120601f850160051c81016020861015620001f05750805b601f850160051c820191505b818110156200021157828155600101620001fc565b5050505b505050565b81516001600160401b038111156200023657620002366200017a565b6200024e816200024784546200018e565b84620001c8565b602080601f83116001811462000284575f84156200026c5750858301515b5f19600386901b1c1916600185901b17855562000211565b5f85815260208120601f198616915b82811015620002b45788860151825594840194600190910190840162000293565b5085821015620002d257878501515f19600388901b60f8161c191681555b5050505050600190811b01905550565b608051610f58620003105f395f818161017c015281816104dc015281816106bf015261079a0152610f585ff3fe608060405234801561000f575f80fd5b5060043610610132575f3560e01c806370a08231116100b4578063b40494e511610079578063b40494e514610296578063b6b55f251461029e578063cb13cddb146102b1578063dd62ed3e146102d0578063e6aa216c14610308578063f2fde38b14610310575f80fd5b806370a082311461023a578063715018a6146102625780638da5cb5b1461026a57806395d89b411461027b578063a9059cbb14610283575f80fd5b806326dd3d88116100fa57806326dd3d88146101db5780632e1a7d4d146101e4578063313ce567146101f757806346c64873146102065780636680ac0b14610225575f80fd5b806306fdde0314610136578063095ea7b31461015457806313205d2f1461017757806318160ddd146101b657806323b872dd146101c8575b5f80fd5b61013e610323565b60405161014b9190610d15565b60405180910390f35b610167610162366004610d7b565b6103b3565b604051901515815260200161014b565b61019e7f000000000000000000000000000000000000000000000000000000000000000081565b6040516001600160a01b03909116815260200161014b565b6002545b60405190815260200161014b565b6101676101d6366004610da3565b6103cc565b6101ba61041a81565b6101ba6101f2366004610ddc565b6103ef565b6040516012815260200161014b565b6101ba610214366004610df3565b60076020525f908152604090205481565b610238610233366004610df3565b6105a1565b005b6101ba610248366004610df3565b6001600160a01b03165f9081526020819052604090205490565b610238610679565b6005546001600160a01b031661019e565b61013e61068c565b610167610291366004610d7b565b61069b565b6101ba6106a8565b6101ba6102ac366004610ddc565b610735565b6101ba6102bf366004610df3565b60066020525f908152604090205481565b6101ba6102de366004610e13565b6001600160a01b039182165f90815260016020908152604080832093909416825291909152205490565b6101ba6108cb565b61023861031e366004610df3565b610911565b60606003805461033290610e44565b80601f016020809104026020016040519081016040528092919081815260200182805461035e90610e44565b80156103a95780601f10610380576101008083540402835291602001916103a9565b820191905f5260205f20905b81548152906001019060200180831161038c57829003601f168201915b5050505050905090565b5f336103c081858561094e565b60019150505b92915050565b5f336103d9858285610960565b6103e48585856109d6565b506001949350505050565b5f8082116104345760405162461bcd60e51b815260206004820152600d60248201526c4d75737420776974686472617760981b60448201526064015b60405180910390fd5b335f908152602081905260409020548211156104885760405162461bcd60e51b8152602060048201526013602482015272496e73756666696369656e742073686172657360681b604482015260640161042b565b5f61049260025490565b90505f61049d6106a8565b9050816104aa8286610e90565b6104b49190610ea7565b92506104c03385610a33565b60405163a9059cbb60e01b8152336004820152602481018490527f00000000000000000000000000000000000000000000000000000000000000006001600160a01b03169063a9059cbb906044016020604051808303815f875af115801561052a573d5f803e3d5ffd5b505050506040513d601f19601f8201168201806040525081019061054e9190610ec6565b50335f8181526006602090815260408083209290925581518781529081018690527f92ccf450a286a957af52509bc1c9939d1a6a481783e142e41e2499f0bb66ebc6910160405180910390a25050919050565b6001600160a01b0381165f90815260208190526040812054908190036105c5575050565b6001600160a01b0382165f908152600760205260408120546105e79042610ee5565b9050805f036105f557505050565b5f640757b12c008261060961041a86610e90565b6106139190610e90565b61061d9190610ea7565b905080156106735761062f8482610a6b565b836001600160a01b03167f603f16706d8facbdadddadc2f84737909caebc5d1f3adf53d69014f2d908611c8260405161066a91815260200190565b60405180910390a25b50505050565b610681610a9f565b61068a5f610acc565b565b60606004805461033290610e44565b5f336103c08185856109d6565b6040516370a0823160e01b81523060048201525f907f00000000000000000000000000000000000000000000000000000000000000006001600160a01b0316906370a0823190602401602060405180830381865afa15801561070c573d5f803e3d5ffd5b505050506040513d601f19601f820116820180604052508101906107309190610ef8565b905090565b5f8082116107785760405162461bcd60e51b815260206004820152601060248201526f135d5cdd0819195c1bdcda5d081113d560821b604482015260640161042b565b6040516323b872dd60e01b8152336004820152306024820152604481018390527f00000000000000000000000000000000000000000000000000000000000000006001600160a01b0316906323b872dd906064016020604051808303815f875af11580156107e8573d5f803e3d5ffd5b505050506040513d601f19601f8201168201806040525081019061080c9190610ec6565b505f61081760025490565b9050805f036108285782915061084c565b5f6108316106a8565b90508061083e8386610e90565b6108489190610ea7565b9250505b335f908152600660205260408120805485929061086a908490610f0f565b9091555050335f81815260076020526040902042905561088a9083610a6b565b604080518481526020810184905233917f73a19dd210f1a7f902193214c0ee91dd35ee5b4d920cba8d519eca65a7b488ca910160405180910390a250919050565b5f806108d660025490565b9050805f036108e8576103e891505090565b5f6108f16106a8565b905081610900826103e8610e90565b61090a9190610ea7565b9250505090565b610919610a9f565b6001600160a01b03811661094257604051631e4fbdf760e01b81525f600482015260240161042b565b61094b81610acc565b50565b61095b8383836001610b1d565b505050565b6001600160a01b038381165f908152600160209081526040808320938616835292905220545f1981101561067357818110156109c857604051637dc7a0d960e11b81526001600160a01b0384166004820152602481018290526044810183905260640161042b565b61067384848484035f610b1d565b6001600160a01b0383166109ff57604051634b637e8f60e11b81525f600482015260240161042b565b6001600160a01b038216610a285760405163ec442f0560e01b81525f600482015260240161042b565b61095b838383610bef565b6001600160a01b038216610a5c57604051634b637e8f60e11b81525f600482015260240161042b565b610a67825f83610bef565b5050565b6001600160a01b038216610a945760405163ec442f0560e01b81525f600482015260240161042b565b610a675f8383610bef565b6005546001600160a01b0316331461068a5760405163118cdaa760e01b815233600482015260240161042b565b600580546001600160a01b038381166001600160a01b0319831681179093556040519116919082907f8be0079c531659141344cd1fd0a4f28419497f9722a3daafe3b4186f6b6457e0905f90a35050565b6001600160a01b038416610b465760405163e602df0560e01b81525f600482015260240161042b565b6001600160a01b038316610b6f57604051634a1406b160e11b81525f600482015260240161042b565b6001600160a01b038085165f908152600160209081526040808320938716835292905220829055801561067357826001600160a01b0316846001600160a01b03167f8c5be1e5ebec7d5bd14f71427d1e84f3dd0314c0f7b2291e5b200ac8c7c3b92584604051610be191815260200190565b60405180910390a350505050565b6001600160a01b038316610c19578060025f828254610c0e9190610f0f565b90915550610c899050565b6001600160a01b0383165f9081526020819052604090205481811015610c6b5760405163391434e360e21b81526001600160a01b0385166004820152602481018290526044810183905260640161042b565b6001600160a01b0384165f9081526020819052604090209082900390555b6001600160a01b038216610ca557600280548290039055610cc3565b6001600160a01b0382165f9081526020819052604090208054820190555b816001600160a01b0316836001600160a01b03167fddf252ad1be2c89b69c2b068fc378daa952ba7f163c4a11628f55a4df523b3ef83604051610d0891815260200190565b60405180910390a3505050565b5f6020808352835180828501525f5b81811015610d4057858101830151858201604001528201610d24565b505f604082860101526040601f19601f8301168501019250505092915050565b80356001600160a01b0381168114610d76575f80fd5b919050565b5f8060408385031215610d8c575f80fd5b610d9583610d60565b946020939093013593505050565b5f805f60608486031215610db5575f80fd5b610dbe84610d60565b9250610dcc60208501610d60565b9150604084013590509250925092565b5f60208284031215610dec575f80fd5b5035919050565b5f60208284031215610e03575f80fd5b610e0c82610d60565b9392505050565b5f8060408385031215610e24575f80fd5b610e2d83610d60565b9150610e3b60208401610d60565b90509250929050565b600181811c90821680610e5857607f821691505b602082108103610e7657634e487b7160e01b5f52602260045260245ffd5b50919050565b634e487b7160e01b5f52601160045260245ffd5b80820281158282048414176103c6576103c6610e7c565b5f82610ec157634e487b7160e01b5f52601260045260245ffd5b500490565b5f60208284031215610ed6575f80fd5b81518015158114610e0c575f80fd5b818103818111156103c6576103c6610e7c565b5f60208284031215610f08575f80fd5b5051919050565b808201808211156103c6576103c6610e7c56fea26469706673582212207f449a2bc11baa734c6a05f03104d2bb02f969b85c2d65afb57ee32d0200358764736f6c63430008140033","linkReferences":{}},"methodIdentifiers":{"SUPPLY_RATE()":"26dd3d88","accrue(address)":"6680ac0b","allowance(address,address)":"dd62ed3e","approve(address,uint256)":"095ea7b3","balanceOf(address)":"70a08231","decimals()":"313ce567","deposit(uint256)":"b6b55f25","depositTime(address)":"46c64873","deposited(address)":"cb13cddb","dotToken()":"13205d2f","getExchangeRate()":"e6aa216c","getTotalUnderlying()":"b40494e5","name()":"06fdde03","owner()":"8da5cb5b","renounceOwnership()":"715018a6","symbol()":"95d89b41","totalSupply()":"18160ddd","transfer(address,uint256)":"a9059cbb","transferFrom(address,address,uint256)":"23b872dd","transferOwnership(address)":"f2fde38b","withdraw(uint256)":"2e1a7d4d"},"id":8}