{
  "_format": "hh-sol-artifact-1",
  "contractName": "MockXCMPrecompile",
  "sourceName": "contracts/mocks/MockXCMPrecompile.sol",
  "abi": [
    {
      "inputs": [
        {
          "internalType": "uint32",
          "name": "",
          "type": "uint32"
        },
        {
          "internalType": "bytes",
          "name": "",
          "type": "bytes"
        }
      ],
      "name": "sendXCM",
      "outputs": [],
      "stateMutability": "pure",
      "type": "function"
    },
    {
      "inputs": [
        {
          "internalType": "uint32",
          "name": "",
          "type": "uint32"
        },
        {
          "internalType": "uint256",
          "name": "",
          "type": "uint256"
        },
        {
          "internalType": "address",
          "name": "",
          "type": "address"
        }
      ],
      "name": "teleportAsset",
      "outputs": [],
      "stateMutability": "pure",
      "type": "function"
    }
  ],
  "bytecode": "0x608060405234801561001057600080fd5b506102a5806100206000396000f3fe608060405234801561001057600080fd5b50600436106100365760003560e01c8063599b20fd1461003b5780636b206fc714610057575b600080fd5b61005560048036038101906100509190610157565b610073565b005b610071600480360381019061006c919061020f565b610078565b005b505050565b505050565b600080fd5b600080fd5b600063ffffffff82169050919050565b6100a081610087565b81146100ab57600080fd5b50565b6000813590506100bd81610097565b92915050565b6000819050919050565b6100d6816100c3565b81146100e157600080fd5b50565b6000813590506100f3816100cd565b92915050565b600073ffffffffffffffffffffffffffffffffffffffff82169050919050565b6000610124826100f9565b9050919050565b61013481610119565b811461013f57600080fd5b50565b6000813590506101518161012b565b92915050565b6000806000606084860312156101705761016f61007d565b5b600061017e868287016100ae565b935050602061018f868287016100e4565b92505060406101a086828701610142565b9150509250925092565b600080fd5b600080fd5b600080fd5b60008083601f8401126101cf576101ce6101aa565b5b8235905067ffffffffffffffff8111156101ec576101eb6101af565b5b602083019150836001820283011115610208576102076101b4565b5b9250929050565b6000806000604084860312156102285761022761007d565b5b6000610236868287016100ae565b935050602084013567ffffffffffffffff81111561025757610256610082565b5b610263868287016101b9565b9250925050925092509256fea264697066735822122097c62567eeb323a20066075eb6a3fa20b220d96551496a9a0e99d4653741d26464736f6c63430008140033",
  "linkReferences": {},
  "deployedLinkReferences": {}
}