{
  "_format": "hh-sol-artifact-1",
  "contractName": "MockXCMPrecompile",
  "sourceName": "contracts/mocks/MockXCMPrecompile.sol",
  "abi": [
    {
      "inputs": [
        {
          "internalType": "uint32",
          "name": "",
          "type": "uint32"
        },
        {
          "internalType": "bytes",
          "name": "",
          "type": "bytes"
        }
      ],
      "name": "sendXCM",
      "outputs": [],
      "stateMutability": "pure",
      "type": "function"
    },
    {
      "inputs": [
        {
          "internalType": "uint32",
          "name": "",
          "type": "uint32"
        },
        {
          "internalType": "uint256",
          "name": "",
          "type": "uint256"
        },
        {
          "internalType": "address",
          "name": "",
          "type": "address"
        }
      ],
      "name": "teleportAsset",
      "outputs": [],
      "stateMutability": "pure",
      "type": "function"
    }
  ],
  "bytecode": "0x608060405234801561001057600080fd5b5061017c806100206000396000f3fe608060405234801561001057600080fd5b50600436106100365760003560e01c8063599b20fd1461003b5780636b206fc714610050575b600080fd5b61004e610049366004610077565b505050565b005b61004e6100493660046100c3565b803563ffffffff8116811461007257600080fd5b919050565b60008060006060848603121561008c57600080fd5b6100958461005e565b92506020840135915060408401356001600160a01b03811681146100b857600080fd5b809150509250925092565b6000806000604084860312156100d857600080fd5b6100e18461005e565b9250602084013567ffffffffffffffff808211156100fe57600080fd5b818601915086601f83011261011257600080fd5b81358181111561012157600080fd5b87602082850101111561013357600080fd5b602083019450809350505050925092509256fea2646970667358221220f9b98ed3cb01ceba909dc9789dd315512f53a927b415d0f8274dc512555f124764736f6c63430008140033",
  "linkReferences": {},
  "deployedLinkReferences": {}
}